:020000040800F2
:1000000028220020B12300083B0200083D0200081E
:1000100041020008450200084902000800000000F3
:100020000000000000000000000000004D02000879
:100030004F02000800000000510200084D23000894
:10004000CB230008CB230008CB230008CB230008D8
:10005000CB230008CB230008CB230008CB230008C8
:10006000CB230008CB230008CB230008CB230008B8
:10007000CB230008CB230008CB230008CB230008A8
:10008000CB230008CB230008CB230008CB23000898
:10009000CB230008CB230008CB230008CB23000888
:1000A000CB230008CB230008CB230008CB23000878
:1000B000CB23000889050008CB230008CB230008C8
:1000C000CB230008CB230008CB230008CB23000858
:1000D000CB230008CB210008CB23000871220008A5
:1000E000CB230008CB230008CB230008CB23000838
:1000F000CB230008CB230008CB230008CB23000828
:10010000CB230008CB230008CB230008CB23000817
:10011000CB230008CB230008CB2300088B05000865
:10012000CB230008CB230008CB230008CB230008F7
:1001300000F002F800F06AF80AA090E8000C82448F
:100140008344AAF10107DA4501D100F05FF8AFF26C
:10015000090EBAE80F0013F0010F18BFFB1A43F0A5
:1001600001031847A85E0000C85E00000A444FF073
:10017000000C10F8013B13F0070408BF10F8014B06
:100180001D1108BF10F8015B641E05D010F8016B4B
:10019000641E01F8016BF9D113F0080F1EBF10F8AF
:1001A000014BAD1C0C1B09D16D1E58BF01F801CBD2
:1001B000FAD505E014F8016B01F8016B6D1EF9D555
:1001C0009142D6D37047000000230024002500266A
:1001D000103A28BF78C1FBD8520728BF30C148BFAA
:1001E0000B607047662905F0B882642903F0228607
:1001F000002070471FB504F0F3F90400002000212F
:1002000004F044FFE0601FBD10B510BD04F0ECFA2F
:100210001146FFF7EFFF00F008F804F00AFB03B403
:10022000FFF7F2FF03BC01F0C1FF01F0E1FE00F0B7
:1002300001F901E000F040F9FCE7704700BFFEE77C
:1002400000BFFEE700BFFEE700BFFEE77047704754
:10025000704700000CB50020019000906C480068C9
:1002600040F480306A49086000BF6948006800F4C3
:10027000003000900198401C0190009818B9019836
:10028000B0F5A06FF1D16248006800F4003010B101
:100290000120009001E0002000900098012843D147
:1002A0005C48006840F010005A4908600846006841
:1002B00020F0030008600846006840F00200086073
:1002C00053484068524948600846406848600846BC
:1002D000406840F4806048600846406820F47C1024
:1002E00048600846406840F4E810486008460068E6
:1002F00040F08070086000BF4548006800F0007062
:100300000028F9D04248406820F003004049486086
:100310000846406840F00200486000BF3C48406822
:1003200000F00C000828F9D10CBD10B5FFF792FFC2
:1003300010BD10B53648006840F00100344908602F
:10034000084640683449084031494860084600681A
:10035000324908402E4908600846006820F4802091
:1003600008600846406820F4FE0048604FF41F0013
:100370008860FFF7DAFF4FF000602949086010BD80
:1003800010B5002100200022214B5B6803F00C0116
:1003900021B1042906D0082928D107E0214B224C9D
:1003A000236027E01F4B204C236023E0184B5B6841
:1003B00003F47010164B5B6803F48032022303EBE6
:1003C000904022B9194B4343174C23600DE0104B6A
:1003D0005B6803F4003323B1144B4343124C236096
:1003E00003E0104B4343104C236003E00D4B0E4CD5
:1003F000236000BF00BF064B5B68C3F303130C4CC4
:10040000E15C094B1B68CB40074C236010BD00002A
:1004100000100240002002400000FFF8FFFFF6FE3F
:1004200008ED00E000127A000000002000093D0005
:100430000400002010B501F07FF800F02DFB00F063
:10044000A3FB10BD10B52248008800B110BD1920D3
:100450001F49088000F05BFC01F0B8FC00BFF5E725
:1004600010B51B48408800B110BD322018494880A3
:1004700001F0C4FC00BFF7E71548808800B1704761
:1004800064201349888000BFF9E71148C08800B193
:1004900070474FF4FA700E49C88000BFF8E710B5F6
:1004A0000B48008900B110BD4FF47A7008490881EB
:1004B00001F091F800BFF6E710B5FFF7C3FFFFF7B3
:1004C000CFFFFFF7D9FFFFF7E0FFFFF7E8FF10BD11
:1004D000BA1B00207FB505460C460121022002F020
:1004E0001EFBADF80850ADF804400020ADF80A003E
:1004F000ADF8060001A92C4802F03CFC012211468F
:10050000294802F0AEFF1D208DF8000000208DF874
:10051000010003208DF8020001208DF803006846D9
:1005200001F06BFF0121204802F080FF7FBD7FB505
:1005300005460C460121202002F0F1FAADF80450E6
:10054000ADF800400020ADF80600ADF802006946A5
:10055000164802F00FFC01221146144802F081FFF8
:100560000121124802F062FF37208DF80C000120B3
:100570008DF80D0002208DF80E0001208DF80F007F
:1005800003A801F03AFF7FBD704710B5012107486D
:1005900003F015FA38B10121044803F021FA0021D3
:1005A000024802F043FF10BD000400400014004068
:1005B00010B54FF40051FE4802F095F84FF4805109
:1005C000FB4802F090F84FF48051F94802F08DF8A2
:1005D0004FF40051F64802F088F810BD10B54FF402
:1005E0000051F34802F07FF84FF48051F04802F0D8
:1005F0007CF84FF48051EE4802F075F810BD10B54C
:100600004FF40051EA4802F06EF84FF40051E84808
:1006100002F06BF810BD2DE9F04105462C464FF471
:100620000051E34802F061F800261CE0274607F07D
:100630008007802F04D17901DD4802F054F804E0EE
:100640004FF48051DA4802F050F86006040E4FF47F
:100650000051D74802F047F84FF40051D44802F057
:1006600044F8701CC6B2082EE0DBBDE8F08110B57E
:100670000446FFF79DFF7820FFF7CDFFFFF7BFFF90
:100680000020FFF7C8FFFFF7BAFF2046FFF7C3FFC0
:10069000FFF7B5FFFFF7A2FF10BD10B50446FFF747
:1006A00087FF7820FFF7B7FFFFF7A9FF4020FFF78C
:1006B000B2FFFFF7A4FF2046FFF7ADFFFFF79FFF54
:1006C000FFF78CFF10BD70B504460D461DB1E0B2BA
:1006D000FFF7E3FF02E0E0B2FFF7C9FF70BD70B5BE
:1006E0000646002418E004F1B0000021FFF7EBFFFC
:1006F00000210846FFF7E7FF00211020FFF7E3FF86
:10070000002505E001213046FFF7DDFF681CC5B27A
:10071000802DF7DB601CC4B2082CE4DB70BD06E062
:1007200041F6650100E0491E0029FCD1401E002869
:10073000F6D17047014605E0002001E0421CD0B22E
:100740007B28FBDB0A1EA1F10101F5D1704770B5D2
:1007500004460D4605F1B0000021FFF7B4FF10215B
:1007600041EA14100021FFF7AEFF04F00F00002152
:10077000FFF7A9FF70BD10B500218D20FFF7A3FF83
:1007800000211420FFF79FFF0021AF20FFF79BFF00
:1007900010BD10B500218D20FFF795FF002110201E
:1007A000FFF791FF0021AE20FFF78DFF10BD70B560
:1007B000002418E004F1B0000021FFF784FF0021BD
:1007C0000846FFF780FF00211020FFF77CFF00257F
:1007D00005E001210020FFF776FF681CC5B2802DDF
:1007E000F7DB601CC4B2082CE4DB70BD70B50024DC
:1007F00018E004F1B0000021FFF765FF0021084672
:10080000FFF761FF00211020FFF75DFF002505E0E5
:1008100001210846FFF757FF681CC5B2802DF7DBA2
:10082000601CC4B2082CE4DB70BD2DE9F04707461C
:100830000E469046994600250024A8F12000C5B236
:100840007F2F02DD0027B01CC6B2B9F1100F24D1F2
:1008500031463846FFF77BFF002408E004EB051122
:10086000544A505C0121FFF72EFF601CC4B2082CD3
:10087000F4DB701CC1B23846FFF769FF002409E0C1
:1008800004EB051108314B4A505C0121FFF71BFFB7
:10089000601CC4B2082CF3DB12E031463846FFF787
:1008A00056FF00240AE005EB4501434A02EB4101F3
:1008B000085D0121FFF707FF601CC4B2062CF2DBC4
:1008C000BDE8F08710B50246012000E050430B1E42
:1008D000A1F10104E1B2F9D110BD10B50246012029
:1008E00000E050430B1EA1F10104E1B2F9D110BDAB
:1008F0002DE9FF5F074691461E460E9D4FF0000A08
:10090000002435E0301B401EC1B20A20FFF7DAFF99
:10091000B9FBF0F00A21B0FBF1F201FB1208BAF1C9
:10092000000F14D1701EA04211DDB8F1000F0CD1E0
:10093000AB4605EBDB71491001FB0471C8B22B46D5
:1009400020220199FFF771FF10E04FF0010AAB463A
:1009500005EBDB71491001FB0471C8B208F13001ED
:10096000CAB22B460199FFF760FF00BF601CC4B2FA
:10097000B442C7DBBDE8FF9F2DE9F04104460F46B6
:100980001546984600260FE0AA5D434639462046A4
:10099000FFF74BFF04F10800C4B2782C02DD0024FD
:1009A000B81CC7B2701CC6B2A85D0028ECD105E027
:1009B000000C0140865900085E570008BDE8F08130
:1009C0002DE9F04180460E46154600273146404647
:1009D000FFF7BDFE00240AE0D94A02EB8511085D4D
:1009E0000121FFF770FE781CC7B2601CC4B2102C46
:1009F000F2DB701CC1B24046FFF7A9FE00240CE0F8
:100A00006900491CCE4A02EB4111085D0121FFF744
:100A10005AFE781CC7B2601CC4B2102CF0DBBDE8D3
:100A2000F0812DE9F05F06460F4690461C46DDF842
:100A300028A04FF0000BE11704EB5171C910A4EB93
:100A4000C10131B92046E11704EB5171C1F3C7056B
:100A500006E02046E11704EB5171C910491CCDB2E4
:100A60003D4615E029463046FFF771FEB1460BE0E2
:100A700059460BF1010B1AF801000121FFF723FE83
:100A800009F1010000F0FF09C145F1DB681CC5B2A6
:100A9000A542E7DBBDE8F09F08B50021AE20FFF7D7
:100AA00012FE00210846FFF70EFE00211020FFF77E
:100AB0000AFE00214020FFF706FE0021B020FFF7CC
:100AC00002FE00218120FFF7FEFD0021FF20FFF73D
:100AD000FAFD0021A120FFF7F6FD0021A620FFF777
:100AE000F2FD0021A820FFF7EEFD00213F20FFF7D7
:100AF000EAFD0021C820FFF7E6FD0021D320FFF723
:100B0000E2FD00210846FFF7DEFD0021D520FFF7BA
:100B1000DAFD00218020FFF7D6FD0021D820FFF765
:100B2000D2FD00210520FFF7CEFD0021D920FFF7DF
:100B3000CAFD0021F120FFF7C6FD0021DA20FFF7F2
:100B4000C2FD00211220FFF7BEFD0021DB20FFF7D0
:100B5000BAFD00213020FFF7B6FD00218D20FFF700
:100B6000B2FD00211420FFF7AEFD0021AF20FFF7FA
:100B7000AAFDFFF71CFE73480823602200210090A5
:100B80002020FFF74EFF08BD08B5FFF710FE6E48A6
:100B900002231022002100900846FFF742FF6B4815
:100BA00002235022002100904020FFF73AFF6848BE
:100BB00006238022022100906020FFF732FF08BD4B
:100BC00011B583B000200190029000240BE09DF845
:100BD0000C0000F0010001A908559DF80C00401020
:100BE0000390601CC4B2082CF1DB9DF8040060B1D6
:100BF000584804231022022100900020FFF711FF23
:100C00000421554801F06FFD0BE0544804231022E5
:100C1000022100900020FFF704FF04214E4801F05C
:100C200064FD9DF80500D8B14D48007840B3002020
:100C30004B4908704B480423802202210090702009
:100C4000FFF7EFFE4FF48071474801F04CFDC820DC
:100C500001F09EFB4FF48071434801F046FD0FE028
:100C600001203F490870414804238022022100905E
:100C70007020FFF7D6FE4FF480713B4801F035FD40
:100C80009DF8060040B13A480423702202210090EA
:100C90006020FFF7C6FE07E03648042370220221D9
:100CA00000906020FFF7BDFE9DF8070068B1324854
:100CB00004232022022100901020FFF7B2FE4FF4FF
:100CC0000071294801F00FFD0CE02C48042320227C
:100CD000022100901020FFF7A4FE4FF4007122487B
:100CE00001F003FD9DF8080040B12548042330229F
:100CF000022100902020FFF794FE07E01F48042304
:100D00003022022100902020FFF78BFE1FBD10B57E
:100D100010231C48002102681420FFF72DFE102329
:100D200018480268121D00215220FFF725FE1023EB
:100D300014480268163202213020FFF71DFE10BD54
:100D400014000020140100201405002034050020A8
:100D500094040020F403002000100140140400203B
:100D600058050020B4030020000C0140D4030020EB
:100D7000540400203404002094030020E0050020E7
:100D8000740400205405002030B50C46012213E005
:100D900050F82230114605E04D1E50F8255040F81D
:100DA0002150491E002904DD4D1E50F825509D425A
:100DB000F2DC40F82130521CA242E9DB30BDF0B534
:100DC00003461546012217E051F82240104605E07F
:100DD000461E51F8266041F82060401E002808DDBC
:100DE00053F82470461E51F8266053F82660B74227
:100DF000EEDC41F82040521CAA42E5DBF0BD2DE9B3
:100E0000F04F05460C4692469846294650462268C1
:100E1000FFF7D5FF4FF0FF3621E0D4F800B0701C8B
:100E20002060771C18E055F82710701C10B94FF09F
:100E3000FF3001E055F82600A1EB0009C14503DCB5
:100E4000C8F10000814506DA55F827102268501CC9
:100E5000206045F822107F1C5F45E4DB761C20688B
:100E6000B042DADC28462168FFF78EFFBDE8F08F3C
:100E70002DE9F04705461E46089C01204FF000086A
:100E8000002300274FF0040C4FF00009C1F8009038
:100E90003DE0BFBB52F82090A14509DD52F820A0EB
:100EA000A0F1010952F82990CA4501DD4FF001086F
:100EB000B8F1010F2AD152F82090A14505DA634517
:100EC00003DA4FF00008002320E063451BD152F8FD
:100ED0002090A1451ADAA0F1010952F82990A14504
:100EE00014DBD1F80090B9F10F0F07DAD1F800A0A8
:100EF0000AF10109C1F8009045F82A00002398463C
:100F0000082703E001E05B1C00E07F1E401CA6F107
:100F100001098145BDDCBDE8F0872DE9F8470546AC
:100F20000C4616461F46DDE90A9ADDF824803B464A
:100F3000324621462846CDF80080FFF799FF4B4600
:100F4000324621462846FFF75AFF2068504501DA0D
:100F5000206800E050462060BDE8F8872DE9FF4F8B
:100F6000A7B08346884600202690002405E05BF861
:100F70002410269808442690641C4445F7DB2698E4
:100F8000B0FBF8F02690002408E05BF824102698C7
:100F9000081A4042D54941F82400641C4445F4DB5A
:100FA000002417E0D14951F824200B46611C53F866
:100FB00021100A44A11C53F821100A44E11C53F8E3
:100FC00021105018C11700EB917189101A4642F890
:100FD0002410641C922CE5DB0027002404E0C348A5
:100FE00050F824000744641C962CF8DB962097FBED
:100FF000F0F71E2F00DA1E273C2F00DD3C270024CF
:1010000004E0002015A941F82400641C0F2CF8DB33
:101010000F2004219623B54ACDE90071029024A93E
:1010200015A8FFF77AFF002014902498022821DBEE
:1010300001240BE015A850F82410601E15AA52F8E0
:101040002000091A149808441490641C24988442BF
:10105000F0DB2498401E149991FBF0F0149040F6B8
:10106000B831149891FBF0F1359801600121369860
:10107000017005E09E4935980160002136980170A5
:1010800000240BE05BF82400984941F824002998DB
:1010900050F82400974941F82400641C4445F1DBD2
:1010A00024982590002009900026002404E00020C8
:1010B0000AA941F82400641C052CF8DB00240EE08A
:1010C00015A850F82400962808DD8B492A9801605D
:1010D0000021349801702BB0BDE8F08F641C259876
:1010E0008442EDDB0024A3E04FF07F40119010908C
:1010F00015A9601C51F8200051F82410401A03284B
:101100007EDD15A850F8245016E0784850F82510D8
:101110001098814204DD754850F8250010900F9515
:10112000744850F825101198814204DD714850F838
:1011300025001190AA466D1C15A9601C51F82000CD
:10114000A842E2DC601C51F820006A4951F82000F6
:1011500015A951F82410674A52F82110401A15A910
:1011600051F82410AAEB01014843139015A9601C03
:1011700051F8200051F82410411A139890FBF1F017
:1011800015A951F8241052F8211008441390104664
:1011900050F82A101398081A139015A9601C51F8DA
:1011A0002000524951F8200015A951F824104F4A47
:1011B00052F82110401A15A951F824200F99891AC4
:1011C0004843129015A9601C51F8200051F82410D2
:1011D000411A129890FBF1F015A951F82410434AD6
:1011E00052F8211008441290104650F82A10129814
:1011F000081A1290109913984843C011089000E003
:1012000015E0DDE911104843C01107900798002848
:101210000DDD052E0BDA089848B164210898484383
:10122000079990FBF1F00AA941F82600761C641C8E
:101230002598401EA0423FF757AF31460AA8FFF756
:10124000A3FD304606EBD0714FEA6109B9F1010FF9
:101250000CDDA9F101010AAA52F8211052F8292047
:10126000881800EBD0714910099103E00AA850F8E2
:1012700029000990099802282FDD0998B8282CDA4E
:10128000099804F097F81D49029004F0F3F81C49FE
:10129000039003F0B1FF0590099804F08BF80290D9
:1012A000099804F087F81749009004F0E3F80190DA
:1012B000029904F0DFF81449039003F09DFF0490B5
:1012C000059903F02BFF1149069003F027FF2A9997
:1012D000086001213498017005E007492A980160EF
:1012E00000213498017000BFF5E600001C060020C4
:1012F00019FCFFFF7408002000C079C4FED4F2413D
:101300000000C842713D34C200401C46A4B0BD423A
:1013100070B505460C4600F0A8FCAE2000F0B8FC05
:1013200000F0F8FC00B111E0284600F0B1FC00F03C
:10133000F1FC00B10AE0204600F0AAFC00F0EAFC53
:1013400000B103E000F067FC012070BD00F063FC19
:101350000020FAE770B505460C4600F086FCAE208A
:1013600000F096FC00F0D6FC00B118E0284600F032
:101370008FFC00F0CFFC00B111E000F076FCAF2054
:1013800000F086FC00F0C6FC00B108E000F0A5FC0F
:10139000207000F0EDFC00F03EFC012070BD00F07C
:1013A0003AFC0020FAE710B5C0210220FFF7B0FF99
:1013B00008B9002010BD00210320FFF7A9FF08B9DC
:1013C0000020F7E700210420FFF7A2FF08B9002062
:1013D000F0E700210520FFF79BFF08B90020E9E7AF
:1013E00000210620FFF794FF08B90020E2E76F21F3
:1013F0000820FFF78DFF08B90020DBE70321092053
:10140000FFF786FF08B90020D4E72F210A20FFF755
:101410007FFF08B90020CDE717210C20FFF778FFE8
:1014200008B90020C6E717210D20FFF771FF08B9A2
:101430000020BFE77F211020FFF76AFF08B90020D6
:10144000B8E70120B6E7F8B504460D46002028604D
:1014500020606946FFF77EFF69460120FFF77AFFAB
:1014600000F003FCAE2000F013FC00F053FC18B1B8
:10147000F9A002F0BFFC4FE0072000F009FC00F0EB
:1014800049FC00B148E000F0F0FBAF2000F000FCA8
:1014900000F040FC00B13FE000F01FFC064600F009
:1014A00053FC360420683044206000F016FC0646E9
:1014B00000F04AFC360220683044206000F00DFC49
:1014C000064600F041FC20683044206000F005FC36
:1014D000064600F039FC360428683044286000F0E5
:1014E000FCFB064600F030FC3602286830442860D9
:1014F00000F0F3FB064600F027FC28683044286023
:101500002068C0F3110020602868C0F31100286033
:1015100000F081FB0120F8BD00F07DFB0020FAE720
:1015200010B500F078FB40210920FFF7F1FE08B963
:10153000002010BD0120FCE73EB50020CB4908602B
:10154000CB48CC4908600020CB4908609620CB49A5
:101550000860FFF7E5FFCA490020FFF7FBFEFFF731
:1015600022FF002420E0C74A02EB8401C64A02EBB6
:101570008400FFF768FFC44850F82400BD4909689B
:10158000884204D2C04850F82400BA490860BE48D6
:1015900050F82400B8490968884204D9BA4850F87C
:1015A0002400B5490860641CB44800688442DADB52
:1015B000B54850F82400B5490860B548B549B64A61
:1015C000B64BCDE900210290AF4AAC480168AD4866
:1015D000FFF7C4FC3EBDFEB50024A548A549086040
:1015E0000020A5490860322428E0A74850F82410BC
:1015F000A4F13200A44A42F82010A24850F8241066
:10160000A4F132009F4A42F820109F4850F824006D
:1016100098490968884204D29B4850F824009549AB
:101620000860994850F8240093490968884204D911
:10163000954850F8240090490860641C962CD4DB2F
:10164000642481E0601E904951F820008F490860B1
:101650008C4A02EB84018C4A02EB8400FFF7F3FE14
:10166000894850F824008949096888423CD986494C
:1016700051F82410854A1268881A03F0B3FE88498D
:1016800008607D4909687B4A1268881A03F0AAFE3F
:10169000054629468248006803F0AEFD804908608F
:1016A00080497F48006803F0E5FE7D4908606F4887
:1016B000006803F097FE054679480168284603F064
:1016C000D7FF7749086000217548006803F09EFE47
:1016D00003D200206549086035E07148006803F0D6
:1016E0004DFE624908602EE0674951F82410674AB0
:1016F0001268501A03F076FE694908605E4909686D
:101700005C4A1268881A03F06DFE05462946644853
:10171000006803F071FD6249086062496048006832
:1017200003F0A8FE5E4908600846006803F026FE44
:101730004E49096808444D49086008460068FF287A
:1017400001D9FF200860641C962CFFF67BAF50483F
:101750005049514A514BCDE9002102904A4A47482D
:1017600001684848FFF7FAFB49480078012871D121
:1017700048480068BE286DDA46480068282869DDB8
:1017800000204949086049480068042819D101200F
:10179000474908600020454908600C240EE0454890
:1017A00050F824000A303B490968884205DD0020D2
:1017B0003F49086004203D490860641C102CEEDBA2
:1017C00004E03A480068401C38490860384800681E
:1017D000002821D1002406E03649601C51F8200081
:1017E00041F82400641C0F2CF6DB2A4800683149BC
:1017F000C86331480068102804DA2F480068401C8C
:101800002D49086000202D4908602B4800680228F7
:1018100003DA00202A4908608EE02748006804287F
:1018200012DA0E2408E0234850F8240023490968FE
:10183000084422490860641C102CF4DB1F4800682F
:1018400040101F49086077E01B48006808284ADA02
:101850000C2440E074E000007265616420666966F3
:101860006F206661696C656400000000AC050020B3
:10187000FFFF0300A0050020A40500205C05002058
:101880006D0500207C0F0020D4110020A805002049
:101890006C0500206805002064050020600500201C
:1018A000B005002000007F439C0500208805002033
:1018B000900500202C1400208405002070050020D5
:1018C00074050020B54850F82400B549096808445B
:1018D000B3490860641C102CF4DBB1480068801028
:1018E000B049086028E0B0480068102812DA0824DF
:1018F00008E0AA4850F82400A94909680844A84902
:101900000860641C102CF4DBA5480068C010A549D1
:10191000086011E0002408E0A04850F82400A04925
:10192000096808449E490860641C102CF4DB9C483C
:10193000006800119B49086000209C49086011E084
:1019400000209B4908609B480068042805D10020BE
:10195000944908609449086004E096480068401C77
:101960009449086094480078012872D193499448BA
:10197000006803F04BFE6CD2002092490860924848
:10198000006804281ED101209049086000208E497B
:1019900008600C2413E08E4951F824008D4903F0AF
:1019A00067FE054686480168284603F02FFD05D2EC
:1019B000002086490860042083490860641C102CBC
:1019C000E9DB04E080480068401C7F4908607F48EC
:1019D0000068002821D1002406E07D49601C51F8F0
:1019E000200041F82400641C0F2CF6DB74480068CA
:1019F0007749C86378480068102804DA7648006898
:101A0000401C7549086000207449086072480068ED
:101A1000022803DA00207249086067E06E48006817
:101A2000042817DA0E2409E0694850F824106B489E
:101A3000006803F073FB69490860641C102CF3DB39
:101A40004FF080416548006803F0D6FB64490860A8
:101A50004CE04FE060480068082816DA0C2409E0E2
:101A60005B4850F824105D48006803F057FB5B4961
:101A70000860641C102CF3DB4FF08141574800686C
:101A800003F0BAFB5649086030E05348006810285C
:101A900016DA082409E04E4850F824104F48006830
:101AA00003F03CFB4D490860641C102CF3DB4FF045
:101AB00082414A48006803F09FFB4949086015E0ED
:101AC000002409E0424850F824104448006803F01C
:101AD00025FB42490860641C102CF3DB4FF0834166
:101AE0003E48006803F088FB3D4908600020374904
:101AF000086011E00020344908603248006804287A
:101B000005D10020364908603349086004E02D48BB
:101B10000068401C2B490860224800680A2807DA40
:101B2000204830A102683148006802F06FF912E0E5
:101B30001C480068642807DA1A482DA102682B485F
:101B4000006802F063F906E016482AA102682748F7
:101B5000006802F05BF91F492148006803F056FC59
:101B60000DD21F48006803F0ADFA05462A460B4621
:101B700021A11E480068001D02F048F90CE0184839
:101B8000006803F09FFA05462A460B461CA1174839
:101B90000068001D02F03AF9FEBD00002C14002080
:101BA00070050020740500208405002090050020A9
:101BB000880500209C0500206405002000006C4280
:101BC00060050020980500208C0500209405002069
:101BD0006C140020000020418005002078050020C2
:101BE0007C05002020202564000000005405002012
:101BF000202564002564000020252E3266000000A8
:101C0000252E326600000000002001E0411CC8B211
:101C10001E28FBDB704710B510206B49486102207D
:101C20000861FFF7F1FF102067490861FFF7ECFF3B
:101C300010BD08B50121102000F064FF03208DF8CD
:101C4000020014208DF803000220ADF80000694660
:101C50005D4800F09BFC1020ADF8000069465A4832
:101C600000F094FCFFF7D7FF08BD10B510205649CF
:101C7000086102200861FFF7C7FF10205249486140
:101C8000FFF7C2FF022050494861FFF7BDFF10BDBA
:101C900070B5044600251DE004F0800018B1102046
:101CA0004949086102E0102047494861FFF7ACFF4D
:101CB000022045490861FFF7A7FF02204249486119
:101CC000072D01D1102008616006040EFFF79CFF6C
:101CD000681CC5B2082DDFDB70BD70B5002400257F
:101CE00014E06006040E022037490861FFF78CFFFC
:101CF0003548806800F0100008B1601CC4B20220B2
:101D000031494861FFF780FF681CC5B2082DE8DB48
:101D1000204670BD10B510202B490861FFF774FFF5
:101D2000022029490861FFF76FFF2748806800F00B
:101D3000100008B1012400E000240220224948617B
:101D4000FFF762FF204610BD10B510201E49486104
:101D5000FFF75AFF02201C490861FFF755FF0220D8
:101D600019494861FFF750FF10201749086110BD5D
:101D700010B5102014490861FFF746FF02201249F0
:101D80000861FFF741FF02200F494861FFF73CFF60
:101D900010BD70B504460C48806800F0100080B19A
:101DA0000948806800F0020058B1FFF75EFF204646
:101DB000FFF76EFFFFF7AEFF0546FFF72CFF284643
:101DC00070BD0120FCE70000001001401CB53AA1E5
:101DD00003C9CDE9000100240DE000BF40213848CF
:101DE00001F0ACFF0028F9D01DF80410344801F0D0
:101DF00037FF601CC4B2052CEFD31CBD2DE9F05F8A
:101E0000032000F007F9044600250026A94640F209
:101E10009710015D401E005D01EB002085B240F28D
:101E20009910015D401E005D01EB002086B240F27A
:101E30009B10015D401E005D01EB00201FFA80F940
:101E4000284603F0CFFA83461E4903F0D5F98246AF
:101E500003F038F907463A460B461BA11C480068B8
:101E60000A3001F0D3FF304603F0BCFA834615492F
:101E700003F0C2F9824603F025F907463A460B46BD
:101E800011A113480068103001F0C0FF484603F06C
:101E9000A9FA83460B4903F0AFF9824603F012F921
:101EA00007463A460B4608A109480068163001F07B
:101EB000ADFFBDE8F09F0000A4030707B5000000D8
:101EC000004800400000C842252E32660000000095
:101ED0005405002008B501460846CA1701EB1272E6
:101EE000C2F307128DF80020CA1701EB127212110B
:101EF000A1EB0212D2B28DF80120BDF800201046ED
:101F000008BD7CB505460C462846FFF7E3FF019067
:101F10009DF80400094901EB80269DF80510012079
:101F2000884080B2ADF800008DF8034003208DF8A2
:101F300002006946304600F029FB7CBD00080140E4
:101F400010B5002807DA0A07140E2F4A00F00F0315
:101F50001B1FD45403E00A07130E2C4A135410BD60
:101F600010B52B4800684FF47A71B0FBF1F4B4F16E
:101F7000807F01D3012011E024F07F40401E4FF00C
:101F8000E02148610F214FF0FF30FFF7D9FF00201B
:101F90004FF0E021886107200861002008B100BFF0
:101FA000FEE70021481EFFF7CBFF10BD10B5012151
:101FB000042000F0A7FD0121082000F0A3FD01216D
:101FC000102000F09FFD0121402000F09BFD10211A
:101FD0001C20FFF796FF10211D20FFF792FF142110
:101FE0002120FFF78EFF14212420FFF78AFF10BD68
:101FF00010B54FF4A06000F0FBF9FFF7D7FF00F039
:10200000CBF8FFF7ADFF10BD18ED00E000E400E0F5
:10201000000000200146012904D0022905D003292F
:1020200007D103E0C1480068704700BFC04800689E
:10203000FAE700BF00BF0020F6E710B586B00446FF
:102040000121880300F05EFD18210920FFF759FFE8
:1020500004210A20FFF755FF25208DF804000020F9
:102060008DF805008DF8060001208DF8070001A805
:1020700000F0C3F902940020ADF80C00ADF80E009A
:10208000ADF81000ADF814000C20ADF8120002A954
:10209000A84801F0ECFC012240F22551A54801F0CE
:1020A0007EFD0121A34801F06EFD06B010BD10B504
:1020B00086B004460121480400F031FD18210220B9
:1020C000FFF71FFF04210320FFF71BFF26208DF8D9
:1020D000140000208DF8150001208DF816008DF8F1
:1020E000170005A800F089F901940020ADF8080058
:1020F000ADF80A00ADF80C00ADF810000C20ADF8FA
:102100000E0001A98C4801F0B2FC012240F22551D9
:10211000894801F044FD0121874801F034FD06B0F3
:1021200010BD10B586B004460121880400F0F7FC0C
:1021300018211A20FFF7E5FE04211B20FFF7E1FE1E
:1021400027208DF8140000208DF8150002208DF84E
:10215000160001208DF8170005A800F04EF9019433
:102160000020ADF80800ADF80A00ADF80C00ADF89D
:1021700010000C20ADF80E0001A9704801F077FCAA
:10218000012240F225516D4801F009FD01216B4803
:1021900001F0F9FC06B010BD10B54FF4E130FFF7C7
:1021A0004CFF4FF41650FFF7BCFF10BD014600BFB7
:1021B000704700BF5F4A128802F04002002AF9D03F
:1021C000C2B25C4B1B1D1A80704710B540F22551FE
:1021D000584801F0C9FD002849D0564801F044FD97
:1021E000C4B25748008800F4004000283FD154484A
:1021F000008800F48040F0B10A2C03D00020504940
:10220000088034E04E48008840F400404C49088083
:10221000084600784549096881F859024348006832
:1022200090F8592241480168C931006800F29110C4
:1022300001F0C3FE1BE00D2C06D14148008840F49C
:1022400080403F49088012E03D480088C0F30D01FE
:1022500036480068C930445439480088401C384921
:10226000088008460088C72801DD0020088010BDCE
:1022700038B5002533A00068009040F225512F4862
:1022800001F072FD00284FD040F225512B4801F09B
:1022900095FD2A4801F0E8FCC1B225480068C93024
:1022A000294A127881542848007804280FDA2048F7
:1022B0000068C93024490978415C234A12781DF826
:1022C000020081422BD000201F49087038BD1E48F3
:1022D00000780B2823D1002407E015480068C93096
:1022E000005D2844C5B2601CC4B20B2CF5DB10485D
:1022F0000068C930005DA8420DD10D4800680C4946
:10230000096851318A6F00F291100260CA6F426011
:10231000D1F88010816000200B490870D6E70A4888
:102320000078401C0849087000BFCFE7B4050020C2
:10233000BC05002000380140004400400048004037
:10234000C0050020A4030707C805002000200CE0FA
:10235000074931F8101031B1054931F81010491E04
:10236000034A22F81010411CC8B20528F0DB704760
:10237000BA1B0020002106E00A2100BF0A1EA1F1BD
:10238000010399B2FAD1021EA0F10100F4D1704705
:10239000002107E042F6E06100BF0A1EA1F101033F
:1023A00099B2FAD1021EA0F1010398B2F2D170479E
:1023B0000948804709480047FEE7FEE7FEE7FEE7D9
:1023C000FEE7FEE7FEE7FEE7FEE7FEE70448054915
:1023D000054A064B7047000033030008310100082E
:1023E000281C002028220020281E0020281E002053
:1023F00031490143314A1160704770B50021002313
:102400000F22C47804B32D4C246804F4E064C4F5AE
:10241000E064210AC1F10403CA40447804FA03F1DC
:102420008478144021430901254C0678A15504788D
:1024300004F01F050124AC4005786D11AD0005F1D5
:10244000E025C5F8004109E0047804F01F050124E7
:10245000AC401C4D0678761145F8264070BD1A4AEE
:102460000A400243154B1B1F1A60704739B1134ACB
:10247000121D12680243114B1B1D1A6006E00F4A21
:10248000121D126882430D4B1B1D1A6070470428F1
:1024900008D14FF0E021096941F004014FF0E0223A
:1024A000116107E04FF0E021096921F004014FF0CC
:1024B000E0221161704700000000FA050CED00E019
:1024C00000E400E080E100E080FFFF1F10B504465B
:1024D000CC48844208D10121042000F02DFB0021CA
:1024E000042000F029FB46E0C748844208D10121BE
:1024F000082000F021FB0021082000F01DFB3AE03D
:10250000C248844208D10121102000F015FB0021AF
:10251000102000F011FB2EE0BD48844208D10121BB
:10252000202000F009FB0021202000F005FB22E024
:10253000B848844208D10121402000F0FDFA002172
:10254000402000F0F9FA16E0B348844208D1012196
:10255000802000F0F1FA0021802000F0EDFA0AE07E
:10256000AE48844207D10121801500F0E5FA002130
:10257000A01500F0E1FA10BD10B50121084600F0E9
:10258000DBFA0021012000F0D7FA10BD2DE9F0415F
:10259000024600250026002000230024002791F891
:1025A00003C00CF00F0591F803C00CF0100CBCF147
:1025B000000F03D091F802C04CEA050591F800C065
:1025C000BCF1000F31D0146800202BE04FF0010C5B
:1025D0000CFA00F3B1F800C00CEA03069E4220D1C9
:1025E00083004FF00F0C0CFA03F7BC4305FA03FC11
:1025F0004CEA040491F803C0BCF1280F06D14FF057
:10260000010C0CFA00FCC2F814C00AE091F803C0F7
:10261000BCF1480F05D14FF0010C0CFA00FCC2F8D8
:1026200010C0401C0828D1D31460B1F800C0BCF120
:10263000FF0F34DD546800202EE000F1080C4FF04D
:10264000010808FA0CF3B1F800C00CEA03069E4238
:1026500021D183004FF00F0C0CFA03F7BC4305FAAD
:1026600003FC4CEA040491F803C0BCF1280F05D127
:1026700000F1080C08FA0CF8C2F8148091F803C0B5
:10268000BCF1480F07D100F1080C4FF0010808FA1F
:102690000CF8C2F81080401C0828CED35460BDE866
:1026A000F0814FF6FF710180022181700421C17019
:1026B00070470246002093680B400BB1012000E0F8
:1026C000002070470146886880B2704702460020AB
:1026D000D3680B400BB1012000E000207047014699
:1026E000C86880B2704701617047416170470AB1A4
:1026F000016100E041617047C16070474FF4803272
:102700000A438261816182618269826970470246FF
:102710000020434B18684FF68073184040EA0210BF
:1027200008433F4B186070473E49C8617047F0B599
:102730000A46002300240021002500F00046B6F1DF
:10274000004F02D1364EF16901E0354E7168C0F399
:10275000034583B200F44016B6F5401F08D121F0BE
:1027600070612F4E766826F070662D4F7E6012E005
:1027700000F48016B6F5801F06D1032606FA05F48C
:10278000A14341F0706106E0460D360103FA06F6FA
:10279000B14341F0706122B1460D360103FA06F6ED
:1027A000314300F00046B6F1004F02D11C4EF161FA
:1027B00001E01B4E7160F0BD30B500228B071C0F8D
:1027C0000F2303FA04F2164B08338C1053F824300D
:1027D0009343134C08348D1044F8253023468C1055
:1027E00053F824308C07240F00FA04F423430C4CD4
:1027F00008348D1044F8253030BD0A49DC310860BA
:102800007047000000080140000C0140001001402A
:102810000014014000180140001C0140002001404C
:102820000000014000002042DF48006840F0010045
:10283000DD49086008464068DC490840DA494860DC
:1028400008460068DA490840D74908600846006829
:1028500020F4802008600846406820F4FE004860AC
:102860004FF41F0088607047CF49096821F4803118
:10287000CD4A11601146096821F480211160B0F53C
:10288000803F03D0B0F5802F0ED106E0C64909681D
:1028900041F48031C44A116007E0C349096841F43A
:1028A000A021C14A116000E000BF00BF704710B511
:1028B00001460022002300204A11012A02D1BA4C0D
:1028C000236806E0022A02D1B74C236A01E0B64C25
:1028D000636A01F01F02012494401C400CB10120E6
:1028E00000E0002010BD38B5002000900024002535
:1028F00000BF3120FFF7DBFF05460098401C009029
:102900000098B0F5A06F01D0002DF2D03120FFF774
:10291000CEFF08B1012400E00024204638BD014666
:102920000020A14A106820F0F80040EAC1001060C1
:102930007047A04908607047024600209A4B5868CB
:1029400020F47C1042EA01031843974B586070470B
:1029500098490866704701460020934A506820F065
:1029600003000843506070478F48406800F00C0037
:102970007047014600208C4A506820F0F000084360
:102980005060704701460020874A506820F4E0609C
:1029900008435060704701460020834A506820F485
:1029A000605040EAC1005060704729B17E4A527AB7
:1029B00002437D4B5A7204E07B4A527A82437A4B3F
:1029C0005A7270477B49D831086070470146002031
:1029D000754A506820F44040084350607047002119
:1029E000714A20321170704A82F82010012802D0FA
:1029F00004280AD104E001216B4A2032117005E05D
:102A00000521694A2032117000E000BF00BF704705
:102A10006949086070476449096A0143624A116262
:102A20007047654944390860704730B5002100227D
:102A3000002400235C4D6D6805F00C0121B10429D0
:102A400005D0082923D105E05C4D056022E05B4DEF
:102A500005601FE0544D6D6805F47012524D6D68AD
:102A600005F48034022505EB92421CB9544D5543C0
:102A700005600BE04C4D6D6805F400351DB1504DFF
:102A80005543056002E04D4D5543056002E04B4D56
:102A9000056000BF00BF444D6D6805F0F0010909F5
:102AA000484D6B5C0568DD4045603F4D6D6805F441
:102AB000E061090A434D6B5C4568DD4085603A4D35
:102AC0006D6805F46051C90A3E4D6B5C4568DD4098
:102AD000C560354D6D6805F44041890B3A4D6B5C1E
:102AE000C568B5FBF3F5056130BD29B12E4A5269C1
:102AF00002432D4B5A6104E02B4A526982432A4B10
:102B00005A61704729B1284A92690243264B9A615B
:102B100004E0254A92698243234B9A61704729B1A8
:102B2000214AD2690243204BDA6104E01E4AD2698D
:102B300082431D4BDA61704729B11B4AD2680243B8
:102B4000194BDA6004E0184AD2688243164BDA6007
:102B5000704729B1144A12690243134B1A6104E009
:102B6000114A12698243104B1A6170471249403969
:102B7000086070470F49C86470470B49C8717047B7
:102B80000948406A40F08070074948627047014632
:102B90000020054A92680A400AB1012000E00020A6
:102BA0007047014988727047001002400000FFF82A
:102BB000FFFFF6FE000042428004424200127A000B
:102BC00000093D00C9050020D905002010B50446C4
:102BD000FE48844208D10121C014FFF7ADFF002157
:102BE000E014FFF7A9FFC4E0B4F1804F08D1012140
:102BF0000846FFF7AEFF00210120FFF7AAFFB8E06B
:102C0000F348844208D101210220FFF7A2FF0021EE
:102C10000220FFF79EFFACE0EE48844208D101217C
:102C20000420FFF796FF00210420FFF792FFA0E0A9
:102C3000E948844208D101210820FFF78AFF0021DA
:102C40000820FFF786FF94E0E448844208D1012180
:102C50001020FFF77EFF00211020FFF77AFF88E0A9
:102C6000DF48844208D101212020FFF772FF0021B4
:102C70002020FFF76EFF7CE0DA48844208D1012172
:102C80004014FFF759FF00216014FFF755FF70E073
:102C9000D548844209D10121C804FFF74DFF002126
:102CA0004FF40020FFF748FF63E0D048844209D189
:102CB00001210805FFF740FF00214FF48010FFF7C6
:102CC0003BFF56E0CA48844209D101214805FFF77D
:102CD00033FF00214FF40010FFF72EFF49E0C548F5
:102CE000844208D101214020FFF733FF002140201A
:102CF000FFF72FFF3DE0C048844208D1012180202A
:102D0000FFF727FF00218020FFF723FF31E0BB48BA
:102D1000844208D101218015FFF71BFF0021A01577
:102D2000FFF717FF25E0B648844209D101210804C6
:102D3000FFF702FF00214FF48030FFF7FDFE18E09F
:102D4000B048844209D101214804FFF7F5FE002173
:102D50004FF40030FFF7F0FE0BE0AB48844208D19F
:102D600001218804FFF7E8FE00214FF48020FFF7DF
:102D7000E3FE10BD00220288944B98420ED0994B7E
:102D800098420BD0B0F1804F08D0914B984205D0BB
:102D9000904B984202D0904B984204D14FF68F73DB
:102DA0001A404B881A438D4B984207D08C4B98425F
:102DB00004D04FF6FF431A40CB881A4302808B8819
:102DC00083850B880385814B98420BD0854B9842B5
:102DD00008D08B4B984205D08A4B984202D08A4B40
:102DE000984201D10B7A038601238382704770B524
:102DF000002400220023058C4FF6FE763540058422
:102E0000028C8388048B4FF68F752C40B51E2C40A6
:102E10000D882C43751E2A400D892A434D882A436C
:102E20006A4DA8420BD06F4DA84208D0744DA842FD
:102E300005D0744DA84202D0734DA84213D14FF66D
:102E4000F7752A404D892A434FF6FB752A408D8835
:102E50002A434FF6FF652B404FF6FF552B408D89D7
:102E60002B43CD892B4383800483CD8885860284C0
:102E700070BD70B5002400220023058C4FF6EF765C
:102E800035400584028C8388048B48F6FF752C40FE
:102E90004FF6FF452C400D884FF6FF7606EA0525D4
:102EA0002C434FF6DF752A400D8906EA05152A43A3
:102EB0004D8806EA05152A43444DA84202D0494DE3
:102EC000A8421DD14FF67F752A404D894FF6FF76F7
:102ED00006EA05152A434FF6BF752A408D8806EA93
:102EE00005152A434FF6FF352B404FF2FF752B4057
:102EF0008D8906EA85052B43CD8906EA85052B4396
:102F000083800483CD880587028470BD70B500245A
:102F100000220023058C4FF6FF6635400584028CA5
:102F20008388848B4FF68F752C404FF6FC752C40B0
:102F30000D882C434FF6FF552A400D894FF6FF763A
:102F400006EA05252A434D8806EA05252A431F4D32
:102F5000A84202D0234DA8421DD14FF2FF752A404E
:102F60004D894FF6FF7606EA05252A434FF6FF35D1
:102F70002A408D8806EA05252A434EF6FF752B4028
:102F80004DF6FF752B408D8906EA05152B43CD893B
:102F900006EA05152B4383808483CD8885870284C8
:102FA00070BD70B5002200230024058C4EF6FF761C
:102FB00035400584038C8488828B48F6FF752A404F
:102FC0004FF6FF452A400D8820E00000002C01400C
:102FD0000004004000080040000C004000100040C9
:102FE0000014004000340140004C014000500140FA
:102FF0000054014000180040001C00400020004028
:103000000040014000440140004801404FF6FF7677
:1030100006EA05252A434DF6FF752B400D8906EA81
:1030200005352B434D8806EA05352B43FA4DA8425A
:1030300002D0FA4DA84208D14BF6FF752C408D897D
:103040004FF6FF7606EA85152C4384808283CD886F
:10305000A0F84050038470BD828B4FF2FF331A40BA
:103060008283828B4FF6FF7303EA01231A43828324
:103070007047F0B50C461546002200210026078C4B
:103080004EF6FF7C07EA0C070784828B018C4FF613
:10309000FF7707EA043640F6FF473A404FF6FF77DE
:1030A00007EA05273A434FF6FF7707EA03373A4323
:1030B000D94FB8420ED0D94FB8420BD0B0F1804FA3
:1030C00008D0D74FB84205D0D64FB84202D0D64F1D
:1030D000B84206D14DF6FF77394046F48057394360
:1030E00005E047F6FF57394044F48057394382835F
:1030F0000184F0BD828B4FF6F3731A408283828B7A
:103100000A4382837047F0B50C4615460022002121
:103110000026078C4FF6FF6C07EA0C070784828BAA
:10312000018C4FF6FF7707EA04264FF60C773A40FA
:103130004FF6FF7707EA03172F433A43B64FB842DB
:103140000ED0B64FB8420BD0B0F1804F08D0B44F7C
:10315000B84205D0B34FB84202D0B34FB84206D1FF
:103160004FF6FF57394046F48077394305E04FF278
:10317000FF57394044F48077394382830184F0BD9E
:10318000028B4FF2FF331A400283028B4FF6FF731C
:1031900003EA01231A4302837047F0B50C46154633
:1031A000002200210026078C4FF6EF7C07EA0C076F
:1031B0000784028B018C4FF6FF7707EA041640F66E
:1031C000FF473A404FF6FF7707EA03373A434FF697
:1031D000FF7707EA05273A438F4FB8420ED08F4F4B
:1031E000B8420BD0B0F1804F08D08D4FB84205D017
:1031F0008C4FB84202D08C4FB84206D14FF6DF77E1
:10320000394046F01007394305E04FF65F77394003
:1032100044F01007394302830184F0BD028B4FF65E
:10322000F3731A400283028B0A4302837047F0B59E
:103230000C46154600220021068C4FF6FE773E40D4
:103240000684028B018C4FF60C7632407E1C06EA17
:1032500003162E433243704EB0420ED06F4EB04232
:103260000BD0B0F1804F08D06D4EB04205D06D4EFE
:10327000B04202D06C4EB04206D14FF6FD763140DE
:1032800044F00106314305E04FF6F576314044F055
:103290000106314302830184F0BD70B505460C463A
:1032A0005D4885420ED05D4885420BD0B5F1804F18
:1032B00008D05B48854205D05A48854202D05A481A
:1032C000854200D100E000BF208850B92389A28840
:1032D00061882846FFF7ABFFE1882846FFF79EFF8D
:1032E00025E0208804280AD12389A28861882846FD
:1032F000FFF753FFE1882846FFF742FF17E02088D9
:1033000008280AD12389A28861882846FFF7FBFE96
:10331000E1882846FFF7EEFE09E02389A28861884C
:103320002846FFF7A6FEE1882846FFF795FE70BD08
:103330002DE9F04105460C4600260127608808B9B2
:10334000022600E00026A088012801D1022700E023
:1033500001272088A0B92389A28861882846FFF721
:1033600066FFE1882846FFF759FF23893A46314630
:103370002846FFF712FFE1882846FFF701FF13E018
:103380002389A28861882846FFF707FFE18828463D
:10339000FFF7F6FE23893A4631462846FFF747FFF6
:1033A000E1882846FFF73AFFBDE8F0810A884B889C
:1033B0001A438B881A43CB881A430B891A434B89CB
:1033C0001A438B891A43A0F8442070474FF6FF71C7
:1033D000818000210180C1804180017270470021FD
:1033E000018041808180C180018141818181C181D1
:1033F0007047002101804180012181800021C1802E
:10340000018170470021018041808180C18001815C
:103410004181818170470000002C0140003401404F
:103420000004004000080040000C004021B1028868
:1034300042F00102028004E002884FF6FE731A4057
:103440000280704731B1B0F8442042F40042A0F845
:10345000442005E0B0F84420C2F30E02A0F8442056
:1034600070471AB183890B43838102E083898B43C0
:10347000838170478182704741EA0203A0F8483097
:1034800070471AB183890B43838102E083898B43A0
:103490008381704701894FF6F872114001817047AE
:1034A0000A46002101894FF68F73194011430181AB
:1034B000704730B504460D4629462046FFF7F0FF19
:1034C000208940F00700208130BD2DE9F0410446FD
:1034D0000D4616461F46602D06D13B460122314659
:1034E0002046FFF75AFE05E03B46012231462046C2
:1034F000FFF79DFE29462046FFF7D2FF208940F0C6
:1035000007002081BDE8F08130B50C46002101891B
:10351000C9B24FF6FF7505EA032515432543294334
:10352000018130BD2DE9F04105460E46174698460B
:10353000002443463A4631462846FFF7E5FF2C89EA
:103540004FF6F870044044F007044FF68F700440C3
:1035500044F070042C81BDE8F081F0B504460D46BE
:1035600016461F463B46324629462046FFF7CCFF0B
:10357000208940F480402081F0BD0185828270471F
:103580000A46002101884FF68F73194011430180CC
:103590007047F0B50C4615461E4600210022002358
:1035A0000189028B038C4FF6F877394021434FF69F
:1035B000FC473A4040F201173A434FF6DD773B4073
:1035C0004FF6FF7707EA06172F433B43018102833B
:1035D0000384F0BD0A460021018B4FF68F7319401A
:1035E0001143018370470A460021018B48F6FF739F
:1035F00019404FF6FF7303EA022319430183704712
:103600000A460021818B4FF68F7319401143818345
:1036100070470A460021818B48F6FF7319404FF628
:10362000FF7303EA022319438183704721B10288A3
:1036300042F08002028004E002884FF67F731A4055
:103640000280704721B1828842F00402828004E047
:1036500082884FF6FB731A408280704721B18288BE
:1036600042F00802828004E082884FF6F7731A4025
:103670008280704721B1828842F00102828004E09A
:1036800082884FF6FE731A40828070470A460021F6
:10369000018B4FF6F77319401143018370470A46B7
:1036A0000021018B4FF2FF7319404FF6FF7303EABD
:1036B00002231943018370470A460021818B4FF68C
:1036C000F77319401143818370470A460021818BAB
:1036D0004FF2FF7319404FF6FF7303EA02231943B9
:1036E000818370470A460021018B4FF6FB73194016
:1036F0001143018370470A460021018B4FF6FF33C7
:1037000019404FF6FF7303EA022319430183704700
:103710000A460021818B4FF6FB73194011438183C8
:1037200070470A460021818B4FF6FF3319404FF650
:10373000FF7303EA02231943818370470A4600217D
:10374000018B4FF67F7319401143018370470A467E
:103750000021018BC1F30E014FF6FF7303EA022330
:103760001943018370470A460021818B4FF67F730E
:1037700019401143818370470A460021818BC1F3B0
:103780000E014FF6FF7303EA02231943818370474A
:103790000A460021018C4FF6FD7319401143018444
:1037A00070470A460021018C4FF6F7731940114308
:1037B000018470470A460021018C4FF6DF731940DF
:1037C0004FF6FF7303EA02131943018470470A4658
:1037D0000021018C4FF67F7319404FF6FF7303EA07
:1037E00002131943018470470A460021018C4FF6E9
:1037F000FF5319404FF6FF7303EA02231943018474
:1038000070470A460021018C4FF2FF7319404FF6B2
:10381000FF7303EA02231943018470470A4600211B
:10382000018C4DF6FF7319404FF6FF7303EA023324
:1038300019430184704730B5002301248C40A3B2A2
:10384000048C9C430484048C02FA01F5ADB22C4331
:10385000048430BD30B5002304248C40A3B2048C12
:103860009C430484048C02FA01F5ADB22C43048419
:1038700030BD70B5034600200024184618300125DD
:103880008D40ACB21D8CA5431D8409B1082909D116
:1038900000EB6100056825F07005056005681543BB
:1038A00005600EE00D1FC5F34E052844056825F49C
:1038B000E045056005684FF6FF7606EA02263543C7
:1038C000056070BD21B1028842F00202028004E06E
:1038D00002884FF6FD731A400280704721B10288BA
:1038E00042F00402028004E002884FF6FB731A40A3
:1038F0000280704721B1828842F08002828004E019
:1039000082884FF67F731A408280704702884FF694
:10391000F7731A40028002880A4302807047828847
:103920004FF68F731A40828082880A4382807047E4
:1039300002894FF6F8731A40028102890A43028114
:10394000704702894FF67F731A40028102890A4349
:1039500002817047818470478185704781867047F6
:103960000187704781877047A0F840107047028830
:103970004FF6FF431A40028002880A4302807047D4
:103980000146888E70470146088F70470146888F30
:1039900070470146B1F8400070470146888C704777
:1039A0000146088D704702460020138A0B400BB178
:1039B000012000E000207047CA430282704730B502
:1039C0000246002000230024158A05EA0103958998
:1039D00005EA010413B10CB1012000E0002030BD64
:1039E000CA4302827047000010B50446FB48844277
:1039F00009D101218803FFF79FF800214FF480408F
:103A0000FFF79AF832E0F648844209D101214804D0
:103A1000FFF79FF800214FF40030FFF79AF825E0F8
:103A2000F048844209D101218804FFF792F800216F
:103A30004FF48020FFF78DF818E0EB48844209D15D
:103A40000121C804FFF785F800214FF40020FFF79B
:103A500080F80BE0E548844208D101210805FFF712
:103A600078F800214FF48010FFF773F810BD2DE9AE
:103A7000F04786B005460E460024A24600BFA14688
:103A80000027B08900B100BF2F462C8A4CF6FF708A
:103A90000440F08804432C82AC894EF6F3100440B5
:103AA000B08831890843718908430443AC81AC8AEA
:103AB0004FF6FF400440B0890443AC8201A8FEF7F2
:103AC000B4FFC648874202D1DDF810A001E0DDF85E
:103AD0000CA0A88900F4004040B10AEBCA0000EB3A
:103AE0000A1031684900B0FBF1F807E00AEBCA00A0
:103AF00000EB0A1031688900B0FBF1F86420B8FBD4
:103B0000F0F004012009642101FB1089A88900F468
:103B1000004040B1322000EBC900B0FBF1F000F0F2
:103B20000700044308E0322000EB09106421B0FBD9
:103B3000F1F000F00F0004432C8106B0BDE8F087DF
:103B40004FF41651016000218180C18001810C2158
:103B5000418100218181704710B502460020108A02
:103B60004FF2FF0318400B884C8823438C88234373
:103B7000CC8823431843108210BD0021018041806E
:103B80008180C180704721B1828942F400528281D4
:103B900004E082894DF6FF731A4082817047F0B5C8
:103BA0000346002400260025002040F66A17B9428B
:103BB00000D100BF1846C1F3421401F01F060127CF
:103BC00007FA06F5012C01D10C3004E0022C01D1DA
:103BD000103000E014301AB107682F43076002E08C
:103BE0000768AF430760F0BD1AB1838A0B43838235
:103BF00002E0838A8B4383827047028A4FF6F07318
:103C00001A400282028A0A430282704782894FF276
:103C1000FF731A40828182890A438281704721B1F1
:103C2000828942F00202828104E082894FF6FD73AC
:103C30001A4082817047028A4FF6DF731A4002826F
:103C4000028A0A430282704721B1028A42F480420A
:103C5000028204E0028A4BF6FF731A400282704728
:103C6000C1F308028280704701468888C0F30800CB
:103C70007047818941F0010181817047028BD2B286
:103C80000283028B42EA012202837047028B02F414
:103C90007F420283028B0A430283704721B1828AEA
:103CA00042F02002828204E0828A4FF6DF731A40DB
:103CB0008282704721B1828A42F01002828204E03F
:103CC000828A4FF6EF731A408282704721B1828A4E
:103CD00042F00802828204E0828A4FF6F7731A40AB
:103CE0008282704721B1828942F40042828103E0DE
:103CF0008289C2F30E028281704721B1828A42F426
:103D00000062828204E0828A4FF2FF731A4082824C
:103D10007047828A4FF6FB731A408282828A0A4376
:103D20008282704721B1828A42F00202828204E0DC
:103D3000828A4FF6FD731A40828270470246002045
:103D4000B1F5007F00D100BF13880B400BB10120FB
:103D500000E00020704701F40072B2F5007F00D14E
:103D600000BFCA430280704770B50246002400239A
:103D70000025002040F66A16B14200D100BFC1F311
:103D8000421501F01F03012606FA03F3012D02D1AB
:103D90009689334006E0022D02D1168A334001E0B5
:103DA000968A33400C12012606FA04F41688344031
:103DB00013B10CB1012000E0002070BD10B500224D
:103DC000002340F66A14A14200D100BF0A12012468
:103DD0009440A3B2DC43048010BD000000380140D1
:103DE0000044004000480040004C004000500040AB
:103DF000704700000FB4044910B503AA029800F000
:103E0000ABFB10BC5DF814FBC40500200FB41CB55F
:103E1000074B06AA7B4469460090059800F083FB97
:103E20000020694600F092FB1CBC5DF814FB00000A
:103E3000350700002DE9F041064600241068752979
:103E4000314616A510D0AFF30080002802DA4042B8
:103E500013A507E031688A0701D512A502E04907DA
:103E600004D511A5012401E0AFF3008000210A224E
:103E700006F1240709E0B0FBF2FCB0FBF2F302FB11
:103E80001C00303078541846491C0028F3D12346D2
:103E90002A463046BDE8F04100F0D8B800000000E6
:103EA0002D0000002B000000200000002DE9F0474D
:103EB0004FF0000A89460446C0F820A02046E16879
:103EC0008847002876D0252806D0D4E901219047DC
:103ED000206A401C2062F1E7E168204600258847FF
:103EE000C4F81CA006460027C4F818A02A2E09D042
:103EF000304601F0C3F838B304EB8708303EC8F809
:103F0000186019E059F8041B204604EB8702916100
:103F1000E1688847012F064618D1E069002820DAB9
:103F200025F020051DE0D8F8180000EB800006EB16
:103F300040003038C8F818002046E1688847064637
:103F400001F09CF80028EED1012F0AD02E2E08D1C6
:103F50002046E16888477F1C0646022F45F0200571
:103F6000C4DBA069002803DA404245F00105A061E6
:103F7000E80701D025F01005B6B1A6F141001928D7
:103F800002D8203645F400654A4631462046256071
:103F90004D46FCF727F958B1012806D0ED1D25F054
:103FA000070000F1080989E704E005F1040985E745
:103FB00030468AE7206ABDE8F087032A40F2308065
:103FC00010F0030C00F0158011F8013BBCF1020F5A
:103FD000624498BF11F801CB00F8013B38BF11F8DB
:103FE000013BA2F1040298BF00F801CB38BF00F8F2
:103FF000013B11F0030300F0C182083AC0F00880D1
:1040000051F8043B083A51F804CBA0E80810F5E752
:10401000121D5CBF51F8043B40F8043BAFF3008035
:10402000D20724BF11F8013B11F801CB48BF11F8AA
:10403000012B24BF00F8013B00F801CB48BF00F87A
:10404000012B704770477047704770472DE9F04764
:104050000D4699469246044600F1240801688806F8
:1040600004D5E06921F01001216000E00120A842A0
:1040700001DD471B00E00027A1697A1902EB090066
:10408000081AA0612078C00602D42046AFF3008051
:10409000002608E0D4E901211AF806009047206ABA
:1040A000401C761C20624E45F4DB2078C0060AD501
:1040B0002046AFF3008006E0D4E90121302090478C
:1040C000206A401C2062381EA7F10107F4DC07E0DB
:1040D000D4E9012118F805009047206A401C2062AD
:1040E000281EA5F10105F3DC2046AFF300802078FF
:1040F000000602D50220BDE8F0870120FBE77047EB
:104100002DE9FF4F0C461E464FF0FF378BB0D2E92A
:104110000001DDF860800A908A46C1F30A5505B9AE
:104120003D46002108464FF00000BAF1000F00F4B0
:10413000400005DA00EB80004FF4400101EA500036
:104140004FEA9059B9F1010F00DDB9460A9850EADB
:104150004A000ED044F61050A5F2FF3545432F1407
:10416000B8F1000F1ED07542291E1EDDC9F10002F4
:104170001CE0B8F1010F4FF0000001D0302103E046
:10418000F24305E02154401CB042FBDB30460022E4
:10419000002121540B99C1F80880C1E900200FB01B
:1041A000BDE8F08FBD1B6D1CDEE74A4600DA6942B0
:1041B00006A800F09FFA06AB93E8070003AB83E87C
:1041C000070050460A9900F07DFB8DE80700A0F536
:1041D00000501F3800900398002D0ADD42F21F01A5
:1041E0004A460844002303A90390684600F0E6FD10
:1041F00009E0A0F500504A461F38002303A90390A8
:10420000684600F0F0FD8DE807000004000C03D0C4
:104210004FF0FF30410800E01046B8F1000F03D026
:104220000022009215461EE0751E05D400F0DCF950
:10423000303262556D1EF9D5B3460122084302D0D3
:1042400000227F1C04E02078302801D100227F1E4C
:10425000002A099784D01DE0112D07DA00F0C4F977
:10426000303262556D1C50EA0102F5D1084302D08C
:104270000098C8B10EE00021681E05E0235C625C76
:1042800063542254401E491C8142F7DBAB46A81BF5
:10429000401E0990002004F80B000B98099AC0F802
:1042A0000880C0E9002B7AE711264FF0000857E795
:1042B0002DE9F04F88460446D21D22F0070191B047
:1042C000D1E90001CDE90A0100F0C4FE02460B98D5
:1042D000C00F01D02D2007E02068810701D52B20D9
:1042E00002E0202101EAC000032A099001D0072A38
:1042F00005DB03464146204600F0BCF90BE120787F
:10430000800601D5E06900E00620B8F1650F81461E
:1043100006D0B8F1660F18D0B8F1670F70D131E050
:104320000020B9F1110F009001DB112301E009F128
:1043300001030AAA01A90CA8FFF7E2FEDDE90C704F
:10434000002609F10105834647E001204B46009015
:104350004FF000470AAA01A90CA8FFF7D1FEDDE93A
:104360000DB00C995D46002610B909F101000D1839
:10437000B9EB050003D4C0F1FF3609F10105A5EB47
:1043800009002BE0B9F1010F01DA4FF0010900201B
:10439000B9F1110F0090484601DD112300E00346FA
:1043A0000AAA01A90CA8FFF7ABFEDDE90C704D4687
:1043B00000268346207800070AD4AB4500DA5D4624
:1043C00001A8012D04DD411911F8011C302907D085
:1043D0004F4502DA17F1040F04DA012082460FE09C
:1043E0006D1EEEE7002F02DCED1B3E4403E0781C5F
:1043F000A84200DD7D1CB81B00F1010A4FF0004708
:104400002078000703D4AA4501DB4FF0FF3A0021D2
:10441000B7F1004F0DF143088DF8431024D002206E
:104420002B23002F01DA7F422D230A21021EA0F147
:10443000010000DC5FB197FBF1FC97FBF1F201FB9F
:104440001C7C17460CF1300C08F801CDEEE7A8F102
:10445000010003702188090501D5452100E065218F
:10446000A0F1010800F8011C09980FA9A1EB0807A9
:10447000FF1D00B10120411901EBEA70A169384428
:10448000081A401EA0612078C00602D42046AFF36F
:104490000080099828B1D4E901219047206A401C86
:1044A00020622078C00622D52046AFF300801EE0AF
:1044B000002E04DBB34502DD01A8805D00E0302062
:1044C000D4E901219047206A401C2062761CAAF1A1
:1044D00001005FEA000A0AD100F082F8C0680168B2
:1044E000405CD4E901219047206A401C2062281ECC
:1044F000A5F10105DCDC07E0D4E9012118F8010B86
:104500009047206A401C2062381EA7F10107F3DCA7
:104510002046AFF30080032011B041E601694A1C38
:1045200002610878704700B58FB0CDE901310021F4
:10453000059105497944CDE9031011466846FFF716
:10454000B5FC0FB000BD0000E5FFFFFF0A6802F8F0
:10455000010B0A6070470000074B70B50D467B44A5
:10456000FFF7E1FF0446284600F036F910B14FF09E
:10457000FF3070BD204670BD51DCFFFF10B5203A02
:10458000C0F00B80B1E81850203AA0E81850B1E80C
:104590001850A0E81850BFF4F5AF5FEA027C24BFC2
:1045A000B1E81850A0E8185044BF18C918C0BDE8B9
:1045B00010405FEA827C24BF51F8043B40F8043B82
:1045C00008BF7047D20728BF31F8023B48BF11F837
:1045D000012B28BF20F8023B48BF00F8012B704791
:1045E00000487047E41B002030B5B0F10A024FEAE2
:1045F000900E71F100034EEA817EB0EB0E0061EB8C
:1046000091014FEA101E4EEA017E10EB0E0041EBC5
:1046100011114FEA102E4EEA016E10EB0E0041EB25
:1046200011214FEA104E4EEA014E10EB0E0041EB05
:104630001141401841F100014FEAD00040EA4170B9
:104640004FEAD10110EB80054FEA810444EA9074EF
:1046500044EB01046D1944EB0404521BA3414FF0D9
:10466000000348BF0A3200D530BD401C41F10001B3
:1046700030BD00002DE9F0411F46044603260168C5
:10468000072A01F4006004DB08B116A505E016A5B1
:1046900003E008B115A500E015A521F01000206089
:1046A000A069C01EA0610FB1401EA0612046AFF3FB
:1046B00000804FB1D4E9012138469047206A401C60
:1046C0002062C01C206206E0206AFAE7D4E90121DA
:1046D00015F8010B9047761EF8D22046AFF3008004
:1046E000BDE8F0814E414E006E616E00494E4600BD
:1046F000696E66002DE9F047814616468AB0354856
:1047000078440DC88DE80D0032487844801C03AC15
:104710000DC884E80D0041F69B300844372190FB1A
:10472000F1F290FBF1F5A5F1800501FB12041B3CB1
:1047300002D56442012000E00020DFF898A0804606
:104740000027FA44AAF1BE0A0EE0E0070AD032467A
:10475000684607EB470101230AEB810100F043FBA8
:104760008DE8070064107F1C002CEED1194F7F44A8
:10477000AE3F19E0E80715D007EB04100DF1180A59
:1047800090E80E008AE80E00C068F04201D1981946
:1047900008903246012306A903A800F024FB03ABCE
:1047A00083E807006D10641C002DE3D14FF0010376
:1047B00032466946B8F1000F03A802D000F0FEFAB5
:1047C00001E000F010FBC9E90001C9F808200AB0B7
:1047D000BDE8F087F0180000007B00F08000704713
:1047E00000487047C41B00207546FFF7F9FFAE462E
:1047F00005006946534620F00700854618B020B5ED
:10480000FDF7E4FDBDE820404FF000064FF0000743
:104810004FF000084FF0000B21F00701AC46ACE868
:10482000C009ACE8C009ACE8C009ACE8C0098D46D5
:10483000704710B50446AFF300802046BDE8104035
:10484000FBF7EDBC4FF0013C50F8042B51F8043B52
:104850009A4221D1A2EB0C03934313EACC1317D154
:1048600050F8042B51F8043B9A4215D1A2EB0C03EB
:10487000934313EACC130BD150F8042B51F8043BAB
:104880009A4209D1A2EB0C03934313EACC13DBD079
:104890004FF00000704700BFD01A01BAB1FA81F1A1
:1048A00001F0180122FA01F0CB40C1F12001DBB286
:1048B000C0B2C01A2CFA01F3D11A914311EAC31104
:1048C000E6D170475FEA400C08BF91F0000F4FEA55
:1048D0008C234FEAC12243EA51514FEA1C5018BFC2
:1048E00000F5F0404FEA300018BF41F000415FEAA8
:1048F0006C5C00F02980BCF1FF3F08BF40F08040B5
:104900007047130C06BF12044FF0100C4FF0000C50
:10491000130E04BF12020CF1080C130F04BF120196
:104920000CF1040C930F04BF92000CF1020CD30F96
:1049300004BF52000CF1010C11464FF00002A0F12F
:104940001F00A0EB0C00704711F0004F08BF70472C
:1049500031F000413FF4D5AF0B0C06BF09044FF016
:10496000100C4FF0000C0B0E04BF09020CF1080CE8
:104970000B0F04BF09010CF1040C8B0F04BF89005D
:104980000CF1020CCB0F04BF49000CF1010CCCF16F
:104990002003A0EB0C0022FA03F302FA0CF241EA26
:1049A000030100F10100704720F07F4C80EA030012
:1049B00023F07F47ACEB070303F57C5300F0004086
:1049C00003F1FF032DE980494FEA154B09B44FEA83
:1049D000144325EA0B4E24EA03480FF2042606EBA3
:1049E000132749083E785FEA320203FB0667C7F5E2
:1049F000000707FB06F64FEA54374FEAD64606F1A2
:104A0000020607FB066CCCF1005C4FEA1C472CEA5F
:104A1000074C07FB06F40CFB06F504EB15464FEAC2
:104A2000961634BF00204FF000404FEAD13706FB06
:104A300007FC4FEA1C4C0CFB0BF7D21B03FB0CF7DB
:104A400061EB07010CFB0EF7B0EB074072EB17426E
:104A50000CFB08F734BFA2EB0742B2EB074261EB55
:104A600017414FEA0C444FEA910706FB07FC4FEA57
:104A70001C4C0CFB0BF7B0EBC74072EB573203FB3F
:104A80000CF734BFA2EBC742B2EBC74261EB573120
:104A90000CFB0EF7B0EBC70072EB57720CFB08F77C
:104AA00034BFA2EBC702B2EBC70261EB5771039FA1
:104AB0004FEA816141EA921104EBCC044FEAD1370D
:104AC0004FEA826206FB07FC42EA90124FEA8060DE
:104AD0004FEA1C4C0CFB0BF7D21B03FB0CF761EBF2
:104AE00007010CFB0EF7B0EB074072EB17420CFB13
:104AF00008F734BFA2EB0742B2EB074261EB174164
:104B00004FEA8C554FEA910704EB9C2406FB07FC07
:104B10004FEA1C4C0CFB0BF7B0EBC74072EB573263
:104B200003FB0CF734BFA2EBC742B2EBC74261EB09
:104B300057310CFB0EF7B0EBC70072EB57720CFB52
:104B400008F734BFA2EBC702B2EBC70261EB5771A3
:104B500015EB4C254FEA816141EA92114FEA8262DE
:104B60004FEAD13742EA901206FB07FC44F10004F9
:104B70004FEA80604FEA1C4C0CFB0BF7D21B03FB87
:104B80000CF761EB07010CFB0EF7B0EB074072EB83
:104B900017420CFB08F734BFA2EB0742B2EB074207
:104BA00061EB174115EB1C154FEA813141EA924147
:104BB0004FEA823242EA90424FEA80304FEA0C7666
:104BC00044F1000448EA03434EEA0B484FF0000E5C
:104BD000B2EB080C71EB030724BF624639464EEB7B
:104BE0000E0E4FF0000B0018524149414BEB0B0BDE
:104BF000B2EB080C71EB03077BF1000B24BF62469C
:104C000039464EEB0E0E4FF0000B00185241494151
:104C10004BEB0B0BB2EB080C71EB03077BF1000BBA
:104C200024BF624639464EEB0E0E51EA020718BF0A
:104C300046F0010616EB0E7655F1000254F1000124
:104C400003D5BDE88901BDE80088BDE88901BDE85C
:104C50000048B619524141EB0101A3F1010370472D
:104C600080807F7E7D7C7B7A7978777676757473A9
:104C7000727171706F6E6E6D6C6C6B6A6A69686868
:104C8000676666656464636362616160605F5F5EFE
:104C90005E5D5D5C5C5B5B5A5A5959585857575674
:104CA00056555555545453535252525151505050D9
:104CB0004F4F4F4E4E4D4D4D4C4C4C4B4B4B4A4A2B
:104CC0004A4949494848484747474746464645456F
:104CD00045444444444343434342424242414141A8
:104CE000002B9C4630D477002BD01CB54FEA3707F9
:104CF00003B44FF010004FF01001BAF1000F06D0CE
:104D0000BCF1000FDCBF40F0080040F008014FF09C
:104D100000000FBCBDE810400BF1010BBBF1010F0F
:104D200008BF5FEA170722BF12F1010211F101016A
:104D30004FF0004143F1000300F0004043EA00005F
:104D40007047F9D35708D0E746EA064613F1400FFB
:104D50004FEA16461FDD13F1200FDFBF16430A4648
:104D6000002120335B42BED0C3F1200746EA06464D
:104D700002FA07F74FEA164646EA0706C3F120078C
:104D800022FA03F201FA07F721FA03F14FF00003C8
:104D900042EA0702A7E746EA020646EA06464FEA63
:104DA000164646EA0106BCBF46EA0646360C4FF0F8
:104DB00000034FF000024FF0000194E72DE9804C12
:104DC0009A46934670B491E8380007C831EA400C1F
:104DD00048BF34EA430C03D5FFF7E6FDFFF780FF39
:104DE000F0BCBDE8008C2DE9804C9A46934670B427
:104DF00091E8380007C810F0804F08BF13F0804FCB
:104E000003D100F005F8FFF76BFFF0BCBDE8008CA4
:104E100020F07F4780EA030023F07F4C07EB0C0370
:104E2000A3F57C5300F00040A3F1FE0392F0000FC5
:104E300000F0B38095F0000F00F077802DE9014974
:104E40004FEA11404FEA144621EA004800FB06FCF5
:104E500024EA064708FB06F607FB08F800FB07F7FD
:104E600018EB06484CEB164C4FEA124B18EB074870
:104E70004FEA15464CEB174022EA0B4E0BFB06FCA3
:104E800025EA06470EFB06F607FB0EFE0BFB07F7AF
:104E90001EEB064E4CEB164C4FF000061EEB074E79
:104EA0004CEB174B18EB0B0840F1000018EB0E0B06
:104EB00058EB000840F100008F1A4FF000013CBF92
:104EC000C943661B14BFB5EB040C00213CBFC943AA
:104ED000F61B4FEA17444EEA8E0E27EA04454FEAC6
:104EE0001C4704FB07622CEA074C05FB07F70CFB89
:104EF00005F604FB0CFC16EB074642EB174216EBDB
:104F00000C4642EB1C421BEB060658EB02024141E9
:104F100046EA9E0601D5BDE80189B619524141EB2A
:104F20000101A3F10103BDE801894FEA14454FEAED
:104F3000114724EA054621EA074C05FB07F406FB66
:104F400007F70CFB06F105FB0CFC11EB074144EBEA
:104F500017444FEA124711EB0C4144EB1C4422EA80
:104F6000074C05FB07F206FB07F70CFB06F605FBF3
:104F70000CFC16EB074642EB174216EB0C4642EBD5
:104F80001C456A1854F1000148BF7047B6195241D8
:104F900041EB0101A3F10103704795F0000F37D0F9
:104FA0004FEA11424FEA144721EA024624EA074C2D
:104FB00002FB07F106FB07F70CFB06F402FB0CFCF7
:104FC00014EB074441EB17414FEA154714EB0C442F
:104FD00041EB1C4125EA074C02FB07F506FB07F7EE
:104FE0000CFB06F602FB0CFC16EB074645EB1745DF
:104FF00016EB0C4645EB1C42121951F1000148BF5B
:105000007047B619524141EB0101A3F1010370470A
:105010004FEA14454FEA114724EA054621EA074CB6
:1050200005FB07F106FB07F70CFB06F24FF0000645
:1050300005FB0CFC12EB074241EB174112EB0C4253
:1050400051EB1C4148BF7047921841EB0101A3F19D
:1050500001037047490050EAC12018BF04204A0DDF
:1050600018BF40F0010040F2FF72B2EB515F08BF81
:1050700040F00200012808BF0520704730380A2898
:1050800001D20120704700207047000010B50029B0
:105090000AD00878002807D005487844FFF7D2FBEB
:1050A000002801D0002010BD0248784410BD000047
:1050B000920F00008A0F00000808A0F500114FEAC7
:1050C0003101704743004FEAD30C4FEA3C0C434098
:1050D0001FBF40070CF1605113F0FE4F70471CF0EA
:1050E000006F03D100200CF0004170470CF000432A
:1050F00043EA507010B540EACC0000F03CFA00BF23
:10510000000000924FEA0001FFF7D6BF4FF00041C8
:105110004FF00000A1F500217047000090EA010F58
:1051200048BF81F0004100F1AA82421A3CBF801AB8
:1051300089184FEAD0524FF07F4C1CEA410FA2EB86
:10514000D15318BF9CEA026F00F03B804FF0004C37
:105150004CEA00204CEA012121FA03FC10EB0C0C74
:105160001ED202F1FF325FEA1C2040EBC25038BF72
:1051700070471CF07F0F4FEA400C18BFBCF17F4F07
:1051800038BF7047C3F12003994008BF20F00100E9
:10519000BCF17F4F38BF7047A0F1C04000F031BA7A
:1051A0004FEA3C00000A40EBC25028BF1CF0FF0F42
:1051B0004FEA400CE6D018BFBCF17F4F38BF7047B4
:1051C000EAE79CEA026F05D010EA5C0F08BF00F026
:1051D0000040704710B500F0CEF900BF64FBBE3E42
:1051E000401058BFC0F14040491058BFC1F1404184
:1051F0008142EFF3008070474FF47F0C1CEAD0121D
:105200001EBF1CEAD11392EA0C0F93EA0C0F00F0B8
:10521000858090EA010F48BF42F4807240F4000C90
:1052200041F400002CF07F4120F07F4000B5814226
:10523000A2EB03020FF2081CACEB504EC0F10000D1
:105240009EF800E04FEA4E0E00FB0EFC38BF49000E
:105250004FEA2C1C02F5FA020CFB0EF34FEACE1EAD
:105260004FEA112C4FEAC1210EEB635E42EB224262
:105270000EFB0CFC4FEA1C5300FB03114FEA112CF0
:105280004FEA01310EFB0CFC4FEADC4C00FB0C1129
:10529000C14228BF09184CEB03335DF804EB10EB57
:1052A000410143EBC250B2F57C0F38BF704729D59E
:1052B00012F0F00F1CBF00F1C04000F0004070473A
:1052C000008182838485868788898B8C8D8E8F91DF
:1052D0009293959697999A9C9D9FA0A2A3A5A7A803
:1052E000AAACAEB0B2B3B5B7B9BCBEC0C2C5C7C92F
:1052F000CCCED1D4D7D9DCDFE2E6E9ECF0F3F7FA93
:10530000FE0000004FEA400C0CF1807CBCF17E4FA7
:1053100028BF7047B0F1C04000F073B990EA010FA8
:105320000CEAD11348BF42F48072624538BF63452E
:1053300007D213F47F0F16D080EA010000F000407E
:10534000704710B500F017F9097EFC3E00F005B873
:1053500080EA010000F00040704780EA010000F0A0
:10536000004000F04EB912F47F0F04BF02487047AE
:1053700080EA010000F045B90000C07F41000B0E3B
:10538000D3F19E0208D950F400034FEA032323FA15
:1053900002F048BF4042704710B500F0ECF800BF83
:1053A00049922480002070476FF0004282EA20007A
:1053B0007047000010F0004148BF4042B0FA80F34F
:1053C00010FA03F2C3F19D030BD051EAC35101EB74
:1053D0001220530638BF704700F1010008BF20F0CB
:1053E00001007047B0FA80F310FA03F2C3F19D0395
:1053F0000AD0D90501EB1220530638BF704700F1DF
:10540000010008BF20F001007047000050EA010CC5
:1054100000F113801CF5000F58BFBCF5000F01D43C
:105420008842704707D710F5000F58BF11F5000FDD
:1054300015D488427047894270471CF5000F04D587
:10544000BCF5000FF7D5814270474FF0807C1CEB14
:10545000400F38BF1CEB410F01D28142704710B59D
:1054600000F089F8922449004FF000504FF080512D
:10547000FFF7B6BE4FF47F0C1CEAD0121EBF1CEA29
:10548000D11392EA0C0F93EA0C0F00F0478090EAD8
:10549000010F48BF42F480724FF0004C4CEA0020EC
:1054A0004CEA012102EB0302A0FB0113A2F500026A
:1054B000002918BF43F001035B0028BF4FEA330304
:1054C00042EB22425FEA132C4CEBC2502EBFBCEBE6
:1054D000436FB2F57C0F70474FEA036CBCF1004F8D
:1054E00008BF20F00100B2F57C0F38BF70470BD524
:1054F00082F0FF0212F5803FC8BF704700F1C04044
:10550000D8BF00F00040704700F5000C5FEA4C0C7B
:1055100048BF7047B0F1C04000F073B890EA010F87
:105520000CEAD11348BF42F48072624538BF63452C
:1055300004D280EA010000F00040704710B500F08E
:105540001AF800BF8900013E00F007B800F009B862
:105550005FEA410C5FEA1C6C08D080EA010000F0B1
:1055600050B85FEA400C5FEA1C6CF6D14FF0004087
:10557000A0F5800070470EF1020E2EF0030E5EF8CB
:10558000044B244204D44FEA4102B2F17F4F11D8B8
:105590004FEA4003B3F17F4F0CD80ED14FEAD07CD5
:1055A000B2F17F4F0CEB4C0C0CF1020C08BF4CEB32
:1055B000D17C04E04FF0080C01E04FEAD17C0CEB09
:1055C0004C0324FA03F404F00704B4F1040C06D2EB
:1055D0000EEB840CBDE810404CF0010C6047DFE896
:1055E0000CF0070802024FF00040A0F5800010BD4B
:1055F0000846420018BFD2F1807288BF00F0004018
:1056000010BDFF2141EAD050C005704751EA000C9F
:1056100000F113801CF5000F58BFBCF5000F01D43A
:105620008142704707D711F5000F58BF10F5000FE2
:1056300015D481427047894270471CF5000F04D58C
:10564000BCF5000FF7D5884270474FF0807C1CEB0B
:10565000410F38BF1CEB400F01D28842704780EAEF
:10566000010081EA000180EA0100FFF7F8BE0000B6
:1056700090EA010F48BF81F000413FF556AD421A54
:1056800004D882F00042A0EB020011444FEAD0524D
:105690004FF07F4C1CEA410FA2EBD15318BF9CEA9C
:1056A000026F4AD04FF0004C4CEA00204CEA012136
:1056B00021FA03FCB0EB0C0C0FD412F0FE0F36D025
:1056C0005FEA4C001DD5001240EBC25038BF704756
:1056D0001CF03F0F18BF70470BE0A2F101025FEA18
:1056E0001C2040EBC25038BF70471CF07F0F18BF22
:1056F0007047C3F12003994014BF401E20F0010001
:10570000704780084FEA122308BF7047B0FA80FC48
:10571000A2EB0C02CCF1280C60FA0CF093EA122FE9
:1057200004BF00EBC25070474FEAC3707047130AC2
:105730005FEADC1008BF7047F6E79CEA026F04D00E
:1057400010EA5C0F08BF0020704710B5FFF713FF89
:1057500040DFF63E81F000407047FEF7A9BD000033
:10576000000000000000002F0000000007000700FC
:1057700000147F147F1400242A7F2A120062640818
:105780001323003649552250000005030000000095
:105790001C224100000041221C000014083E081495
:1057A0000008083E0808000000A060000008080883
:1057B0000808000060600000002010080402003E9D
:1057C0005149453E0000427F400000426151494638
:1057D000002141454B31001814127F100027454528
:1057E0004539003C4A49493000017109050300363A
:1057F0004949493600064949291E0000363600004D
:105800000000563600000008142241000014141451
:10581000141400004122140800020151090600324C
:105820004959513E007C1211127C007F494949368A
:10583000003E41414122007F4141221C007F4949F5
:105840004941007F09090901003E4149497A007F29
:105850000808087F0000417F4100002040413F01CF
:10586000007F08142241007F40404040007F020C2E
:10587000027F007F0408107F003E4141413E007FCF
:1058800009090906003E4151215E007F0919294698
:105890000046494949310001017F0101003F404074
:1058A000403F001F2040201F003F4038403F006322
:1058B0001408146300070870080700615149454344
:1058C00000007F41410000552A552A550000414102
:1058D0007F000004020102040040404040400000FC
:1058E00001020400002054545478007F4844443896
:1058F00000384444442000384444487F003854541D
:10590000541800087E0901020018A4A4A47C007F9A
:10591000080404780000447D4000004080847D003D
:10592000007F102844000000417F4000007C0418E4
:105930000478007C0804047800384444443800FCAF
:10594000242424180018242418FC007C08040408CB
:1059500000485454542000043F444020003C404040
:10596000207C001C2040201C003C4030403C004477
:1059700028102844001CA0A0A07C004464544C447F
:10598000141414141414000000000000000000009F
:10599000000000000000000000F80000000000000F
:1059A00000333000000000100C06100C0600000050
:1059B00000000000000040C07840C0784000043F74
:1059C00004043F040400007088FC08300000001844
:1059D00020FF211E0000F008F000E0180000002168
:1059E0001C031E211E0000F00888700000001E210C
:1059F00023241927211010160E00000000000000BB
:105A0000000000000000000000E018040200000098
:105A100000071820400000020418E00000000040C9
:105A2000201807000000404080F080404000020243
:105A3000010F01020200000000F00000000001015F
:105A4000011F01010100000000000000000080B003
:105A500070000000000000000000000000000001D5
:105A60000101010101010000000000000000003000
:105A7000300000000000000000008060180400609A
:105A800018060100000000E010080810E000000FF8
:105A9000102020100F00001010F80000000000205F
:105AA000203F2020000000700808088870000030A7
:105AB000282422213000003008888848300000184F
:105AC000202020110E000000C02010F80000000768
:105AD0000424243F240000F80888880808000019DE
