:020000040800F2
:10000000B00E00202D020008BF5A0008DD0F0008C6
:10001000BD5A000889090008B172000800000000FC
:100020000000000000000000000000005F69000800
:10003000370C000800000000ED6200081B6C00088F
:10004000470200084702000847020008470200086C
:100050004702000847020008390C00084702000860
:10006000470200084702000847020008470200084C
:10007000470200084702000847020008470200083C
:10008000470200084702000847020008470200082C
:10009000470200084702000847020008450D000813
:1000A000470200084702000847020008470200080C
:1000B000470200086D6C00080D6D0008470200083B
:1000C00047020008470200084702000847020008EC
:1000D000470200089D7000080171000847020008EF
:1000E000890C000847020008470200084702000880
:1000F00047020008470200084702000847020008BC
:1001000047020008470200084702000847020008AB
:10011000470200084702000847020008416D000836
:10012000470200084702000847020008470200088B
:1001300000F002F800F06BF80AA090E8000C82448E
:100140008344AAF10107DA4501D100F060F8AFF26B
:10015000090EBAE80F0013F0010F18BFFB1A43F0A5
:10016000010318473CAC00005CAC00000A444FF0AF
:10017000000C10F8013B13F0070408BF10F8014B06
:100180001D1108BF10F8015B641E05D010F8016B4B
:10019000641E01F8016BF9D113F0080F1EBF10F8AF
:1001A000014BAD1C0C1B09D16D1E58BF01F801CBD2
:1001B000FAD505E014F8016B01F8016B6D1EF9D555
:1001C0009142D6D37047000000230024002500266A
:1001D000103A28BF78C1FBD8520728BF30C148BFAA
:1001E0000B607047642900F09F80752900F09C80A7
:1001F000782900F00081632900F06082732900F003
:100200006582002070471FB51FBD10B510BD00F0FE
:1002100077FA1146FFF7F7FF07F0C6F800F095FAF6
:1002200003B4FFF7F2FF03BC07F04AF80948804720
:1002300009480047FEE7FEE7FEE7FEE7FEE7FEE7C8
:10024000FEE7FEE7FEE7FEE704480549054A064BE0
:10025000704700001D6C000831010008B008002044
:10026000B00E0020B00A0020B00A00207047000045
:100270000FB4044910B503AA029800F02BFA10BC81
:100280005DF814FBBC00002070B504468569006869
:10029000C10601D5302600E02026C00707D070BD7A
:1002A000D4E9012130469047206A401C20626D1E2F
:1002B000F6D570BD70B5044685690078C00707D1D2
:1002C00070BDD4E9012120209047206A401C2062A3
:1002D0006D1EF6D570BD70B50C460546012A05D0D9
:1002E0002878800600D5EA69002302E0012305E0B2
:1002F0005B1C934202D2E05C0028F9D1A869E618A1
:10030000C01AA861286A184428622846FFF7BCFF73
:1003100004E0D5E9012114F8010B9047B442F8D369
:100320002846FFF7C7FF70BD2DE9F04106460024BF
:1003300010687529314616A510D0AFF3008000284B
:1003400002DA404213A507E031688A0701D512A5F9
:1003500002E0490704D511A5012401E0AFF30080B4
:1003600000210A2206F1240709E0B0FBF2FCB0FBF1
:10037000F2F302FB1C00303078541846491C002868
:10038000F3D123462A463046BDE8F04100F01AB9C1
:10039000000000002D0000002B00000020000000E5
:1003A000F0B40D460188090502D5214C7C4402E0D9
:1003B0001F4C7C440E34002100F1240608E002F0BA
:1003C0000F071209E75D42EA03721B097754491CC3
:1003D00052EA0307F3D102780023120704D5702DE7
:1003E00006D009B1022311342246F0BC00F0EAB86D
:1003F00001231034F8E770B504460D462146106815
:10040000AFF30080024629462046BDE87040002335
:10041000C6E7D21D22F00703D3E90023C0E7036833
:10042000126843F0200303600823C3610023B7E789
:100430004AA700002DE9F05F894604464FF0000A04
:10044000DFF874B1FB44C0F820A02046E16888477B
:10045000002874D0252806D0D4E901219047206ACD
:10046000401C2062F1E700265F462046E16888478D
:100470002028054607DB312D05D2781910F8200C0D
:1004800008B10643F1E7B00701D526F00406C4F829
:100490001CA00027C4F818A02A2D09D0284606F071
:1004A00008FF38B304EB8708303DC8F8185019E04E
:1004B00059F8041B204604EB87029161E1688847E4
:1004C000012F054618D1E069002820DA26F0200621
:1004D0001DE0D8F8180000EB800005EB4000303834
:1004E000C8F818002046E1688847054606F0E1FE96
:1004F0000028EED1012F0AD02E2D08D12046E16828
:1005000088477F1C0546022F46F02006C4DBA06901
:10051000002803DA404246F00106A061F00701D04E
:1005200026F010066C2D0BD0682D09D04C2D39D03B
:100530006A2D35D0742D35D07A2D33D016E038E0C1
:10054000E1682F4620468847B842054609D16C2FFE
:1005500026D04FF48060E168064320468847054670
:1005600004E06C2F1AD04FF4807006430DB3A5F150
:100570004100192802D8203546F400664A4629462B
:10058000204626604E46FFF72DFE80B101280BD095
:10059000F61D26F0070000F1080956E74020E4E7C1
:1005A0008020D8E70020D6E706F104094DE7284669
:1005B00052E7206ABDE8F09FDAA600007047704756
:1005C000704770472DE9F0470D469946924604461C
:1005D00000F124080168880604D5E06921F01001C3
:1005E000216000E00120A84201DD471B00E0002758
:1005F000A1697A1902EB0900081AA0612078C006E7
:1006000002D42046FFF740FE002608E0D4E901218D
:100610001AF806009047206A401C761C20624E455E
:10062000F4DB2078C0060AD52046FFF72DFE06E051
:10063000D4E9012130209047206A401C2062381EF6
:10064000A7F10107F4DC07E0D4E9012118F805005F
:100650009047206A401C2062281EA5F10105F3DCAA
:100660002046FFF727FE2078000602D50220BDE8CD
:10067000F0870120FBE7000001694A1C026108784D
:10068000704700B58FB0CDE90131002105910549D2
:100690007944CDE9031011466846FFF7CBFE0FB051
:1006A00000BD0000E5FFFFFF10B5436913B1AFF3D4
:1006B000008001E0FFF70FFE012010BD127800F16D
:1006C00024010A7000224A700122EDE711684FF000
:1006D000FF32E9E7074B70B50D467B44FFF7D1FFCA
:1006E0000446284600F008F810B14FF0FF3070BD06
:1006F000204670BDB36C0000007B00F080007047A6
:10070000754600F02BF8AE4605006946534620F0CA
:100710000700854618B020B5FFF796FDBDE82040DC
:100720004FF000064FF000074FF000084FF0000BAD
:1007300021F00701AC46ACE8C009ACE8C009ACE860
:10074000C009ACE8C0098D46704710B50446AFF348
:1007500000802046BDE81040FFF762BD00487047AA
:10076000500800200029816802D041F0010101E019
:1007700021F00101816070470029816802D041F4B5
:10078000807101E021F48071816070470146002092
:100790008968490700D50120704701460020896813
:1007A000090700D50120704710B542680E4B0C793F
:1007B0001A400B6842EA04221343436082680B4BE1
:1007C0001A40D1E9024323434C7942EA44021343DD
:1007D0008360C26A097C22F47002491EC9B242EAEF
:1007E0000151C16210BD0000FFFEF0FFFDF7F1FFF7
:1007F00070B5072609290AD9C568A1F10A0404EBD6
:100800004404A640B543A3401D43C56007E0056905
:1008100001EB4104A640B543A3401D4305611F23DE
:10082000072A09D2446B521E02EB820293409C437A
:1008300091400C43446370BD0D2A09D2046BD21F52
:1008400002EB820293409C4391400C43046370BDD1
:10085000C46A0D3A02EB820293409C4391400C43E0
:10086000C46270BD816841F0080181607047002951
:10087000816802D041F4A00101E021F4A00181606F
:100880007047816841F004018160704708B501211B
:10089000102005F04FFD0120ADF8000000208DF87C
:1008A00003006946034800F0CBFABDE8084000F0B9
:1008B00003B800000010014070B5012190B0084657
:1008C00005F020FD0121480205F034FD2B4E304695
:1008D00000F022F92A4800902A4801A900240125A5
:1008E00081E8310028020494CDE90540800007909A
:1008F000202008900002CDE909046946304600F046
:100900007DF90121304600F0FBF88DF830400B9462
:100910008DF831504FF46020CDE90D04184C8DF85E
:100920003C504C3C0BA92046FFF73EFF4FF44040A3
:1009300005F0DEFC052301220A212046FFF758FFBF
:1009400001212046FFF718FF01212046FFF70AFF8B
:100950002046FFF787FF2046FFF71FFF0028FAD148
:100960002046FFF78EFF2046FFF710FF0028FAD140
:1009700001212046FFF77BFF10B070BD0800024048
:100980004C240140B2000020FEE7000010B50378BF
:100990000A78934216D94A78934213D242780C7956
:1009A000A2420FD94C79A2420CD280788C78A04216
:1009B00008D9C978884205D203490B7048708A70FB
:1009C000012010BD002010BD900000202DE9FE4F39
:1009D00000269946144688460746050017D01FFA98
:1009E00088F1A8B26A4605F067FD01A9684605F0DE
:1009F000F7FC214601A8FFF7C9FF00B9761C216961
:100A0000A0680844B6EB501F01D86D1EE7D10295CF
:100A100000263D4616E01FFA88F1A8B26A4605F0A6
:100A20004BFD01A9684605F0DBFC214601A8FFF754
:100A3000ADFF00B9761C2169A0680844B6EB501FD1
:100A400002D86D1CF02DE6D3AB460026454615E0D6
:100A5000A9B2B8B26A4605F02FFD01A9684605F0B3
:100A6000BFFC214601A8FFF791FF00B9761C616920
:100A7000E0680844B6EB501F02D86D1E3C2DE7D845
:100A8000AA46464600254FF4A07815E0B1B2B8B2A8
:100A90006A4605F011FD01A9684605F0A1FC214652
:100AA00001A8FFF773FF00B96D1C6169E068084495
:100AB000B5EB501F02D8761C4645E7D30298584440
:100AC00041080AEB0600C9F800104108C9F80410F3
:100AD0000299ABEB0100A6EB0A01C9E90201A26889
:100AE00090420BD92269904208D2E068814205D930
:100AF0006069814202D20120BDE8FE8F0020FBE741
:100B00000029016802D041F0010102E04FF6FE72B7
:100B1000114001607047000001684FF6FE721140FD
:100B200001600021016041608160C1603149314A4A
:100B30000839904203D1486840F00F0006E02D4A82
:100B40001432904204D1486840F0F0004860704789
:100B5000284A2832904203D1486840F47060F5E793
:100B6000244A3C32904203D1486840F47040EDE79B
:100B7000204A5032904203D1486840F47020E5E7A3
:100B80001C4A6432904203D1486840F47000DDE7AB
:100B9000184A7832904203D1486840F07060D5E737
:100BA000154A111F904203D1086840F00F0006E07B
:100BB000114A1432904204D1086840F0F0000860F5
:100BC00070470D4A2832904203D1086840F47060A3
:100BD000F5E7094A3C32904203D1086840F470407E
:100BE000EDE7054A50329042EAD1086840F470209F
:100BF000E5E70000080002400804024030B5026842
:100C000047F6F0739A430C6A8B682343D1E9044595
:100C10002C4323438C692343CC6923434C6A2343ED
:100C20008C6A234313430360CA6842600A68826087
:100C30004968C16030BD704710B50A2006F060FBFE
:100C400001210E4800F076F901280DD10C49D1F8A8
:100C5000A00170B10020C1F8A0010A49D1F88801B3
:100C600048B10020C1F88801BDE81040012000F023
:100C700085B80120EFE70120F4E7000000080140FB
:100C8000000021420080224210B54FF4004420466B
:100C900000F07AF801280FD10A4B197802290BD2FB
:100CA000094A002021B9C2F880010120C2F8800160
:100CB000C2F8B001491C19702046BDE8104000F090
:100CC0005DB8000029000020000021427FB501210D
:100CD000052005F02FFB0121184800F0FFF84FF424
:100CE0000044ADF80C404820154D8DF80F0003A9C5
:100CF000284600F0A5F82146284600F022F90F21E9
:100D0000002000F089F800208DF804000C200094E9
:100D10008DF8050001248DF80640684600F044F87F
:100D200028208DF8080002208DF809008DF80A406F
:100D30008DF80B4002A804F0C3FE7FBD0002300016
:100D40000008014010B50A2006F0DAFA202109480F
:100D500000F0F0F830B90849D1F8A00138B100200E
:100D6000C1F8A001BDE81040202000F007B8012024
:100D7000F6E7000000100140000021420149086030
:100D80007047000014040140064A01460020126822
:100D9000044B0A4014331B680B4202D0002A00D0D7
:100DA000012070470004014030B51A4A8379016878
:100DB00053B313688B431360111D0B680468A3437E
:100DC0000B60017911440B68046823430B60114BDD
:100DD000083319680468A14319601C1D216805685F
:100DE000A94321604179102905D011440A6800689F
:100DF00002430A6030BD1968026811431960216816
:100E000000680143216030BD0079104402688A43C4
:100E1000026030BD0004014010B58A0721F00304D0
:100E20000649120F21440F238C6893409C438C6029
:100E30008B68904003438B6010BD000000000140B0
:100E4000F0B5CC78002204F00F03E40601D58C78CD
:100E500023430C784FF00F0C14F0FF0F4FF0010EEE
:100E60001BD005680E880EFA02F42640A64210D167
:100E700096000CFA06F725EA070703FA06F5CE787E
:100E80003D43282E02D0482E02D002E0446100E00B
:100E90000461521C082AE5D305600A88FF2A1CD980
:100EA0004468002202F108060EFA06F50E882E406C
:100EB000AE420ED196000CFA06F7BC4303FA06F7D1
:100EC000CE783C43282E00D14561CE78482E00D103
:100ED0000561521C082AE5D34460F0BDF0B5144CFE
:100EE000002801DAE36900E06368450D2E0185B250
:100EF000C0F30157B540C0F30342032F05D0C6022B
:100F00000AD503269640B34307E023F07062636876
:100F100023F07063636002E0AB4343F0706201B1A1
:100F20002A43002801DAE261F0BD6260F0BD0000F2
:100F3000000001400246002092680A4200D00120D1
:100F4000704701617047000030B403460C465007FB
:100F500000D0012000EBD2005043C1B218785B787A
:100F6000812809D3402B07D3FF2B05D0FF2803D0BE
:100F70007F2B0CD2403B0BE00022104603E0521CBA
:100F800004F8010BD2B28A42F9D330BC7047413B1E
:100F90008138C0B2C0EB4015DBB205EB801003EB2B
:100FA000400048430C490C2A0BD0102A0ED0182AB6
:100FB000EBD1D1F8191048220144204630BC05F08D
:100FC0005DBCD1F8091018220144F6E7D1F81110E0
:100FD00020220144F1E700002E080020FEE7C0F3C4
:100FE0004511C20AC00200EB4110104480B27047A4
:100FF0002DE9F0431C4F0646002438887D88454380
:10100000B888A0F5D041043902D1B87901280CD0B4
:101010000021084604F014F904F00AFD13494FF4C6
:1010200080774B15124A80201AE00020B8714FF0EB
:101030002A08A7F80A804FF02B09A7F80C90014660
:1010400004F0FEF80120B871A7F80A90A7F80C8008
:10105000E2E70F614B611660486108610B61641C37
:10106000AC42F6D3BDE8F0838402002000100140BA
:101070000C0C01402DE9F04F4A492A232B24898882
:1010800045F2105A4FF4305B4FF4285E4FF4487528
:101090004FF0F00C49F241394FF4A07745F2103689
:1010A0004FF4F07280B13F484FF00108494580F895
:1010B00006800780A0F802C001D0B1423ED12C25A5
:1010C00005814381848157E036484FF00008494547
:1010D00080F80680A0F800C0478006D0A1F5D04C6B
:1010E000BCF1040C01D0B1420CD12C250581438107
:1010F000A1F5D0438481043B01D0B14244D10780A3
:10110000428041E0514507D1A0F808B0A0F80AE0BC
:101110004FF42C5181810EE0A1F5C856633E06D0F4
:101120002221018120214181212181812CE02C215A
:101130000181448183810280458025E0A1F5D04C66
:10114000BCF1040C09D051450BD1A0F808B0A0F8AF
:101150000AE04FF42C53838121E02C250581448142
:1011600009E0A1F5C85CBCF1630C12D02223038115
:101170002123438120238381A1F5D043043B01D067
:10118000B14201D102804780BDE8F04F002003F05A
:10119000DDBE4FF02C0CA0F808C04381848105808F
:1011A0004280E9E7840200202DE9F74F0546904888
:1011B00081B0DFF840A2818802982F0A00F0FF0971
:1011C0004FEA1028E8B200908948A1F513424FF485
:1011D000807B40894FF40076413A18D0844CA1F5C9
:1011E000A642103A13D0A1F5AA42103A36D02246B0
:1011F000A1F5C85793791288521B521E633F63D0E2
:10120000A1F5D047043F7DD0012B7CD0D1E004F084
:10121000FDFB794CC4F810B06661CAF800708025F7
:10122000656125612661C4F810B066610098CAF84E
:1012300000006561256126616D48808904F0E6FB48
:10124000C4F810B066615146CAF800806561256136
:101250002661C4F810B06661484631E004F0D6FB60
:10126000654CC4F810B06661CAF8007080256561ED
:10127000256126615E484089401C80B204F0C6FBAF
:10128000C4F810B066610098CAF800006561256175
:1012900026615748808904F0B9FBC4F810B0666134
:1012A000CAF8008065612561266151488089401C2B
:1012B00080B204F0ABFBC4F810B0666148465146FA
:1012C00008606561256171E003B995B204F09EFB89
:1012D000494CC4F810B06661280ACAF8000080279B
:1012E000676127612661C4F810B06661E9B2CAF887
:1012F0000010676127612661C4F810B06661CAF802
:10130000000001E025E053E0676127612661C4F831
:1013100010B06661CAF80010676127612661344821
:10132000808904F073FBC4F810B066615146CAF8B6
:101330000080676127612661C4F810B06661CAF851
:101340000090676127612661C4F810B0666140466D
:1013500021E0012B00D195B204F058FB264CC4F8D3
:1013600010B06661290ACAF80010802767612761FA
:101370002661C4F810B06661E9B2CAF8001067616E
:10138000276126611A48808904F040FBC4F810B038
:101390006661404651460860676127612661C4F86E
:1013A00010B06661C1F8009067612761266107E0AF
:1013B00095B2294604F042FBA089029904F03EFB55
:1013C0000D48C0F814B0466109490989CAF80010EF
:1013D0008021416101610661C0F810B04661039B44
:1013E000CAF80030416101610661BDE8FF8F00006D
:1013F000840200200C0C0140001001402DE9F84F40
:10140000264D81469846A8880A9EA0F5D043043B05
:1014100002D1A87901280AD0A2EB0900401C85B2AC
:101420000C461F4F4FF4007A4FF0800B32E02B88B0
:101430000846991A0024AC712A24A3EB09036C8195
:101440002B27491E5B1EAF8189B242469BB2009694
:10145000FFF7D4FF0120A8716F81AC81BDE8F88F40
:101460002146484603F0ECFE04F0E2FA00204FF477
:10147000807C53460B4A594608E0C7F810C07B6190
:101480001660796139613B61401C80B2A842F4D397
:10149000641CA4B24445E3D9E0E7000084020020C4
:1014A000001001400C0C01402DE9F84F01211920DA
:1014B00004F040FF0121FE48FFF710FD4FF4F864EF
:1014C000ADF8004010208DF80300DFF8E88303201A
:1014D0008DF80200694645464046FFF7B1FC2146BB
:1014E0002846FFF72EFDF44D4FF6FF74ADF800408F
:1014F00069462846FFF7A4FC21462846FFF721FD50
:10150000322005F0FDFE0121002004F097FA322080
:1015100005F0F6FE002003F0C3FCE84C49F2413729
:1015200046F60409A08045F2103A45F21055FF280E
:1015300006D3A0F57F41FF3902D0B0F5134F70D12B
:10154000D32004F063FA03F0A9FB03F0A7FB03F038
:10155000A5FB4FF6FF7606EA0020A08003F09EFB75
:10156000A1880843A080B8425BD0BF2004F04EFAA7
:1015700003F094FB03F092FB03F090FB03F08EFB6F
:1015800006EA0020A08003F089FBA1880843A08020
:10159000484546D0D42004F039FA03F07FFB03F02D
:1015A0007DFB03F07BFB06EA0020A08003F076FBC6
:1015B000A1880843A080504533D04FF45A4004F02E
:1015C00025FA03F06BFB4FF45B4004F01FFA03F0C5
:1015D00065FB06EA0020A0804FF45C4004F016FA98
:1015E00003F05CFBA1880843A080B0F5004F7DD0DC
:1015F000A84216D0A12004F009FA03F04FFBA08006
:1016000003F04CFB06EA0020A08003F047FBA18812
:101610000843A0F5AE41A080613902D141F66310C4
:10162000A080A188A6A0FEF723FEA088B8427DD1A5
:10163000CF2004F0EBF9002004F0D6F9C12004F02B
:10164000D3F9302004F0D0F9ED2004F0DFF9642064
:1016500004F0CAF9032004F0C7F9122004F0C4F919
:10166000812004F0C1F9E82004F0D0F9852004F0CD
:10167000BBF9102004F0B8F97A2004F0B5F9CB20BA
:1016800004F0C4F9392004F0AFF92C2004F0ACF9CF
:10169000002004F0A9F9342004F0A6F9022004F097
:1016A000A3F9F72004F0B2F9202004F09DF9EA2014
:1016B00004F0ACF9002004F097F9002004F094F94C
:1016C000C02004F0A3F91B2004F08EF9C12004F01F
:1016D0009DF9012004F088F9C52004F097F9302025
:1016E00004F082F9302004F07FF900E0B3E0C72075
:1016F00004F08CF9B72004F077F9362004F086F96D
:10170000482004F071F93A2004F080F9552004F0E3
:101710006BF9B12004F07AF9002004F065F91A2081
:1017200004F062F9B62004F071F900E095E00A20B7
:1017300004F05AF9A22004F057F9F22004F066F9F7
:10174000002004F051F9262004F060F9012004F093
:101750004BF9E02004F05AF90F2004F045F92A2053
:1017600004F042F9282004F03FF9082004F03CF985
:101770000E2004F039F9082004F036F9542004F062
:1017800033F9A92004F030F9432004F02DF90A20A0
:1017900004F02AF90F2004F027F9002004F024F9BE
:1017A000002004F021F9002004F01EF9002004F0CC
:1017B0001BF9E12004F02AF9002004F015F91520A6
:1017C00004F012F9172004F00FF9072004F00CF9C7
:1017D000112004F009F9062004F006F92B2004F08A
:1017E00003F9562004F000F93C2004F0FDF8052030
:1017F00004F0FAF8102004F0F7F80F2004F0F4F8E1
:101800003F2004F0F1F83F2004F0EEF80F2004F040
:10181000EBF82B2004F0FAF8002004F0E5F80020A3
:1018200004F0E2F8012004F0DFF83F2004F0DCF8D7
:101830002A2004F0EBF8002004F0D6F8002004F091
:10184000D3F8002004F0D0F8EF2004F0CDF81120F8
:1018500004F0DCF8B8E0A580E3E648457ED111202D
:1018600004F0D4F8142005F04BFDD02004F0CEF89D
:10187000072004F0B9F8422004F0B6F81D2004F067
:10188000B3F8D12004F0C2F8002004F0ADF81A201B
:1018900004F0AAF8092004F0A7F8D22004F0B6F862
:1018A000012004F0A1F8222004F09EF8C0200FE0EF
:1018B0000002300000100140000C014084020020B2
:1018C000204C43442049443A25780D0A000000008A
:1018D00004F09CF8102004F087F83B2004F084F812
:1018E000002004F081F8022004F07EF8112004F0BA
:1018F0007BF8C52004F08AF8032004F075F8C820AE
:1019000004F084F8002004F06FF8252004F06CF84F
:10191000212004F069F8052004F066F8002004F0A6
:1019200063F80A2004F060F8652004F05DF82520D3
:1019300004F05AF8772004F057F8502004F054F8D7
:101940000F2004F051F8002004F04EF8F82004F0C5
:101950005DF8012004F048F8FE2000E03AE004F0D1
:1019600055F8002004F040F8022004F03DF8202053
:1019700004F04CF8362004F049F8082004F034F85C
:101980003A2004F043F8552004F02EF82B2004F000
:101990003DF8002004F028F8002004F025F801208C
:1019A00004F022F83F2004F01FF82A2004F02EF85B
:1019B000002004F019F8002004F016F8012004F0CB
:1019C00013F8DF2004F010F8782005F099FC2920A6
:1019D00001F0FBBE50457CD1ED2004F017F801204A
:1019E00004F002F8FE2003F0FFFFEE2004F00EF8F2
:1019F000DE2003F0F9FF212003F0F6FFF12004F0D0
:101A000005F8012003F0F0FFDF2003F0FFFF1020B6
:101A100003F0EAFFC42003F0F9FF8F2003F0E4FF96
:101A2000C62003F0F3FF002003F0DEFFE22003F006
:101A3000DBFFE22003F0D8FFE22003F0D5FFBF2058
:101A400003F0E4FFAA2003F0CFFFB02003F0DEFF95
:101A50000D2003F0C9FF002003F0C6FF0D2003F0A6
:101A6000C3FF002003F0C0FF112003F0BDFF0020E2
:101A700003F0BAFF192003F0B7FF002003F0B4FF12
:101A8000212003F0B1FF002003F0AEFF2D2003F072
:101A9000ABFF002003F0A8FF3D2003F0A5FF0020CE
:101AA00003F0A2FF5D2003F09FFF002003F09CFFE6
:101AB0005D2003F099FF002003F096FFB12003F0B2
:101AC000A5FF802003F090FF002003F08DFF8B2006
:101AD00000E0FCE303F088FF002003F085FF962080
:101AE00003F082FF002003F07FFFB22003F08EFF9F
:101AF000002003F079FF002003F076FF022003F0BE
:101B000073FF002003F070FF032003F06DFF00203F
:101B100003F06AFFB32003F079FF002003F064FFB5
:101B2000002003F061FF002003F05EFF002003F0BF
:101B30005BFF002003F058FF002003F055FF00205A
:101B400003F052FF002003F04FFF002003F04CFF92
:101B5000002003F049FF002003F046FF002003F0BF
:101B600043FF002003F040FF002003F03DFF002072
:101B700003F03AFF002003F037FF002003F034FFAA
:101B8000002003F031FF002003F02EFF002003F0BF
:101B90002BFF002003F028FF002003F025FF00208A
:101BA00003F022FF002003F01FFFB42003F02EFFFC
:101BB0008B2003F019FF002003F016FF962003F09E
:101BC00013FF002003F010FFA12003F00DFF002001
:101BD00003F00AFFB52003F019FF022003F004FF11
:101BE000002003F001FF032003F0FEFE002003F0BD
:101BF000FBFE042003F0F8FE002003F0F5FEB62003
:101C000003F004FF002003F0EFFE002003F0ECFEE1
:101C1000B72003F0FBFE002003F0E6FE002003F0F7
:101C2000E3FE3F2003F0E0FE002003F0DDFE5E2037
:101C300003F0DAFE002003F0D7FE642003F0D4FEA8
:101C4000002003F0D1FE8C2003F0CEFE002003F034
:101C5000CBFEAC2003F0C8FE002003F0C5FEDC2064
:101C600003F0C2FE002003F0BFFE702003F0BCFEB4
:101C7000002003F0B9FE902003F0B6FE002003F030
:101C8000B3FEEB2003F0B0FE002003F0ADFEDC203D
:101C900003F0AAFE002003F0A7FEB82003F0B6FE72
:101CA000002003F0A1FE002003F09EFE002003F0C0
:101CB0009BFE002003F098FE002003F095FE00201C
:101CC00003F092FE002003F08FFE002003F08CFE54
:101CD000BA2003F09BFE242003F086FE002003F0D0
:101CE00083FE002003F080FE002003F07DFEC12073
:101CF00003F08CFE202003F077FE002003F074FE3A
:101D0000542003F071FE002003F06EFEFF2003F06C
:101D10006BFE002003F068FEC22003F077FE0A206D
:101D200003F062FE002003F05FFE042003F05CFE7F
:101D3000002003F059FEC32003F068FE3C2003F0AE
:101D400053FE002003F050FE3A2003F04DFE002029
:101D500003F04AFE392003F047FE002003F044FE62
:101D6000372003F041FE002003F03EFE3C2003F04C
:101D70003BFE002003F038FE362003F035FE002045
:101D800003F032FE322003F02FFE002003F02CFE81
:101D90002F2003F029FE002003F026FE2C2003F064
:101DA00023FE002003F020FE292003F01DFE00206A
:101DB00003F01AFE262003F017FE002003F014FEA5
:101DC000242003F011FE002003F00EFE242003F077
:101DD0000BFE002003F008FE232003F005FE002088
:101DE00003F002FE3C2003F0FFFD002003F0FCFDA9
:101DF000362003F0F9FD002003F0F6FD322003F059
:101E0000F3FD002003F0F0FD2F2003F0EDFD002096
:101E100003F0EAFD2C2003F0E7FD002003F0E4FDD1
:101E2000292003F0E1FD002003F0DEFD262003F071
:101E3000DBFD002003F0D8FD242003F0D5FD0020B9
:101E400003F0D2FD242003F0CFFD002003F0CCFDF1
:101E5000232003F0C9FD002003F0C6FDC42003F0D9
:101E6000D5FD622003F0C0FD002003F0BDFD05207C
:101E700003F0BAFD002003F0B7FD842003F0B4FDA9
:101E8000002003F0B1FDF02003F0AEFD002003F0D0
:101E9000ABFD182003F0A8FD002003F0A5FDA42051
:101EA00003F0A2FD002003F09FFD182003F09CFD2D
:101EB000002003F099FD502003F096FD002003F070
:101EC00093FD0C2003F090FD002003F08DFD172002
:101ED00003F08AFD002003F087FD952003F084FDC8
:101EE000002003F081FDF32003F07EFD002003F0CD
:101EF0007BFDE62003F078FD002003F075FDC52092
:101F000003F084FD322003F06FFD002003F06CFD30
:101F1000442003F069FD002003F066FD652003F016
:101F200063FD002003F060FD762003F05DFD0020DE
:101F300003F05AFD882003F057FD002003F054FD04
:101F4000C62003F063FD202003F04EFD002003F0C7
:101F50004BFD172003F048FD002003F045FD012054
:101F600003F042FD002003F03FFDC72003F04EFDCB
:101F7000002003F039FD002003F036FD002003F0BF
:101F800033FD002003F030FDC82003F03FFD0020AA
:101F900003F02AFD002003F027FD002003F024FDBC
:101FA000002003F021FDC92003F030FD002003F0E4
:101FB0001BFD002003F018FD002003F015FD00209C
:101FC00003F012FD002003F00FFD002003F00CFDD4
:101FD000002003F009FD002003F006FD002003F0BF
:101FE00003FD002003F000FD002003F0FDFC0020B5
:101FF00003F0FAFC002003F0F7FC002003F0F4FCEF
:10200000002003F0F1FC002003F0EEFCE02003F0E0
:10201000FDFC162003F0E8FC002003F0E5FC1C208A
:1020200003F0E2FC002003F0DFFC212003F0DCFCE5
:10203000002003F0D9FC362003F0D6FC002003F08A
:10204000D3FC462003F0D0FC002003F0CDFC52204E
:1020500003F0CAFC002003F0C7FC642003F0C4FCBA
:10206000002003F0C1FC7A2003F0BEFC002003F046
:10207000BBFC8B2003F0B8FC002003F0B5FC9920DA
:1020800003F0B2FC002003F0AFFCA82003F0ACFC8E
:10209000002003F0A9FCB92003F0A6FC002003F007
:1020A000A3FCC42003F0A0FC002003F09DFCCA2088
:1020B00003F09AFC002003F097FCD22003F094FC7C
:1020C000002003F091FCD92003F08EFC002003F0E7
:1020D0008BFCE02003F088FC002003F085FCF3205B
:1020E00003F082FC002003F07FFCE12003F08EFC73
:1020F000162003F079FC002003F076FC1C2003F08E
:1021000073FC002003F070FC222003F06DFC002023
:1021100003F06AFC362003F067FC002003F064FC47
:10212000452003F061FC002003F05EFC522003F028
:102130005BFC002003F058FC642003F055FC0020F9
:1021400003F052FC7A2003F04FFC002003F04CFC1B
:102150008B2003F049FC002003F046FC992003F09B
:1021600043FC002003F040FCA82003F03DFC0020CD
:1021700003F03AFCB92003F037FC002003F034FCF4
:10218000C42003F031FC002003F02EFCCA2003F031
:102190002BFC002003F028FCD22003F025FC0020BB
:1021A00003F022FCD82003F01FFC002003F01CFCED
:1021B000E02003F019FC002003F016FCF32003F0EC
:1021C00013FC002003F010FCE22003F01FFC0520AC
:1021D00003F00AFC002003F007FC0B2003F004FCD2
:1021E000002003F001FC1B2003F0FEFB002003F0A5
:1021F000FBFB342003F0F8FB002003F0F5FB442048
:1022000003F0F2FB002003F0EFFB4F2003F0ECFBA8
:10221000002003F0E9FB612003F0E6FB002003F05F
:10222000E3FB792003F0E0FB002003F0DDFB8820D6
:1022300003F0DAFB002003F0D7FB972003F0D4FB78
:10224000002003F0D1FBA62003F0CEFB002003F01A
:10225000CBFBB72003F0C8FB002003F0C5FBC22076
:1022600003F0C2FB002003F0BFFBC72003F0BCFB60
:10227000002003F0B9FBD12003F0B6FB002003F0EF
:10228000B3FBD62003F0B0FB002003F0ADFBDD2054
:1022900003F0AAFB002003F0A7FBF32003F0A4FB4C
:1022A000002003F0A1FBE32003F0B0FB052003F0C6
:1022B0009BFB002003F098FB0A2003F095FB002015
:1022C00003F092FB1C2003F08FFB002000E0FDE2F6
:1022D00003F08AFB332003F087FB002003F084FB2C
:1022E000442003F081FB002003F07EFB502003F02C
:1022F0007BFB002003F078FB622003F075FB0020DD
:1023000003F072FB782003F06FFB002003F06CFBFE
:10231000882003F069FB002003F066FB972003F0A0
:1023200063FB002003F060FBA62003F05DFB0020B0
:1023300003F05AFBB72003F057FB002003F054FBD7
:10234000C22003F051FB002003F04EFBC72003F036
:102350004BFB002003F048FBD12003F045FB00209D
:1023600003F042FBD52003F03FFB002003F03CFBD1
:10237000DD2003F039FB002003F036FBF32003F0EF
:1023800033FB002003F030FBE42003F03FFB01208F
:1023900003F02AFB002003F027FB012003F024FBBD
:1023A000002003F021FB022003F01EFB002003F0BD
:1023B0001BFB2A2003F018FB002003F015FB3C2038
:1023C00003F012FB002003F00FFB4B2003F00CFB8B
:1023D000002003F009FB5D2003F006FB002003F062
:1023E00003FB742003F000FB002003F0FDFA8420BF
:1023F00003F0FAFA002003F0F7FA932003F0F4FA5E
:10240000002003F0F1FAA22003F0EEFA002003F01E
:10241000EBFAB32003F0E8FA002003F0E5FABE205F
:1024200003F0E2FA002003F0DFFAC42003F0DCFA44
:10243000002003F0D9FACD2003F0D6FA002003F0F3
:10244000D3FAD32003F0D0FA002003F0CDFADD2038
:1024500003F0CAFA002003F0C7FAF32003F0C4FA2D
:10246000002003F0C1FAE52003F0D0FA002003F0C9
:10247000BBFA002003F0B8FA002003F0B5FA002000
:1024800003F0B2FA022003F0AFFA002003F0ACFA36
:10249000292003F0A9FA002003F0A6FA3C2003F05B
:1024A000A3FA002003F0A0FA4B2003F09DFA0020CD
:1024B00003F09AFA5D2003F097FA002003F094FAF3
:1024C000742003F091FA002003F08EFA842003F0C8
:1024D0008BFA002003F088FA932003F085FA00209D
:1024E00003F082FAA22003F07FFA002003F07CFAC6
:1024F000B32003F079FA002003F076FABE2003F04F
:1025000073FA002003F070FAC42003F06DFA002083
:1025100003F06AFACD2003F067FA002003F064FAB2
:10252000D32003F061FA002003F05EFADC2003F010
:102530005BFA002003F058FAF32003F055FA00206C
:1025400003F052FAE62003F061FA112003F04CFA8E
:10255000002003F049FA342003F046FA002003F08B
:1025600043FA562003F040FA002003F03DFA7620AB
:1025700003F03AFA002003F037FA772003F034FA38
:10258000002003F031FA662003F02EFA002003F059
:102590002BFA882003F028FA002003F025FA99206E
:1025A00003F022FA002003F01FFABB2003F01CFA0C
:1025B000002003F019FA992003F016FA002003F026
:1025C00013FA662003F010FA002003F00DFA5520EC
:1025D00003F00AFA002003F007FA552003F004FA8A
:1025E000002003F001FA452003F0FEF9002003F07B
:1025F000FBF9432003F0F8F9002003F0F5F944203B
:1026000003F0F2F9002003F0EFF9E72003F0FEF900
:10261000322003F0E9F9002003F0E6F9552003F039
:10262000E3F9002003F0E0F9762003F0DDF9002063
:1026300003F0DAF9662003F0D7F9002003F0D4F9AB
:10264000672003F0D1F9002003F0CEF9672003F0F2
:10265000CBF9002003F0C8F9872003F0C5F900206A
:1026600003F0C2F9992003F0BFF9002003F0BCF990
:10267000BB2003F0B9F9002003F0B6F9992003F06C
:10268000B3F9002003F0B0F9772003F0ADF9002092
:1026900003F0AAF9442003F0A7F9002003F0A4F9FD
:1026A000562003F0A1F9002003F09EF9232003F047
:1026B0009BF9002003F098F9332003F095F90020EE
:1026C00003F092F9452003F08FF9002003F08CF914
:1026D000E82003F09BF9002003F086F9002003F0C6
:1026E00083F9992003F080F9002003F07DF9872019
:1026F00003F07AF9002003F077F9882003F074F9E9
:10270000002003F071F9772003F06EF9002003F048
:102710006BF9662003F068F9002003F065F9882062
:1027200003F062F9002003F05FF9AA2003F05CF9DE
:10273000002003F059F9BB2003F056F9002003F004
:1027400053F9992003F050F9002003F04DF9662069
:1027500003F04AF9002003F047F9552003F044F94B
:10276000002003F041F9552003F03EF9002003F06A
:102770003BF9442003F038F9002003F035F94420F8
:1027800003F032F9002003F02FF9552003F02CF963
:10279000002003F029F9E92003F038F9AA2003F01A
:1027A00023F9002003F020F9002003F01DF9002098
:1027B00003F01AF9002003F029F9AA2003F014F914
:1027C000CF2003F023F9002003F00EF9002003F0DE
:1027D0000BF9002003F008F9002003F005F90020B0
:1027E00003F002F9002003F0FFF8002003F0FCF8EA
:1027F000002003F0F9F8002003F0F6F8002003F0C1
:10280000F3F8002003F0F0F8002003F0EDF80020CA
:1028100003F0EAF8002003F0E7F8002003F0E4F802
:10282000002003F0E1F8002003F0DEF8F02003F0D0
:10283000EDF8002003F0D8F8502003F0D5F8002080
:1028400003F0D2F8002003F0CFF8002003F0CCF81A
:10285000F32003F0DBF8002003F0C6F8F92003F0C2
:10286000D5F8062003F0C0F8102003F0BDF82920A9
:1028700003F0BAF8002003F0B7F83A2003F0C6F8E6
:10288000552003F0B1F8112003F0C0F8642004F0E3
:1028900037FD292003F0BAF8352003F0B7F80020FF
:1028A00003F0A2F8512003F0B1F8FF2003F09CF8E8
:1028B000532003F0ABF82C2003F096F8552003F0DA
:1028C000A5F8822003F090F82C20FCE3A8427DD1EB
:1028D0004FF470445521204603F0B0F8651CAA213E
:1028E000284603F0ABF8A61C5221304603F0A6F8A8
:1028F000E71C0821384603F0A1F84FF20408012133
:10290000404603F09BF80D214FF4304003F096F859
:102910000D214BF2010003F091F80D214BF2020062
:1029200003F08CF84FF436493421484603F086F81A
:1029300034214BF2016003F081F834214BF2026044
:1029400003F07CF84FF4314A0D21504603F076F83D
:102950004BF2011B0D21584603F070F80D214BF28C
:10296000021003F06BF834214FF4374003F066F89F
:1029700034214BF2017003F061F834214BF2027004
:1029800003F05CF800214FF4324003F057F80021C7
:102990004BF2012003F052F800214BF2022003F029
:1029A0004DF824214FF4384003F048F824214BF629
:1029B000010003F043F824214BF6020003F03EF837
:1029C00001214FF43F4003F039F800E0FEE30F210E
:1029D0004FF4334003F032F80F214BF2013003F093
:1029E0002DF80F214BF2023003F028F834214FF478
:1029F000394003F023F834214BF6011003F01EF8A0
:102A000034214BF6021003F019F808214FF4354039
:102A100003F014F808214BF2015003F00FF80821DD
:102A20004BF2025003F00AF803214FF4424003F046
:102A300005F824214FF43A4003F000F824214BF626
:102A4000012002F0FBFF24214BF6022002F0F6FFEA
:102A500000214FF43C4002F0F1FF78214BF6014099
:102A600002F0ECFF00214BF6024002F0E7FF0021EC
:102A70004FF43D4002F0E2FF78214BF6015002F0A6
:102A8000DDFF00214BF6025002F0D8FF00214FF489
:102A90003E4002F0D3FF64214BF6016002F0CEFF0E
:102AA00000214FF4514002F0C9FF33214DF20110D3
:102AB00002F0C4FF00214DF2021002F0BFFF3421EA
:102AC0004DF2031002F0BAFF00214DF2041002F0A3
:102AD000B5FF3A214DF2051002F0B0FF00214DF292
:102AE000061002F0ABFF4A214DF2071002F0A6FFDC
:102AF00000214DF2081002F0A1FF5C214DF20910F7
:102B000002F09CFF00214DF20A1002F097FF812194
:102B10004DF20B1002F092FF00214DF20C1002F06A
:102B20008DFFA6214DF20D1002F088FF00214DF21D
:102B30000E1002F083FFE5214DF20F1002F07EFF30
:102B400001214DF2101002F079FF13214DF2111006
:102B500002F074FF01214DF2121002F06FFF5421B8
:102B60004DF2131002F06AFF01214DF2141002F031
:102B700065FF82214DF2151002F060FF01214DF238
:102B8000161002F05BFFCA214DF2171002F056FF3B
:102B900002214DF2181002F051FF00214DF21910E0
:102BA00002F04CFF02214DF21A1002F047FF012102
:102BB0004DF21B1002F042FF02214DF21C1002F0F8
:102BC0003DFF34214DF21D1002F038FF02214DF27D
:102BD0001E1002F033FF67214DF21F1002F02EFF8E
:102BE00002214DF2201002F029FF84214DF2211024
:102BF00002F024FF02214DF2221002F01FFFA42157
:102C00004DF2231002F01AFF02214DF2241002F0BF
:102C100015FFB7214DF2251002F010FF02214DF2F1
:102C2000261002F00BFFCF214DF2271002F006FF15
:102C300002214DF2281002F001FFDE214DF2291091
:102C400002F0FCFE02214DF22A1002F0F7FEF22102
:102C50004DF22B1002F0F2FE02214DF22C1002F088
:102C6000EDFEFE214DF22D1002F0E8FE03214DF2A3
:102C70002E1002F0E3FE10214DF22F1002F0DEFEC6
:102C800003214DF2301002F0D9FE33214DF2311004
:102C900002F0D4FE03214DF2321002F0CFFE6D217E
:102CA0004DF2331002F0CAFE00214FF4524002F000
:102CB000C5FE33214DF2012002F0C0FE00214DF28D
:102CC000022002F0BBFE34214DF2032002F0B6FEDA
:102CD00000214DF2042002F0B1FE3A214DF2052010
:102CE00002F0ACFE00214DF2062002F0A7FE4A21C0
:102CF0004DF2072002F0A2FE00214DF2082002F062
:102D00009DFE5C214DF2092002F098FE00214DF25B
:102D10000A2002F093FE81214DF20B2002F08EFE7C
:102D200000214DF20C2002F089FEA6214DF20D206B
:102D300002F084FE00214DF20E2002F07FFEE5211C
:102D40004DF20F2002F07AFE01214DF2102002F028
:102D500075FE13214DF2112002F070FE01214DF29B
:102D6000122002F06BFE54214DF2132002F066FE99
:102D700001214DF2142002F061FE82214DF2152056
:102D800002F05CFE01214DF2162002F057FECA212E
:102D90004DF2172002F052FE02214DF2182002F0EF
:102DA0004DFE00214DF2192002F048FE02214DF2A5
:102DB0001A2002F043FE01214DF21B2002F03EFEDC
:102DC00002214DF21C2002F039FE34214DF21D206B
:102DD00002F034FE02214DF21E2002F02FFE672188
:102DE0004DF21F2002F02AFE02214DF2202002F0B7
:102DF00025FE84214DF2212002F020FE02214DF219
:102E0000222002F01BFEA4214DF2232002F016FE28
:102E100002214DF2242002F011FEB7214DF22520AF
:102E200002F00CFE02214DF2262002F007FECF2117
:102E30004DF2272002F002FE02214DF2282002F07E
:102E4000FDFDDE214DF2292002F0F8FD02214DF2B8
:102E50002A2002F0F3FDF2214DF22B2002F0EEFDCC
:102E600002214DF22C2002F0E9FDFE214DF22D2031
:102E700002F0E4FD03214DF22E2002F0DFFD1021CF
:102E80004DF22F2002F0DAFD03214DF2302002F046
:102E9000D5FD33214DF2312002F0D0FD03214DF25A
:102EA000322002F0CBFD6D214DF2332002F0C6FD41
:102EB00000214FF4534002F0C1FD33214DF20130A7
:102EC00002F0BCFD00214DF2023002F0B7FD3421CA
:102ED0004DF2033002F0B2FD00214DF2043002F059
:102EE000ADFD3A214DF2053002F0A8FD00214DF272
:102EF000063002F0A3FD4A214DF2073002F09EFD9C
:102F000000214DF2083002F099FD5C214DF20930AC
:102F100002F094FD00214DF20A3002F08FFD812174
:102F20004DF20B3002F08AFD00214DF20C3002F020
:102F300085FDA6214DF20D3002F080FD00214DF2FD
:102F40000E3002F07BFDE5214DF20F3002F076FDF0
:102F500001214DF2103002F071FD13214DF21130BC
:102F600002F06CFD01214DF2123002F067FD542198
:102F70004DF2133002F062FD01214DF2143002F0E7
:102F80005DFD82214DF2153002F058FD01214DF218
:102F9000163002F053FDCA214DF2173002F04EFDFB
:102FA00002214DF2183002F049FD00214DF2193096
:102FB00002F044FD02214DF21A3002F03FFD0121E2
:102FC0004DF21B3002F03AFD02214DF21C3002F0AE
:102FD00035FD34214DF21D3002F030FD02214DF25D
:102FE0001E3002F02BFD67214DF21F3002F026FD4E
:102FF00002214DF2203002F021FD84214DF22130DA
:1030000002F01CFD02214DF2223002F017FDA42136
:103010004DF2233002F012FD02214DF2243002F075
:103020000DFDB7214DF2253002F008FD02214DF2D1
:10303000263002F003FDCF214DF2273002F0FEFCD6
:1030400002214DF2283002F0F9FCDE214DF2293048
:1030500002F0F4FC02214DF22A3002F0EFFCF221E2
:103060004DF22B3002F0EAFC02214DF22C3002F03E
:10307000E5FCFE214DF22D3002F0E0FC03214DF283
:103080002E3002F0DBFC10214DF22F3002F0D6FC86
:1030900003214DF2303002F0D1FC33214DF23130BA
:1030A00002F0CCFC03214DF2323002F0C7FC6D215E
:1030B0004DF2333002F0C2FC00214FF4544002F0D4
:1030C000BDFC332100E080E34DF2014002F0B6FC8C
:1030D00000214DF2024002F0B1FC34214DF20340D8
:1030E00002F0ACFC00214DF2044002F0A7FC3A21B2
:1030F0004DF2054002F0A2FC00214DF2064002F024
:103100009DFC4A214DF2074002F098FC00214DF24F
:10311000084002F093FC5C214DF2094002F08EFC65
:1031200000214DF20A4002F089FC81214DF20B4052
:1031300002F084FC00214DF20C4002F07FFCA6213D
:103140004DF20D4002F07AFC00214DF20E4002F0EB
:1031500075FCE5214DF20F4002F070FC01214DF2AB
:10316000104002F06BFC13214DF2114002F066FC9E
:1031700001214DF2124002F061FC54214DF2134046
:1031800002F05CFC01214DF2144002F057FC822158
:103190004DF2154002F052FC01214DF2164002F0B2
:1031A0004DFCCA214DF2174002F048FC02214DF2BD
:1031B000184002F043FC00214DF2194002F03EFCA1
:1031C00002214DF21A4002F039FC00E001E3012136
:1031D0004DF21B4002F032FC02214DF21C4002F085
:1031E0002DFC34214DF21D4002F028FC02214DF24D
:1031F0001E4002F023FC67214DF21F4002F01EFC2E
:1032000002214DF2204002F019FC84214DF22140B0
:1032100002F014FC02214DF2224002F00FFCA42126
:103220004DF2234002F00AFC02214DF2244002F04C
:1032300005FCB7214DF2254002F000FC02214DF2C1
:10324000264002F0FBFBCF214DF2274002F0F6FBB7
:1032500002214DF2284002F0F1FBDE214DF229401F
:1032600002F0ECFB02214DF22A4002F0E7FBF221D2
:103270004DF22B4002F0E2FB02214DF22C4002F015
:10328000DDFBFE214DF22D4002F0D8FB03214DF273
:103290002E4002F0D3FB10214DF22F4002F0CEFB66
:1032A00003214DF2304002F0C9FB33214DF2314091
:1032B00002F0C4FB03214DF2324002F0BFFB6D214E
:1032C0004DF2334002F0BAFB00214FF4554002F0BA
:1032D000B5FB33214DF2015002F0B0FB00214DF25D
:1032E000025002F0ABFB34214DF2035002F0A6FB7A
:1032F00000214DF2045002F0A1FB3A214DF205509D
:1033000002F09CFB00214DF2065002F097FB4A218F
:103310004DF2075002F092FB00214DF2085002F0EE
:103320008DFB5C214DF2095002F088FB00214DF22B
:103330000A5002F083FB81214DF20B5002F07EFB1C
:1033400000214DF20C5002F079FBA6214DF20D50F8
:1033500002F074FB00214DF20E5002F06FFBE521EC
:103360004DF20F5002F06AFB01214DF2105002F0B5
:1033700065FB13214DF2115002F060FB01214DF26B
:10338000125002F05BFB54214DF2135002F056FB39
:1033900001214DF2145002F051FB82214DF21550E3
:1033A00002F04CFB01214DF2165002F047FBCA21FE
:1033B0004DF2175002F042FB02214DF2185002F07C
:1033C0003DFB00214DF2195002F038FB02214DF275
:1033D0001A5002F033FB01214DF21B5002F02EFB7C
:1033E00002214DF21C5002F029FB34214DF21D50F8
:1033F00002F024FB02214DF21E5002F01FFB672158
:103400004DF21F5002F01AFB02214DF2205002F043
:1034100015FB84214DF2215002F010FB02214DF2E8
:10342000225002F00BFBA4214DF2235002F006FBC8
:1034300002214DF2245002F001FBB7214DF225503C
:1034400002F0FCFA02214DF2265002F0F7FACF21E9
:103450004DF2275002F0F2FA02214DF2285002F00C
:10346000EDFADE214DF2295002F0E8FA02214DF288
:103470002A5002F0E3FAF2214DF22B5002F0DEFA6C
:1034800002214DF22C5002F0D9FAFE214DF22D50BE
:1034900002F0D4FA03214DF22E5002F0CFFA10219F
:1034A0004DF22F5002F0CAFA03214DF2305002F0D3
:1034B000C5FA33214DF2315002F0C0FA03214DF22A
:1034C000325002F0BBFA6D214DF2335002F0B6FAE1
:1034D00000214FF4564002F0B1FA33214DF2016061
:1034E00002F0ACFA00214DF2026002F0A7FA34219A
:1034F0004DF2036002F0A2FA00214DF2046002F0E6
:103500009DFA3A214DF2056002F098FA00214DF241
:10351000066002F093FA4A214DF2076002F08EFA3B
:1035200000214DF2086002F089FA5C214DF2096039
:1035300002F084FA00214DF20A6002F07FFA812144
:103540004DF20B6002F07AFA00214DF20C6002F0AD
:1035500075FAA6214DF20D6002F070FA00214DF2CD
:103560000E6002F06BFAE5214DF20F6002F066FA90
:1035700001214DF2106002F061FA13214DF2116049
:1035800002F05CFA01214DF2126002F057FA542168
:103590004DF2136002F052FA01214DF2146002F074
:1035A0004DFA82214DF2156002F048FA01214DF2E8
:1035B000166002F043FACA214DF2176002F03EFA9B
:1035C00002214DF2186002F039FA00214DF2196023
:1035D00002F034FA02214DF21A6002F02FFA0121B2
:1035E0004DF21B6002F02AFA02214DF21C6002F03B
:1035F00025FA34214DF21D6002F020FA02214DF22D
:103600001E6002F01BFA67214DF21F6002F016FAED
:1036100002214DF2206002F011FA84214DF2216066
:1036200002F00CFA02214DF2226002F007FAA42106
:103630004DF2236002F002FA02214DF2246002F002
:10364000FDF9B7214DF2256002F0F8F902214DF2A3
:10365000266002F0F3F9CF214DF2276002F0EEF977
:1036600002214DF2286002F0E9F9DE214DF22960D5
:1036700002F0E4F902214DF22A6002F0DFF9F221B2
:103680004DF22B6002F0DAF902214DF22C6002F0CB
:10369000D5F9FE214DF22D6002F0D0F903214DF253
:1036A0002E6002F0CBF910214DF22F6002F0C6F926
:1036B00003214DF2306002F0C1F933214DF2316047
:1036C00002F0BCF903214DF2326002F0B7F96D212E
:1036D0004DF2336002F0B2F95521204602F0AEF906
:1036E000AA21284602F0AAF95221304602F0A6F992
:1036F0000821384602F0A2F90021404602F09EF966
:10370000CC21504602F09AF90021584602F096F971
:103710000521484602F092F970214FF4374002F03B
:103720008DF970214BF2017002F088F901214FF4FC
:10373000384002F083F903214BF6010002F07EF9D4
:1037400003214BF6020002F079F903214BF6030046
:1037500002F074F902214FF43C4002F06FF90021AD
:103760004BF6014002F06AF900214BF6024002F0EC
:1037700065F9D0214FF4494002F060F902214CF67E
:10378000011002F05BF950214CF6021002F056F9DC
:1037900050214CF6031002F051F950214CF6041060
:1037A00002F04CF900214FF4545002F047F9552132
:1037B0004FF4685002F042F94FF4885002F026F9B5
:1037C000782003F0B7FD4FF4245002F01FF901F008
:1037D00053BAA0F513414FF480774FF4E06940F2FB
:1037E000022A40F23F144FF42746253934D0A0F581
:1037F00013414FF4017B40F2077528397DD0A0F5C5
:1038000013414FF48876203978D0A0F5134131392F
:1038100075D0A0F5A841083972D0A0F5A8514FF491
:10382000407605396DD0A0F5354105396AD0A0F54F
:103830004541053967D0A0F5094189397DD0A0F50A
:103840008A4131397AD0A0F58A41353977D0A0F54F
:10385000C851633974D0BAE747F6F001E52002F0A9
:10386000EDF83946012002F0E9F84946022002F05D
:10387000E5F841F23001032002F0E0F800210420D5
:1038800002F0DCF85146082002F0D8F800210920A7
:1038900002F0D4F800210A2002F0D0F800210C2018
:1038A00002F0CCF800210D2002F0C8F800210F2012
:1038B00002F0C4F80021102002F0C0F80721112006
:1038C00002F0BCF80021122002F0B8F80021132009
:1038D00002F0B4F80021072002F0B0F841F2906144
:1038E000102002F0ABF840F22721112002F0A6F8D8
:1038F0009D21122002F0A2F806E085E03FE1E2E11E
:10390000B5E250E3FEE3FEE34FF4C851132002F0AA
:1039100095F82521292002F091F80D212B2002F0A5
:103920008DF80721302002F089F840F20331312070
:1039300002F084F80321322003E0E5E3E5E3E5E368
:10394000E5E302F07BF840F20621352002F076F83C
:103950000821362002F072F840F20641372002F0CA
:103960006DF84FF44171382002F068F807213920D2
:1039700002F064F840F202613C2002F05FF8082196
:103980003D2002F05BF80021502002F057F8EF21B3
:10399000512002F053F80021522002F04FF8214646
:1039A000532002F04BF83146602002F047F8012125
:1039B000612002F043F800216A2002F03FF8002164
:1039C000802002F03BF80021812002F037F800212E
:1039D000822002F033F80021832002F02FF800212A
:1039E000842002F02BF80021852002F027F8102116
:1039F000902002F023F84FF4C061922002F01EF8EC
:103A000040F233110720FDE341F28F01EC2002F078
:103A100015F841F23421EF2002F010F83946012068
:103A200002F00CF84946022002F008F841F2300199
:103A3000032002F003F80021042001F0FFFF5146AB
:103A4000082001F0FBFF0021092001F0F7FF002111
:103A50000A2001F0F3FF01210C2001F0EFFF00210B
:103A60000D2001F0EBFF00210F2001F0E7FF002106
:103A7000102001F0E3FF0721112001F0DFFF0021FA
:103A8000122001F0DBFF0021132001F0D7FF0121FC
:103A9000072001F0D3FF322003F032FC41F29041C5
:103AA000102001F0CBFF40F22721112001F0C6FFCA
:103AB000322003F025FC8A21122001F0BFFF3220C2
:103AC00003F01EFC4FF4D051132001F0B7FF062184
:103AD000292001F0B3FF0D212B2001F0AFFF322090
:103AE00003F00EFC0021202001F0A8FF002121207E
:103AF00001F0A4FF322003F003FC0021302001F08C
:103B00009DFF40F20461312001F098FF40F2053141
:103B1000322001F093FF0021352001F08FFF40F6A5
:103B20000941362001F08AFF5946372001F086FF0F
:103B300040F20131382001F081FF2946392001F09F
:103B40007DFF00213C2001F079FF40F60A213D2055
:103B500001F074FF322003F0D3FB0021502001F06C
:103B60006DFFEF21512001F069FF0021522001F08B
:103B700065FF2146532001F061FF31464CE10021F1
:103B8000084601F05BFF3946012001F057FF494626
:103B9000022001F053FF41F23001032001F04EFFFB
:103BA0000021042001F04AFF5146082001F046FFA1
:103BB0000021092001F042FF00210A2001F03EFF10
:103BC00001210C2001F03AFF00210D2001F036FF09
:103BD00000210F2001F032FF322003F091FB40F270
:103BE0000111072001F02AFF322003F089FB4FF476
:103BF0008651102001F022FF0721112001F01EFF45
:103C00003146122001F01AFF4FF43061132001F009
:103C100015FF0021292001F011FF44F210012B2093
:103C200001F00CFF0021502001F008FFEF2151208E
:103C300001F004FF0021522001F000FF2146532033
:103C400001F0FCFE4FF41C51602001F0F7FE012151
:103C5000612001F0F3FE00216A2001F0EFFE002157
:103C6000802001F0EBFE0021812001F0E7FE002121
:103C7000822001F0E3FE0021832001F0DFFE00211D
:103C8000842001F0DBFE0021852001F0D7FE102109
:103C9000902001F0D3FE0021922001F0CFFE0121FF
:103CA000932001F0CBFE3146952001F0C7FE0021A4
:103CB000972001F0C3FE0021982001F0BFFE40F2E2
:103CC000731107207FE341F21401E72001F0B6FEF3
:103CD0003946012001F0B2FE4FF40071022001F0DC
:103CE000ADFE41F23801032001F0A8FE5146082044
:103CF00001F0A4FE0021092001F0A0FE00210A200D
:103D000001F09CFE00210C2001F098FE00210D2006
:103D100001F094FE00210F2001F090FE0021102000
:103D200001F08CFE0721112001F088FE00211220F5
:103D300001F084FE0021132001F080FEC82003F072
:103D4000DFFA41F29061102001F078FE40F2272165
:103D5000112001F073FE322003F0D2FA0C21122060
:103D600001F06CFE322003F0CBFA4FF40061132017
:103D700001F064FE1121292001F060FE0B212B20AF
:103D800001F05CFE322003F0BBFA0021202001F09C
:103D900055FE2146212001F051FE0021302001F086
:103DA0004DFE4FF483763146312001F047FE00216D
:103DB000322001F043FE5946352001F03FFE41F22A
:103DC0000A61362001F03AFE2946372001F036FE1E
:103DD0003146382001F032FE2946392001F02EFE0E
:103DE00040F202413C2001F029FE40F60F413D2007
:103DF00001F024FE0021502001F020FEEF2151208F
:103E000001F01CFE0021522001F018FE2146532033
:103E100001F014FE4FF41C51602001F00FFE01214F
:103E2000612001F00BFE00216A2001F007FE002155
:103E3000802001F003FE0021812001F0FFFD002120
:103E4000822001F0FBFD0021832001F0F7FD00211D
:103E5000842001F0F3FD0021852001F0EFFD102109
:103E6000902001F0EBFD4FF4C0619220FEE3394653
:103E7000012001F0E3FD4946022001F0DFFD41F29F
:103E80003001032001F0DAFD0021042001F0D6FD0D
:103E900040F20721082001F0D1FD0021092001F0A6
:103EA000CDFD00210A2001F0C9FD00210C2001F008
:103EB000C5FD00210D2001F0C1FD00210F2001F002
:103EC000BDFD142003F01CFA41F2B061102001F096
:103ED000B5FD0121112001F0B1FD0121172001F0F4
:103EE000ADFD4FF49C71122001F0A8FD4FF400616C
:103EF000132001F0A3FD0921292001F09FFD0921D4
:103F00002A2001F09BFD0021A42001F097FD002153
:103F1000502001F093FDEF21512001F08FFD002191
:103F2000522001F08BFD2146532001F087FD4FF414
:103F30001C51602001F082FD0121612001F07EFD15
:103F400000216A2001F07AFD0021802001F076FD39
:103F50000021812001F072FD0021822001F06EFD20
:103F60000021832001F06AFD0021842001F066FD1C
:103F70000021852001F062FD1321902001F05EFDFB
:103F80000021922001F05AFD0321932001F056FDFB
:103F90003146952001F052FD40F27311072001F0E7
:103FA0004DFD32200FE10021072001F047FD3220B6
:103FB00003F0A6F94FF48E71122001F03FFD0121AC
:103FC000A42001F03BFD0F21082001F037FD08215E
:103FD0000A2001F033FD08210D2001F02FFDA84635
:103FE0002946302001F02AFD0721312001F026FD6D
:103FF00040F20361322001F021FD4D464946332055
:1040000001F01CFD5146342001F018FD022135203D
:1040100001F014FD41F60F71362001F00FFD41460D
:10402000372001F00BFD0021382001F007FD0021B1
:10403000392001F003FD41463A2001F0FFFC002148
:104040003B2001F0FBFC07213C2001F0F7FC0021A4
:104050003D2001F0F3FC322003F052F9012107204A
:1040600001F0ECFC0121172001F0E8FC322003F004
:1040700047F94FF4BD51102001F0E0FC40F2172148
:10408000112001F0DBFC4FF48F71122001F0D6FCFF
:104090004FF47061132001F0D1FC00212A2001F0BF
:1040A000CDFC0A21292001F0C9FC4FF49F71122098
:1040B00001F0C4FC0021502001F0C0FCEF21512090
:1040C00001F0BCFC0021522001F0B8FC2146532035
:1040D00001F0B4FC4FF41C51602001F0AFFC012151
:1040E000612001F0ABFC00216A2001F0A7FC002157
:1040F000802001F0A3FC0021812001F09FFC002121
:10410000822005E062E05FE126E2D9E28DE3FDE393
:1041100001F094FC0021832001F090FC0021842018
:1041200001F08CFC0021852001F088FC13219020F7
:1041300001F084FC3146922001F080FC052193209F
:1041400001F07CFC0021952001F078FC00219720F3
:1041500001F074FC0021982001F070FC3946012028
:1041600001F06CFC2946022001F068FC41F23801A4
:10417000032001F063FC0021042001F05FFC00211A
:104180000C2001F05BFC00210F2001F057FC002106
:10419000202001F053FC0021212001F04FFC2121BF
:1041A000072001F04BFC142003F0AAF8612107203E
:1041B00001F044FC142003F0A3F840F2731107202F
:1041C00001F03CFC142003F09BF82DE3002108468D
:1041D00001F034FC0021084601F030FC00210846C3
:1041E00001F02CFC0021084601F028FC0121A4204C
:1041F00001F024FC142003F083F84FF41C552946E9
:10420000602000E0DBE001F019FC56465146082032
:1042100001F014FC4FF40571302001F00FFC43F263
:104220001571312001F00AFC40F20461322001F0E6
:1042300005FC40F61661332001F000FC42F211212A
:10424000342001F0FBFB4FF4A851352001F0F6FBC0
:1042500048F20751362001F0F1FB41F207413720C7
:1042600001F0ECFB41F20341382001F0E7FB202193
:10427000392001F0E3FB1A21902001F0DFFB00213F
:10428000102001F0DBFB0721112001F0D7FB0021FA
:10429000122001F0D3FB0021132001F0CFFB1420EA
:1042A00003F02EF84FF4E661102001F0C7FB40F256
:1042B0003711112001F0C2FB142003F021F84FF454
:1042C000DC71122001F0BAFB142003F019F84FF44E
:1042D0007061132001F0B2FB80212A2001F0AEFBB7
:1042E0004821292001F0AAFB142003F009F83946DF
:1042F000012001F0A3FB4946022001F09FFB41F29F
:104300003801032001F09AFB3146082001F096FBAA
:1043100000210A2001F092FB00210C2001F08EFB0D
:1043200000210D2001F08AFB30210E2001F086FBD8
:104330000021502001F082FBEF21512001F07EFB93
:104340000021522001F07AFB2146532001F076FB38
:104350002946602001F072FB0121612001F06EFB13
:1043600000216A2001F06AFB1121902001F066FB18
:104370004FF4C061922001F061FB40F202419320B2
:1043800001F05CFB0221942001F058FB142002F0A4
:10439000B7FF0121072001F051FB142002F0B0FF0C
:1043A0006121072001F04AFB40F27311072001F060
:1043B00045FB0021202001F041FB0021212001F0DC
:1043C0003DFB222100202DE20021084601F036FBB2
:1043D0000021084601F032FB142002F091FF002179
:1043E000084601F02BFB0021084601F027FB0021C5
:1043F000084601F023FB0021084601F01FFB0121C4
:10440000A42001F01BFB142002F07AFF4FF41C5192
:10441000602001F013FB40F60601082001F00EFBBE
:1044200040F203752946302001F008FB01213120BC
:1044300001F004FB0421322001F000FB4FF48171F4
:10444000332001F0FBFA3146342001F0F7FA40F254
:104450000311352001F0F2FA1F21362001F0EEFAA7
:104460002946372001F0EAFA0121382001F0E6FA66
:104470000421392001F0E2FA1521902001F0DEFA42
:104480004FF48261102001F0D9FA40F24721112047
:1044900001F0D4FA4FF4DE71122001F0CFFA4FF49C
:1044A0006061132001F0CAFA782002F029FF394632
:1044B000012001F0C3FA4FF40071022001F0BEFAAE
:1044C00041F23001032001F0B9FA08210A2001F07D
:1044D000B5FA00210C2001F0B1FA20210E2001F0E4
:1044E000ADFA00210F2001F0A9FA0021202001F0EF
:1044F000A5FA0021212001F0A1FA3D212A2001F096
:104500009DFA142002F0FCFE2D21292001F096FADC
:104510000021502001F092FA4DF2EF01512001F0FC
:104520008DFA0021522001F089FA2146532001F032
:1045300085FA0021612001F081FA00216A2001F052
:104540007DFA3146922001F079FA0521932001F09D
:1045500075FA3946FFF7B5BB0121002001F06EFA6C
:104560004AF6A401032001F069FA00210C2001F0B1
:1045700065FA40F60C010D2001F060FA4FF42C5161
:104580000E2001F05BFAB0211E2001F057FA42F62E
:104590003F31012001F052FA4FF4C061022001F0D6
:1045A0004DFA0021102001F049FA46F2780111205D
:1045B00001F044FA0021052001F040FA0021062014
:1045C00001F03CFA4EF61C71162001F037FA032177
:1045D000172001F033FA40F23321072001F02EFAC0
:1045E00000210B2001F02AFA00210F2001F026FA09
:1045F0000021412001F022FA0021422001F01EFAA0
:104600000021482001F01AFA2146492001F016FA4B
:1046100000214A2001F012FA00214B2001F00EFA8D
:104620004FF46F41442001F009FA0021452001F0C8
:1046300005FA2146462001F001FA2946302001F012
:10464000FDF95C465946312001F0F8F92146322047
:1046500001F0F4F940F202552946332001F0EEF959
:10466000691D342001F0EAF9214600E082E135209D
:1046700001F0E4F92146362001F0E0F9294637201F
:1046800001F0DCF940F2023421463A2001F0D6F97B
:1046900021463B2001F0D2F90021232001F0CEF980
:1046A0000021242001F0CAF94FF40041252001F037
:1046B000C5F900214F2001F0C1F900214E20B1E0E1
:1046C0000121002001F0BAF90A2002F019FE41F29E
:1046D0002861102001F0B2F90E21122001F0AEF98C
:1046E00040F63921132001F0A9F90A2002F008FE52
:1046F0004021112001F0A2F95021152001F09EF96E
:104700000A2002F0FDFD1E21122001F097F90A2077
:1047100002F0F6FD4FF4B151102001F08FF942F68E
:104720003921132001F08AF90A2002F0E9FD394607
:10473000012001F083F93146022001F07FF941F2B6
:104740003801032001F07AF95146082001F076F98A
:1047500008210A2001F072F90021302001F06EF9E1
:1047600040F20241312001F069F94FF483713220A7
:1047700001F064F940F20351332001F05FF94FF486
:104780008271342001F05AF940F20131352001F0F4
:1047900055F92946362001F051F940F2053137200C
:1047A00001F04CF94FF40271382001F047F940F65E
:1047B0000B71392001F042F90221412001F03EF94C
:1047C0004FF41C51602001F039F90121612001F002
:1047D00035F94FF40471902001F030F94FF48571F0
:1047E000922001F02BF90421932001F027F939469A
:1047F000A02001F023F90121072001F01FF9212158
:10480000072001F01BF92321072001F017F93321BC
:10481000072001F013F940F23311072001F00EF9DF
:104820000021A02001F00AF926E23021152001F034
:1048300005F910219A2001F001F92021112001F041
:10484000FDF843F22841102001F0F8F8022112206F
:1048500001F0F4F841F23801132001F0EFF82820BC
:1048600002F04EFD1221084601F0E8F8282002F07F
:1048700047FD43F22041102001F0E0F843F23801F7
:10488000132001F0DBF8462002F03AFD0021302031
:1048900001F0D4F840F20241312001F0CFF840F2AB
:1048A0000731322001F0CAF84FF44171332001F092
:1048B000C5F80421342001F0C1F840F2014135204F
:1048C00001F0BCF82946362001F0B8F840F2053175
:1048D000372001F0B3F84FF4C2642146382001F0CC
:1048E000ADF82146392001F0A9F83946012001F040
:1048F000A5F83146022001F0A1F841F23001032071
:1049000001F09CF840F60801082000E037E001F0D3
:1049100095F808210A2001F091F84FF41C5160200D
:1049200001F08CF80121612001F088F84FF49F71AB
:10493000902001F083F83946922001F07FF8394643
:10494000932001F07BF84FF44051A02001F076F85D
:104950001021A32001F072F80121072001F06EF868
:104960002121072001F06AF82321072001F066F8D1
:104970003321072001F062F840F23311EAE5E2202A
:1049800001F044F84446C8F810704FF40075C8F8B8
:104990001450DFF800831D21C8F8001080266661DE
:1049A00026612561276165610220C8F80000666103
:1049B00026612561276165610421C8F800106661E0
:1049C00026612561642002F0B5FCE02001F01EF8AC
:1049D000276165614FF0010AC8F800A06661266191
:1049E00025610A2002F08CFCE02001F00FF827611D
:1049F00065614FF0030BC8F800B066612661256160
:104A00000C2002F07DFC012001F000F80A2002F0E9
:104A100077FCE62000F0FAFF276165612F21C8F8D6
:104A2000001066612661256127616561FF20C8F875
:104A3000000066612661256127616561C8F8000094
:104A4000666126612561B02000F0E0FF27616561A5
:104A50002021C8F800106661266125612761656123
:104A60004FF00009C8F80090666126612561276152
:104A70006561C8F800B066612661256127616561DE
:104A800040F21F31C8F80010666126612561276178
:104A90006561C8F800A066612661256127616561CE
:104AA00040F2DF11C8F800106661266125612761B8
:104AB0006561C8F80090666126612561B42000F048
:104AC000A5FF276165610420C8F8000066612661C2
:104AD00025612761656140F21F41C8F800106661D9
:104AE0002661256127616561C8F8009066612661CD
:104AF0002561276165612E21C8F800106661266175
:104B00002561276165614146C8F8009066612661AC
:104B1000256127616561C8F800906661266125619D
:104B200027616561C8F8009066612661256127618B
:104B30006561C1F80090666126612561B62000F0CC
:104B400065FF276165610220C8F800006661266183
:104B50002561276165614FF40371C8F80010666133
:104B60002661256127616561C8F80090666126614C
:104B70002561276165611721C8F80010666126610B
:104B80002561276165611521C8F8001066612661FD
:104B9000256127616561C8F800906661266125611D
:104BA00027616561C8F80090666126612561F02083
:104BB00000F02CFF27616561C8F800B066612661CE
:104BC0002561292000F022FFD02000F01FFF27617F
:104BD0006561C8F80090666126612561BE2000F01D
:104BE00015FF276165610521C8F80010666126611F
:104BF000256127616561FE21C8F8001066612661A4
:104C00002561276165614146C8F800A0666126619B
:104C1000256127616561C8F800906661266125619C
:104C200027616561C8F8009066612661256127618A
:104C30006561C1F80090666126612561B82000F0C9
:104C4000E5FE27616561C8F800B0666126612561EF
:104C500027616561C8F800A0666126612561BA20F8
:104C600000F0D4FE27616561C8F800A06661266186
:104C70002561642000F01CF90020FCF7FBF90649CF
:104C80000120C1F8A8014FF6FF70FCF7B1F9BDE8AB
:104C9000F88F00000C0C0140000022422DE9F04783
:104CA000DFF85C904FF08830C9F8000009F1040586
:104CB0002860134E00200C363060124CA81520617D
:104CC000470067614FF04008C4F814800E488088A0
:104CD000A0F50941893902D1022002F02BFB0848D6
:104CE00008300068C4F8108080B227614FF033317B
:104CF000C9F8001029604FF6FF713160BDE8F087F8
:104D0000000C014000100140840200202DE9F84F02
:104D1000604D2A88824202D96A888A4202D80020DD
:104D2000BDE8F88F00F08CFA5A4845F2103B8088B5
:104D3000A0F51341413956D0A0F5D041043952D0E5
:104D4000584550D0A0F5C85163394CD0A0F5AA41C0
:104D500010394AD0222000F059FE4F4F4FF08830D2
:104D6000386007F1040CCCF80000DFF82CA14FF6F6
:104D7000FF750AF10C0ACAF80050484BB8151861C3
:104D80004FF40079C3F814904FF04008C3F8148032
:104D90000220401EC0B2FCD23F4E08363068C3F835
:104DA000108080B23B494FF0333E8988A1F5C8524C
:104DB000633A1DD0C3F814800220401EC0B2FCD25A
:104DC0003068C3F8108080B2A1F51342413A18D080
:104DD000594516D0A1F5AA42103A12D0A1F5D042F9
:104DE000043A1DD022E02E20B5E74FF43850B2E748
:104DF000C3F81090C7F800E0CCF800E0CAF8005003
:104E00008EE7C3F814800222521ED2B2FCD232685E
:104E100092B20092C3F81080C2B205EA022405E003
:104E2000C3F81480C3F81080306880B2C3F81090C3
:104E3000C7F800E0CCF800E0CAF80050A1F5134232
:104E4000253ADDD0A1F58A42353AD9D0A1F58A427A
:104E5000313AD5D0A1F50942893AD1D0A1F53542F0
:104E6000053ACDD0A1F51342413A09D0594507D0B2
:104E7000A1F5AA42103A03D0BDE8F84FFCF7AFB84D
:104E80006FF30A00A10A40EA4111009841EAD020DC
:104E900046E7000084020020000C014000100140A1
:104EA00010B500F0B3FDBDE81040FFF7F7BE0000FD
:104EB0002DE9F0478146BE2000F0A8FD204C4FF4BC
:104EC0008077276165156561DFF878800521C8F86E
:104ED000001080266661266125612761656148466C
:104EE00003F0C7FC4FF06632174B03F0D5FC03F01C
:104EF00093FCC8F800006661266125612761656141
:104F00000121C8F80010666126612561276165618D
:104F1000FF21C8F80010666126612561276165617F
:104F20000020C8F80000666126612561276165617F
:104F3000C8F80000666126612561BDE8F0870000C1
:104F4000001001400C0C0140666604402DE9F04F52
:104F5000B84C00262146A279898846F6040341F61A
:104F60006317012A01D02AB11DE099421BD0B94232
:104F700002D118E0B94216D1082814D2DFE800F0B7
:104F80000406080A0C0E101206200CE007200AE0A6
:104F9000042008E0052006E0012004E0002002E0F3
:104FA000032000E00220A1F5134C45F2103245F237
:104FB0001055BCF1410C07D0994205D0914203D065
:104FC000A94201D0B9427DD1082812D2DFE800F011
:104FD000110406080A0C0E1080260AE0402608E09C
:104FE000C02606E0202604E0602602E0A02600E0BD
:104FF000E026A94202D14FF4585000E036209142F9
:1050000005D0A94203D0B94201D046F00806994222
:1050100001D146F00206314600F010FDA188B942E8
:105020000AD0B0062088628802D5904202D303E0FD
:10503000904201D9228060807F4EDFF800B24FF0AD
:10504000000A4FF480774FF40078A9427BD1608941
:1050500000F0DCFC3761C6F81480D946CBF800A01C
:10506000802575613561C6F810806089401C80B26A
:1050700000F0CCFC3761C6F81480C9F800A0756157
:105080003561C6F810806089801C80B200F0BEFCDB
:105090003761C6F814802088401E0112C9F800103C
:1050A00075613561C6F810806089C01C80B200F05F
:1050B000ADFC3761C6F814802078401EC1B2C9F833
:1050C000001000E099E075613561C6F81080A08994
:1050D00000F09CFC3761C6F81480C9F800A0756127
:1050E0003561C6F81080A089401C80B200F08EFCAB
:1050F0003761C6F81480C9F800A075613561C6F83B
:105100001080A089801C80B200F080FC3761C6F856
:1051100014806088401E0112C9F800107561356165
:10512000C6F81080A089C01C80B200F06FFC376107
:10513000C6F81480A078401EC1B2C9F8001075618D
:10514000356156E0FFE7A146608900F05FFC3761FA
:10515000C6F814805D46CBF800A0802474613461E9
:10516000C6F810803761C6F81480CBF800A07461CF
:105170003461C6F810803761C6F81480B9F80000B1
:10518000401E0112296074613461C6F810803761D5
:10519000C6F81480C0B2286074613461C6F810800B
:1051A000B9F80C0000F032FC3761C6F81480C5F87D
:1051B00000A074613461C6F810803761C6F81480AD
:1051C000C5F800A074613461C6F810803761C6F874
:1051D0001480B9F80200401E011229607461346124
:1051E000C6F810803761C6F81480C0B228607461B8
:1051F0003461C6F81080BDE8F08F082812D2DFE8CD
:1052000000F0040608110A0C0E1030260AE01026E1
:1052100008E0202606E0382604E0282602E01826CA
:1052200000E0082646F48051BDE8F04F032000F06E
:1052300005BC000084020020001001400C0C01405D
:105240002DE9F34F04464FEA102900F0FF0A0198B8
:10525000DFF83483060AC5B2B8F804104046DFF818
:105260002CB34089A1F51342413A17D0A1F5A642CB
:10527000103A13D04346A1F5D0479A791B881B1BDF
:105280005B1E043F45D0A1F5C857633F7ED0A1F512
:10529000AA47103F7BD0012A7AD06AE100F0B6FB22
:1052A0004FF480705C46CBF810004700CBF81470C8
:1052B0004946DFF8DC92C9F800104FF08008CBF8BF
:1052C0001480CBF81080CBF81070CBF81000CBF81E
:1052D0001470C9F800A0CBF81480C4F810802761BE
:1052E000A948808900F092FB781020616761C9F8B5
:1052F0000060C4F81480C4F81080276120616761E1
:10530000C9F80050C4F81480C4F810802761BDE8C3
:10531000FC8F012A00D19CB200F078FB4FF4807022
:105320005F46CBF810004FF40078CBF81480DFF81C
:1053300060A2210ACAF800104FF08009CBF814903F
:10534000CBF81090CBF81080CBF81000CBF814807D
:10535000E1B2CAF80010CBF81490C7F81090C7F863
:1053600010808948808900F051FB4FF480703861CB
:10537000C7F81480CAF80060C7F81490C7F81090F6
:10538000C7F810803861C7F8148002E00AE0A9E08D
:10539000EEE0CAF80050C7F81490C7F81090C7F8AC
:1053A0001080B4E7002A6BD0DFF8DC8100F02EFB20
:1053B0004FF480745846CBF810406200CBF81420AC
:1053C000734FC7F800908021CBF81410CBF8101061
:1053D000CBF81020CBF81040CBF81420C7F800A071
:1053E000CBF81410CBF81010CBF8102004614261F8
:1053F000B8F800305B1E4FEA232CC7F800C04161AB
:105400000161026104614261DBB23B6041610161A3
:1054100002615D4CA08900F0F9FA4FF4807758469C
:10542000CBF810707900CBF81410DFF864C1CCF819
:1054300000608022CBF81420CBF81020CBF810109D
:10544000CBF81070CBF81410CCF80050CBF8142027
:10545000CBF81020CBF81010CBF8107041616388A6
:105460005B1E1C12CCF800404261026101610761C1
:105470004161DBB2CCF8003042610261016146E774
:105480001FFA83F800F0C2FA4FF480735846CBF845
:1054900010305900CBF814103D4C002727608022B3
:1054A000CBF81420CBF81020CBF81010CBF810302C
:1054B000CBF814102760CBF81420CBF81020CBF8D1
:1054C0001010036141614FEA1827276042610261B1
:1054D00001610361416108F0FF03236042610261E1
:1054E000016196E700F092FA4FF480705C46CBF8C9
:1054F00010004FF40078CBF814804846DFF8909005
:10550000C9F800008027CBF81470CBF81070CBF8E6
:1055100010801D484089401C80B200F077FA780066
:105520002061C4F81480C9F800A067612761C4F83D
:1055300010801548808900F069FA78002061C4F86D
:105540001480C9F8006067612761C4F810800E48B4
:105550008089401C80B200F059FA78002061C4F8BC
:105560001480C9F8005067612761C4F81080CEE646
:105570009CB2214600F062FAB8F80C000199BDE82F
:10558000FC4F00F05BBA00008402002000100140D4
:105590000C0C01402DE9FF4F044691464844DFF8CA
:1055A0001CA3401E86B087B2BAF80400E2B205928E
:1055B00004EB0902521E1FFA82FC4FEA1C220492DD
:1055C0000CF0FF020D46CE180392761E2A0A1FFA2F
:1055D00086FC00924FEA1C2202920CF0FF0201921C
:1055E0005246A0F513415289B3B24FEA142805F090
:1055F000FF0B413910D0A0F5A64110390CD0A0F511
:10560000D041043908D09AF806E041F6631CBEF197
:10561000010F4AD1604548D1104600F0F7F9A84C77
:105620004FF48076266165156561DFF89892C9F8B8
:105630000080802767612761256126616561059883
:10564000C9F80000676127612561266165610498DA
:10565000C9F80000676127612561266165610398CB
:10566000C9F80000676127612561BAF80C0000F0F5
:10567000CDF92661656100984946C9F80000676167
:105680002761256126616561C9F800B067612761FE
:105690002561266165610298C9F80000676127618C
:1056A0002561266165610198F9E0844960450988B2
:1056B0005DD1A1EB0900001B1FFA80FAB0B209907E
:1056C000104600F0A3F97E4C4FF4807727616515F2
:1056D0006561DFF8F0814FEA1A21C8F800108026D2
:1056E000666126612561276165610AF0FF01C8F8DE
:1056F0000010666126612561276165610AEB09007A
:10570000401E0212C8F800206661266125612761EB
:105710006561C1B2C8F800106661266125616748FD
:10572000808900F073F9276165610098C8F800006E
:1057300066612661256127616561C8F800B0666110
:1057400026612561276165610998010AC8F8001082
:10575000666126612561276165610998C1B2C8F853
:1057600000106661266125610AB0BDE8F08FA0F5E2
:10577000A04CBCF5A26C24D0BEF1010F7ED03E46F9
:105780002046A8461F46502201464FF0510B4FF0CD
:10579000520A4FF05309104600F050F9314658466E
:1057A00000F04CF94146504600F048F93946484669
:1057B00000F044F90AB029462046BDE8F04FFFF753
:1057C0003FBD104600F022F93D4C4FF48076266133
:1057D00065156561DFF8EC90C9F800808027676186
:1057E00027612561BAF80A00401C80B200F00EF96A
:1057F000266165610598C9F8000067612761256128
:10580000BAF80A00801C80B200F000F926616561D8
:105810000498C9F80000676127612561BAF80A0099
:10582000C01C80B200F0F2F8266165610398C9F8E7
:105830000000676127612561BAF80C0000F0E6F806
:10584000266165610099C9F80010676127612561CB
:10585000BAF80C00401C80B200F0D8F826616561EF
:10586000C9F800B0676127612561BAF80C00801C97
:1058700080B200F0CBF82661656100E013E0029889
:10588000C9F80000676127612561BAF80C00C01CE7
:1058900080B200F0BBF82661656101984946086056
:1058A000676127615FE7CA1B521E091B491E284614
:1058B0001E461FFA82F88FB265E7000084020020BE
:1058C000001001400C0C01402DE9F84F82461F46A4
:1058D0000C468B46580700D0012000EBD700790812
:1058E0004843203AC0B202F0FF090026009041E090
:1058F0000C2F10D0102F12D0182F3ED1204909EBB9
:10590000C90001EB80004FF00008855D28060AD52C
:105910001C4802880BE009EB49001B49F1E71B49D1
:1059200001EB0910EFE70A9828B91648428821468A
:105930005046FBF739FC6806050E1548641CA4B2F6
:105940004088A04219D9A4EB0B00B84209D10AF152
:1059500001001FFA80FA0E485C46018851450CD9B7
:1059600006E008F1010000F0FF08B8F1080FCDD300
:10597000761CF6B200988642BAD3BDE8F88F0000D4
:10598000369C00082A000020D291000846960008A4
:10599000840200202DE9F84F044600F0FF0810199A
:1059A0000D46DDE90A761FFA80FA58191FFA80F9C8
:1059B0004FF0000B11E0544502D3E819444685B27C
:1059C0004D450FD23B4629462046CDF800B0FFF7A3
:1059D0007BFF04EB570084B2761C3278A2F12000E2
:1059E0005E28E8D9BDE8F88F06494FF480720A6155
:1059F0004A154A61044B18608020486108610A61B9
:105A000070470000001001400C0C014006494FF4A3
:105A100080724A614A154A61044B186080204861CF
:105A200008610A6170470000001001400C0C014041
:105A300001480089FFF7EABF8402002010B50C4638
:105A4000FFF7E4FF06484FF480710161421542619F
:105A500004490C60802141610161026110BD0000B8
:105A6000001001400C0C014038B50121242000F049
:105A700061FC4FF48074ADF8004010208DF80300F5
:105A800003200C4D8DF8020069462846FBF7D8F933
:105A900021462846FBF755FA0420074CADF80000D4
:105AA00069462046FBF7CCF904212046FBF749FA6A
:105AB00038BD00000008014000140140FEE77047B7
:105AC00030B50F23C27801780125F2B1144A12686B
:105AD00001F1E02102F4E062C2F5E062120AC2F1D3
