:020000040800F2
:10000000F80D00202D020008C7560008CF0D00088B
:10001000C556000889090008416900080000000071
:10002000000000000000000000000000A3630008C2
:10003000BF0A000800000000295E0008996400085B
:10004000470200084702000847020008470200086C
:100050004702000847020008C10A000847020008DA
:10006000470200084702000847020008470200084C
:10007000470200084702000847020008470200083C
:10008000470200084702000847020008470200082C
:10009000470200084702000847020008CD0B00088D
:1000A000470200084702000847020008470200080C
:1000B00047020008ED640008756500084702000863
:1000C00047020008470200084702000847020008EC
:1000D00047020008196700087D670008470200080A
:1000E000110B0008470200084702000847020008F9
:1000F00047020008470200084702000847020008BC
:1001000047020008470200084702000847020008AB
:10011000470200084702000847020008A9650008D6
:10012000470200084702000847020008470200088B
:1001300000F002F800F06BF80AA090E8000C82448E
:100140008344AAF10107DA4501D100F060F8AFF26B
:10015000090EBAE80F0013F0010F18BFFB1A43F0A5
:100160000103184780970000A09700000A444FF051
:10017000000C10F8013B13F0070408BF10F8014B06
:100180001D1108BF10F8015B641E05D010F8016B4B
:10019000641E01F8016BF9D113F0080F1EBF10F8AF
:1001A000014BAD1C0C1B09D16D1E58BF01F801CBD2
:1001B000FAD505E014F8016B01F8016B6D1EF9D555
:1001C0009142D6D37047000000230024002500266A
:1001D000103A28BF78C1FBD8520728BF30C148BFAA
:1001E0000B607047642900F09F80752900F09C80A7
:1001F000782900F00081632900F06082732900F003
:100200006582002070471FB51FBD10B510BD00F0FE
:1002100077FA1146FFF7F7FF06F00EFC00F095FAAB
:1002200003B4FFF7F2FF03BC06F092FB09488047D6
:1002300009480047FEE7FEE7FEE7FEE7FEE7FEE7C8
:10024000FEE7FEE7FEE7FEE704480549054A064BE0
:10025000704700009D64000831010008F807002085
:10026000F80D0020F8090020F80900207047000070
:100270000FB4044910B503AA029800F02BFA10BC81
:100280005DF814FB2400002070B504468569006801
:10029000C10601D5302600E02026C00707D070BD7A
:1002A000D4E9012130469047206A401C20626D1E2F
:1002B000F6D570BD70B5044685690078C00707D1D2
:1002C00070BDD4E9012120209047206A401C2062A3
:1002D0006D1EF6D570BD70B50C460546012A05D0D9
:1002E0002878800600D5EA69002302E0012305E0B2
:1002F0005B1C934202D2E05C0028F9D1A869E618A1
:10030000C01AA861286A184428622846FFF7BCFF73
:1003100004E0D5E9012114F8010B9047B442F8D369
:100320002846FFF7C7FF70BD2DE9F04106460024BF
:1003300010687529314616A510D0AFF3008000284B
:1003400002DA404213A507E031688A0701D512A5F9
:1003500002E0490704D511A5012401E0AFF30080B4
:1003600000210A2206F1240709E0B0FBF2FCB0FBF1
:10037000F2F302FB1C00303078541846491C002868
:10038000F3D123462A463046BDE8F04100F01AB9C1
:10039000000000002D0000002B00000020000000E5
:1003A000F0B40D460188090502D5214C7C4402E0D9
:1003B0001F4C7C440E34002100F1240608E002F0BA
:1003C0000F071209E75D42EA03721B097754491CC3
:1003D00052EA0307F3D102780023120704D5702DE7
:1003E00006D009B1022311342246F0BC00F0EAB86D
:1003F00001231034F8E770B504460D462146106815
:10040000AFF30080024629462046BDE87040002335
:10041000C6E7D21D22F00703D3E90023C0E7036833
:10042000126843F0200303600823C3610023B7E789
:100430008E9200002DE9F05F894604464FF0000AD5
:10044000DFF874B1FB44C0F820A02046E16888477B
:10045000002874D0252806D0D4E901219047206ACD
:10046000401C2062F1E700265F462046E16888478D
:100470002028054607DB312D05D2781910F8200C0D
:1004800008B10643F1E7B00701D526F00406C4F829
:100490001CA00027C4F818A02A2D09D0284606F071
:1004A00050FA38B304EB8708303DC8F8185019E00B
:1004B00059F8041B204604EB87029161E1688847E4
:1004C000012F054618D1E069002820DA26F0200621
:1004D0001DE0D8F8180000EB800005EB4000303834
:1004E000C8F818002046E1688847054606F029FA52
:1004F0000028EED1012F0AD02E2D08D12046E16828
:1005000088477F1C0546022F46F02006C4DBA06901
:10051000002803DA404246F00106A061F00701D04E
:1005200026F010066C2D0BD0682D09D04C2D39D03B
:100530006A2D35D0742D35D07A2D33D016E038E0C1
:10054000E1682F4620468847B842054609D16C2FFE
:1005500026D04FF48060E168064320468847054670
:1005600004E06C2F1AD04FF4807006430DB3A5F150
:100570004100192802D8203546F400664A4629462B
:10058000204626604E46FFF72DFE80B101280BD095
:10059000F61D26F0070000F1080956E74020E4E7C1
:1005A0008020D8E70020D6E706F104094DE7284669
:1005B00052E7206ABDE8F09F1E9200007047704726
:1005C000704770472DE9F0470D469946924604461C
:1005D00000F124080168880604D5E06921F01001C3
:1005E000216000E00120A84201DD471B00E0002758
:1005F000A1697A1902EB0900081AA0612078C006E7
:1006000002D42046FFF740FE002608E0D4E901218D
:100610001AF806009047206A401C761C20624E455E
:10062000F4DB2078C0060AD52046FFF72DFE06E051
:10063000D4E9012130209047206A401C2062381EF6
:10064000A7F10107F4DC07E0D4E9012118F805005F
:100650009047206A401C2062281EA5F10105F3DCAA
:100660002046FFF727FE2078000602D50220BDE8CD
:10067000F0870120FBE7000001694A1C026108784D
:10068000704700B58FB0CDE90131002105910549D2
:100690007944CDE9031011466846FFF7CBFE0FB051
:1006A00000BD0000E5FFFFFF10B5436913B1AFF3D4
:1006B000008001E0FFF70FFE012010BD127800F16D
:1006C00024010A7000224A700122EDE711684FF000
:1006D000FF32E9E7074B70B50D467B44FFF7D1FFCA
:1006E0000446284600F008F810B14FF0FF3070BD06
:1006F000204670BD43630000007B00F0800070471F
:10070000754600F02BF8AE4605006946534620F0CA
:100710000700854618B020B5FFF796FDBDE82040DC
:100720004FF000064FF000074FF000084FF0000BAD
:1007300021F00701AC46ACE8C009ACE8C009ACE860
:10074000C009ACE8C0098D46704710B50446AFF348
:1007500000802046BDE81040FFF762BD00487047AA
:10076000940700200029816802D041F0010101E0D6
:1007700021F00101816070470029816802D041F4B5
:10078000807101E021F48071816070470146002092
:100790008968490700D50120704701460020896813
:1007A000090700D50120704710B542680E4B0C793F
:1007B0001A400B6842EA04221343436082680B4BE1
:1007C0001A40D1E9024323434C7942EA44021343DD
:1007D0008360C26A097C22F47002491EC9B242EAEF
:1007E0000151C16210BD0000FFFEF0FFFDF7F1FFF7
:1007F00070B5072609290AD9C568A1F10A0404EBD6
:100800004404A640B543A3401D43C56007E0056905
:1008100001EB4104A640B543A3401D4305611F23DE
:10082000072A09D2446B521E02EB820293409C437A
:1008300091400C43446370BD0D2A09D2046BD21F52
:1008400002EB820293409C4391400C43046370BDD1
:10085000C46A0D3A02EB820293409C4391400C43E0
:10086000C46270BD816841F0080181607047002951
:10087000816802D041F4A00101E021F4A00181606F
:100880007047816841F004018160704708B501211B
:10089000102005F0EDFA0120ADF8000000208DF8E1
:1008A00003006946034800F00FFABDE8084000F075
:1008B00003B800000010014070B5012190B0084657
:1008C00005F0BEFA0121480205F0D2FA2B4E30465F
:1008D00000F066F82A4800902A4801A90024012562
:1008E00081E8310028020494CDE90540800007909A
:1008F000202008900002CDE909046946304600F046
:10090000C1F80121304600F040F88DF830400B94DA
:100910008DF831504FF46020CDE90D04184C8DF85E
:100920003C504C3C0BA92046FFF73EFF4FF44040A3
:1009300005F07CFA052301220A212046FFF758FF23
:1009400001212046FFF718FF01212046FFF70AFF8B
:100950002046FFF787FF2046FFF71FFF0028FAD148
:100960002046FFF78EFF2046FFF710FF0028FAD140
:1009700001212046FFF77BFF10B070BD0800024048
:100980004C2401401C000020FEE70029016802D031
:1009900041F0010102E04FF6FE7211400160704724
:1009A00001684FF6FE721140016000210160416054
:1009B0008160C1603149314A0839904203D14868A9
:1009C00040F00F0006E02D4A1432904204D14868EE
:1009D00040F0F00048607047284A2832904203D126
:1009E000486840F47060F5E7244A3C32904203D1F5
:1009F000486840F47040EDE7204A5032904203D1FD
:100A0000486840F47020E5E71C4A6432904203D104
:100A1000486840F47000DDE7184A7832904203D10C
:100A2000486840F07060D5E7154A111F904203D125
:100A3000086840F00F0006E0114A1432904204D1D9
:100A4000086840F0F000086070470D4A2832904274
:100A500003D1086840F47060F5E7094A3C329042DF
:100A600003D1086840F47040EDE7054A50329042E7
:100A7000EAD1086840F47020E5E700000800024071
:100A80000804024030B5026847F6F0739A430C6AD6
:100A90008B682343D1E904452C4323438C692343CA
:100AA000CC6923434C6A23438C6A2343134303607A
:100AB000CA6842600A6882604968C16030BD704798
:100AC00010B50A2005F064FF01210E4800F076F908
:100AD00001280DD10C49D1F8A00170B10020C1F856
:100AE000A0010A49D1F8880148B10020C1F8880165
:100AF000BDE81040012000F085B80120EFE701209B
:100B0000F4E700000008014000002142008022427A
:100B100010B54FF40044204600F07AF801280FD1B8
:100B20000A4B197802290BD2094A002021B9C2F8D0
:100B300080010120C2F88001C2F8B001491C19707F
:100B40002046BDE8104000F05DB800001500002010
:100B5000000021427FB50121052005F089F901211E
:100B6000184800F0FFF84FF40044ADF80C4048205E
:100B7000154D8DF80F0003A9284600F0A5F8214671
:100B8000284600F022F90F21002000F089F800200B
:100B90008DF804000C2000948DF8050001248DF8D8
:100BA0000640684600F044F828208DF8080002202E
:100BB0008DF809008DF80A408DF80B4002A804F06A
:100BC00083FD7FBD000230000008014010B50A20FF
:100BD00005F0DEFE2021094800F0F0F830B90849A0
:100BE000D1F8A00138B10020C1F8A001BDE8104043
:100BF000202000F007B80120F6E7000000100140B7
:100C000000002142014908607047000014040140BF
:100C1000064A014600201268044B0A4014331B6840
:100C20000B4202D0002A00D001207047000401408E
:100C300030B51A4A8379016853B313688B43136044
:100C4000111D0B680468A3430B60017911440B6804
:100C5000046823430B60114B083319680468A143EF
:100C600019601C1D21680568A9432160417910297C
:100C700005D011440A68006802430A6030BD196853
:100C8000026811431960216800680143216030BD8A
:100C90000079104402688A43026030BD00040140BC
:100CA00010B58A0721F003040649120F21440F23CF
:100CB0008C6893409C438C608B68904003438B60AE
:100CC00010BD000000000140F0B5CC78002204F017
:100CD0000F03E40601D58C7823430C784FF00F0CFA
:100CE00014F0FF0F4FF0010E1BD005680E880EFAAE
:100CF00002F42640A64210D196000CFA06F725EA27
:100D0000070703FA06F5CE783D43282E02D0482E79
:100D100002D002E0446100E00461521C082AE5D3DD
:100D200005600A88FF2A1CD94468002202F10806DF
:100D30000EFA06F50E882E40AE420ED196000CFA41
:100D400006F7BC4303FA06F7CE783C43282E00D1C1
:100D50004561CE78482E00D10561521C082AE5D3A2
:100D60004460F0BDF0B5144C002801DAE36900E0FE
:100D70006368450D2E0185B2C0F30157B540C0F33D
:100D80000342032F05D0C6020AD503269640B3437B
:100D900007E023F07062636823F07063636002E031
:100DA000AB4343F0706201B12A43002801DAE261EB
:100DB000F0BD6260F0BD000000000140024600206E
:100DC00092680A4200D00120704701617047FEE737
:100DD0002DE9F0431C4F0646002438887D884543A2
:100DE000B888A0F5D041043902D1B87901280CD0D7
:100DF0000021084604F028F804F01EFC13494FF4C3
:100E000080774B15124A80201AE00020B8714FF00D
:100E10002A08A7F80A804FF02B09A7F80C90014682
:100E200004F012F80120B871A7F80A90A7F80C8016
:100E3000E2E70F614B611660486108610B61641C59
:100E4000AC42F6D3BDE8F083D80100200010014089
:100E50000C0C01402DE9F04F4A492A232B248988A4
:100E600045F2105A4FF4305B4FF4285E4FF448754A
:100E70004FF0F00C49F241394FF4A07745F21036AB
:100E80004FF4F07280B13F484FF00108494580F8B7
:100E900006800780A0F802C001D0B1423ED12C25C7
:100EA00005814381848157E036484FF00008494569
:100EB00080F80680A0F800C0478006D0A1F5D04C8D
:100EC000BCF1040C01D0B1420CD12C250581438129
:100ED000A1F5D0438481043B01D0B14244D10780C5
:100EE000428041E0514507D1A0F808B0A0F80AE0DF
:100EF0004FF42C5181810EE0A1F5C856633E06D017
:100F00002221018120214181212181812CE02C217C
:100F10000181448183810280458025E0A1F5D04C88
:100F2000BCF1040C09D051450BD1A0F808B0A0F8D1
:100F30000AE04FF42C53838121E02C250581448164
:100F400009E0A1F5C85CBCF1630C12D02223038137
:100F50002123438120238381A1F5D043043B01D089
:100F6000B14201D102804780BDE8F04F002003F07C
:100F7000F1BD4FF02C0CA0F808C04381848105809E
:100F80004280E9E7D80100202DE9F74F0546904857
:100F900081B0DFF840A2818802982F0A00F0FF0993
:100FA0004FEA1028E8B200908948A1F513424FF4A7
:100FB000807B40894FF40076413A18D0844CA1F5EB
:100FC000A642103A13D0A1F5AA42103A36D02246D2
:100FD000A1F5C85793791288521B521E633F63D004
:100FE000A1F5D047043F7DD0012B7CD0D1E004F0A7
:100FF00011FB794CC4F810B06661CAF80070802506
:10100000656125612661C4F810B066610098CAF870
:1010100000006561256126616D48808904F0FAFA57
:10102000C4F810B066615146CAF800806561256158
:101030002661C4F810B06661484631E004F0EAFA6F
:10104000654CC4F810B06661CAF80070802565610F
:10105000256126615E484089401C80B204F0DAFABE
:10106000C4F810B066610098CAF800006561256197
:1010700026615748808904F0CDFAC4F810B0666143
:10108000CAF8008065612561266151488089401C4D
:1010900080B204F0BFFAC4F810B066614846514609
:1010A00008606561256171E003B995B204F0B2FA98
:1010B000494CC4F810B06661280ACAF800008027BD
:1010C000676127612661C4F810B06661E9B2CAF8A9
:1010D0000010676127612661C4F810B06661CAF824
:1010E000000001E025E053E0676127612661C4F854
:1010F00010B06661CAF80010676127612661344844
:10110000808904F087FAC4F810B066615146CAF8C5
:101110000080676127612661C4F810B06661CAF873
:101120000090676127612661C4F810B0666140468F
:1011300021E0012B00D195B204F06CFA264CC4F8E2
:1011400010B06661290ACAF800108027676127611C
:101150002661C4F810B06661E9B2CAF80010676190
:10116000276126611A48808904F054FAC4F810B047
:101170006661404651460860676127612661C4F890
:1011800010B06661C1F8009067612761266107E0D1
:1011900095B2294604F056FAA089029904F052FA51
:1011A0000D48C0F814B0466109490989CAF8001011
:1011B0008021416101610661C0F810B04661039B66
:1011C000CAF80030416101610661BDE8FF8F00008F
:1011D000D80100200C0C0140001001402DE9F84F0F
:1011E000264D81469846A8880A9EA0F5D043043B28
:1011F00002D1A87901280AD0A2EB0900401C85B2CF
:101200000C461F4F4FF4007A4FF0800B32E02B88D2
:101210000846991A0024AC712A24A3EB09036C81B7
:101220002B27491E5B1EAF8189B242469BB20096B6
:10123000FFF7D4FF0120A8716F81AC81BDE8F88F62
:101240002146484603F000FE04F0F6F900204FF472
:10125000807C53460B4A594608E0C7F810C07B61B2
:101260001660796139613B61401C80B2A842F4D3B9
:10127000641CA4B24445E3D9E0E70000D801002093
:10128000001001400C0C01402DE9F84F01211920FC
:1012900004F0EEFD0121FE48FFF764FD4FF4F86015
:1012A000ADF8000010208DF8030003208DF8020037
:1012B0006946F848FFF708FD4FF4F861F548FFF775
:1012C00084FDF54D4FF6FF74ADF8004069462846A1
:1012D000FFF7FAFC21462846FFF777FD322005F09C
:1012E00057FB0121002004F0ADF9322005F050FB3E
:1012F000002003F0D9FBE94D4FF4807449F24138E6
:10130000A88046F6040945F2103A45F21056FF2827
:1013100006D3A0F57F41FF3902D0B0F5134F6DD150
:10132000D32004F077F903F087FB03F085FB03F08B
:1013300083FB4FF6FF7707EA0020A88003F07CFBD1
:10134000A9880843A880404558D0BF2004F062F91E
:1013500003F072FB03F070FB03F06EFB03F06CFB19
:1013600007EA0020A88003F067FBA9880843A8804B
:10137000484543D0D42004F04DF903F05DFB03F061
:101380005BFB03F059FB07EA0020A88003F054FB45
:10139000A9880843A880504530D04FF45A4004F043
:1013A00039F903F049FB4FF45B4004F033F903F0E3
:1013B00043FB07EA0020A8804FF45C4004F02AF9C0
:1013C00003F03AFBA9880843A880B0F5004F7DD010
:1013D000B04213D0A12004F01DF903F02DFBA8802A
:1013E00003F02AFB07EA0020A88003F025FBA98868
:1013F0000843A0F5AE41A880613968D080B240456D
:1014000066D1CF2004F006F9002004F0F1F8C120E5
:1014100004F0EEF8302004F0EBF8ED2004F0FAF8D8
:10142000642004F0E5F8032004F0E2F8122004F050
:10143000DFF8812004F0DCF8E82004F0EBF88520E8
:1014400004F0D6F8102004F0D3F87A2004F0D0F895
:10145000CB2004F0DFF8392004F0CAF82C2004F087
:10146000C7F8002004F0C4F8342004F0C1F80220CA
:1014700004F0BEF8F72004F0CDF8202004F0B8F80E
:10148000EA2004F0C7F8002004F0B2F8002004F0CD
:10149000AFF8C02004F0BEF81B2004F0A9F8C1206A
:1014A00004F0B8F8012004F0A3F8C52004F0B2F865
:1014B000302004F09DF8302004F09AF8C72004F0A2
:1014C000A9F8B72004F094F8362002E0B1E0ABE0D0
:1014D000B2E004F09FF8482004F08AF83A2004F0C3
:1014E00099F8552004F084F8B12004F093F8002016
:1014F00004F07EF81A2004F07BF8B62004F08AF895
:101500000A2004F075F8A22004F072F8F22004F02A
:1015100081F8002004F06CF8262004F07BF801200C
:1015200004F066F8E02004F075F80F2004F060F88D
:101530002A2004F05DF8282004F05AF8082004F06E
:1015400057F80E2004F054F8082004F051F8542005
:1015500004F04EF8A92004F04BF8432004F048F8BA
:101560000A2004F045F80F2004F042F8002004F0AF
:101570003FF8002004F03CF8002004F039F8002087
:1015800004F036F8E12004F045F8002004F030F8CB
:10159000152004F02DF8172004F02AF8072004F095
:1015A00027F8112004F024F8062004F021F82B205D
:1015B00004F01EF8562004F01BF83C2004F018F844
:1015C000052004F015F8102004F012F80F2004F0A4
:1015D0000FF83F2004F00CF83F2004F009F80F202A
:1015E00004F006F82B2004F015F8002004F000F8B1
:1015F000002003F0FDFF012003F0FAFF3F2003F07D
:10160000F7FF2A2004F006F8002003F0F1FF002085
:1016100003F0EEFF002003F0EBFFEF2003F0E8FF04
:10162000112003F0F7FFB7E041F66310A88003F044
:1016300074B8AE8001F034B848457DD1112003F074
:10164000E9FF142005F0A4F9D02003F0E3FF072000
:1016500003F0CEFF422003F0CBFF1D2003F0C8FFB4
:10166000D12003F0D7FF002003F0C2FF1A2003F0BF
:10167000BFFF092003F0BCFFD22003F0CBFF012005
:1016800003F0B6FF222003F0B3FFC02008E0000003
:101690000002300000100140000C0140D801002081
:1016A00003F0B8FF102003F0A3FF3B2003F0A0FFDE
:1016B000002003F09DFF022003F09AFF112003F0A9
:1016C00097FFC52003F0A6FF032003F091FFC82079
:1016D00003F0A0FF002003F08BFF252003F088FF1C
:1016E000212003F085FF052003F082FF002003F096
:1016F0007FFF0A2003F07CFF652003F079FF25209F
:1017000003F076FF772003F073FF502003F070FFA3
:101710000F2003F06DFF002003F06AFFF82003F0B4
:1017200079FF012003F064FFFE2003F073FF002027
:1017300003F05EFF022000E034E003F059FF2020B8
:1017400003F068FF362003F065FF082003F050FF28
:101750003A2003F05FFF552003F04AFF2B2003F0EF
:1017600059FF002003F044FF002003F041FF012057
:1017700003F03EFF3F2003F03BFF2A2003F04AFF27
:10178000002003F035FF002003F032FF012003F0BA
:101790002FFFDF2003F02CFF782005F0F9F8292037
:1017A00001F0FBBE50457CD1ED2003F033FF01205A
:1017B00003F01EFFFE2003F01BFFEE2003F02AFFC4
:1017C000DE2003F015FF212003F012FFF12003F0CB
:1017D00021FF012003F00CFFDF2003F01BFF10208E
:1017E00003F006FFC42003F015FF8F2003F000FF75
:1017F000C62003F00FFF002003F0FAFEE22003F002
:10180000F7FEE22003F0F4FEE22003F0F1FEBF2039
:1018100003F000FFAA2003F0EBFEB02003F0FAFE75
:101820000D2003F0E5FE002003F0E2FE0D2003F0A2
:10183000DFFE002003F0DCFE112003F0D9FE0020C3
:1018400003F0D6FE192003F0D3FE002003F0D0FEF3
:10185000212003F0CDFE002003F0CAFE2D2003F06E
:10186000C7FE002003F0C4FE3D2003F0C1FE0020AF
:1018700003F0BEFE5D2003F0BBFE002003F0B8FEC7
:101880005D2003F0B5FE002003F0B2FEB12003F0AE
:10189000C1FE802003F0ACFE002003F0A9FE8B20E7
:1018A00000E0FCE303F0A4FE002003F0A1FE96207C
:1018B00003F09EFE002003F09BFEB22003F0AAFE80
:1018C000002003F095FE002003F092FE022003F0BA
:1018D0008FFE002003F08CFE032003F089FE002021
:1018E00003F086FEB32003F095FE002003F080FE97
:1018F000002003F07DFE002003F07AFE002003F0BC
:1019000077FE002003F074FE002003F071FE00203B
:1019100003F06EFE002003F06BFE002003F068FE73
:10192000002003F065FE002003F062FE002003F0BB
:101930005FFE002003F05CFE002003F059FE002053
:1019400003F056FE002003F053FE002003F050FE8B
:10195000002003F04DFE002003F04AFE002003F0BB
:1019600047FE002003F044FE002003F041FE00206B
:1019700003F03EFE002003F03BFEB42003F04AFEDD
:101980008B2003F035FE002003F032FE962003F09A
:101990002FFE002003F02CFEA12003F029FE0020E2
:1019A00003F026FEB52003F035FE022003F020FEF2
:1019B000002003F01DFE032003F01AFE002003F0B8
:1019C00017FE042003F014FE002003F011FEB620E1
:1019D00003F020FE002003F00BFE002003F008FEC1
:1019E000B72003F017FE002003F002FE002003F0F2
:1019F000FFFD3F2003F0FCFD002003F0F9FD5E2019
:101A000003F0F6FD002003F0F3FD642003F0F0FD89
:101A1000002003F0EDFD8C2003F0EAFD002003F030
:101A2000E7FDAC2003F0E4FD002003F0E1FDDC2045
:101A300003F0DEFD002003F0DBFD702003F0D8FD95
:101A4000002003F0D5FD902003F0D2FD002003F02C
:101A5000CFFDEB2003F0CCFD002003F0C9FDDC201E
:101A600003F0C6FD002003F0C3FDB82003F0D2FD53
:101A7000002003F0BDFD002003F0BAFD002003F0BC
:101A8000B7FD002003F0B4FD002003F0B1FD0020FD
:101A900003F0AEFD002003F0ABFD002003F0A8FD35
:101AA000BA2003F0B7FD242003F0A2FD002003F0CC
:101AB0009FFD002003F09CFD002003F099FDC12054
:101AC00003F0A8FD202003F093FD002003F090FD1B
:101AD000542003F08DFD002003F08AFDFF2003F069
:101AE00087FD002003F084FDC22003F093FD0A204F
:101AF00003F07EFD002003F07BFD042003F078FD61
:101B0000002003F075FDC32003F084FD3C2003F0AA
:101B10006FFD002003F06CFD3A2003F069FD00200A
:101B200003F066FD392003F063FD002003F060FD43
:101B3000372003F05DFD002003F05AFD3C2003F048
:101B400057FD002003F054FD362003F051FD002026
:101B500003F04EFD322003F04BFD002003F048FD62
:101B60002F2003F045FD002003F042FD2C2003F060
:101B70003FFD002003F03CFD292003F039FD00204B
:101B800003F036FD262003F033FD002003F030FD86
:101B9000242003F02DFD002003F02AFD242003F073
:101BA00027FD002003F024FD232003F021FD002069
:101BB00003F01EFD3C2003F01BFD002003F018FD88
:101BC000362003F015FD002003F012FD322003F053
:101BD0000FFD002003F00CFD2F2003F009FD002075
:101BE00003F006FD2C2003F003FD002003F000FDB0
:101BF000292003F0FDFC002003F0FAFC262003F06E
:101C0000F7FC002003F0F4FC242003F0F1FC00209A
:101C100003F0EEFC242003F0EBFC002003F0E8FCD2
:101C2000232003F0E5FC002003F0E2FCC42003F0D5
:101C3000F1FC622003F0DCFC002003F0D9FC05205D
:101C400003F0D6FC002003F0D3FC842003F0D0FC8A
:101C5000002003F0CDFCF02003F0CAFC002003F0CC
:101C6000C7FC182003F0C4FC002003F0C1FCA42032
:101C700003F0BEFC002003F0BBFC182003F0B8FC0E
:101C8000002003F0B5FC502003F0B2FC002003F06C
:101C9000AFFC0C2003F0ACFC002003F0A9FC1720E3
:101CA00003F0A6FC002003F0A3FC952003F0A0FCA9
:101CB000002003F09DFCF32003F09AFC002003F0C9
:101CC00097FCE62003F094FC002003F091FCC52073
:101CD00003F0A0FC322003F08BFC002003F088FC12
:101CE000442003F085FC002003F082FC652003F013
:101CF0007FFC002003F07CFC762003F079FC0020C0
:101D000003F076FC882003F073FC002003F070FCE5
:101D1000C62003F07FFC202003F06AFC002003F0C3
:101D200067FC172003F064FC002003F061FC012035
:101D300003F05EFC002003F05BFCC72003F06AFCAC
:101D4000002003F055FC002003F052FC002003F0BB
:101D50004FFC002003F04CFCC82003F05BFC00208B
:101D600003F046FC002003F043FC002003F040FC9D
:101D7000002003F03DFCC92003F04CFC002003F0E0
:101D800037FC002003F034FC002003F031FC00207D
:101D900003F02EFC002003F02BFC002003F028FCB5
:101DA000002003F025FC002003F022FC002003F0BB
:101DB0001FFC002003F01CFC002003F019FC002095
:101DC00003F016FC002003F013FC002003F010FCCD
:101DD000002003F00DFC002003F00AFCE02003F0DB
:101DE00019FC162003F004FC002003F001FC1C2069
:101DF00003F0FEFB002003F0FBFB212003F0F8FBC7
:101E0000002003F0F5FB362003F0F2FB002003F086
:101E1000EFFB462003F0ECFB002003F0E9FB52202F
:101E200003F0E6FB002003F0E3FB642003F0E0FB9B
:101E3000002003F0DDFB7A2003F0DAFB002003F042
:101E4000D7FB8B2003F0D4FB002003F0D1FB9920BB
:101E500003F0CEFB002003F0CBFBA82003F0C8FB6F
:101E6000002003F0C5FBB92003F0C2FB002003F003
:101E7000BFFBC42003F0BCFB002003F0B9FBCA2069
:101E800003F0B6FB002003F0B3FBD22003F0B0FB5D
:101E9000002003F0ADFBD92003F0AAFB002003F0E3
:101EA000A7FBE02003F0A4FB002003F0A1FBF3203C
:101EB00003F09EFB002003F09BFBE12003F0AAFB54
:101EC000162003F095FB002003F092FB1C2003F08A
:101ED0008FFB002003F08CFB222003F089FB002005
:101EE00003F086FB362003F083FB002003F080FB29
:101EF000452003F07DFB002003F07AFB522003F025
:101F000077FB002003F074FB642003F071FB0020DA
:101F100003F06EFB7A2003F06BFB002003F068FBFC
:101F20008B2003F065FB002003F062FB992003F097
:101F30005FFB002003F05CFBA82003F059FB0020AE
:101F400003F056FBB92003F053FB002003F050FBD5
:101F5000C42003F04DFB002003F04AFBCA2003F02D
:101F600047FB002003F044FBD22003F041FB00209C
:101F700003F03EFBD82003F03BFB002003F038FBCE
:101F8000E02003F035FB002003F032FBF32003F0E8
:101F90002FFB002003F02CFBE22003F03BFB05208D
:101FA00003F026FB002003F023FB0B2003F020FBB3
:101FB000002003F01DFB1B2003F01AFB002003F0A0
:101FC00017FB342003F014FB002003F011FB442026
:101FD00003F00EFB002003F00BFB4F2003F008FB87
:101FE000002003F005FB612003F002FB002003F05A
:101FF000FFFA792003F0FCFA002003F0F9FA8820B8
:1020000003F0F6FA002003F0F3FA972003F0F0FA59
:10201000002003F0EDFAA62003F0EAFA002003F016
:10202000E7FAB72003F0E4FA002003F0E1FAC22057
:1020300003F0DEFA002003F0DBFAC72003F0D8FA41
:10204000002003F0D5FAD12003F0D2FA002003F0EB
:10205000CFFAD62003F0CCFA002003F0C9FADD2035
:1020600003F0C6FA002003F0C3FAF32003F0C0FA2D
:10207000002003F0BDFAE32003F0CCFA052003F0C2
:10208000B7FA002003F0B4FA0A2003F0B1FA0020F6
:1020900003F0AEFA1C2003F0ABFA002000E0FDE2F2
:1020A00003F0A6FA332003F0A3FA002003F0A0FA0D
:1020B000442003F09DFA002003F09AFA502003F028
:1020C00097FA002003F094FA622003F091FA0020BE
:1020D00003F08EFA782003F08BFA002003F088FAE0
:1020E000882003F085FA002003F082FA972003F09D
:1020F0007FFA002003F07CFAA62003F079FA002092
:1021000003F076FAB72003F073FA002003F070FAB8
:10211000C22003F06DFA002003F06AFAC72003F032
:1021200067FA002003F064FAD12003F061FA00207E
:1021300003F05EFAD52003F05BFA002003F058FAB2
:10214000DD2003F055FA002003F052FAF32003F0EB
:102150004FFA002003F04CFAE42003F05BFA012070
:1021600003F046FA002003F043FA012003F040FA9E
:10217000002003F03DFA022003F03AFA002003F0B9
:1021800037FA2A2003F034FA002003F031FA3C2019
:1021900003F02EFA002003F02BFA4B2003F028FA6C
:1021A000002003F025FA5D2003F022FA002003F05E
:1021B0001FFA742003F01CFA002003F019FA84209F
:1021C00003F016FA002003F013FA932003F010FA3C
:1021D000002003F00DFAA22003F00AFA002003F019
:1021E00007FAB32003F004FA002003F001FABE203E
:1021F00003F0FEF9002003F0FBF9C42003F0F8F926
:10220000002003F0F5F9CD2003F0F2F9002003F0EF
:10221000EFF9D32003F0ECF9002003F0E9F9DD2019
:1022200003F0E6F9002003F0E3F9F32003F0E0F90E
:10223000002003F0DDF9E52003F0ECF9002003F0C5
:10224000D7F9002003F0D4F9002003F0D1F90020E1
:1022500003F0CEF9022003F0CBF9002003F0C8F917
:10226000292003F0C5F9002003F0C2F93C2003F057
:10227000BFF9002003F0BCF94B2003F0B9F90020AE
:1022800003F0B6F95D2003F0B3F9002003F0B0F9D4
:10229000742003F0ADF9002003F0AAF9842003F0C4
:1022A000A7F9002003F0A4F9932003F0A1F900207E
:1022B00003F09EF9A22003F09BF9002003F098F9A7
:1022C000B32003F095F9002003F092F9BE2003F04B
:1022D0008FF9002003F08CF9C42003F089F9002065
:1022E00003F086F9CD2003F083F9002003F080F994
:1022F000D32003F07DF9002003F07AF9DC2003F00D
:1023000077F9002003F074F9F32003F071F900204D
:1023100003F06EF9E62003F07DF9112003F068F96F
:10232000002003F065F9342003F062F9002003F087
:102330005FF9562003F05CF9002003F059F976208C
:1023400003F056F9002003F053F9772003F050F919
:10235000002003F04DF9662003F04AF9002003F055
:1023600047F9882003F044F9002003F041F999204F
:1023700003F03EF9002003F03BF9BB2003F038F9ED
:10238000002003F035F9992003F032F9002003F022
:102390002FF9662003F02CF9002003F029F95520CD
:1023A00003F026F9002003F023F9552003F020F96B
:1023B000002003F01DF9452003F01AF9002003F076
:1023C00017F9432003F014F9002003F011F9442019
:1023D00003F00EF9002003F00BF9E72003F01AF9DF
:1023E000322003F005F9002003F002F9552003F034
:1023F000FFF8002003F0FCF8762003F0F9F8002045
:1024000003F0F6F8662003F0F3F8002003F0F0F88C
:10241000672003F0EDF8002003F0EAF8672003F0EE
:10242000E7F8002003F0E4F8872003F0E1F800204B
:1024300003F0DEF8992003F0DBF8002003F0D8F871
:10244000BB2003F0D5F8002003F0D2F8992003F068
:10245000CFF8002003F0CCF8772003F0C9F8002073
:1024600003F0C6F8442003F0C3F8002003F0C0F8DE
:10247000562003F0BDF8002003F0BAF8232003F043
:10248000B7F8002003F0B4F8332003F0B1F80020CF
:1024900003F0AEF8452003F0ABF8002003F0A8F8F5
:1024A000E82003F0B7F8002003F0A2F8002003F0C2
:1024B0009FF8992003F09CF8002003F099F88720FA
:1024C00003F096F8002003F093F8882003F090F8CA
:1024D000002003F08DF8772003F08AF8002003F045
:1024E00087F8662003F084F8002003F081F8882044
:1024F00003F07EF8002003F07BF8AA2003F078F8C0
:10250000002003F075F8BB2003F072F8002003F000
:102510006FF8992003F06CF8002003F069F866204A
:1025200003F066F8002003F063F8552003F060F82C
:10253000002003F05DF8552003F05AF8002003F066
:1025400057F8442003F054F8002003F051F84420D9
:1025500003F04EF8002003F04BF8552003F048F844
:10256000002003F045F8E92003F054F8AA2003F016
:102570003FF8002003F03CF8002003F039F8002079
:1025800003F036F8002003F045F8AA2003F030F8F5
:10259000CF2003F03FF8002003F02AF8002003F0DA
:1025A00027F8002003F024F8002003F021F8002091
:1025B00003F01EF8002003F01BF8002003F018F8C9
:1025C000002003F015F8002003F012F8002003F0BB
:1025D0000FF8002003F00CF8002003F009F80020A9
:1025E00003F006F8002003F003F8002003F000F8E1
:1025F000002002F0FDFF002002F0FAFFF02003F0BF
:1026000009F8002002F0F4FF502002F0F1FF002052
:1026100002F0EEFF002002F0EBFF002002F0E8FFE6
:10262000F32002F0F7FF002002F0E2FFF92002F0B1
:10263000F1FF062002F0DCFF102002F0D9FF292074
:1026400002F0D6FF002002F0D3FF3A2002F0E2FFB2
:10265000552002F0CDFF112002F0DCFF642004F0D1
:1026600097F9292002F0D6FF352002F0D3FF002091
:1026700002F0BEFF512002F0CDFFFF2002F0B8FFB4
:10268000532002F0C7FF2C2002F0B2FF552002F0C9
:10269000C1FF822002F0ACFF2C20FCE3B0427DD1D0
:1026A0004FF470445521204602F0CCFF651CAA214E
:1026B000284602F0C7FFA61C5221304602F0C2FF96
:1026C000E71C0821384602F0BDFF4FF20408012143
:1026D000404602F0B7FF0D214FF4304002F0B2FF48
:1026E0000D214BF2010002F0ADFF0D214BF2020073
:1026F00002F0A8FF4FF436493421484602F0A2FF09
:1027000034214BF2016002F09DFF34214BF2026054
:1027100002F098FF4FF4314A0D21504602F092FF2B
:102720004BF2011B0D21584602F08CFF0D214BF29C
:10273000021002F087FF34214FF4374002F082FF8D
:1027400034214BF2017002F07DFF34214BF2027014
:1027500002F078FF00214FF4324002F073FF0021B5
:102760004BF2012002F06EFF00214BF2022002F03A
:1027700069FF24214FF4384002F064FF24214BF616
:10278000010002F05FFF24214BF6020002F05AFF25
:1027900001214FF43F4002F055FF00E0FEE30F211E
:1027A0004FF4334002F04EFF0F214BF2013002F0A4
:1027B00049FF0F214BF2023002F044FF34214FF465
:1027C000394002F03FFF34214BF6011002F03AFF8E
:1027D00034214BF6021002F035FF08214FF435404A
:1027E00002F030FF08214BF2015002F02BFF0821CC
:1027F0004BF2025002F026FF03214FF4424002F058
:1028000021FF24214FF43A4002F01CFF24214BF613
:10281000012002F017FF24214BF6022002F012FFE4
:1028200000214FF43C4002F00DFF78214BF60140AF
:1028300002F008FF00214BF6024002F003FF0021E6
:102840004FF43D4002F0FEFE78214BF6015002F0BD
:10285000F9FE00214BF6025002F0F4FE00214FF485
:102860003E4002F0EFFE64214BF6016002F0EAFE0A
:1028700000214FF4514002F0E5FE33214DF20110EA
:1028800002F0E0FE00214DF2021002F0DBFE3421E6
:102890004DF2031002F0D6FE00214DF2041002F0BA
:1028A000D1FE3A214DF2051002F0CCFE00214DF28E
:1028B000061002F0C7FE4A214DF2071002F0C2FED8
:1028C00000214DF2081002F0BDFE5C214DF209100E
:1028D00002F0B8FE00214DF20A1002F0B3FE812191
:1028E0004DF20B1002F0AEFE00214DF20C1002F082
:1028F000A9FEA6214DF20D1002F0A4FE00214DF21A
:102900000E1002F09FFEE5214DF20F1002F09AFE2C
:1029100001214DF2101002F095FE13214DF211101D
:1029200002F090FE01214DF2121002F08BFE5421B4
:102930004DF2131002F086FE01214DF2141002F048
:1029400081FE82214DF2151002F07CFE01214DF234
:10295000161002F077FECA214DF2171002F072FE37
:1029600002214DF2181002F06DFE00214DF21910F7
:1029700002F068FE02214DF21A1002F063FE0121FE
:102980004DF21B1002F05EFE02214DF21C1002F00F
:1029900059FE34214DF21D1002F054FE02214DF279
:1029A0001E1002F04FFE67214DF21F1002F04AFE8A
:1029B00002214DF2201002F045FE84214DF221103B
:1029C00002F040FE02214DF2221002F03BFEA42153
:1029D0004DF2231002F036FE02214DF2241002F0D7
:1029E00031FEB7214DF2251002F02CFE02214DF2EE
:1029F000261002F027FECF214DF2271002F022FE12
:102A000002214DF2281002F01DFEDE214DF22910A8
:102A100002F018FE02214DF22A1002F013FEF221FC
:102A20004DF22B1002F00EFE02214DF22C1002F09E
:102A300009FEFE214DF22D1002F004FE03214DF29D
:102A40002E1002F0FFFD10214DF22F1002F0FAFDC2
:102A500003214DF2301002F0F5FD33214DF231101B
:102A600002F0F0FD03214DF2321002F0EBFD6D217A
:102A70004DF2331002F0E6FD00214FF4524002F017
:102A8000E1FD33214DF2012002F0DCFD00214DF289
:102A9000022002F0D7FD34214DF2032002F0D2FDD6
:102AA00000214DF2042002F0CDFD3A214DF2052027
:102AB00002F0C8FD00214DF2062002F0C3FD4A21BC
:102AC0004DF2072002F0BEFD00214DF2082002F079
:102AD000B9FD5C214DF2092002F0B4FD00214DF258
:102AE0000A2002F0AFFD81214DF20B2002F0AAFD79
:102AF00000214DF20C2002F0A5FDA6214DF20D2083
:102B000002F0A0FD00214DF20E2002F09BFDE52118
:102B10004DF20F2002F096FD01214DF2102002F03F
:102B200091FD13214DF2112002F08CFD01214DF297
:102B3000122002F087FD54214DF2132002F082FD95
:102B400001214DF2142002F07DFD82214DF215206D
:102B500002F078FD01214DF2162002F073FDCA212A
:102B60004DF2172002F06EFD02214DF2182002F006
:102B700069FD00214DF2192002F064FD02214DF2A1
:102B80001A2002F05FFD01214DF21B2002F05AFDD8
:102B900002214DF21C2002F055FD34214DF21D2082
:102BA00002F050FD02214DF21E2002F04BFD672184
:102BB0004DF21F2002F046FD02214DF2202002F0CE
:102BC00041FD84214DF2212002F03CFD02214DF215
:102BD000222002F037FDA4214DF2232002F032FD25
:102BE00002214DF2242002F02DFDB7214DF22520C7
:102BF00002F028FD02214DF2262002F023FDCF2114
:102C00004DF2272002F01EFD02214DF2282002F095
:102C100019FDDE214DF2292002F014FD02214DF2B2
:102C20002A2002F00FFDF2214DF22B2002F00AFDC6
:102C300002214DF22C2002F005FDFE214DF22D2047
:102C400002F000FD03214DF22E2002F0FBFC1021CA
:102C50004DF22F2002F0F6FC03214DF2302002F05D
:102C6000F1FC33214DF2312002F0ECFC03214DF256
:102C7000322002F0E7FC6D214DF2332002F0E2FC3D
:102C800000214FF4534002F0DDFC33214DF20130BE
:102C900002F0D8FC00214DF2023002F0D3FC3421C6
:102CA0004DF2033002F0CEFC00214DF2043002F070
:102CB000C9FC3A214DF2053002F0C4FC00214DF26E
:102CC000063002F0BFFC4A214DF2073002F0BAFC98
:102CD00000214DF2083002F0B5FC5C214DF20930C4
:102CE00002F0B0FC00214DF20A3002F0ABFC812171
:102CF0004DF20B3002F0A6FC00214DF20C3002F038
:102D0000A1FCA6214DF20D3002F09CFC00214DF2F9
:102D10000E3002F097FCE5214DF20F3002F092FCEC
:102D200001214DF2103002F08DFC13214DF21130D3
:102D300002F088FC01214DF2123002F083FC542194
:102D40004DF2133002F07EFC01214DF2143002F0FE
:102D500079FC82214DF2153002F074FC01214DF214
:102D6000163002F06FFCCA214DF2173002F06AFCF7
:102D700002214DF2183002F065FC00214DF21930AD
:102D800002F060FC02214DF21A3002F05BFC0121DE
:102D90004DF21B3002F056FC02214DF21C3002F0C5
:102DA00051FC34214DF21D3002F04CFC02214DF259
:102DB0001E3002F047FC67214DF21F3002F042FC4A
:102DC00002214DF2203002F03DFC84214DF22130F1
:102DD00002F038FC02214DF2223002F033FCA42133
:102DE0004DF2233002F02EFC02214DF2243002F08D
:102DF00029FCB7214DF2253002F024FC02214DF2CE
:102E0000263002F01FFCCF214DF2273002F01AFCD1
:102E100002214DF2283002F015FCDE214DF229305E
:102E200002F010FC02214DF22A3002F00BFCF221DC
:102E30004DF22B3002F006FC02214DF22C3002F054
:102E400001FCFE214DF22D3002F0FCFB03214DF27E
:102E50002E3002F0F7FB10214DF22F3002F0F2FB82
:102E600003214DF2303002F0EDFB33214DF23130D1
:102E700002F0E8FB03214DF2323002F0E3FB6D215A
:102E80004DF2333002F0DEFB00214FF4544002F0EB
:102E9000D9FB332100E080E34DF2014002F0D2FB88
:102EA00000214DF2024002F0CDFB34214DF20340EF
:102EB00002F0C8FB00214DF2044002F0C3FB3A21AE
:102EC0004DF2054002F0BEFB00214DF2064002F03B
:102ED000B9FB4A214DF2074002F0B4FB00214DF24C
:102EE000084002F0AFFB5C214DF2094002F0AAFB62
:102EF00000214DF20A4002F0A5FB81214DF20B406A
:102F000002F0A0FB00214DF20C4002F09BFBA62139
:102F10004DF20D4002F096FB00214DF20E4002F002
:102F200091FBE5214DF20F4002F08CFB01214DF2A7
:102F3000104002F087FB13214DF2114002F082FB9A
:102F400001214DF2124002F07DFB54214DF213405D
:102F500002F078FB01214DF2144002F073FB822154
:102F60004DF2154002F06EFB01214DF2164002F0C9
:102F700069FBCA214DF2174002F064FB02214DF2B9
:102F8000184002F05FFB00214DF2194002F05AFB9D
:102F900002214DF21A4002F055FB00E001E301214D
:102FA0004DF21B4002F04EFB02214DF21C4002F09C
:102FB00049FB34214DF21D4002F044FB02214DF249
:102FC0001E4002F03FFB67214DF21F4002F03AFB2A
:102FD00002214DF2204002F035FB84214DF22140C8
:102FE00002F030FB02214DF2224002F02BFBA42123
:102FF0004DF2234002F026FB02214DF2244002F064
:1030000021FBB7214DF2254002F01CFB02214DF2BD
:10301000264002F017FBCF214DF2274002F012FBB1
:1030200002214DF2284002F00DFBDE214DF2294035
:1030300002F008FB02214DF22A4002F003FBF221CC
:103040004DF22B4002F0FEFA02214DF22C4002F02C
:10305000F9FAFE214DF22D4002F0F4FA03214DF26F
:103060002E4002F0EFFA10214DF22F4002F0EAFA62
:1030700003214DF2304002F0E5FA33214DF23140A8
:1030800002F0E0FA03214DF2324002F0DBFA6D214A
:103090004DF2334002F0D6FA00214FF4554002F0D1
:1030A000D1FA33214DF2015002F0CCFA00214DF259
:1030B000025002F0C7FA34214DF2035002F0C2FA76
:1030C00000214DF2045002F0BDFA3A214DF20550B4
:1030D00002F0B8FA00214DF2065002F0B3FA4A218C
:1030E0004DF2075002F0AEFA00214DF2085002F006
:1030F000A9FA5C214DF2095002F0A4FA00214DF228
:103100000A5002F09FFA81214DF20B5002F09AFA18
:1031100000214DF20C5002F095FAA6214DF20D500F
:1031200002F090FA00214DF20E5002F08BFAE521E8
:103130004DF20F5002F086FA01214DF2105002F0CC
:1031400081FA13214DF2115002F07CFA01214DF267
:10315000125002F077FA54214DF2135002F072FA35
:1031600001214DF2145002F06DFA82214DF21550FA
:1031700002F068FA01214DF2165002F063FACA21FA
:103180004DF2175002F05EFA02214DF2185002F093
:1031900059FA00214DF2195002F054FA02214DF271
:1031A0001A5002F04FFA01214DF21B5002F04AFA78
:1031B00002214DF21C5002F045FA34214DF21D500F
:1031C00002F040FA02214DF21E5002F03BFA672154
:1031D0004DF21F5002F036FA02214DF2205002F05B
:1031E00031FA84214DF2215002F02CFA02214DF2E5
:1031F000225002F027FAA4214DF2235002F022FAC5
:1032000002214DF2245002F01DFAB7214DF2255053
:1032100002F018FA02214DF2265002F013FACF21E3
:103220004DF2275002F00EFA02214DF2285002F022
:1032300009FADE214DF2295002F004FA02214DF282
:103240002A5002F0FFF9F2214DF22B5002F0FAF968
:1032500002214DF22C5002F0F5F9FE214DF22D50D5
:1032600002F0F0F903214DF22E5002F0EBF910219B
:103270004DF22F5002F0E6F903214DF2305002F0EA
:10328000E1F933214DF2315002F0DCF903214DF226
:10329000325002F0D7F96D214DF2335002F0D2F9DD
:1032A00000214FF4564002F0CDF933214DF2016078
:1032B00002F0C8F900214DF2026002F0C3F9342196
:1032C0004DF2036002F0BEF900214DF2046002F0FD
:1032D000B9F93A214DF2056002F0B4F900214DF23E
:1032E000066002F0AFF94A214DF2076002F0AAF938
:1032F00000214DF2086002F0A5F95C214DF2096051
:1033000002F0A0F900214DF20A6002F09BF9812140
:103310004DF20B6002F096F900214DF20C6002F0C4
:1033200091F9A6214DF20D6002F08CF900214DF2C9
:103330000E6002F087F9E5214DF20F6002F082F98C
:1033400001214DF2106002F07DF913214DF2116060
:1033500002F078F901214DF2126002F073F9542164
:103360004DF2136002F06EF901214DF2146002F08B
:1033700069F982214DF2156002F064F901214DF2E4
:10338000166002F05FF9CA214DF2176002F05AF997
:1033900002214DF2186002F055F900214DF219603A
:1033A00002F050F902214DF21A6002F04BF90121AE
:1033B0004DF21B6002F046F902214DF21C6002F052
:1033C00041F934214DF21D6002F03CF902214DF229
:1033D0001E6002F037F967214DF21F6002F032F9EA
:1033E00002214DF2206002F02DF984214DF221607E
:1033F00002F028F902214DF2226002F023F9A42103
:103400004DF2236002F01EF902214DF2246002F019
:1034100019F9B7214DF2256002F014F902214DF29D
:10342000266002F00FF9CF214DF2276002F00AF971
:1034300002214DF2286002F005F9DE214DF22960EB
:1034400002F000F902214DF22A6002F0FBF8F221AD
:103450004DF22B6002F0F6F802214DF22C6002F0E2
:10346000F1F8FE214DF22D6002F0ECF803214DF24F
:103470002E6002F0E7F810214DF22F6002F0E2F822
:1034800003214DF2306002F0DDF833214DF231605E
:1034900002F0D8F803214DF2326002F0D3F86D212A
:1034A0004DF2336002F0CEF85521204602F0CAF802
:1034B000AA21284602F0C6F85221304602F0C2F88E
:1034C0000821384602F0BEF80021404602F0BAF862
:1034D000CC21504602F0B6F80021584602F0B2F86E
:1034E0000521484602F0AEF870214FF4374002F053
:1034F000A9F870214BF2017002F0A4F801214FF4F9
:10350000384002F09FF803214BF6010002F09AF8D0
:1035100003214BF6020002F095F803214BF603005D
:1035200002F090F802214FF43C4002F08BF80021A9
:103530004BF6014002F086F800214BF6024002F003
:1035400081F8D0214FF4494002F07CF802214CF67A
:10355000011002F077F850214CF6021002F072F8D8
:1035600050214CF6031002F06DF850214CF6041077
:1035700002F068F800214FF4545002F063F855212E
:103580004FF4685002F05EF84FF4885002F042F8B1
:10359000782003F017FA4FF4245002F03BF801F0C2
:1035A00037BAA0F513414FF4E06740F2022A40F227
:1035B0003F154FF42749253935D0FE1DA0F513419D
:1035C0004FF4017828397DD0A0F513414FF4887B62
:1035D0004FF41C59203976D0A0F51341313973D0FE
:1035E000A0F5A841083970D0A0F5A8514FF4407B50
:1035F00005396BD0A0F53541053968D0A0F54541B6
:10360000053965D0A0F5094189397DD0A0F58A41F9
:1036100031397AD0A0F58A41353977D0A0F5C85133
:10362000633974D0BBE747F6F001E52002F00AF8F1
:103630002146012002F006F83946022002F002F885
:1036400041F23001032001F0FDFF0021042001F0D0
:10365000F9FF5146082001F0F5FF0021092001F093
:10366000F1FF00210A2001F0EDFF00210C2001F004
:10367000E9FF00210D2001F0E5FF00210F2001F0FE
:10368000E1FF0021102001F0DDFF0721112001F0F2
:10369000D9FF0021122001F0D5FF0021132001F0F5
:1036A000D1FF0021072001F0CDFF41F290611020F1
:1036B00001F0C8FF40F22721112001F0C3FF9D2136
:1036C000122006E087E030E1D3E1A5E23FE3FDE32D
:1036D000FDE301F0B7FF4FF4C851132001F0B2FF32
:1036E0002521292001F0AEFF0D212B2001F0AAFF9A
:1036F0000721302001F0A6FF40F20331312001F014
:10370000A1FF0321322003E0FEE3FEE3FEE3FEE33C
:1037100001F098FF40F20621352001F093FF0821C7
:10372000362001F08FFF40F20641372001F08AFF7A
:103730004FF44171382001F085FF0721392001F055
:1037400081FF40F202613C2001F07CFF08213D2016
:1037500001F078FF0021502001F074FFEF2151208B
:1037600001F070FF0021522001F06CFF2946532028
:1037700001F068FF4946602001F064FF01216120EB
:1037800001F060FF00216A2001F05CFF0021802031
:1037900001F058FF0021812001F054FF0021822018
:1037A00001F050FF0021832001F04CFF0021842014
:1037B00001F048FF0021852001F044FF10219020F6
:1037C00001F040FF4FF4C061922001F03BFF40F256
:1037D00033110720FEE341F28F01EC2001F032FFAC
:1037E00041F23421EF2001F02DFF2146012001F0AC
:1037F00029FF3946022001F025FF41F23001032064
:1038000001F020FF0021042001F01CFF5146082098
:1038100001F018FF0021092001F014FF00210A2007
:1038200001F010FF01210C2001F00CFF00210D2000
:1038300001F008FF00210F2001F004FF00211020FB
:1038400001F000FF0721112001F0FCFE00211220F1
:1038500001F0F8FE0021132001F0F4FE0121072001
:1038600001F0F0FE322003F093F841F29041102075
:1038700001F0E8FE40F22721112001F0E3FE3220A2
:1038800003F086F88A21122001F0DCFE322003F0DA
:103890007FF84FF4D051132001F0D4FE06212920E7
:1038A00001F0D0FE0D212B2001F0CCFE322003F0E0
:1038B0006FF80021202001F0C5FE0021212001F039
:1038C000C1FE322003F064F80021302001F0BAFE7E
:1038D00040F20461312001F0B5FE40F205313220A2
:1038E00001F0B0FE0021352001F0ACFE40F60941A8
:1038F000362001F0A7FE4146372001F0A3FE40F23A
:103900000131382001F09EFE3146392001F09AFE47
:1039100000213C2001F096FE40F60A213D2001F0F6
:1039200091FE322003F034F83AE10021084601F01C
:1039300089FE2146012001F085FE3946022001F072
:1039400081FE41F23001032001F07CFE00210420C1
:1039500001F078FE5146082001F074FE0021092094
:1039600001F070FE00210A2001F06CFE01210C2004
:1039700001F068FE00210D2001F064FE00210F20FF
:1039800001F060FE322003F003F840F2011107203D
:1039900001F058FE322002F0FBFF4FF48651102058
:1039A00001F050FE0721112001F04CFE5C46594603
:1039B000122001F047FE4FF43061132001F042FE67
:1039C0000021292001F03EFE44F210012B2001F0DD
:1039D00039FE0021502001F035FEEF21512001F089
:1039E00031FE0021522001F02DFE2946532001F026
:1039F00029FE4946602001F025FE0121612001F0E9
:103A000021FE00216A2001F01DFE0021802001F02E
:103A100019FE0021812001F015FE0021822001F015
:103A200011FE0021832001F00DFE0021842001F011
:103A300009FE0021852001F005FE1021902001F0F3
:103A400001FE0021922001F0FDFD0121932001F0F3
:103A5000F9FD2146952001F0F5FD0021972001F0A8
:103A6000F1FD0021982001F0EDFD40F273110720D7
:103A700079E341F21401E72001F0E4FD2146012041
:103A800001F0E0FD4FF40071022001F0DBFD41F296
:103A90003801032001F0D6FD5146082001F0D2FD87
:103AA0000021092001F0CEFD00210A2001F0CAFD0D
:103AB00000210C2001F0C6FD00210D2001F0C2FD07
:103AC00000210F2001F0BEFD0021102001F0BAFD01
:103AD0000721112001F0B6FD0021122001F0B2FDF6
:103AE0000021132001F0AEFDC82002F051FF41F289
:103AF0009061102001F0A6FD40F22721112001F075
:103B0000A1FD322002F044FF0C21122001F09AFDA9
:103B1000322002F03DFF4FF40061132001F092FDCE
:103B20001121292001F08EFD0B212B2001F08AFDAF
:103B3000322002F02DFF0021202001F083FD2946D4
:103B4000212001F07FFD0021302001F07BFD4FF4AA
:103B500083742146312001F075FD0021322001F0EF
:103B600071FD4146352001F06DFD41F20A613620BC
:103B700001F068FD3146372001F064FD2146382010
:103B800001F060FD3146392001F05CFD40F2024158
:103B90003C2001F057FD40F60F413D2001F052FD61
:103BA0000021502001F04EFDEF21512001F04AFD8F
:103BB0000021522001F046FD2946532001F042FD2C
:103BC0004946602001F03EFD0121612001F03AFDEF
:103BD00000216A2001F036FD0021802001F032FD35
:103BE0000021812001F02EFD0021822001F02AFD1C
:103BF0000021832001F026FD0021842001F022FD18
:103C00000021852001F01EFD1021902001F01AFDF9
:103C10004FF4C0619220FDE32146012001F012FD26
:103C20003946022001F00EFD41F23001032001F07F
:103C300009FD0021042001F005FD40F207210820C4
:103C400001F000FD0021092001F0FCFC00210A2008
:103C500001F0F8FC00210C2001F0F4FC00210D2003
:103C600001F0F0FC00210F2001F0ECFC142002F028
:103C70008FFE41F2B061102001F0E4FC012111201F
:103C800001F0E0FC0121172001F0DCFC4FF49C71F5
:103C9000122001F0D7FC4FF40061132001F0D2FC98
:103CA0000921292001F0CEFC09212A2001F0CAFCBB
:103CB0000021A42001F0C6FC0021502001F0C2FC2C
:103CC000EF21512001F0BEFC0021522001F0BAFC8E
:103CD0002946532001F0B6FC4946602001F0B2FCB1
:103CE0000121612001F0AEFC00216A2001F0AAFC54
:103CF0000021802001F0A6FC0021812001F0A2FC1F
:103D00000021822001F09EFC0021832001F09AFC1A
:103D10000021842001F096FC0021852001F092FC16
:103D20001321902001F08EFC0021922001F08AFCEA
:103D30000321932001F086FC5946952001F082FC76
:103D400040F27311072001F07DFC32200DE10021CB
:103D5000072001F077FC322002F01AFE4FF48E713A
:103D6000122001F06FFC0121A42001F06BFC0F2157
:103D7000082001F067FC08210A2001F063FC0821FB
:103D80000D2001F05FFC3146302001F05BFC072183
:103D9000312001F057FC40F20361322001F052FC67
:103DA0003946332001F04EFC5146342001F04AFCE4
:103DB0000221352001F046FC41F60F71362001F05A
:103DC00041FC3146372001F03DFC0021382001F054
:103DD00039FC0021392001F035FC31463A2001F050
:103DE00031FC00213B2001F02DFC07213C2001F09B
:103DF00029FC00213D2001F025FC322002F0C8FD05
:103E00000121072001F01EFC0121172001F01AFCFE
:103E1000322002F0BDFD4FF4BD51102001F012FC24
:103E200040F21721112001F00DFC4FF48F71122088
:103E300001F008FC4FF47061132001F003FC002135
:103E40002A2001F0FFFB0A21292001F0FBFB4FF49F
:103E50009F71122001F0F6FB0021502001F0F2FBCF
:103E6000EF21512001F0EEFB0021522001F0EAFB8E
:103E70002946532001F0E6FB4946602001F0E2FBB1
:103E80000121612001F0DEFB00216A2001F0DAFB54
:103E90000021802001F0D6FB0021812001F0D2FB1F
:103EA0000021822001F0CEFB0021832001F0CAFB1B
:103EB0000021842001F0C6FB0021852001F0C2FB17
:103EC0001321902001F0BEFB594601E050E04BE188
:103ED000922001F0B7FB0521932001F0B3FB0021F4
:103EE000952001F0AFFB0021972001F0ABFB0021F2
:103EF000982001F0A7FB2146012001F0A3FB3946E1
:103F0000022001F09FFB03E0F6E1A9E25CE3FDE3A0
:103F100041F23801032001F095FB0021042001F05B
:103F200091FB00210C2001F08DFB00210F2001F0FE
:103F300089FB0021202001F085FB0021212001F0D8
:103F400081FB2121072001F07DFB142002F020FDE0
:103F50006121072001F076FB142002F019FD40F2E8
:103F60007311072001F06EFB142002F011FD2AE30B
:103F70000021084601F066FB0021084601F062FBC3
:103F80000021084601F05EFB0021084601F05AFBC3
:103F90000121A42001F056FB142002F0F9FC49464F
:103FA000602001F04FFB56465146082001F04AFBC5
:103FB0004FF40571302001F045FB43F215713120BB
:103FC00001F040FB40F20461322001F03BFB40F67F
:103FD000166100E0C3E0332001F034FB42F211210E
:103FE000342001F02FFB4FF4A851352001F02AFBBB
:103FF00048F20751362001F025FB41F207413720F6
:1040000001F020FB41F20341382001F01BFB20218D
:10401000392001F017FB1A21902001F013FB002139
:10402000102001F00FFB0721112001F00BFB0021F4
:10403000122001F007FB0021132001F003FB1420E4
:1040400002F0A6FC4FF4E661102001F0FBFA40F20A
:104050003711112001F0F6FA142002F099FC4FF408
:10406000DC71122001F0EEFA142002F091FC4FF402
:104070007061132001F0E6FA80212A2001F0E2FAB3
:104080004821292001F0DEFA142002F081FC2146AB
:10409000012001F0D7FA3946022001F0D3FA41F2AB
:1040A0003801032001F0CEFA3146082001F0CAFAA7
:1040B00000210A2001F0C6FA00210C2001F0C2FA0A
:1040C00000210D2001F0BEFA30210E2001F0BAFAD5
:1040D0000021502001F0B6FAEF21512001F0B2FA90
:1040E0000021522001F0AEFA2946532001F0AAFA2D
:1040F0004946602001F0A6FA0121612001F0A2FAF0
:1041000000216A2001F09EFA1121902001F09AFA14
:104110004FF4C061922001F095FA40F202419320E1
:1041200001F090FA0221942001F08CFA142002F0A0
:104130002FFC0121072001F085FA142002F028FC51
:104140006121072001F07EFA40F27311072001F08F
:1041500079FA0021202001F075FA0021212001F0D8
:1041600071FA222100202CE20021084601F06AFAAF
:104170000021084601F066FA142002F009FC002133
:10418000084601F05FFA0021084601F05BFA0021C1
:10419000084601F057FA0021084601F053FA0121C0
:1041A000A42001F04FFA142002F0F2FB49466020EF
:1041B00001F048FA40F60601082001F043FA40F207
:1041C00003773946302001F03DFA0121312001F01A
:1041D00039FA0421322001F035FA4FF4817133208D
:1041E00001F030FA5E465946342001F02BFA40F2D5
:1041F0000311352001F026FA1F21362001F022FAA2
:104200003946372001F01EFA0121382001F01AFA50
:104210000421392001F016FA1521902001F012FA3C
:104220004FF48261102001F00DFA40F24721112075
:1042300001F008FA4FF4DE71122001F003FA4FF496
:104240006061132001F0FEF9782002F0A1FB214605
:10425000012001F0F7F94FF40071022001F0F2F9AA
:1042600041F23001032001F0EDF908210A2001F0AC
:10427000E9F900210C2001F0E5F920210E2001F0E0
:10428000E1F900210F2001F0DDF90021202001F0EB
:10429000D9F90021212001F0D5F93D212A2001F092
:1042A000D1F9142002F074FB2D21292001F0CAF964
:1042B0000021502001F0C6F94DF2EF01512001F02C
:1042C000C1F90021522001F0BDF92946532001F027
:1042D000B9F90021612001F0B5F900216A2001F04F
:1042E000B1F93146922001F0ADF90521932001F09A
:1042F000A9F92146FFF7BBBB0121002001F0A2F97B
:104300004AF6A401032001F09DF900210C2001F0E0
:1043100099F940F60C010D2001F094F94FF42C515D
:104320000E2001F08FF9B0211E2001F08BF942F62A
:104330003F31012001F086F94FF4C061022001F005
:1043400081F90021102001F07DF946F27801112059
:1043500001F078F90021052001F074F90021062010
:1043600001F070F94EF61C71162001F06BF9032173
:10437000172001F067F940F23321072001F062F9BC
:1043800000210B2001F05EF900210F2001F05AF905
:104390000021412001F056F90021422001F052F99C
:1043A0000021482001F04EF92946492001F04AF940
:1043B00000214A2001F046F900214B2001F042F98A
:1043C0004FF46F41442001F03DF90021452001F0F8
:1043D00039F92946462001F035F93146302001F0FF
:1043E00031F944464146312001F02CF92146322072
:1043F00001F028F940F202552946332001F022F954
:10440000691D342001F01EF92146352001F01AF90A
:10441000214600E07CE1362001F014F929463720DE
:1044200001F010F940F2023421463A2001F00AF975
:1044300021463B2001F006F90021232001F002F97A
:104440000021242001F0FEF84FF40041252001F066
:10445000F9F800214F2001F0F5F800214E20B0E0DE
:104460000121002001F0EEF80A2002F091FA41F259
:104470002861102001F0E6F80E21122001F0E2F888
:1044800040F63921132001F0DDF80A2002F080FA0D
:104490004021112001F0D6F85021152001F0D2F86A
:1044A0000A2002F075FA1E21122001F0CBF80A2032
:1044B00002F06EFA4FF4B151102001F0C3F842F649
:1044C0003921132001F0BEF80A2002F061FA2146DA
:1044D000012001F0B7F85946022001F0B3F841F28B
:1044E0003801032001F0AEF85146082001F0AAF887
:1044F00008210A2001F0A6F80021302001F0A2F8DE
:1045000040F20241312001F09DF84FF483713220D6
:1045100001F098F840F20351332001F093F84FF482
:104520008271342001F08EF840F20131352001F023
:1045300089F83146362001F085F840F20531372000
:1045400001F080F84FF40271382001F07BF840F65A
:104550000B71392001F076F80221412001F072F848
:104560004946602001F06EF80121612001F06AF8EF
:104570004FF40471902001F065F84FF4857192209A
:1045800001F060F80421932001F05CF82146A0209E
:1045900001F058F80121072001F054F821210720EB
:1045A00001F050F82321072001F04CF833210720B7
:1045B00001F048F840F23311072001F043F80021E0
:1045C000A02001F03FF823E23021152001F03AF855
:1045D00010219A2001F036F82021112001F032F844
:1045E00043F22841102001F02DF80221122001F0A1
:1045F00029F841F23801132001F024F8282002F0B4
:10460000C7F91221084601F01DF8282002F0C0F970
:1046100043F22041102001F015F843F23801132035
:1046200001F010F8462002F0B3F90021302001F02B
:1046300009F840F20241312001F004F840F207315C
:10464000322000F0FFFF4FF44171332000F0FAFFF9
:104650000421342000F0F6FF40F20141352000F043
:10466000F1FF3146362000F0EDFF40F205313720F2
:1046700000F0E8FF4FF4C2652946382000F0E2FF61
:104680002946392000F0DEFF2146012000F0DAFF44
:104690005946022000F0D6FF41F23001032000F01D
:1046A000D1FF40F60801082000F0CCFF08210A20C5
:1046B00000F0C8FF4946602000F0C4FF01216120DE
:1046C00000F0C0FF4FF49F71902000F0BBFF214627
:1046D000922000F0B7FF2146932000F0B3FF4FF483
:1046E0004051A02000F0AEFF1021A32000F0AAFF4F
:1046F0000121072000F0A6FF2121072000F0A2FFE2
:104700002321072000F09EFF332100E005E0072071
:1047100000F098FF40F23311ECE5E22000F07AFF60
:104720002746C24C276165156561DFF804831D21AA
:10473000C8F80010802666612661256127616561E1
:104740000220C8F800006661266125612761656165
:104750000420C8F80000666126612561642002F02B
:1047600031F9E02000F056FF276165614FF0010A42
:10477000C8F800A06661266125610A2002F008F9E8
:10478000E02000F047FF276165614FF0030BC8F898
:1047900000B06661266125610C2002F0F9F8012065
:1047A00000F038FF0A2002F0F3F8E62000F032FFB4
:1047B000276165612F21C8F80010666126612561B7
:1047C00027616561FF20C8F80000666126612561E8
:1047D00027616561C8F80000666126612561B02027
:1047E00000F018FF276165612021C8F8001066619C
:1047F00026612561276165614FF00009C8F80090C6
:1048000066612661256127616561C8F800B066614F
:10481000266125612761656140F21F31C8F80010EB
:1048200066612661256127616561C8F800A066613F
:10483000266125612761656140F2DF11C8F800102B
:1048400066612661256127616561C8F8009066612F
:1048500026612561B42000F0DDFE2761656104203A
:10486000C8F800006661266125612761656140F234
:104870001F41C8F8001066612661256127616561E6
:10488000C8F80090666126612561276165612E2167
:10489000C8F800106661266125612761656141469F
:1048A000C8F8009066612661256127616561C8F8D6
:1048B000009066612661256127616561C8F80090F6
:1048C00066612661256127616561C1F800906661B6
:1048D00026612561B62000F09DFE276165610220FA
:1048E000C8F80000666126612561276165614FF4A3
:1048F0000371C8F800106661266125612761656152
:10490000C8F80090666126612561276165611721FD
:10491000C8F800106661266125612761656115216F
:10492000C8F8001066612661256127616561C8F8D5
:10493000009066612661256127616561C8F8009075
:10494000666126612561F02000F064FE27616561E3
:10495000C8F800B0666126612561292000F05AFE82
:10496000D02000F057FE27616561C8F800906661AD
:1049700026612561BE2000F04DFE2761656105219D
:10498000C8F8001066612661256127616561FE2116
:10499000C8F800106661266125612761656141469E
:1049A000C8F800A066612661256127616561C8F8C5
:1049B000009066612661256127616561C8F80090F5
:1049C00066612661256127616561C1F800906661B5
:1049D00026612561B82000F01DFE27616561C8F8D9
:1049E00000B066612661256127616561C8F800A095
:1049F000666126612561BA2000F00CFE27616561C1
:104A0000C8F800A0666126612561642000F054F8B2
:104A10000020FCF71FFA07490120C1F8A8014FF652
:104A2000FF70FCF7D5F9BDE8F88F000000100140D9
:104A30000C0C0140000022422DE9F047DFF85C90A9
:104A40004FF08830C9F8000009F104052860134EC2
:104A500000200C363060124CA815206147006761B9
:104A60004FF04008C4F814800E488088A0F5094132
:104A7000893902D1022001F0A5FF084808300068FA
:104A8000C4F8108080B227614FF03331C9F80010AC
:104A900029604FF6FF713160BDE8F087000C0140DE
:104AA00000100140D801002010B500F0B3FDBDE8B2
:104AB0001040FFF7C1BF00002DE9F0478146BE203E
:104AC00000F0A8FD204C4FF48077276165156561E3
:104AD000DFF878800521C8F800108026666126611D
:104AE000256127616561484603F077F84FF066322B
:104AF000174B03F085F803F043F8C8F8000066612F
:104B000026612561276165610121C8F80010666191
:104B10002661256127616561FF21C8F80010666183
:104B200026612561276165610020C8F80000666183
:104B30002661256127616561C8F80000666126610C
:104B40002561BDE8F0870000001001400C0C014019
:104B5000666604402DE9F04FB84C00262146A27944
:104B6000898846F6040341F66317012A01D02AB169
:104B70001DE099421BD0B94202D118E0B94216D1CA
:104B8000082814D2DFE800F00406080A0C0E101200
:104B900006200CE007200AE0042008E0052006E0DB
:104BA000012004E0002002E0032000E00220A1F543
:104BB000134C45F2103245F21055BCF1410C07D0B0
:104BC000994205D0914203D0A94201D0B9427DD18A
:104BD000082812D2DFE800F0110406080A0C0E10B3
:104BE00080260AE0402608E0C02606E0202604E0F1
:104BF000602602E0A02600E0E026A94202D14FF4A0
:104C0000585000E03620914205D0A94203D0B94265
:104C100001D046F00806994201D146F0020631461D
:104C200000F010FDA188B9420AD0B0062088628841
:104C300002D5904202D303E0904201D922806080E5
:104C40007F4EDFF800B24FF0000A4FF480774FF448
:104C50000078A9427BD1608900F0DCFC3761C6F89E
:104C60001480D946CBF800A0802575613561C6F85F
:104C700010806089401C80B200F0CCFC3761C6F81F
:104C80001480C9F800A075613561C6F8108060898C
:104C9000801C80B200F0BEFC3761C6F8148020880A
:104CA000401E0112C9F8001075613561C6F8108008
:104CB0006089C01C80B200F0ADFC3761C6F814807A
:104CC0002078401EC1B2C9F8001000E099E075617B
:104CD0003561C6F81080A08900F09CFC3761C6F8E9
:104CE0001480C9F800A075613561C6F81080A089EC
:104CF000401C80B200F08EFC3761C6F81480C9F801
:104D000000A075613561C6F81080A089801C80B252
:104D100000F080FC3761C6F814806088401E0112E4
:104D2000C9F8001075613561C6F81080A089C01CF3
:104D300080B200F06FFC3761C6F81480A078401E86
:104D4000C1B2C9F800107561356156E0FFE7A146B0
:104D5000608900F05FFC3761C6F814805D46CBF8CF
:104D600000A0802474613461C6F810803761C6F8F1
:104D70001480CBF800A074613461C6F810803761EC
:104D8000C6F81480B9F80000401E01122960746151
:104D90003461C6F810803761C6F81480C0B228604C
:104DA00074613461C6F81080B9F80C0000F032FC70
:104DB0003761C6F81480C5F800A074613461C6F884
:104DC00010803761C6F81480C5F800A074613461A2
:104DD000C6F810803761C6F81480B9F80200401E8A
:104DE0000112296074613461C6F810803761C6F819
:104DF0001480C0B2286074613461C6F81080BDE8C8
:104E0000F08F082812D2DFE800F0040608110A0C1F
:104E10000E1030260AE0102608E0202606E038268C
:104E200004E0282602E0182600E0082646F4805117
:104E3000BDE8F04F032000F005BC0000D8010020C1
:104E4000001001400C0C01402DE9F34F04464FEADD
:104E5000102900F0FF0A0198DFF83483060AC5B272
:104E6000B8F804104046DFF82CB34089A1F513428E
:104E7000413A17D0A1F5A642103A13D04346A1F506
:104E8000D0479A791B881B1B5B1E043F45D0A1F5B8
:104E9000C857633F7ED0A1F5AA47103F7BD0012AB7
:104EA0007AD06AE100F0B6FB4FF480705C46CBF834
:104EB00010004700CBF814704946DFF8DC92C9F8BF
:104EC00000104FF08008CBF81480CBF81080CBF89E
:104ED0001070CBF81000CBF81470C9F800A0CBF814
:104EE0001480C4F810802761A948808900F092FBE3
:104EF000781020616761C9F80060C4F81480C4F8B4
:104F00001080276120616761C9F80050C4F81480DF
:104F1000C4F810802761BDE8FC8F012A00D19CB243
:104F200000F078FB4FF480705F46CBF810004FF430
:104F30000078CBF81480DFF860A2210ACAF80010CC
:104F40004FF08009CBF81490CBF81090CBF810807C
:104F5000CBF81000CBF81480E1B2CAF80010CBF8FF
:104F60001490C7F81090C7F810808948808900F025
:104F700051FB4FF480703861C7F81480CAF80060A4
:104F8000C7F81490C7F81090C7F810803861C7F8B8
:104F9000148002E00AE0A9E0EEE0CAF80050C7F889
:104FA0001490C7F81090C7F81080B4E7002A6BD0AF
:104FB000DFF8DC8100F02EFB4FF480745846CBF80C
:104FC00010406200CBF81420734FC7F80090802186
:104FD000CBF81410CBF81010CBF81020CBF8104001
:104FE000CBF81420C7F800A0CBF81410CBF81010A1
:104FF000CBF8102004614261B8F800305B1E4FEA24
:10500000232CC7F800C04161016102610461426163
:10501000DBB23B604161016102615D4CA08900F03F
:10502000F9FA4FF480775846CBF810707900CBF836
:105030001410DFF864C1CCF800608022CBF8142093
:10504000CBF81020CBF81010CBF81070CBF8141060
:10505000CCF80050CBF81420CBF81020CBF810106F
:10506000CBF81070416163885B1E1C12CCF80040C5
:1050700042610261016107614161DBB2CCF800303D
:1050800042610261016146E71FFA83F800F0C2FA4B
:105090004FF480735846CBF810305900CBF81410F9
:1050A0003D4C002727608022CBF81420CBF810203D
:1050B000CBF81010CBF81030CBF814102760CBF8D9
:1050C0001420CBF81020CBF81010036141614FEA97
:1050D000182727604261026101610361416108F0A4
:1050E000FF03236042610261016196E700F092FADA
:1050F0004FF480705C46CBF810004FF40078CBF88A
:1051000014804846DFF89090C9F800008027CBF85B
:105110001470CBF81070CBF810801D484089401CEB
:1051200080B200F077FA78002061C4F81480C9F8E2
:1051300000A067612761C4F810801548808900F0DD
:1051400069FA78002061C4F81480C9F800606761CA
:105150002761C4F810800E488089401C80B200F09E
:1051600059FA78002061C4F81480C9F800506761CA
:105170002761C4F81080CEE69CB2214600F062FAA6
:10518000B8F80C000199BDE8FC4F00F05BBA0000D4
:10519000D8010020001001400C0C01402DE9FF4F08
:1051A000044691464844DFF81CA3401E86B087B2EF
:1051B000BAF80400E2B2059204EB0902521E1FFA8B
:1051C00082FC4FEA1C2204920CF0FF020D46CE181E
:1051D0000392761E2A0A1FFA86FC00924FEA1C22CE
:1051E00002920CF0FF0201925246A0F5134152893F
:1051F000B3B24FEA142805F0FF0B413910D0A0F5E7
:10520000A64110390CD0A0F5D041043908D09AF845
:1052100006E041F6631CBEF1010F4AD1604548D15A
:10522000104600F0F7F9A84C4FF48076266165151A
:105230006561DFF89892C9F800808027676127616F
:105240002561266165610598C9F8000067612761DD
:105250002561266165610498C9F8000067612761CE
:105260002561266165610398C9F8000067612761BF
:105270002561BAF80C0000F0CDF92661656100984F
:105280004946C9F8000067612761256126616561AB
:10529000C9F800B0676127612561266165610298E0
:1052A000C9F8000067612761256126616561019881
:1052B000F9E08449604509885DD1A1EB0900001B34
:1052C0001FFA80FAB0B20990104600F0A3F97E4CA4
:1052D0004FF48077276165156561DFF8F0814FEA4B
:1052E0001A21C8F8001080266661266125612761B1
:1052F00065610AF0FF01C8F800106661266125614A
:10530000276165610AEB0900401E0212C8F80020FF
:1053100066612661256127616561C1B2C8F8001028
:105320006661266125616748808900F073F927610D
:1053300065610098C8F800006661266125612761F3
:105340006561C8F800B06661266125612761656105
:105350000998010AC8F80010666126612561276175
:1053600065610998C1B2C8F80010666126612561BF
:105370000AB0BDE8F08FA0F5A04CBCF5A26C24D01B
:10538000BEF1010F7ED03E462046A8461F46502261
:1053900001464FF0510B4FF0520A4FF0530910469F
:1053A00000F050F93146584600F04CF9414650465D
:1053B00000F048F93946484600F044F90AB0294659
:1053C0002046BDE8F04FFFF73FBD104600F022F940
:1053D0003D4C4FF48076266165156561DFF8EC90F1
:1053E000C9F800808027676127612561BAF80A0043
:1053F000401C80B200F00EF9266165610598C9F87D
:105400000000676127612561BAF80A00801C80B23C
:1054100000F000F9266165610498C9F80000676131
:1054200027612561BAF80A00C01C80B200F0F2F8CA
:10543000266165610398C9F80000676127612561ED
:10544000BAF80C0000F0E6F8266165610099C9F829
:105450000010676127612561BAF80C00401C80B21A
:1054600000F0D8F826616561C9F800B0676127616E
:105470002561BAF80C00801C80B200F0CBF82661E0
:10548000656100E013E00298C9F8000067612761D8
:105490002561BAF80C00C01C80B200F0BBF8266190
:1054A0006561019849460860676127615FE7CA1B2B
:1054B000521E091B491E28461E461FFA82F88FB24B
:1054C00065E70000D8010020001001400C0C0140ED
:1054D0002DE9F84F82461F460C468B46580700D0F0
:1054E000012000EBD70079084843203AC0B202F00F
:1054F000FF090026009041E00C2F10D0102F12D091
:10550000182F3ED1204909EBC90001EB80004FF074
:105510000008855D28060AD51C4802880BE009EBC7
:1055200049001B49F1E71B4901EB0910EFE70A9815
:1055300028B91648428821465046FBF725FD6806E3
:10554000050E1548641CA4B24088A04219D9A4EBEA
:105550000B00B84209D10AF101001FFA80FA0E4887
:105560005C46018851450CD906E008F1010000F0C5
:10557000FF08B8F1080FCDD3761CF6B2009886422A
:10558000BAD3BDE8F88F000060880008160000203C
:10559000FC7D000870820008D80100202DE9F84F3A
:1055A000044600F0FF0810190D46DDE90A761FFADF
:1055B00080FA58191FFA80F94FF0000B11E054459A
:1055C00002D3E819444685B24D450FD23B462946E1
:1055D0002046CDF800B0FFF77BFF04EB570084B204
:1055E000761C3278A2F120005E28E8D9BDE8F88F59
:1055F00006494FF480720A614A154A61044B1860EB
:105600008020486108610A61704700000010014075
:105610000C0C014006494FF480724A614A154A61F8
:10562000044B18608020486108610A6170470000DF
:10563000001001400C0C014001480089FFF7EABF4F
:10564000D801002010B50C46FFF7E4FF06484FF4E0
:10565000807101614215426104490C608021416101
:105660000161026110BD0000001001400C0C0140FE
:1056700038B50121242000F0FBFB4FF48074ADF815
:10568000004010208DF8030003200C4D8DF802001F
:1056900069462846FBF718FB21462846FBF795FB91
:1056A0000420074CADF8000069462046FBF70CFBD0
:1056B00004212046FBF789FB38BD000000080140AB
:1056C00000140140FEE7704730B50F23C27801781F
:1056D0000125F2B1144A126801F1E02102F4E062FE
:1056E000C2F5E062120AC2F10404D3404278A2403B
:1056F00084781C401443220181F80024007800F0D3
:105700001F018D404009800000F1E020C0F80051E9
:1057100030BD01F01F0085404809800000F1E02005
:10572000C0F8805130BD00000CED00E00249084394
:1057300002490860704700000000FA050CED00E027
:105740000021801C05280BD2DFE800F003050A07C2
:105750000900B02104E0982102E0182100E0302186
:10576000552000F0E7BC70B5802622255E24801C01
:10577000052813D2DFE800F00307120B0F004026C4
:1057800011252F240AE066261B254B2406E09926C6
:105790002825712402E0C02633258D2431464F2070
:1057A00000F0C8FC3146502000F0C4FC002151201C
:1057B00000F0C0FC2946522000F0BCFC21465320DA
:1057C00000F0B8FC3146542000F0B4FCBDE8704055
:1057D0009E21582000F0AEBC4021801C05280BD231
:1057E000DFE800F003050A070900302104E0382152
:1057F00002E0502100E06021562000F09BBC10B573
:1058000005283AD2DFE800F0030D17212B00E7212D
:10581000132000F08FFC0021012000F08BFC002100
:1058200026E0E521132000F085FC5A21012000F03C
:1058300081FC5C211CE0E521132000F07BFC582159
:10584000012000F077FC602112E0E521132000F038
:1058500071FC8421012000F06DFC4C2108E0E52161
:10586000132000F067FC9621012000F063FC40212A
:10587000BDE81040022000F05DBC10BD10B5072847
:105880003BD2DFE800F0040608121C262C0004219D
:105890000CE0242100E014213A2000F04BFC802190
:1058A000672000F047FC802122E014213A2000F01C
:1058B00041FC8021672000F03DFCC02118E014214C
:1058C0003A2000F037FC4021672000F033FC4021F3
:1058D0000EE014213A2000F02DFCC021E0E7142155
:1058E0003A2000F027FC4021672000F023FCA02193
:1058F000BDE81040682000F01DBC10BD10B5001DB3
:10590000092815D2DFE800F01F1D12100E0C0A073F
:105910000500482100E03821062409E02821FBE7A2
:105920001821F9E70821F7E7082100E018210E24E3
:105930009B2000F0FFFB2146BDE81040AB2000F0AB
:10594000F9BB2821F3E73821F1E710B5011D08293B
:105950000BD804014034E1B2A72000F0EBFBE1B228
:10596000BDE81040A82000F0E5BB10BD011D0829CE
:1059700006D8202101EB8000C1B29C2000F0DABBE8
:1059800070470000F8B5002401210D2000F070FAE6
:105990001320ADF8000010268DF803600320364F69
:1059A0008DF8020069463846FBF78EF91321384618
:1059B000FBF70BFAF502ADF8005048208DF8030014
:1059C00069463846FBF780F929463846FBF7FDF96A
:1059D0004FF4B045ADF800508DF803606946384685
:1059E000FBF772F929463846FBF7EFF90121234806
:1059F000FBF7B8F900F092FA8021122000F09AFB30
:105A000008B10120F8BD322000F0C2FF1C2000F0D8
:105A1000F9FA4FF6FF7606EA00251D2000F0F2FAAB
:105A200040EA0501A1F5FE40A23803D014A0FAF720
:105A30001FFCE6E70A2000F0E5FA06EA00250B2045
:105A400000F0E0FA40EA0501A1F5EE40213804D06B
:105A50000EA0FAF70DFC0220F8BD0F4D05EB440037
:105A6000417815F8140000F065FB641CA4B2412CC9
:105A7000F4D30020F8BD000000080140000230000F
:105A80004D49443A25640D0A000000004849443A53
:105A900025640D0A00000000BC95000810B506281A
:105AA00047D2DFE800F003061D27313CFF21132019
:105AB00009E0FD21132000F03DFB5A21012000F0F8
:105AC00039FB5C2129E000F035FB65210E2000F058
:105AD00031FB00212D2000F02DFB00212E2024E0A1
