:020000040800F2
:10000000E05F002009230008A9040008AB040008F1
:10001000AF040008B3040008B704000800000000A3
:10002000000000000000000000000000490100087E
:10003000BB040008000000008D010008BD0400089A
:100040002323000823230008232300082323000878
:100050002323000823230008232300082323000868
:100060002323000823230008232300082323000858
:100070002323000823230008232300082323000848
:100080002323000823230008232300082323000838
:100090002323000823230008232300082323000828
:1000A0002323000823230008232300082323000818
:1000B000C1090008D70900082323000823230008EA
:1000C00023230008232300082323000823230008F8
:1000D00023230008A9200008232300082B2200085E
:1000E000B11B000823230008232300082323000852
:1000F00023230008232300082323000823230008C8
:1001000023230008232300082323000823230008B7
:10011000232300082323000823230008090A0008DA
:100120002323000823230008232300082323000897
:10013000DFF810D007F07EFB004800474B030008B3
:10014000AFF30080E05F0020224B19680868B0E838
:10015000F00F80F30988BFF36F8F4FF0000080F33A
:1001600011884EF00D0E7047000000000648006830
:10017000006880F3088862B661B6BFF34F8FBFF3A3
:100180006F8F00DF00BF00BF08ED00E0EFF30980D4
:10019000BFF36F8F0F4B1A6820E9F00F106008B59E
:1001A0004FF0500080F31188BFF34F8FBFF36F8F74
:1001B00004F0D7FD4FF0000080F31188BDE808403F
:1001C00019680868B0E8F00F80F30988BFF36F8FF3
:1001D000704700BFCC050020EFF30580704700009A
:1001E00070470EB50025874903C9CDE901010027F5
:1001F000A846102006F0B3FE044600BF4FF0FF30C3
:1002000000230122114600907F48006806F007FD98
:100210000128F3D080E0012000F06EFA012804D01C
:10022000022808D0032815D112E00DB9012000E002
:10023000002005460FE0002500F0C7FA012803D191
:10024000002000F0C5FA02E0012000F0C1FA02E04F
:10025000002500E000BF00BF01F054F815B1012DEA
:100260001DD100E01CE001F08CF84FF4004167481C
:1002700002F0BDF960B1781CC7B2052F0EDDB8F1F0
:10028000000F0BD14FF00108012001F0A9F805E0A3
:100290004FF00008002001F0A3F8002700E000BFA5
:1002A00000BF00F098FA01F02AF8044600215648F1
:1002B000006806F047FD0646022E09D154A001F061
:1002C00090FF4FF47A7004F023FC01F0A9FB04E0E6
:1002D00052A0D4E9002101F084FF102353A2002191
:1002E000282000F045FE102304F10C02022100201A
:1002F00000F03EFE102304F108020421002000F06B
:1003000037FE01A850F8252010230621002000F018
:100310002FFE0A2004F0FCFB7DE71CB5044606F026
:1003200098FF00F010FC4348022100238022CDE911
:10033000001041A1AFF2551004F06CF94348006879
:1003400004F0B6F906F0A8FF1CBD1CB54FF44070D0
:1003500001F0ECFF01F0D2FD00F09AFE4FF4E13025
:1003600001F055FE4FF4E13001F0DBFE00F09EF9A4
:1003700000F014FA102336A20021084600F0F8FD20
:1003800000F037FA102336A20221002000F0F0FD21
:1003900001F04FF8102337A20421002000F0E8FDFF
:1003A00000BF00F0FDFF0028FBD1102336A206217C
:1003B00000F0DEFD0CE001F069F830B901F0FCFA64
:1003C00040F2DC5001F0E1FD03E0C82001F0DDFD6A
:1003D000F1E700BF01F013FC4FF4FA6001F0D5FD26
:1003E00000F0E1FC1948012100233222CDE9001080
:1003F0002AA1AFF2D90004F00DF904F034FE00BFD9
:10040000FEE70000B084000834000020000C01402A
:100410004C6F6F6B537563636573730054656D3A0E
:1004200025642C52483A2564000000004372616440
:100430006C650000040000204D61696E52756E6E9F
:10044000696E675F5461736B00000000000000205C
:100450004273705F696E697469616C697A650000E6
:10046000566F6963655F696E697469616C697A6505
:100470000000000044485432325F496E697469617B
:100480006C697A65000000004F56373732355F4996
:100490006E697469616C697A650000005461736B00
:1004A0005F496E6974000000704700BFFEE700BF3F
:1004B000FEE700BFFEE700BFFEE7704710B505F09E
:1004C00084F8012801D006F0FFFE10BD0CB5002015
:1004D000019000906C48006840F480306A490860E0
:1004E00000BF6948006800F4003000900198401C8B
:1004F0000190009818B90198B0F5A06FF1D1624849
:10050000006800F4003010B10120009001E00020EC
:1005100000900098012843D15C48006840F010002A
:100520005A4908600846006820F003000860084641
:10053000006840F002000860534840685249486033
:100540000846406848600846406840F4806048605B
:100550000846406820F47C1048600846406840F433
:10056000E81048600846006840F08070086000BFEE
:100570004548006800F000700028F9D04248406803
:1005800020F00300404948600846406840F00200FF
:10059000486000BF3C48406800F00C000828F9D1D2
:1005A0000CBD10B5FFF792FF10BD10B536480068BE
:1005B00040F001003449086008464068344908406A
:1005C0003149486008460068324908402E490860B1
:1005D0000846006820F4802008600846406820F43F
:1005E000FE0048604FF41F008860FFF7DAFF4FF00D
:1005F00000602949086010BD10B5002100200022CC
:10060000214B5B6803F00C0121B1042906D00829B5
:1006100028D107E0214B224C236027E01F4B204CC0
:10062000236023E0184B5B6803F47010164B5B6883
:1006300003F48032022303EB904022B9194B434369
:10064000174C23600DE0104B5B6803F4003323B1BB
:10065000144B4343124C236003E0104B4343104CB4
:10066000236003E00D4B0E4C236000BF00BF064B20
:100670005B68C3F303130C4CE15C094B1B68CB4074
:10068000074C236010BD0000001002400020024013
:100690000000FFF8FFFFF6FE08ED00E000127A0010
:1006A0000C00002000093D001000002008B50121C9
:1006B000102002F0C5F94FF40070ADF8000048209A
:1006C0008DF803006946334801F0FEFE4FF4807058
:1006D000ADF8000048208DF8030069462D4801F070
:1006E000F3FE8020ADF8000048208DF80300694635
:1006F000284801F0E9FE08BD10B5044614B10120F8
:10070000254908702448007868B34FF400712148E7
:1007100001F06DFF50B14FF480711E4801F067FF8A
:1007200020B180211B4801F062FFE0B90A2001F0EE
:100730002CFC0020184908704FF40071154801F096
:1007400056FF08B9012010BD4FF48071114801F027
:100750004EFF08B90220F6E780210E4801F047FF5E
:10076000B0B90320EFE74FF400710A4801F03FFFF2
:1007700001280DD10102074801F039FF012807D1F6
:100780008021044801F033FF012801D1024908709B
:100790000020D8E7001001402000002008B501210A
:1007A000082002F04DF94020ADF8000010208DF82F
:1007B000030003208DF802006946164801F084FE0C
:1007C0004021144801F02FFF08BD134800787047FE
:1007D00011490870704710B50F48007820B14021CA
:1007E0000C4801F01EFF03E040210A4801F01BFF06
:1007F00010BD08B50121082002F022F94FF4004095
:10080000ADF8000028208DF803006946034801F088
:100810005BFE08BD0010014021000020000C0140DB
:100820007FB505460C460121084602F016F9ADF8E1
:100830000850ADF804400020ADF80A00ADF80600FD
:1008400001A94FF0804002F037FC012211469007C9
:1008500002F0A9FF1C208DF8000000208DF8010097
:1008600002208DF8020001208DF80300684601F097
:1008700062FD0121880702F07BFF7FBD7FB5054641
:100880000C460121022002F0E8F8ADF80850ADF85E
:1008900004400020ADF80A00ADF8060001A9764832
:1008A00002F00AFC01221146734802F07CFF1D2071
:1008B0008DF8000000208DF8010003208DF8020063
:1008C00001208DF80300684601F035FD01216A48DA
:1008D00002F04EFF6948002101807FBD7FB50546CB
:1008E0000C460121202002F0B8F8ADF80450ADF814
:1008F00000400020ADF80600ADF8020069466048EF
:1009000002F0DAFB012211465D4802F04CFF0121A2
:100910005B4802F02DFF37208DF80C0005208DF884
:100920000D0000208DF80E0001208DF80F0003A8A7
:1009300001F001FD7FBD30B589B005460C460121AF
:10094000042002F08AF80121082002F079F8C02082
:10095000ADF8200018208DF8230003208DF8220028
:1009600008A9484801F0B0FDADF81850ADF81440A2
:100970000020ADF81A00ADF8160005A9424802F0B3
:100980009BFB7020ADF804000120ADF806000220AA
:10099000ADF80C0001A93C4802F0CBFB01A93A4894
:1009A00002F009FC0821384803F012F80821364803
:1009B00003F017F80121344802F0DAFE09B030BD27
:1009C00010B50121880703F09CF918B101218807AF
:1009D00003F0A8F910BD10B50121274803F091F9E3
:1009E00088B1002409E02548005D20B12348005D5E
:1009F000401E22490855601CC4B2022CF3DB0121C1
:100A00001D4803F08FF910BD08B501211C4803F003
:100A100078F980B31D48008840F400401B490880E5
:100A20001B480068F8B10846008800F40040D0B1C7
:100A300000236A4617491648006805F0F5FC0020B7
:100A400012490880C821134806F0C7FC0098012805
:100A500009D1009838B14FF080500F490860BFF3BA
:100A60004F8FBFF36F8F0121054803F05BF9002121
:100A7000034802F07DFE08BD000400402400002071
:100A800000140040000C014000080040A2050020B6
:100A9000300000200407002004ED00E0B2B051E077
:100AA000062C16DA344850F8241034A001F099FBD3
:100AB000042C02DB201F400000E06000C5B22E487D
:100AC00050F8242010232946002000F051FA012676
:100AD00016E0062C12D1601CC4B24FF0FF36284835
:100AE000006820B101212648006805F0BAFF4FF4E4
:100AF000FA6001F04AFA00F056F901E04FF0FF36D3
:100B000020480068F0B10023324669461D4800685D
:100B100005F066FBB0B11CA1684606F069FC20B187
:100B2000062C02DA601CC4B20CE018A1684606F07C
:100B30005FFC38B11248006820B1022110480068FB
:100B400005F08FFFACE71CB50022C821012005F09D
:100B500006F90C49086005F077FF094908600D485F
:100B6000032100238022CDE900100BA1AFF2D300B6
:100B700003F050FD1CBD000038000020257300006C
:100B800034000020300000204F4B00004C6F6F6B92
:100B9000000000002C000020455350383236365FEC
:100BA0005461736B0000000010B54FF40051FE4813
:100BB00001F037FD4FF48051FB4801F032FD4FF456
:100BC0008051F94801F02FFD4FF40051F64801F033
:100BD0002AFD10BD10B54FF40051F34801F021FD7E
:100BE0004FF48051F04801F01EFD4FF48051EE4863
:100BF00001F017FD10BD10B54FF40051EA4801F0A7
:100C000010FD4FF40051E84801F00DFD10BD2DE935
:100C1000F04105462C464FF40051E34801F003FD36
:100C200000261CE0274607F08007802F04D17901B9
:100C3000DD4801F0F6FC04E04FF48051DA4801F0A1
:100C4000F2FC6006040E4FF40051D74801F0E9FCB5
:100C50004FF40051D44801F0E6FC701CC6B2082ED7
:100C6000E0DBBDE8F08110B50446FFF79DFF78207A
:100C7000FFF7CDFFFFF7BFFF0020FFF7C8FFFFF72B
:100C8000BAFF2046FFF7C3FFFFF7B5FFFFF7A2FF4C
:100C900010BD10B50446FFF787FF7820FFF7B7FFB8
:100CA000FFF7A9FF4020FFF7B2FFFFF7A4FF2046A0
:100CB000FFF7ADFFFFF79FFFFFF78CFF10BD70B58B
:100CC00004460D461DB1E0B2FFF7E3FF02E0E0B2DB
:100CD000FFF7C9FF70BD70B50646002418E004F1A7
:100CE000B0000021FFF7EBFF00210846FFF7E7FF08
:100CF00000211020FFF7E3FF002505E00121304629
:100D0000FFF7DDFF681CC5B2802DF7DB601CC4B2A5
:100D1000082CE4DB70BD06E041F6650100E0491EE9
:100D20000029FCD1401E0028F6D17047014605E09D
:100D3000002001E0421CD0B27B28FBDB0A1EA1F19F
:100D40000101F5D1704770B504460D4605F1B000BC
:100D50000021FFF7B4FF102141EA14100021FFF732
:100D6000AEFF04F00F000021FFF7A9FF70BD10B522
:100D700000218D20FFF7A3FF00211420FFF79FFF24
:100D80000021AF20FFF79BFF10BD10B500218D2083
:100D9000FFF795FF00211020FFF791FF0021AE2003
:100DA000FFF78DFF10BD70B5002418E004F1B0000E
:100DB0000021FFF784FF00210846FFF780FF002194
:100DC0001020FFF77CFF002505E001210020FFF740
:100DD00076FF681CC5B2802DF7DB601CC4B2082CFE
:100DE000E4DB70BD70B5002418E004F1B000002110
:100DF000FFF765FF00210846FFF761FF0021102083
:100E0000FFF75DFF002505E001210846FFF757FFCA
:100E1000681CC5B2802DF7DB601CC4B2082CE4DB73
:100E200070BD2DE9F04707460E46904699460025CD
:100E30000024A8F12000C5B27F2F02DD0027B01CDE
:100E4000C6B2B9F1100F24D131463846FFF77BFF07
:100E5000002408E004EB0511544A505C0121FFF71F
:100E60002EFF601CC4B2082CF4DB701CC1B23846E3
:100E7000FFF769FF002409E004EB051108314B4A34
:100E8000505C0121FFF71BFF601CC4B2082CF3DB90
:100E900012E031463846FFF756FF00240AE005EB22
:100EA0004501434A02EB4101085D0121FFF707FFBD
:100EB000601CC4B2062CF2DBBDE8F08710B5024618
:100EC000012000E050430B1EA1F10104E1B2F9D171
:100ED00010BD10B50246012000E050430B1EA1F1E9
:100EE0000104E1B2F9D110BD2DE9FF5F074691463B
:100EF0001E460E9D4FF0000A002435E0301B401EB8
:100F0000C1B20A20FFF7DAFFB9FBF0F00A21B0FB0B
:100F1000F1F201FB1208BAF1000F14D1701EA042C9
:100F200011DDB8F1000F0CD1AB4605EBDB714910B8
:100F300001FB0471C8B22B4620220199FFF771FF13
:100F400010E04FF0010AAB4605EBDB71491001FBE5
:100F50000471C8B208F13001CAB22B460199FFF7FB
:100F600060FF00BF601CC4B2B442C7DBBDE8FF9F96
:100F70002DE9F04104460F461546984600260FE03D
:100F8000AA5D434639462046FFF74BFF04F10800AF
:100F9000C4B2782C02DD0024B81CC7B2701CC6B2E3
:100FA000A85D0028ECD105E0000C0140E0860008B7
:100FB000B8840008BDE8F0812DE9F04180460E4676
:100FC0001546002731464046FFF7BDFE00240AE0E3
:100FD000724A02EB8511085D0121FFF770FE781C53
:100FE000C7B2601CC4B2102CF2DB701CC1B2404608
:100FF000FFF7A9FE00240CE06900491C674A02EBD8
:101000004111085D0121FFF75AFE781CC7B2601C30
:10101000C4B2102CF0DBBDE8F0812DE9F05F06468C
:101020000F4690461C46DDF828A04FF0000BE11754
:1010300004EB5171C910A4EBC10131B92046E1178D
:1010400004EB5171C1F3C70506E02046E11704EB3C
:101050005171C910491CCDB23D4615E029463046B4
:10106000FFF771FEB1460BE059460BF1010B1AF880
:1010700001000121FFF723FE09F1010000F0FF0943
:10108000C145F1DB681CC5B2A542E7DBBDE8F09FB6
:1010900008B50121082001F0D3FC4FF44050ADF811
:1010A000000010208DF8030003208DF8020069462F
:1010B0003B4801F009FA4FF47A7000F084FF0021F8
:1010C000AE20FFF7FCFD00210846FFF7F8FD0021E8
:1010D0001020FFF7F4FD00214020FFF7F0FD002174
:1010E000B020FFF7ECFD00218120FFF7E8FD002193
:1010F000FF20FFF7E4FD0021A120FFF7E0FD002124
:10110000A620FFF7DCFD0021A820FFF7D8FD002175
:101110003F20FFF7D4FD0021C820FFF7D0FD0021BC
:10112000D320FFF7CCFD00210846FFF7C8FD0021C2
:10113000D520FFF7C4FD00218020FFF7C0FD00216E
:10114000D820FFF7BCFD00210520FFF7B8FD0021E6
:10115000D920FFF7B4FD0021F120FFF7B0FD0021F9
:10116000DA20FFF7ACFD00211220FFF7A8FD0021D7
:10117000DB20FFF7A4FD00213020FFF7A0FD0021B8
:101180008D20FFF79CFD00211420FFF798FD002122
:10119000AF20FFF794FDFFF706FE08BD50000020CA
:1011A000000C014010B5002089490860142000F0AF
:1011B000ECFE01208749C1F8B8011E2000F0C3FEF3
:1011C00010BD10B5642404E0601EC4B2012000F01C
:1011D000BAFE7F488038006808B9002CF4D1012C91
:1011E00001DA012010BD642404E0601EC4B20120B5
:1011F00000F0A9FE76488038006808B1002CF4D1D0
:10120000012C01DA0120EDE70020EBE770B5642442
:1012100004E0601EC4B2012000F095FE6C488038E6
:10122000006808B9002CF4D1642400251E2000F0C9
:101230008AFE67488038006800B1012504E0601E1E
:10124000C4B2012000F07FFE61488038006808B118
:10125000002CF4D1284670BD70B50024002506E0AE
:101260006006040EFFF7D2FF0443681CC5B2082DC8
:10127000F6DB204670BD70B50246151102F00F0373
:101280000C1101F00F06280300EB032000EB041003
:10129000304470BD70B50246151102F00F030C11F9
:1012A00001F00F06280300EB032000EB041030448C
:1012B00070BD10B5024604201EE0431ED8B20228BD
:1012C00000D119E00A23B2FBF3F403FB14233033FB
:1012D000414C2468083423540A23B1FBF3F403FB84
:1012E000141330333C4C24680C3423540A23B2FBCF
:1012F000F3F2B1FBF3F100BF0028DED110BD364898
:10130000006870471CB5FFF74DFFFFF75AFFA8BBF9
:10131000002405E0FFF7A0FF0DF80400601CC4B234
:10132000052CF7DB9DF800009DF8011008449DF89E
:10133000021008449DF803100844C0B29DF8041040
:1013400088421CD19DF801109DF80000FFF793FF23
:101350002149096808609DF803109DF80200FFF715
:1013600099FF1D49096848601B4A126851681A4A6A
:1013700012681068FFF79DFF00201CBDFFE70120E9
:10138000FBE710B5144800680068B0F52F7F03D95B
:101390000120FFF71DFA02E00020FFF719FA10BD47
:1013A00008B50121082001F04BFB4FF48040ADF857
:1013B000000014208DF8030003208DF80200694618
:1013C000064801F081F8FFF7EDFEFFF7FAFE08BDD1
:1013D000B88121420080214290050020000C01408C
:1013E00030B58DB005462022254905A805F0DCFF63
:1013F000234B20330FCB01AC0FC4002415E001AA0E
:1014000032F8141005AA52F8240001F00AF945FA3E
:1014100004F0012807D101AA32F8141005AA52F8E5
:10142000240001F000F9601CC4B2082CE7DB0DB009
:1014300030BD08B50121042001F002FBCC20ADF83D
:10144000000010208DF8030003208DF8020069468B
:101450000C4801F039F80121102001F0F1FA0F20B9
:10146000ADF8000010208DF8030003208DF8020075
:101470006946054801F028F80020FFF7B1FF08BDD4
:10148000D08C0008000801400010014038B500254C
:1014900001210D2001F0D4FA1320ADF80000102036
:1014A0008DF8030003208DF802006946F84801F02A
:1014B0000BF81321F64801F0B4F84FF40040ADF8F2
:1014C000000048208DF803006946F14800F0FCFF59
:1014D0004FF40041EE4801F0A4F84FF4B040ADF8ED
:1014E000000010208DF803006946E94800F0ECFF89
:1014F0004FF4B041E64801F094F840F2FB10ADF82B
:10150000000004208DF803006946E24800F0DCFF8B
:101510000121E14801F0A9F800F0B6FB802112207A
:1015200000F09FFC08B1012038BD322000F02DFDF5
:101530001C2000F0B5FC04464FF6FF7000EA0424BE
:101540001D2000F0ADFC044347F6A270844205D094
:101550002146D2A006F03AFA0120E5E70A2000F081
:101560009FFC04464FF6FF7000EA04240B2000F0B5
:1015700097FC044347F22170844205D02146CAA05B
:1015800006F024FA0220CFE700250AE0C94A02EB60
:1015900045025178C74A12F8150000F062FC681C39
:1015A00085B2412DF2D30020BEE710B50446062CCB
:1015B00014D2DFE804F003142D465F78FF211320D6
:1015C00000F04FFC65210E2000F04BFC00212D2087
:1015D00000F047FC00212E2000F043FC6CE0FD21D0
:1015E000132000F03EFC5A21012000F03AFC5C215F
:1015F000022000F036FC65210E2000F032FC0021B4
:101600002D2000F02EFC00212E2000F02AFC53E0BB
:10161000FD21132000F025FC5821012000F021FCC1
:101620006021022000F01DFC65210E2000F019FC55
:1016300000212D2000F015FC00212E2000F011FCCF
:101640003AE0FD21132000F00CFC8421012000F081
:1016500008FC4C21022000F004FC65210E2000F063
:1016600000FC00212D2000F0FCFB00212E2000F0CA
:10167000F8FB21E0FD21132000F0F3FB962101206F
:1016800000F0EFFB4021022000F0EBFB65210E2073
:1016900000F0E7FB00212D2000F0E3FB00212E20CD
:1016A00000F0DFFB08E0FF21132000F0DAFBE5216A
:1016B0000E2000F0D6FB00BF00BF10BD10B50446E1
:1016C00014F1040F0DDB042C0BDC201D0007010EB0
:1016D000A72000F0C6FB201D0007010EA82000F087
:1016E000C0FB10BD70B50646301D092821D2DFE8C9
:1016F00000F01D1A1714110E0B08050048240625CA
:1017000017E03824062514E02824062511E01824C3
:1017100006250EE0082406250BE008240E2508E027
:1017200018240E2505E028240E2502E038240E2575
:1017300000BF00BF21469B2000F093FB2946AB2051
:1017400000F08FFB70BD10B5044614F1040F0ADBE6
:10175000042C08DCC4F104003022A2EB8000C1B2EA
:101760009C2000F07EFB10BD10B50446072C58D21B
:10177000DFE804F004111E2B384552000621A62094
:1017800000F06FFB8021602000F06BFB8021612066
:1017900000F067FB45E02621A62000F062FB8021D7
:1017A000602000F05EFB8021612000F05AFB38E0F1
:1017B0001E21A62000F055FBA021602000F051FB67
:1017C0004021612000F04DFB2BE01E21A62000F0FF
:1017D00048FB4021602000F044FBA021612000F084
:1017E00040FB1EE01E21A62000F03BFB8021602074
:1017F00000F037FBC021612000F033FB11E01E2117
:10180000A62000F02EFB6021084600F02AFB602194
:10181000612000F026FB04E04621A62000F021FB19
:1018200000BF00BF10BD2DE9F04704460D469146AC
:10183000B9F1000F40D0C4F5207000EBD071C1F3B6
:101840004F07C5F5F07000EBD071C1F34F080621CA
:10185000122000F006FB2321172000F002FBA0213C
:10186000182000F0FEFA0721192000F0FAFAF02102
:101870001A2000F0F6FA0021322000F0F2FAA0213E
:10188000292000F0EEFAF0212C2000F0EAFA3FE0E7
:1018900000080140000C0140000230004D49443A6C
:1018A00025640D0A000000004849443A25640D0AE9
:1018B00000000000008D0008C4F5A07000EBD0719E
:1018C000C1F34F07C5F1F00000EBD071C1F34F0831
:1018D0004621122000F0C5FA3F21172000F0C1FA7E
:1018E0005021182000F0BDFA0321192000F0B9FAA8
:1018F00078211A2000F0B5FA0021322000F0B1FA68
:101900005021292000F0ADFA78212C2000F0A9FA0E
:10191000172000F0C5FA064606EBA70000F0FF0A04
:101920005146172000F09DFAC4F38701182000F0FB
:1019300098FA192000F0B4FA064606EB680000F0A9
:10194000FF0A5146192000F08CFAC5F347011A200E
:1019500000F087FA322000F0A3FA06464FEAC8707A
:10196000400E07F0030140EA011005F0010140EAD2
:10197000810004F00301084340EA060A5146322080
:1019800000F06FFAC4F38701292000F06AFAC5F36A
:1019900047012C2000F065FA2A2000F081FA04F0BB
:1019A0000300304305F0010140EA810A51462A2034
:1019B00000F057FABDE8F08710B50020FFF7F5FDFD
:1019C0000020FFF77BFE0020FFF78CFE0020FFF7D2
:1019D000BAFE0020FFF7C8FE002228210846FFF7C4
:1019E00022FF00203749086010BD70B50446E5B2FB
:1019F0002946354801F0C4F900BF4021324801F0C2
:101A00002DFA0128F9D1251229462F4801F0B8F9FD
:101A100000BF40212C4801F021FA0128F9D170BD06
:101A200070B52A48007802284AD10020254908606C
:101A30002749C1F89001234928390860012008602E
:101A40000020086001201F491C3908601D49283901
:101A50000860002421E000261CE0002019492839F4
:101A600008601C480068C5B201201949C1F884010A
:101A70004FF6FF7000EA05250020C1F884011548E3
:101A80000068C0B205430120C1F884012846FFF771
:101A9000ACFF761C282EE0D3641C282CDBD301205D
:101AA0000849086000200A49C1F88401012005495D
:101AB00028390860C00308490860002003490870FD
:101AC00070BD0000AC012142004800409405002098
:101AD00000002142080C0140140401400EB5012110
:101AE000084600F0ADFFFEF7E1FD0521022000F001
:101AF00001FE2020019000208DF808000C208DF8B8
:101B0000090001208DF80A0001A802F01DF90F213B
:101B1000002000F0EFFD4FF40040019000208DF810
:101B200008000C208DF8090001208DF80A0001A89A
:101B300002F00AF90021084600F0DCFD01200190C6
:101B400000208DF8080008208DF8090001208DF88C
:101B50000A0001A802F0F8F806208DF80000022023
:101B60008DF801008DF8020001208DF80300684611
:101B700000F0E1FB17208DF8000002208DF8010035
:101B800001208DF802008DF80300684600F0D3FBB9
:101B900028208DF8000002208DF8010000208DF82B
:101BA000020001208DF80300684600F0C4FB0EBD62
:101BB00010B54FF4004002F02DF901281AD12D483C
:101BC0000078022816DA2B48007850B900202A49FC
:101BD000086001202949C1F8800127493031086097
:101BE00003E0002024493031086022480078401C7E
:101BF000204908704FF4004002F01DF910BD1FB5D8
:101C00000121052000F01CFF01211D4800F02DFDE1
:101C10004FF40040ADF80C0048208DF80F0003A9E8
:101C2000184800F051FC4FF40041164800F0F9FC50
:101C30000F21002000F05EFD4FF4004001900020D5
:101C40008DF808000C208DF8090001208DF80A009D
:101C500001A802F079F828208DF8000002208DF804
:101C6000010001208DF802008DF80300684600F0A5
:101C700062FB1FBD9405002080012142000021422B
:101C8000000230000008014008B50121102000F0DA
:101C9000D7FE3020ADF8000010208DF8030003209F
:101CA0008DF802006946924800F00EFC3021904801
:101CB00000F0B7FC8E48006820F470008C49086082
:101CC0000846006840F44010086008BD10B50120C7
:101CD000884908608849C1F89001322000F033F942
:101CE000002084490860322000F02DF9002082494C
:101CF000C1F8900110BD10B500207E490860322067
:101D000000F021F901207C49C1F89001322000F057
:101D10001AF9012077490860322000F014F910BD4B
:101D200010B5322000F00FF90120724908607249A5
:101D3000C1F89001322000F006F900206D49091F1A
:101D40000860322000F0FFF800206B49C1F89401D0
:101D5000322000F0F8F810BD70B5044600261BE0F4
:101D600004F0800018B101206249086002E0002000
:101D7000604908606006040E322000F0E4F801209B
:101D80005C49091F0860322000F0DDF800205A4944
:101D9000C1F89001701CC6B2082EE1DB54480068FF
:101DA00020F47000524908600846006840F40000C2
:101DB0000860322000F0C7F801204E49091F086072
:101DC000322000F0C0F84C48D0F8140108B10125C9
:101DD00000E0002500204749091F086044480068CA
:101DE00020F47000424908600846006840F4401042
:101DF0000860284670BD70B500243D48006820F496
:101E000070003B4908600846006840F40000086024
:101E1000082517E0322000F096F801203549091F07
:101E200008606006040E3448D0F8140108B1601C44
:101E3000C4B2322000F087F800202E49091F086044
:101E4000681EC5B2002DE5DC2948006820F470004A
:101E5000274908600846006840F4401008602046A2
:101E600070BD70B505460C460026FFF72FFF4220D7
:101E7000FFF772FF00B10126642000F064F82846E5
:101E8000FFF76AFF00B10126642000F05CF82046ED
:101E9000FFF762FF00B10126FFF72DFF304670BD4E
:101EA00070B504460025FFF711FF4220FFF754FFED
:101EB000642000F048F82046FFF74EFF642000F051
:101EC00042F8FFF718FF642000F03DF8FFF7FEFE30
:101ED0004320FFF741FF642000F035F8FFF78BFF48
:101EE0000546FFF71DFFFFF706FF284670BD0000FF
:101EF00000100140940122420000224210B504204B
:101F000000F063FA364800683649B0FBF1F0364914
:101F10000870334800683349B0FBF1F44FF47A702D
:101F200044430120314908804FF0E020006940F02F
:101F300002004FF0E021086108464461006940F06A
:101F40000100086110BD70B5034600224FF0E02685
:101F50007569254E367803FB06F44FF0E026B1692B
:101F600010E04FF0E026B06988420BD0884202D2E0
:101F70000E1A324402E02E1A0E4432440146A242A6
:101F800000D300E0EDE700BF70BD70B5044603F07C
:101F90001CFB012810D015480088844206D3134842
:101FA0000088B4FBF0F5284602F0B2FD0F48008827
:101FB000B4FBF0F100FB11444FF47A7104FB01F023
:101FC000FFF7C1FF70BD30B50446002504E04FF4B3
:101FD0007A70FFF7B8FF6D1CA542F8D330BD000042
:101FE0000C00002040420F009605002098050020BC
:101FF000014600BF704700BFB74A128802F0400296
:10200000002AF9D0C2B2B44B1B1D1A80704710B51C
:1020100086B00446012144F2040000F011FD4FF4A3
:102020000070ADF8140003208DF8160018208DF80C
:10203000170005A9A94800F047FA4FF48060ADF8F1
:10204000140004208DF8170005A9A44800F03CFAFC
:1020500025208DF8000005208DF8010000208DF866
:10206000020001208DF80300684600F064F9019435
:102070000020ADF80800ADF80A00ADF80C00ADF88E
:1020800010000C20ADF80E0001A9934800F07FFD70
:10209000012240F22551904800F011FE01218E48A6
:1020A00000F001FE06B010BD10B540F225518A487F
:1020B00000F0EAFE10B3884800F066FEC4B288481B
:1020C000008800F40040C8B98548008800F48040CA
:1020D00060B10A2C03D000208149088020E08048AC
:1020E000008840F400407E49088019E00D2C06D19C
:1020F0007B48008840F480407949088010E07848A7
:102100000088C0F30D0077490C5475480088401CC6
:102110007349088008460088C72801DD0020088030
:1021200010BD10B586B004460121092000F088FCDE
:102130000121880400F091FC6B4800F0E5FC4FF4AD
:102140008060ADF8100003208DF8120018208DF883
:10215000130004A9654800F0B7F94FF40060ADF82A
:10216000100004208DF8130004A9604800F0ACF9B9
:1021700000940020ADF80400ADF80600ADF80800AA
:10218000ADF80C000C20ADF80A006946564800F086
:10219000FEFC27208DF8140006208DF81500002085
:1021A0008DF8160001208DF8170005A800F0C3F87F
:1021B000012240F225514C4800F081FD01214A489E
:1021C00000F071FD41F61F4140F2E730FEF786FB5B
:1021D0000020474908800021464801F0C9FA06B0AE
:1021E00010BD0FB438B505A800904348009A049973
:1021F00005F010FC002000903F4805F00BF985B277
:1022000000240DE000BF4021374800F027FE0028E1
:10221000F9D03948015D344800F0B2FD601C84B249
:10222000AC42EFDB38BC5DF814FB38B540F2255109
:102230002D4800F029FE20B340F225512A4800F035
:102240004DFE294800F0A0FDC4B22948008800F4E2
:102250000040B0B926480088C82813DA0021254874
:1022600001F01AFD2248008818B90121214801F027
:102270007FFA1F4801880088401C1D4A10801F48B3
:10228000445405E01A48008840F40040184908808A
:102290001B480068F8B11648008800F40040D0B12F
:1022A00000236A4615491648006804F0BDF800206E
:1022B0000F490880C821114805F08FF800980128BF
:1022C00009D1009838B14FF080500E490860BFF333
:1022D0004F8FBFF36F8F38BD0038014000080140B9
:1022E000A00500203C06002000480040000C0140F2
:1022F000A205002000140040CC07002004070020A5
:102300003000002004ED00E0064880470648004702
:10231000FEE7FEE7FEE7FEE7FEE7FEE7FEE7FEE795
:10232000FEE7FEE7AB050008310100083149014333
:10233000314A1160704770B5002100230F22C47824
:1023400004B32D4C246804F4E064C4F5E064210A6D
:10235000C1F10403CA40447804FA03F184781440BC
:1023600021430901254C0678A155047804F01F0586
:102370000124AC4005786D11AD0005F1E025C5F8EC
:10238000004109E0047804F01F050124AC401C4D15
:102390000678761145F8264070BD1A4A0A40024375
:1023A000154B1B1F1A60704739B1134A121D126872
:1023B0000243114B1B1D1A6006E00F4A121D1268E2
:1023C00082430D4B1B1D1A607047042808D14FF043
:1023D000E021096941F004014FF0E022116107E0BA
:1023E0004FF0E021096921F004014FF0E022116172
:1023F000704700000000FA050CED00E000E400E08A
:1024000080E100E080FFFF1F10B50446CC48844205
:1024100008D10121042000F02DFB0021042000F050
:1024200029FB46E0C748844208D10121082000F07A
:1024300021FB0021082000F01DFB3AE0C248844245
:1024400008D10121102000F015FB0021102000F020
:1024500011FB2EE0BD48844208D10121202000F06C
:1024600009FB0021202000F005FB22E0B84884424F
:1024700008D10121402000F0FDFA0021402000F0A9
:10248000F9FA16E0B348844208D10121802000F017
:10249000F1FA0021802000F0EDFA0AE0AE48844213
:1024A00007D10121801500F0E5FA0021A01500F008
:1024B000E1FA10BD10B50121084600F0DBFA002159
:1024C000012000F0D7FA10BD2DE9F04102460025A9
:1024D0000026002000230024002791F803C00CF000
:1024E0000F0591F803C00CF0100CBCF1000F03D0E5
:1024F00091F802C04CEA050591F800C0BCF1000F4C
:1025000031D0146800202BE04FF0010C0CFA00F3DE
:10251000B1F800C00CEA03069E4220D183004FF0C0
:102520000F0C0CFA03F7BC4305FA03FC4CEA040455
:1025300091F803C0BCF1280F06D14FF0010C0CFA42
:1025400000FCC2F814C00AE091F803C0BCF1480FC7
:1025500005D14FF0010C0CFA00FCC2F810C0401C71
:102560000828D1D31460B1F800C0BCF1FF0F34DDEE
:10257000546800202EE000F1080C4FF0010808FA22
:102580000CF3B1F800C00CEA03069E4221D183008F
:102590004FF00F0C0CFA03F7BC4305FA03FC4CEAAE
:1025A000040491F803C0BCF1280F05D100F1080C18
:1025B00008FA0CF8C2F8148091F803C0BCF1480F77
:1025C00007D100F1080C4FF0010808FA0CF8C2F826
:1025D0001080401C0828CED35460BDE8F0814FF62F
:1025E000FF710180022181700421C1707047024691
:1025F000002093680B400BB1012000E000207047E1
:102600000146886880B2704702460020D3680B40BC
:102610000BB1012000E0002070470146C86880B27D
:10262000704701617047416170470AB1016100E084
:1026300041617047C16070474FF480320A43826144
:102640008161826182698269704702460020434B42
:1026500018684FF68073184040EA021008433F4B59
:10266000186070473E49C8617047F0B50A460023BC
:1026700000240021002500F00046B6F1004F02D1F1
:10268000364EF16901E0354E7168C0F3034583B2FF
:1026900000F44016B6F5401F08D121F070612F4EAE
:1026A000766826F070662D4F7E6012E000F480168A
:1026B000B6F5801F06D1032606FA05F4A14341F0C2
:1026C000706106E0460D360103FA06F6B14341F0AB
:1026D000706122B1460D360103FA06F6314300F06F
:1026E0000046B6F1004F02D11C4EF16101E01B4ED5
:1026F0007160F0BD30B500228B071C0F0F2303FA69
:1027000004F2164B08338C1053F824309343134CC7
:1027100008348D1044F8253023468C1053F82430AB
:102720008C07240F00FA04F423430C4C08348D105A
:1027300044F8253030BD0A49DC310860704700009C
:1027400000080140000C014000100140001401404D
:1027500000180140001C0140002001400000014021
:1027600000002042DF48006840F00100DD490860B9
:1027700008464068DC490840DA4948600846006875
:10278000DA490840D74908600846006820F48020EC
:1027900008600846406820F4FE0048604FF41F00BF
:1027A00088607047CF49096821F48031CD4A1160B3
:1027B0001146096821F480211160B0F5803F03D0F3
:1027C000B0F5802F0ED106E0C649096841F480318A
:1027D000C44A116007E0C349096841F4A021C14A15
:1027E000116000E000BF00BF704710B50146002235
:1027F000002300204A11012A02D1BA4C236806E0C6
:10280000022A02D1B74C236A01E0B64C636A01F098
:102810001F02012494401C400CB1012000E0002064
:1028200010BD38B5002000900024002500BF3120E5
:10283000FFF7DBFF05460098401C00900098B0F5BC
:10284000A06F01D0002DF2D03120FFF7CEFF08B1EC
:10285000012400E00024204638BD01460020A14AA2
:10286000106820F0F80040EAC10010607047A049ED
:1028700008607047024600209A4B586820F47C108C
:1028800042EA01031843974B58607047984908661D
:10289000704701460020934A506820F00300084327
:1028A000506070478F48406800F00C007047014648
:1028B00000208C4A506820F0F000084350607047B8
:1028C00001460020874A506820F4E06008435060C9
:1028D000704701460020834A506820F4605040EA67
:1028E000C1005060704729B17E4A527A02437D4B45
:1028F0005A7204E07B4A527A82437A4B5A7270478A
:102900007B49D8310860704701460020754A5068FD
:1029100020F440400843506070470021714A203243
:102920001170704A82F82010012802D004280AD1C0
:1029300004E001216B4A2032117005E00521694A4B
:102940002032117000E000BF00BF70476949086085
:1029500070476449096A0143624A116270476549D8
:1029600044390860704730B500210022002400235C
:102970005C4D6D6805F00C0121B1042905D00829D2
:1029800023D105E05C4D056022E05B4D05601FE052
:10299000544D6D6805F47012524D6D6805F4803425
:1029A000022505EB92421CB9544D554305600BE0DE
:1029B0004C4D6D6805F400351DB1504D5543056013
:1029C00002E04D4D5543056002E04B4D056000BFF0
:1029D00000BF444D6D6805F0F0010909484D6B5C7E
:1029E0000568DD4045603F4D6D6805F4E061090A0A
:1029F000434D6B5C4568DD4085603A4D6D6805F47C
:102A00006051C90A3E4D6B5C4568DD40C560354D7F
:102A10006D6805F44041890B3A4D6B5CC568B5FBA8
:102A2000F3F5056130BD29B12E4A526902432D4BA1
:102A30005A6104E02B4A526982432A4B5A6170471B
:102A400029B1284A92690243264B9A6104E0254A3B
:102A500092698243234B9A61704729B1214AD26916
:102A60000243204BDA6104E01E4AD26982431D4BC7
:102A7000DA61704729B11B4AD2680243194BDA6008
:102A800004E0184AD2688243164BDA60704729B1D5
:102A9000144A12690243134B1A6104E0114A126985
:102AA0008243104B1A6170471249403908607047E1
:102AB0000F49C86470470B49C87170470948406A9C
:102AC00040F0807007494862704701460020054A7F
:102AD00092680A400AB1012000E0002070470149D5
:102AE00088727047001002400000FFF8FFFFF6FEFA
:102AF000000042428004424200127A0000093D0078
:102B0000A4050020B405002010B50446FB4884420B
:102B100009D101218803FFF7ADFF00214FF4804068
:102B2000FFF7A8FF32E0F648844209D101214804AA
:102B3000FFF7ADFF00214FF40030FFF7A8FF25E0BD
:102B4000F048844209D101218804FFF7A0FF002149
:102B50004FF48020FFF79BFF18E0EB48844209D137
:102B60000121C804FFF793FF00214FF40020FFF775
:102B70008EFF0BE0E548844208D101210805FFF7EC
:102B800086FF00214FF48010FFF781FF10BD2DE973
:102B9000F04786B005460E460024A24600BFA14677
:102BA0000027B08900B100BF2F462C8A4CF6FF7079
:102BB0000440F08804432C82AC894EF6F3100440A4
:102BC000B08831890843718908430443AC81AC8AD9
:102BD0004FF6FF400440B0890443AC8201A8FFF7E0
:102BE000C2FEC648874202D1DDF810A001E0DDF840
:102BF0000CA0A88900F4004040B10AEBCA0000EB29
:102C00000A1031684900B0FBF1F807E00AEBCA008E
:102C100000EB0A1031688900B0FBF1F86420B8FBC2
:102C2000F0F004012009642101FB1089A88900F457
:102C3000004040B1322000EBC900B0FBF1F000F0E1
:102C40000700044308E0322000EB09106421B0FBC8
:102C5000F1F000F00F0004432C8106B0BDE8F087CE
:102C60004FF41651016000218180C18001810C2147
:102C7000418100218181704710B502460020108AF1
:102C80004FF2FF0318400B884C8823438C88234362
:102C9000CC8823431843108210BD0021018041805D
:102CA0008180C180704721B1828942F400528281C3
:102CB00004E082894DF6FF731A4082817047F0B5B7
:102CC0000346002400260025002040F66A17B9427A
:102CD00000D100BF1846C1F3421401F01F060127BE
:102CE00007FA06F5012C01D10C3004E0022C01D1C9
:102CF000103000E014301AB107682F43076002E07B
:102D00000768AF430760F0BD1AB1838A0B43838223
:102D100002E0838A8B4383827047028A4FF6F07306
:102D20001A400282028A0A430282704782894FF265
:102D3000FF731A40828182890A438281704721B1E0
:102D4000828942F00202828104E082894FF6FD739B
:102D50001A4082817047028A4FF6DF731A4002825E
:102D6000028A0A430282704721B1028A42F48042F9
:102D7000028204E0028A4BF6FF731A400282704717
:102D8000C1F308028280704701468888C0F30800BA
:102D90007047818941F0010181817047028BD2B275
:102DA0000283028B42EA012202837047028B02F403
:102DB0007F420283028B0A430283704721B1828AD9
:102DC00042F02002828204E0828A4FF6DF731A40CA
:102DD0008282704721B1828A42F01002828204E02E
:102DE000828A4FF6EF731A408282704721B1828A3D
:102DF00042F00802828204E0828A4FF6F7731A409A
:102E00008282704721B1828942F40042828103E0CC
:102E10008289C2F30E028281704721B1828A42F414
:102E20000062828204E0828A4FF2FF731A4082823B
:102E30007047828A4FF6FB731A408282828A0A4365
:102E40008282704721B1828A42F00202828204E0CB
:102E5000828A4FF6FD731A40828270470246002034
:102E6000B1F5007F00D100BF13880B400BB10120EA
:102E700000E00020704701F40072B2F5007F00D13D
:102E800000BFCA430280704770B502460024002389
:102E90000025002040F66A16B14200D100BFC1F300
:102EA000421501F01F03012606FA03F3012D02D19A
:102EB0009689334006E0022D02D1168A334001E0A4
:102EC000968A33400C12012606FA04F41688344020
:102ED00013B10CB1012000E0002070BD10B500223C
:102EE000002340F66A14A14200D100BF0A12012457
:102EF0009440A3B2DC43048010BD000000380140C0
:102F00000044004000480040004C00400050004099
:102F100010B50446FE48844208D10121C014FFF7D1
:102F2000A9FD0021E014FFF7A5FDC4E0B4F1804F36
:102F300008D101210846FFF7AAFD00210120FFF773
:102F4000A6FDB8E0F348844208D101210220FFF732
:102F50009EFD00210220FFF79AFDACE0EE4884427E
:102F600008D101210420FFF792FD00210420FFF782
:102F70008EFDA0E0E948844208D101210820FFF736
:102F800086FD00210820FFF782FD94E0E44884429A
:102F900008D101211020FFF77AFD00211020FFF752
:102FA00076FD88E0DF48844208D101212020FFF728
:102FB0006EFD00212020FFF76AFD7CE0DA488442A4
:102FC00008D101214014FFF755FD00216014FFF7DF
:102FD00051FD70E0D548844209D10121C804FFF7B2
:102FE00049FD00214FF40020FFF744FD63E0D04885
:102FF000844209D101210805FFF73CFD00214FF46F
:103000008010FFF737FD56E0CA48844209D10121FC
:103010004805FFF72FFD00214FF40010FFF72AFDB0
:1030200049E0C548844208D101214020FFF72FFD27
:1030300000214020FFF72BFD3DE0C048844208D12D
:1030400001218020FFF723FD00218020FFF71FFDD5
:1030500031E0BB48844208D101218015FFF717FDFC
:103060000021A015FFF713FD25E0B648844209D1E1
:1030700001210804FFF7FEFC00214FF48030FFF728
:10308000F9FC18E0B048844209D101214804FFF757
:10309000F1FC00214FF40030FFF7ECFC0BE0AB48F3
:1030A000844208D101218804FFF7E4FC00214FF499
:1030B0008020FFF7DFFC10BD00220288944B98426D
:1030C0000ED0994B98420BD0B0F1804F08D0914B65
:1030D000984205D0904B984202D0904B984204D130
:1030E0004FF68F731A404B881A438D4B984207D086
:1030F0008C4B984204D04FF6FF431A40CB881A43BA
:1031000002808B8883850B880385814B98420BD086
:10311000854B984208D08B4B984205D08A4B9842F9
:1031200002D08A4B984201D10B7A03860123838215
:10313000704770B5002400220023058C4FF6FE7600
:1031400035400584028C8388048B4FF68F752C40A4
:10315000B51E2C400D882C43751E2A400D892A432C
:103160004D882A436A4DA8420BD06F4DA84208D023
:10317000744DA84205D0744DA84202D0734DA842A8
:1031800013D14FF6F7752A404D892A434FF6FB7548
:103190002A408D882A434FF6FF652B404FF6FF5596
:1031A0002B408D892B43CD892B4383800483CD888D
:1031B0008586028470BD70B5002400220023058C32
:1031C0004FF6EF7635400584028C8388048B48F6F1
:1031D000FF752C404FF6FF452C400D884FF6FF76CB
:1031E00006EA05252C434FF6DF752A400D8906EACD
:1031F00005152A434D8806EA05152A43444DA84281
:1032000002D0494DA8421DD14FF67F752A404D8905
:103210004FF6FF7606EA05152A434FF6BF752A409A
:103220008D8806EA05152A434FF6FF352B404FF2ED
:10323000FF752B408D8906EA85052B43CD8906EA6B
:1032400085052B4383800483CD880587028470BD68
:1032500070B5002400220023058C4FF6FF66354030
:103260000584028C8388848B4FF68F752C404FF633
:10327000FC752C400D882C434FF6FF552A400D89D4
:103280004FF6FF7606EA05252A434D8806EA05250E
:103290002A431F4DA84202D0234DA8421DD14FF210
:1032A000FF752A404D894FF6FF7606EA05252A4329
:1032B0004FF6FF352A408D8806EA05252A434EF64B
:1032C000FF752B404DF6FF752B408D8906EA0515DD
:1032D0002B43CD8906EA05152B4383808483CD8853
:1032E0008587028470BD70B5002200230024058C00
:1032F0004EF6FF7635400584038C8488828B48F631
:10330000FF752A404FF6FF452A400D8820E0000057
:10331000002C01400004004000080040000C004068
:10332000001000400014004000340140004C0140F7
:10333000005001400054014000180040001C0040B3
:10334000002000400040014000440140004801408E
:103350004FF6FF7606EA05252A434DF6FF752B400A
:103360000D8906EA05352B434D8806EA05352B43C2
:10337000FA4DA84202D0FA4DA84208D14BF6FF758B
:103380002C408D894FF6FF7606EA85152C43848004
:103390008283CD88A0F84050038470BD828B4FF2A9
:1033A000FF331A408283828B4FF6FF7303EA0123B7
:1033B0001A4382837047F0B50C461546002200215F
:1033C0000026078C4EF6FF7C07EA0C070784828BE9
:1033D000018C4FF6FF7707EA043640F6FF473A4084
:1033E0004FF6FF7707EA05273A434FF6FF7707EADC
:1033F00003373A43D94FB8420ED0D94FB8420BD019
:10340000B0F1804F08D0D74FB84205D0D64FB84260
:1034100002D0D64FB84206D14DF6FF77394046F478
:103420008057394305E047F6FF57394044F4805749
:10343000394382830184F0BD828B4FF6F3731A40C7
:103440008283828B0A4382837047F0B50C4615460F
:10345000002200210026078C4FF6FF6C07EA0C07BC
:103460000784828B018C4FF6FF7707EA04264FF61C
:103470000C773A404FF6FF7707EA03172F433A439A
:10348000B64FB8420ED0B64FB8420BD0B0F1804F15
:1034900008D0B44FB84205D0B34FB84202D0B34FB2
:1034A000B84206D14FF6FF57394046F4807739438A
:1034B00005E04FF2FF57394044F480773943828367
:1034C0000184F0BD028B4FF2FF331A400283028B5E
:1034D0004FF6FF7303EA01231A4302837047F0B5E6
:1034E0000C461546002200210026078C4FF6EF7C83
:1034F00007EA0C070784028B018C4FF6FF7707EA77
:10350000041640F6FF473A404FF6FF7707EA0337C5
:103510003A434FF6FF7707EA05273A438F4FB84201
:103520000ED08F4FB8420BD0B0F1804F08D08D4FE6
:10353000B84205D08C4FB84202D08C4FB84206D169
:103540004FF6DF77394046F01007394305E04FF674
:103550005F77394044F01007394302830184F0BD9E
:10356000028B4FF6F3731A400283028B0A430283E5
:103570007047F0B50C46154600220021068C4FF628
:10358000FE773E400684028B018C4FF60C7632406B
:103590007E1C06EA03162E433243704EB0420ED014
:1035A0006F4EB0420BD0B0F1804F08D06D4EB0429C
:1035B00005D06D4EB04202D06C4EB04206D14FF6EF
:1035C000FD76314044F00106314305E04FF6F576D3
:1035D000314044F00106314302830184F0BD70B5EF
:1035E00005460C465D4885420ED05D4885420BD0AD
:1035F000B5F1804F08D05B48854205D05A488542D6
:1036000002D05A48854200D100E000BF208850B95E
:103610002389A28861882846FFF7ABFFE188284606
:10362000FFF79EFF25E0208804280AD12389A2887D
:1036300061882846FFF753FFE1882846FFF742FFDD
:1036400017E0208808280AD12389A28861882846A3
:10365000FFF7FBFEE1882846FFF7EEFE09E023892D
:10366000A28861882846FFF7A6FEE1882846FFF772
:1036700095FE70BD2DE9F04105460C460026012758
:10368000608808B9022600E00026A088012801D140
:10369000022700E001272088A0B92389A288618839
:1036A0002846FFF766FFE1882846FFF759FF238980
:1036B0003A4631462846FFF712FFE1882846FFF7D1
:1036C00001FF13E02389A28861882846FFF707FFDE
:1036D000E1882846FFF7F6FE23893A463146284618
:1036E000FFF747FFE1882846FFF73AFFBDE8F08182
:1036F0000A884B881A438B881A43CB881A430B8954
:103700001A434B891A438B891A43A0F84420704707
:103710004FF6FF71818000210180C18041800172DC
:1037200070470021018041808180C18001814181F9
:103730008181C18170470021018041800121818008
:103740000021C1800181704700210180418081807A
:10375000C18001814181818170470000002C0140BE
:10376000003401400004004000080040000C00400C
:1037700021B1028842F00102028004E002884FF683
:10378000FE731A400280704731B1B0F8442042F411
:103790000042A0F8442005E0B0F84420C2F30E0235
:1037A000A0F8442070471AB183890B43838102E05B
:1037B00083898B43838170478182704741EA02038A
:1037C000A0F8483070471AB183890B43838102E027
:1037D00083898B438381704701894FF6F8721140CA
:1037E000018170470A46002101894FF68F73194005
:1037F00011430181704730B504460D4629462046E5
:10380000FFF7F0FF208940F00700208130BD2DE94F
:10381000F04104460D4616461F46602D06D13B4634
:10382000012231462046FFF75AFE05E03B460122C1
:1038300031462046FFF79DFE29462046FFF7D2FF7E
:10384000208940F007002081BDE8F08130B50C46AA
:1038500000210189C9B24FF6FF7505EA032515431A
:1038600025432943018130BD2DE9F04105460E462F
:1038700017469846002443463A4631462846FFF705
:10388000E5FF2C894FF6F870044044F007044FF62A
:103890008F70044044F070042C81BDE8F081F0B5D5
:1038A00004460D4616461F463B46324629462046EC
:1038B000FFF7CCFF208940F480402081F0BD0185D6
:1038C000828270470A46002101884FF68F731940A3
:1038D000114301807047F0B50C4615461E46002185
:1038E000002200230189028B038C4FF6F8773940C0
:1038F00021434FF6FC473A4040F201173A434FF656
:10390000DD773B404FF6FF7707EA06172F433B432F
:10391000018102830384F0BD0A460021018B4FF62A
:103920008F7319401143018370470A460021018BB0
:1039300048F6FF7319404FF6FF7303EA0223194359
:10394000018370470A460021818B4FF68F7319401F
:103950001143818370470A460021818B48F6FF732B
:1039600019404FF6FF7303EA02231943818370471E
:1039700021B1028842F08002028004E002884FF602
:103980007F731A400280704721B1828842F004029E
:10399000828004E082884FF6FB731A408280704771
:1039A00021B1828842F00802828004E082884FF6CA
:1039B000F7731A408280704721B1828842F0010279
:1039C000828004E082884FF6FE731A40828070473E
:1039D0000A460021018B4FF6F7731940114301830A
:1039E00070470A460021018B4FF2FF7319404FF6D2
:1039F000FF7303EA02231943018370470A4600213B
:103A0000818B4FF6F77319401143818370470A4643
:103A10000021818B4FF2FF7319404FF6FF7303EAC9
:103A200002231943818370470A460021018B4FF618
:103A3000FB7319401143018370470A460021018B33
:103A40004FF6FF3319404FF6FF7303EA0223194381
:103A5000018370470A460021818B4FF6FB731940A2
:103A60001143818370470A460021818B4FF6FF3353
:103A700019404FF6FF7303EA02231943818370470D
:103A80000A460021018B4FF67F73194011430183D1
:103A900070470A460021018BC1F30E014FF6FF73F8
:103AA00003EA02231943018370470A460021818BF0
:103AB0004FF67F7319401143818370470A460021F6
:103AC000818BC1F30E014FF6FF7303EA0223194302
:103AD000818370470A460021018C4FF6FD7319401F
:103AE0001143018470470A460021018C4FF6F77399
:103AF00019401143018470470A460021018C4FF69A
:103B0000DF7319404FF6FF7303EA02131943018470
:103B100070470A460021018C4FF67F7319404FF61B
:103B2000FF7303EA02131943018470470A46002118
:103B3000018C4FF6FF5319404FF6FF7303EA02233F
:103B40001943018470470A460021018C4FF2FF732C
:103B500019404FF6FF7303EA0223194301847047AB
:103B60000A460021018C4DF6FF7319404FF6FF7392
:103B700003EA023319430184704730B5002301245E
:103B80008C40A3B2048C9C430484048C02FA01F59B
:103B9000ADB22C43048430BD30B5002304248C40E6
:103BA000A3B2048C9C430484048C02FA01F5ADB2E8
:103BB0002C43048430BD70B5034600200024184611
:103BC000183001258D40ACB21D8CA5431D8409B170
:103BD000082909D100EB6100056825F07005056032
:103BE0000568154305600EE00D1FC5F34E0528441A
:103BF000056825F4E045056005684FF6FF7606EA9E
:103C000002263543056070BD21B1028842F00202F0
:103C1000028004E002884FF6FD731A40028070476C
:103C200021B1028842F00402028004E002884FF6CB
:103C3000FB731A400280704721B1828842F08002F3
:103C4000828004E082884FF67F731A40828070473A
:103C500002884FF6F7731A40028002880A430280F6
:103C6000704782884FF68F731A40828082880A4399
:103C70008280704702894FF6F8731A4002810289E8
:103C80000A430281704702894FF67F731A4002810E
:103C900002890A4302817047818470478185704799
:103CA000818670470187704781877047A0F8401070
:103CB000704702884FF6FF431A40028002880A4389
:103CC000028070470146888E70470146088F704712
:103CD0000146888F70470146B1F8400070470146A1
:103CE000888C70470146088D704702460020138A71
:103CF0000B400BB1012000E000207047CA43028254
:103D0000704730B50246002000230024158A05EADA
:103D10000103958905EA010413B10CB1012000E00B
:103D2000002030BDCA430282704700000020444991
:103D30000860091D0860091D0860091D08604148E8
:103D40003F4914310860704700213D498279002ABB
:103D50003AD00A46126803689A430B461A600A1D55
:103D6000126803689A430B1D1A60027911440A68AD
:103D700003681A430A60324A0832126803689A4399
:103D80002F4B08331A601A1D126803689A432C4B94
:103D90000C331A604279102A0ED11A1F1268036878
:103DA0001A43274B08331A601A1D126803681A4316
:103DB000234B0C331A600DE02149427911440A6803
:103DC00003681A430A6005E0027911440A6803682F
:103DD0009A430A6070470021016001710C21417112
:103DE0000021817170471649103109680143144A56
:103DF00010321160704701460020114A14321268D7
:103E00000A400AB1012000E0002070470C4914313B
:103E100008607047014600200022094B1B6803EA36
:103E20000102074B14331B680B4013B10AB1012088
:103E300000E000207047024914310860704700001C
:103E400000040140FFFF0F002DE9F04104460D463C
:103E500016461F464FF0000865602461B5420CD835
:103E6000F01BA169884202D34FF0010811E0211D27
:103E7000F748006802F0BAFD0BE0BE4204D2BD4232
:103E800002D34FF0010804E0211DF248006802F05F
:103E9000ADFD4046BDE8F0812DE9FF4704460D46E3
:103EA00016461F46DDF830804FF000092CB94FF45C
:103EB000D372E9A1EEA003F089FDF148006810B3C8
:103EC000009501960294062D15DA01F07EFB02287A
:103ED00008D1002342466946E948006802F03AF8F2
:103EE000814610E000231A466946E548006802F062
:103EF00031F8814607E000233A466946E048006809
:103F000002F092FA8146484604B0BDE8F0872DE9F8
:103F1000F8432DE0CF480068C0680568CD480068C8
:103F2000C068C468201D02F07BFD2046616A884796
:103F3000E06901281CD1A0694619AE4207D9666024
:103F40002461211DC348006802F050FD10E00020EC
:103F500003462A46014600902046FFF79DFF07468C
:103F60002FB940F29232BCA1C1A003F02FFD00BFD7
:103F7000B8480068006808B9012000E00020002867
:103F8000C8D0B448D0F80080B1480068B149086092
:103F9000AF48C0F80080BDE8F88370B5044601F072
:103FA000AAF80546B7480068854204D2FFF7AFFF7C
:103FB0000120206001E000202060B2480560284612
:103FC00070BDF0B587B070E0039800280CDA04AE3D
:103FD0002EB940F2E722A0A1A5A003F0F7FCD6E994
:103FE0000020B168904700BF039800285DDB059C66
:103FF000606908B9012000E0002010B9201D02F01E
:104000000FFD02A8FFF7C9FF054603980A284AD208
:10401000DFE800F00905072C2E4506082D2F00BF0C
:1040200000BF00BF00BF0498A269811803462A465A
:104030002046FFF709FFC0B12046616A8847E06962
:10404000012812D1002000900498A1694218002391
:1040500019462046FFF720FF07462FB940F22132CC
:104060007DA183A003F0B2FC00BF1DE000BF1BE0F8
:1040700000BF0498A061A06908B1012000E0002001
:1040800028B94FF44E7274A179A003F09FFCA06987
:1040900041192B462A462046FFF7D6FE04E020466B
:1040A00002F0E0FF00E000BF00BF00231A4603A9B2
:1040B0007348006802F094F8002885D107B0F0BD7D
:1040C000F8B505460F4663480068C068C468201DFF
:1040D00002F0A6FCE069012818D1A06941192B461D
:1040E0003A462046FFF7B0FE80B1002003462A463C
:1040F000014600902046FFF7CFFE06462EB94FF44A
:10410000027255A15AA003F061FC00BF2046616A0B
:104110008847F8BDF8B505460C4600F098FC68469F
:10412000FFF73BFF0646009820BB44B9B54206D8CE
:1041300000F0E2FB31462846FFF7C2FF1CE03CB12D
:1041400043480068006808B9012000E000200446E8
:10415000A91B22464A48006802F0B7FB00F0CCFBDE
:1041600050B94FF0805048490860BFF34F8FBFF3FC
:104170006F8F01E000F0C0FBF8BD0146354A1268C0
:1041800012680AB9012200E000220A600A6822B916
:10419000304A1268D268106800E00020704708B505
:1041A00000BF6846FFF7E9FF044620460099FFF785
:1041B000B1FFFFF706FFF4E710B503F04AF8304807
:1041C0000068D0B9314802F0F5FB314802F0F2FB4B
:1041D0002E48204908602E481D4908600022102101
:1041E000052001F0BCFD264908600846006820B1A2
:1041F00028A12348006802F042FB03F04DF810BDEF
:104200001CB50024FFF7D8FF1D48006858B12348AB
:104210001F2100234FF48272CDE9001020A1224813
:1042200000F0F8F904462CB940F233120AA110A0AC
:1042300003F0CCFB20461CBD2DE9F04706460D4699
:1042400017469846DDE908940DB101202FE02DE0D6
:10425000BC050020B80500202E2E5C467265655214
:10426000544F535C74696D6572732E6300000000D7
:104270004572726F723A25732C25640D0A00000096
:10428000C0050020C805002004ED00E094080020CF
:10429000A8080020546D725100000000C4050020E1
:1042A000546D7220537663009F410008002038B996
:1042B0004FF4C672AFF26001AFF24C0003F086FB20
:1042C0005CB1FFF779FF2660A561E761C4F8208043
:1042D000C4F82490201D02F07AFBBDE8F0872DE998
:1042E000FC4705460E4617469846DDF828902C20D8
:1042F00002F035FE04463CB143463A463146284674
:10430000CDE90094FFF798FF2046BDE8FC8710B583
:104310005B48006808B1012000E0002038B94FF484
:10432000E872AFF2CC01AFF2B80003F04FFB544893
:10433000006810BD70B5044625463CB940F2D9125C
:10434000AFF2EC01AFF2D80003F040FBA86970BDFA
:1043500070B5044625463CB940F2E312AFF20811AD
:10436000AFF2F40003F032FB6E68304670BD70B5FA
:10437000044625463CB940F2ED12AFF22411AFF2EB
:10438000101003F023FB286870BD70B50446264664
:104390003CB940F2DA32AFF24011AFF22C1003F028
:1043A00015FB02F056FF706908B9012000E00020FB
:1043B00080F0010502F070FF284670BD70B504461C
:1043C00026463CB940F2EF32AFF27411AFF2601002
:1043D00003F0FCFA02F03DFF356A02F05DFF28466B
:1043E00070BD70B504460D4626463CB940F2FF321A
:1043F000AFF29C11AFF2881003F0E8FA02F029FF47
:10440000356202F049FF70BD2DE9FF4104460D46BB
:1044100016461F466FF00100009001940295039626
:1044200000233A4669461748006801F0FDFF8046C0
:10443000404604B0BDE8F0812DE9FF4104460D4639
:1044400016461F460F48006838B940F22B42AFF2BB
:10445000F811AFF2E41003F0B9FA4FF0FF3000901A
:1044600001940295039600233A4669460548006880
:1044700001F070FD8046404604B0BDE8F0810000C8
:10448000C4050020C005002010B5002407E004EB9F
:104490008401FB4A02EB810002F08CFA641C202CA0
:1044A000F5D3F84802F086FAF74802F083FAF748A5
:1044B00002F080FAF64802F07DFAF64802F07AFA45
:1044C000F048F5490860F048F449086010BD10B59F
:1044D000044602F0BEFEF2480068401CF049086045
:1044E000F048006840B9EF480460084600680128B9
:1044F0000DD1FFF7C9FF0AE0EB48006838B9E94879
:104500000068C06AE16A884201D8E6480460E7486A
:104510000068401CE549086008460068606494F83B
:104520002C1001208840E24909680843E0490860EE
:10453000E16A01EB8101D24A02EB8100211D02F008
:1045400049FA02F0A9FED848006868B1D548006869
:10455000C06AE16A884207D24FF08050D5490860AE
:10456000BFF34F8FBFF36F8F10BD2DE9F05F824611
:104570000F4690469B460A9E0C9C4FEA8801A52256
:10458000206B02F023FFA8F10100216B01EB8009F1
:1045900029F0070909F0070008B9012000E0002010
:1045A00028B940F22B32C4A1C8A003F00FFA0025AD
:1045B00007E0795D04F134004155785D00B902E00F
:1045C0006D1C102DF5D300BF002143200155202E76
:1045D00000D31F26E662E66400202065201D02F05D
:1045E000F6F904F1180002F0F2F92461C6F1200096
:1045F000A06164620020606584F858005A46514604
:10460000484602F0B3FD20600B9808B10B98046097
:10461000BDE8F09F2DE9FF4F85B0804689461746DB
:10462000DDE912ABB80002F09AFC064656B15C20F8
:1046300002F095FC04460CB1266304E0304602F01B
:1046400011FD00E000247CB10020CDE900ABCDE9F4
:1046500002403A4649464046089BFFF786FF2046FF
:10466000FFF735FF012501E04FF0FF35284609B07F
:10467000BDE8F08F88490968096809B9012100E09F
:10468000002121B14FF0FF31944A116006E08249C8
:104690000968C968C868914A41681160704710B5D7
:1046A0000446206B02F0DEFC204602F0DBFC10BD6D
:1046B00070B5054602F0CDFD15B97A48006800E0F6
:1046C00028460446201D02F0ABF978B9E06A00EBF9
:1046D00080006B4951F8200040B994F82C1001205B
:1046E000884073490968814371480160A06A18B124
:1046F00004F1180002F094F96C480068401C6B4902
:10470000086068480068844209D1211D604802F0B1
:1047100061F973480068401C7149086009E060480D
:104720000068401E5E4908602046FFF7B8FFFFF7AB
:10473000A1FF02F0B1FD5C480068C0B159480068B3
:10474000844214D16748006808B9012000E00020C5
:1047500028B940F2654258A15CA003F037F94FF048
:10476000805054490860BFF34F8FBFF36F8F70BD07
:104770002DE9F0414FF000085A480068002872D136
:1047800059480068451C58480560EDB94248006822
:10479000006808B9012000E0002028B940F6D912CD
:1047A00045A14AA003F012F93B4807683B4800685E
:1047B00039490860394807604C480068401C4B493B
:1047C0000860FFF757FF00BF4448006885423CD3AC
:1047D00000BF31480068006808B9012000E00020EF
:1047E00020B14FF0FF303D4908602DE02A480068B5
:1047F000C068C4686668B54202D23848066023E0E3
:10480000201D02F00DF9A06A18B104F1180002F0A1
:1048100007F994F82C1001208840254909680843BD
:1048200023490860E16A01EB8101154A02EB81002E
:10483000211D02F0CFF81B49E06A0968C96A884265
:10484000C7D34FF00108C4E700BF16480068C06A2C
:1048500000EB80000A4951F82000012801D94FF0EF
:10486000010805E0FFE722480068401C2049086075
:104870002048006808B14FF001084046BDE8F081CB
:10488000BC0800203C0B0020500B0020640B0020D3
:10489000780B00208C0B0020D0050020D4050020D0
:1048A000DC050020CC050020E8050020F8050020EC
:1048B000E405002004ED00E02E2E5C467265655292
:1048C000544F535C7461736B732E63004572726F47
:1048D000723A25732C25640D0A000000FC050020A7
:1048E000D805002004060020E0050020F405002083
:1048F000EC050020F005002070B500240026FE48DD
:10490000006838B94FF4FD62AFF25401AFF24400D1
:1049100003F05CF802F09DFCF7480068401EF64981
:1049200008600846006800284FD1F4480068002855
:104930004BD024E0F248C068C46804F1180002F0CB
:104940006FF8201D02F06CF894F82C1001208840BC
:10495000EC4909680843EB490860E16A01EB810111
:10496000E94A02EB8100211D02F034F8E749E06AD0
:104970000968C96A884202D30120E5490860E04815
:10498000006808B9012000E000200028D2D00CB156
:10499000FFF770FEDF48056865B100BFFFF7E8FE6E
:1049A00010B10120DA4908606D1E002DF6D10020FB
:1049B000D8490860D648006838B101263007D64982
:1049C0000860BFF34F8FBFF36F8F02F065FC304676
:1049D00070BD2DE9F04105460E46D0480768CB482A
:1049E0000068001D02F01CF850B9C848006890F833
:1049F0002C1001208840C34909688143C1480160E7
:104A0000681C38B936B1C1480168091DC44801F0B5
:104A1000E1FF1AE07C19BD4800684460BC4207D23F
:104A2000BA480168091DBF48006801F0DFFF0CE0CB
:104A3000B6480168091DBC48006801F0D7FFBB48B3
:104A40000068844201D2B9480460BDE8F081AA48F8
:104A50000068401CA849086070472DE9F0470446EB
:104A60000F464FF000093CB940F27942AFF2B8115D
:104A7000AFF2A81002F0AAFF0FB1012000E0002061
:104A800038B940F27A42AFF2D011AFF2C01002F062
:104A90009DFF9948006808B9012000E0002038B95E
:104AA00040F27B42AFF2F011AFF2E01002F08EFF65
:104AB000FFF7CDFF994806682068C5192068B04205
:104AC00007D92068A8420BD9B54209D94FF001098E
:104AD00006E02068A84201D8B54201D94FF001098B
:104AE0002560B9F1000F03D0A81B0021FFF771FF6B
:104AF000FFF702FF8046B8F1000F07D14FF080505A
:104B000085490860BFF34F8FBFF36F8FBDE8F08713
:104B100070B504460025BCB17748006808B901208B
:104B200000E0002038B940F2CF42AFF27421AFF27A
:104B3000642002F04BFFFFF78AFF00212046FFF7B9
:104B400048FFFFF7D9FE05463DB94FF08050724946
:104B50000860BFF34F8FBFF36F8F70BD2DE9F04139
:104B600007463E463EB940F2FB42AFF2B421AFF2F7
:104B7000A42002F02BFF65480068864201D1002482
:104B80001EE002F066FB756902F086FB664800686D
:104B9000854203D063480068854201D102240FE0BA
:104BA0005F48854205D1B06A08B9032408E00224B1
:104BB00006E05F48854200D00DB9042400E00124DE
:104BC0002046BDE8F08170B5044602F042FB14B9FE
:104BD0004E48006800E020460646F56A02F05CFB9D
:104BE000284670BD2DE9F041054602F085FB00BF67
:104BF0005021EFF3118081F31188BFF34F8FBFF382
:104C00006F8F00BF044615B94048006800E0284691
:104C10000746FE6A00BF84F3118800BF3046BDE836
:104C2000F0812DE9F04780460D464FF00009202D18
:104C300001D2012000E0002038B94FF4B062AFF299
:104C40008831AFF2783002F0C1FE202D00D31F254D
:104C500002F0FFFAB8F1000F02D12C48006800E022
:104C600040460446E66CAE4277D0B5420BD92748A1
:104C7000006884420DD025480068C06AA84208D860
:104C80004FF0010905E021480068844201D14FF04E
:104C90000109E76AE16AE06C884200D1E562E564F7
:104CA000A06900F0004010B9C5F12000A06107EB39
:104CB0008701154A02EB81016069884201D1012018
:104CC00000E00020B0B3201D01F0AAFE30B90120A1
:104CD000B8400C49096881430A48016094F82C10D7
:104CE0000120884007490968084306490860E16ACD
:104CF00001EB8101044A1FE004060020DC050020CE
:104D0000640B0020E4050020BC080020CC05002036
:104D1000F0050020EC05002004ED00E0E005002097
:104D20008C0B0020D4050020D0050020FC050020BD
:104D3000780B002005E010E002EB8100211D01F05E
:104D400049FEB9F1000F07D04FF08050FB490860D1
:104D5000BFF34F8FBFF36F8F00BF02F09DFABDE826
:104D6000F08710B5F648006818B10120F5490860D1
:104D70002FE00020F3490860F3480068B0FA80F0A3
:104D8000C0F11F0404EB8400F04951F8200008B181
:104D9000012000E0002038B940F6F622AFF2E841E9
:104DA000AFF2D84002F012FE04EB8401E74A02EBB6
:104DB000810041684968416000F1080142688A4207
:104DC00002D14168496841604168C968E04A1160A0
:104DD00000BF10BD70B5054602F03BFA15B9DC48BE
:104DE000006800E028460446201D01F019FE78B94D
:104DF000E06A00EB8000D54951F8200040B994F8F2
:104E00002C1001208840D04909688143CE480160B8
:104E1000A06A18B104F1180001F002FE211DCD486E
:104E200001F0D8FD02F038FACB48006828B102F052
:104E300010FAFFF71FFC02F02FFAC5480068844201
:104E400026D1C5480068B8B1BD48006808B901203E
:104E500000E0002038B940F25762AFF2A451AFF23F
:104E6000945002F0B3FD4FF08050B4490860BFF396
:104E70004F8FBFF36F8F0BE0B6480068B7490968E2
:104E8000884203D10020B249086001E0FFF769FFC2
:104E900070BD70B5054600262C463DB940F28162D2
:104EA000AFF2EC51AFF2DC5002F090FDA94960691D
:104EB000884201D1012000E0002070B1A849A06A19
:104EC000884201D1012000E0002030B9A06A08B971
:104ED000012000E0002000B10126304670BD70B511
:104EE00005462C463DB940F2AB62AFF23461AFF2F9
:104EF000246002F06BFD74B39548006884422AD0A8
:104F000002F0A7F92046FFF7C4FF10B3201D01F0FF
:104F100087FD94F82C10012088408B4909680843CC
:104F200089490860E16A01EB8101884A02EB81004E
:104F3000211D01F04FFD8649E06A0968C96A88426F
:104F400007D34FF080507D490860BFF34F8FBFF308
:104F50006F8F02F0A1F970BD2DE9F04106460027E0
:104F600034463EB940F2E262AFF2B461AFF2A460FF
:104F700002F02CFD02F0C0F900BF5021EFF31180C8
:104F800081F31188BFF34F8FBFF36F8F00BF0546CA
:104F90002046FFF77EFF20B369480068E0B96C49FE
:104FA000E06A0968C96A884200D30127201D01F020
:104FB00037FD94F82C1001208840634909680843A4
:104FC00061490860E16A01EB8101604A02EB8100FE
:104FD000211D01F0FFFC04E004F11801604801F01C
:104FE000F9FC00BF85F3118800BF3846BDE8F081A9
:104FF00070B523E0FFF72BFD5A48006808B901207F
:1050000000E000200546FFF777FCBDB902F021F96A
:105010005448C068C468201D01F002FD4F48006874
:10502000401E4E49086050480068401E4E490860C6
:1050300002F032F92046FFF732FB00BF4A48006811
:105040000028D7D170BD00BFFFF7D2FF3F480068EE
:105050000128F9D94FF0805038490860BFF34F8FCD
:10506000BFF36F8FF0E71CB5404800210B4682224A
:10507000CDE900103EA14048FFF7CCFA0446012CD0
:1050800002D1FFF7BDF80446012C15D100BF502016
:1050900080F31188BFF34F8FBFF36F8F00BF4FF0C6
:1050A000FF303649086001202B4908600020344950
:1050B000086002F077F80DE0601C08B1012000E004
:1050C000002038B940F28472AFF61401AFF6040044
:1050D00002F07CFC1CBD10B500BF502080F311888D
:1050E000BFF34F8FBFF36F8F00BF00201A490860D6
:1050F00002F09EF810BD22490868704770B502F0B2
:10510000FBF800251E480468204670BD134800685F
:10511000704770B5044614B90D48006800E0204699
:1051200005463DB940F68C02AFF67401AFF6640057
:1051300002F04CFC05F1340070BD000004ED00E00D
:1051400004060020F0050020E4050020BC08002033
:10515000CC0500208C0B0020E8050020DC05002099
:10516000640B0020780B0020D805002000060020EA
:1051700049444C450000000047500008FC05002051
:10518000E00500200246002101E0521C491C107875
:10519000A528FAD0890888B270472DE9F041074662
:1051A0000C4690461E4617B9F748006800E038469E
:1051B0000546256005F134006060E86A2061286BCF
:1051C000E061686CA060207B032807D1FFF73FFCFB
:1051D000A86A08B102202073FFF78EFBE86C6061BB
:1051E0000020A061052E01D0267303E03846FFF7AA
:1051F000B5FC2073B8F1000F04D0286BFFF7C2FF95
:10520000208401E000202084BDE8F0812DE9F047F2
:1052100007460C4690460026206848B32046416861
:105220004968416000F1080142688A4202D1416840
:10523000496841604168D1F80C9000BF2046416840
:105240004968416000F1080142688A4202D1416820
:10525000496841604168CD6806EBC60007EB8001F4
:10526000434601222846FFF798FF761C4D45E5D1BD
:105270003046BDE8F0872DE9F041054688461646E0
:1052800000242027FFF7E3FBC0480068804539D39E
:1052900000BF7F1E07EB8702BD4B03EB820104EBCF
:1052A000C40205EB82000122FFF7B0FF0444002F87
:1052B000EFD104EBC40105EB81000222B549096876
:1052C000FFF7A4FF044404EBC40105EB81000222B4
:1052D000B1490968FFF79AFF044404EBC40105EBE8
:1052E00081000422AD49FFF791FF044404EBC4019F
:1052F00005EB81000322AA49FFF788FF04440EB1A1
:1053000000203060FFF7F8FA2046BDE8F08170B564
:1053100004460D463CB940F60632AFF66421AFF6BE
:10532000542002F053FB984801681831204601F0E0
:105330005DFB01212846FFF74CFB70BD70B50446AC
:105340000D4616463CB940F61732AFF69421AFF63B
:10535000842002F03BFB9348006808B1012000E084
:10536000002038B940F61B32AFF6B421AFF6A420C6
:1053700002F02CFB45F000408349096888618248AF
:1053800001681831204601F025FB01213046FFF766
:1053900020FB70BD70B505460E4614463DB940F67B
:1053A0003132AFF6EC21AFF6DC2002F00FFB76488D
:1053B00001681831284601F00DFB0CB14FF0FF36A3
:1053C00021463046FFF705FB70BD70B50646F06814
:1053D000C4683CB940F66132AFF62431AFF6143000
:1053E00002F0F4FA04F1180001F01AFB6D480068AD
:1053F000A8B9201D01F014FB94F82C10012088405E
:1054000069490968084368490860E16A01EB81015C
:105410005F4A02EB8100211D01F0DCFA04E004F197
:105420001801624801F0D6FA5749E06A0968C96A6A
:10543000884204D9012501205D49086000E000256B
:10544000284670BD2DE9F04105460F4655480068D5
:1054500008B1012000E0002038B940F69932AFF6DB
:10546000A831AFF6983002F0B1FA47F0004028605A
:10547000EC683CB940F6A132AFF6C431AFF6B430B7
:1054800002F0A4FA284601F0CBFA201D01F0C8FA78
:1054900094F82C1001208840434909680843424988
:1054A0000860E16A01EB8101394A02EB8100211DAC
:1054B00001F090FA3449E06A0968C96A884204D95F
:1054C000012601203A49086000E000263046BDE888
:1054D000F08110B504463CB940F6C132AFF6284120
:1054E000AFF6184002F072FA324800682060324885
:1054F0000068606010BD2DE9F04104460D463CB9DE
:1055000040F6CB32AFF65041AFF6404002F05EFAC3
:105510003DB940F6CC32AFF66041AFF6504002F0F4
:1055200055FA01F096FE244807682868401C08B91F
:10553000002619E01F4920680968884204D0606885
:10554000B84201D801260FE06068381A29688842FD
:1055500009D228686168791A401A28602046FFF746
:10556000B8FF002600E0012601F096FE3046BDE8B7
:10557000F08101200E4908607047014611B10A46CA
:10558000906C00E000207047CC050020DC05002076
:10559000BC080020D0050020D4050020780B002096
:1055A0008C0B002004060020E4050020640B002082
:1055B000F0050020F4050020E005002008B10246B7
:1055C00091647047FB4908687047FB49096809B94D
:1055D000012005E0F949096809B9022000E000202E
:1055E000704770B505462C46002D4BD0F149E06A56
:1055F0000968C96A884245D2A06900F0004028B90C
:10560000EC480068C06AC0F12000A061E16A01EBCB
:105610008101EB4A02EB81016069884201D10120DE
:1056200000E0002050B3201D01F0FAF978B9E06ADB
:1056300000EB8000E24951F8200040B994F82C10AA
:1056400001208840DF4909688143DE480160D9486C
:105650000068C06AE06294F82C1001208840D949A3
:1056600009680843D7490860E16A01EB8101D44A1F
:1056700002EB8100211D01F0ADF903E0CD48006887
:10568000C06AE06270BD70B505462C460026002D4C
:105690004FD0C8480068844201D1012000E00020BA
:1056A00038B940F6C762AFF6F051AFF6E05002F0FD
:1056B0008DF9206D38B940F6C962AFF60461AFF6D6
:1056C000F45002F083F9206D401E2065E16CE06A21
:1056D00088422ED0206D60BB201D01F0A1F978B961
:1056E000E06A00EB8000B64951F8200040B994F818
:1056F0002C1001208840B34909688143B1480160FA
:10570000E06CE062E06AC0F12000A06194F82C1027
:1057100001208840AB4909680843AA490860E16A4A
:1057200001EB8101A64A02EB8100211D01F052F933
:105730000126304670BD70B505460E4631462846F6
:1057400001F06FFE284601F065FE044602E02020CD
:105750002855641C0F2CFAD300202855281970BD39
:105760007FB5054600202870974800680390964949
:10577000096801EBC101880001F0F1FB0446002C2F
:1057800053D0002220460399FFF775FD03900020B7
:10579000029043E0029800EBC00004EB8000007B25
:1057A000012806D0022806D0032806D0042808D1F4
:1057B00005E0522607E0422605E0532603E0442692
:1057C00001E0002600BF00BF029800EBC00004EB20
:1057D000800041682846FFF7AEFF0546029800EBBF
:1057E000C00004EB80008068029901EBC10104EB6A
:1057F0008101098CCDE90010029800EBC00004EB98
:105800008000324671A10369284602F0EFF828466D
:1058100001F000FE05440298401C0290DDE90201FF
:105820008842B7D3204601F01DFC7FBD614909685D
:10583000886960490968C96AC1F120015D4A126836
:10584000916170475B48006830B15A49096801F1BD
:105850005000096D491C016056480068704770B5DA
:1058600006460D4601F0F5FC52480068406D88B9C7
:1058700001205049096881F858005DB1012128468E
:10588000FFF7A7F84FF0805054490860BFF34F8FDF
:10589000BFF36F8F01F000FD01F0DBFC45480068AD
:1058A000446D4CB126B1002042490968486503E0C7
:1058B000601E40490968486500203E49096881F832
:1058C000580001F0E9FC204670BD2DE9F041074683
:1058D000884614461D4601F0BCFC3648006890F826
:1058E0005800022818D03349096801F15400496D65
:1058F000B943016001202F49096881F858005DB162
:1059000001212846FFF765F84FF0805033490860C1
:10591000BFF34F8FBFF36F8F01F0BEFC01F099FC16
:105920001CB124480068406D20602248006890F84F
:105930005800012801D1002608E01E49096801F13C
:105940005400496D21EA080101600126002019492F
:10595000096881F8580001F09FFC3046BDE8F081ED
:105960002DE9F04706460D46174698464FF0010AC6
:1059700036B941F2FD021A4901F1140002F026F88D
:10598000344601F066FCB8F1000F02D0606DC8F833
:10599000000094F85890022084F85800052F30D267
:1059A000DFE807F02E0320242600606D28436065A1
:1059B00027E00000CC050020E805002004060020B8
:1059C000BC080020E4050020DC050020092563094F
:1059D00025750925750925750D0A000004ED00E0FF
:1059E000B8480008606D401C60650AE0656508E025
:1059F000B9F1020F01D0656501E04FF0000A00E047
:105A000000BF00BFB9F1010F2FD1201D01F008F830
:105A100094F82C10012088409B49096808439A4952
:105A20000860E16A01EB8101984A02EB8100211DC7
:105A300000F0D0FFA06A08B9012000E0002030B9D2
:105A400041F23512924901F1140001F0BFFF914972
:105A5000E06A0968C96A884207D94FF080508E49C8
:105A60000860BFF34F8FBFF36F8F01F015FC5046F6
:105A7000BDE8F0872DE9F84F07460E469046994657
:105A8000DDF828B00120009037B941F26812804952
:105A900001F1140001F09AFF01F02EFC3C4600BF1A
:105AA0005021EFF3118081F31188BFF34F8FBFF3C3
:105AB0006F8F00BF0546B9F1000F02D0606DC9F8C5
:105AC000000094F858A0022084F85800B8F1050F9F
:105AD00017D2DFE808F01503070B0D00606D3043A7
