:020000040800F2
:10000000C85A0020151600083D0C00083F0C0008D7
:10001000430C0008470C00084B0C000800000000CF
:100020000000000000000000000000004501000882
:100030004F0C00080000000089010008510C000866
:100040002F1600082F1600082F1600082F1600087C
:100050002F1600082F1600082F1600082F1600086C
:100060002F1600082F1600082F1600082F1600085C
:100070002F1600082F1600082F1600082F1600084C
:100080002F1600082F1600082F1600082F1600083C
:100090002F1600082F1600082F1600082F1600082C
:1000A0002F1600082F1600082F1600082F1600081C
:1000B0002D110008431100082F1600082F16000804
:1000C0002F1600082F1600082F1600082F160008FC
:1000D0002F160008B51300082F1600083715000862
:1000E0002F1600082F1600082F1600082F160008DC
:1000F0002F1600082F1600082F1600082F160008CC
:100100002F1600082F1600082F1600082F160008BB
:100110002F1600082F1600082F160008751100086A
:100120002F1600082F1600082F1600082F1600089B
:10013000DFF80CD008F0A2FD00480047F1090008E4
:10014000C85A0020224B19680868B0E8F00F80F305
:100150000988BFF36F8F4FF0000080F311884EF0D5
:100160000D0E70470000000006480068006880F32C
:10017000088862B661B6BFF34F8FBFF36F8F00DFA1
:1001800000BF00BF08ED00E0EFF30980BFF36F8F01
:100190000F4B1A6820E9F00F106008B54FF05000BF
:1001A00080F31188BFF34F8FBFF36F8F03F0D1FE41
:1001B0004FF0000080F31188BDE808401968086816
:1001C000B0E8F00F80F30988BFF36F8F704700BF6E
:1001D000B0000020EFF305807047000070B50446C2
:1001E0000D463CB1FF21204605F0A4FE29462046DD
:1001F00005F02FFD70BDB2B00024FBA008F0A2FDF9
:1002000069E0FE480068002865D0C821684608F00B
:10021000E2F900235A1E6946F848006805F0D8F84C
:10022000012858D10021F648006805F083FE00B986
:100230000024F4A1684608F0D9F930B12CB907249C
:100240002146EF480068FFF7C9FFF1A1684608F0B2
:10025000CDF940B10021EA480068FFF7BFFFF04840
:10026000006803F034FFEFA1684608F0BFF920B141
:10027000EB48006803F02BFF21E0F1A1684608F08D
:10028000B5F948B10C2C07DA601CC4B22146DC4831
:100290000068FFF7A3FF12E0EAA1684608F0A6F99C
:1002A00008B1042C04DBE9A1684608F09FF930B1DD
:1002B000601CC4B22146D2480068FFF78FFF002CB3
:1002C00009DBE348006830B100231A466946E0487C
:1002D000006804F037FF94E708B500240125DDA08D
:1002E00008F030FD38E00021C548006805F022FE26
:1002F000C4B20C2C25DA062C17D1B5B1002503F0B9
:10030000F2FF064600200346324601210090D648FF
:10031000006802F0B9FEC248006803F053FE0021F5
:10032000B748006805F006FEC4B2D04850F8241063
:10033000CFA001F0DCF8CD4850F82410CDA008F093
:1003400001FD2CB901254FF47A7003F0D9FC03E0CC
:100350004FF4FA7003F0D4FCC5E7B2B00027C8A090
:1003600008F0F0FC70E0BA48006800286CD0C821A2
:10037000684608F030F900235A1E6946B448006800
:1003800005F026F801285FD100219D48006805F09E
:10039000D1FD0C2854D19DF80000302854D19DF88F
:1003A000010000F0800068B103259DF8020000F014
:1003B000800040B104259DF8030000F0800010B1DA
:1003C000052500E00225681C1DF800001DF8051039
:1003D00000EB012084B2204605F0B9FE8146A81C3E
:1003E0000DEB00012246484608F0DCF84A4621465B
:1003F000A7A008F0A7FC00262819801CC7B203E0BC
:10040000701CC6B2781CC7B21DF807000028F7D1CF
:10041000304605F09CFE80462819801C6A468118EB
:100420003246404608F0BEF842463146A1A008F0E8
:1004300089FC484605F00EFF404605F00BFF03E03F
:100440006946A5A008F07EFC8DE70024A6A008F070
:1004500079FC42E0012000F044FD0546A548006813
:10046000002837D0012D04D0022D20D0032D2ED10D
:1004700025E0642094FBF0F100FB114030B96420CA
:1004800094FBF0F631469CA008F05CFCB4F5FA7FD2
:100490000ADB00246248006803F019FE0021584876
:1004A0000068FFF79BFE01E0601C84B211E09148F8
:1004B000006803F087FD96A008F044FC09E08D4831
:1004C000006803F004FE99A008F03CFC01E0002461
:1004D00000BF00BF012003F013FCBBE770B5054669
:1004E00000214748006805F025FDC4B20C2C5CD003
:1004F000FF2C11D193480078401C9249087008469F
:1005000000781E2851DB00213D480068FFF766FE99
:1005100000208C49087048E0062C2AD18A480078CF
:10052000401C89490870084600783C283DDB874814
:100530000078401C85490870002083490870834872
:10054000007803280BDD00208049087080A008F0A7
:10055000F9FBFE212A480068FFF740FE25E03048FD
:10056000006803F0B4FD002125480068FFF736FE5F
:100570001BE08CB97B480078401C7A49087008461B
:1005800000780A2811DB78A008F0DCFBFE211C486B
:100590000068FFF723FE08E00020724908706949EF
:1005A0000870694908706949087070BD08B500266F
:1005B00074A008F0C7FB00BF4FF0FF3000231A46BD
:1005C0000C2100900E48006805F021FC0C28F3D1A6
:1005D00071A008F0B7FB774A77A185A006F017F85D
:1005E00000B113E116E10000455350383236365F52
:1005F0005265635F5461736B0D0A000014000020A4
:10060000200000205749464920474F5420495000B8
:10061000455350383236365F5265736574000000BA
:1006200010000020736D617274636F6E66696720DD
:10063000636F6E6E65637465642077696669000038
:100640004F4B00004552524F520000002B2B2B0005
:1006500018000020455350383236365F53656E64BB
:100660005F5461736B0D0A002400002028000020F5
:100670002573000053656E64203D20257300000043
:100680004D61696E5F52756E6E696E670D0A00008E
:100690006C5661726961626C654C656E203D202507
:1006A000642C206C5661726961626C65203D202566
:1006B000730D0A006C5061796C6F61644C656E203B
:1006C0003D2025642C206C5061796C6F6164203D65
:1006D0002025730D0A000000526563656976656424
:1006E000203D2025730D0A004B65795F5461736BC3
:1006F0000D0A00000C0000204B6579547269676791
:1007000065726564536563203D2025640D0A000011
:100710004553503832363620526563205461736B2E
:100720002053757370656E640000000045535038A7
:1007300032363620526563205461736B20526573E4
:10074000756D650058000020590000205A000020F7
:10075000536D617274436F6E666967206C6F736569
:100760000D0A00005B000020455350383236362019
:10077000636F6E6E656374206661696C65640D0AF3
:10078000000000004D7174745F5461736B207275CA
:100790006E6E696E670D0A0045535038323636B0BA
:1007A000A2C0EFD4C64D515454BFAACABCC1ACBDFF
:1007B000D30D0A0020A4000841384D44354C4C3874
:1007C0005A4177617465725F7468655F666C6F77B4
:1007D0006572733B31323031303132363B55454DE5
:1007E000414F3B3136333430313738353400000037
:1007F00041384D44354C4C385A4177617465725FCD
:100800007468655F666C6F776572730089A008F025
:1008100099FA02E08FA008F095FA0122002195A034
:1008200006F01AF818B1A0A008F08CFA02E0A7A010
:1008300008F088FA6AE0701CC6B23C2E00DD002683
:1008400007F066FD814607F063FD0546B9F1000F2C
:1008500051D0002D4FD0A6A007F043FD07463A46E1
:10086000A5A1484607F001FCA5A007F03AFD074600
:100870003A46A6A1484607F0F8FB2A46A6A14846F4
:1008800007F0F3FB304608F016F8074607F017FDAF
:1008900082465246A2A1284607F0E7FBA2A007F035
:1008A00020FD07463A46A2A1484607F0DEFB48462F
:1008B00007F05EFB834659469FA008F043FA0022EA
:1008C00059469FA006F09CF80446002C04DD214602
:1008D000A7A008F037FA03E02146A5A008F032FAF5
:1008E000584605F0B7FC484606F078F92822002162
:1008F000484607F057FE05F0E9FC07463946A4A034
:1009000008F020FA4FF47A7003F0FAF993E77CB517
:10091000054605F096FD0022C821012004F017FBD2
:10092000A14908600022C821012004F010FB9F4962
:10093000086005F081F99E490860FF219C48006825
:10094000FFF74CFCAFF26B40002301224FF47A71A9
:10095000009098A002F0BBFD9A49086003F0C3FC28
:100960000446002003462246012100909548006875
:1009700002F08AFB9448032100238022CDE9001075
:1009800092A1AFF2AB6002F03DFF95480421002335
:100990008022CDE9001093A1AFF2A57002F032FFE2
:1009A0009548022100238022CDE9001093A1AFF2E7
:1009B000034002F027FF944802210023CA01CDE939
:1009C000001092A1AFF26D6002F01CFF9348052168
:1009D00000233222CDE9001091A1AFF2915002F034
:1009E00011FF9248006802F05BFF05F04DFD7CBDF1
:1009F0001CB54FF4407000F01FFE4FF4E13000F0E2
:100A00008CFC4FF4E13000F012FD00F0FDFB00F033
:100A100017FA00F03DFA8548012100233222CDE982
:100A2000001083A1AFF2191002F0ECFE03F013FCEA
:100A300000BFFEE745535038323636B0A2C0EFD47F
:100A4000C64D515454B5C7C2BDB3C9B9A6A3A10D73
:100A50000A00000045535038323636B0A2C0EFD4F9
:100A6000C64D515454B5C7C2BDCAA7B0DCA3A10D31
:100A70000A000000247468696E672F646F776E2F18
:100A800070726F70657274792F41384D44354C4CDB
:100A9000385A412F77617465725F7468655F666C60
:100AA0006F7765727300000045535038323636B0A8
:100AB000A2C0EFD4C64D515454B6A9D4C4D6F7CC75
:100AC000E2B3C9B9A6A3A10D0A00000045535038EE
:100AD000323636B0A2C0EFD4C64D515454B6A9D464
:100AE000C4D6F7CCE2CAA7B0DCA3A10D0A0000006F
:100AF0007265706F727400006D6574686F640000D9
:100B0000303537323030343130313800636C69651C
:100B10006E74546F6B656E00706172616D7300006E
:100B200074696D657200000056302E30350000008B
:100B300076657273696F6E0025730D0A0000000000
:100B4000247468696E672F75702F70726F7065728C
:100B500074792F41384D44354C4C385A412F7761C8
:100B60007465725F7468655F666C6F776572730039
:100B7000CFFBCFA2B7A2B2BCB3C9B9A6A3A1A3A110
:100B8000A3A17075625F7265743D25640D0A000053
:100B90004D71747420686561702073697A65203DB9
:100BA0002025640D0A000000140000201800002019
:100BB0002000002054696D6572436F756E745F5438
:100BC00061736B0024000020100000204553503852
:100BD0003236365F53656E645F5461736B0000009C
:100BE0000C000020455350383236365F5265635F43
:100BF0005461736B00000000080000204D71747494
:100C00005F5461736B000000040000204D61696E49
:100C10005F52756E6E696E67000000001C00002058
:100C20004B65795F5461736B000000000000002089
:100C30005461736B5F496E6974000000704700BFB8
:100C4000FEE700BFFEE700BFFEE700BFFEE770471C
:100C500010B503F0B2FD012801D005F02DFC10BD48
:100C60000CB50020019000906C48006840F4803082
:100C70006A49086000BF6948006800F400300090CD
:100C80000198401C0190009818B90198B0F5A06F28
:100C9000F1D16248006800F4003010B101200090EA
:100CA00001E0002000900098012843D15C480068D2
:100CB00040F010005A4908600846006820F0030020
:100CC00008600846006840F0020008605348406829
:100CD000524948600846406848600846406840F409
:100CE000806048600846406820F47C1048600846F0
:100CF000406840F4E81048600846006840F08070A2
:100D0000086000BF4548006800F000700028F9D076
:100D10004248406820F00300404948600846406867
:100D200040F00200486000BF3C48406800F00C0002
:100D30000828F9D10CBD10B5FFF792FF10BD10B512
:100D40003648006840F001003449086008464068B1
:100D50003449084031494860084600683249084033
:100D60002E4908600846006820F480200860084684
:100D7000406820F4FE0048604FF41F008860FFF7D1
:100D8000DAFF4FF000602949086010BD10B500215E
:100D900000200022214B5B6803F00C0121B10429E3
:100DA00006D0082928D107E0214B224C236027E0F8
:100DB0001F4B204C236023E0184B5B6803F470103A
:100DC000164B5B6803F48032022303EB904022B998
:100DD000194B4343174C23600DE0104B5B6803F441
:100DE000003323B1144B4343124C236003E0104BF8
:100DF0004343104C236003E00D4B0E4C236000BFB7
:100E000000BF064B5B68C3F303130C4CE15C094B5A
:100E10001B68CB40074C236010BD0000001002404F
:100E2000002002400000FFF8FFFFF6FE08ED00E0A2
:100E300000127A005C00002000093D0060000020E4
:100E400008B50121242000F081FF4FF48070ADF837
:100E5000000010208DF8030003208DF80200694681
:100E6000094800F0B7FC4FF48071074800F05FFDBF
:100E70000420ADF800006946044800F0ABFC0421F2
:100E8000024800F054FD08BD000801400014014074
:100E900008B50121142000F059FF0121374800F066
:100EA0006AFD4FF40040ADF8000048208DF80300C3
:100EB0006946334800F08EFC2020ADF80000482041
:100EC0008DF8030069462F4800F084FC0120ADF83E
:100ED000000028208DF803006946294800F07AFCBC
:100EE00008BD10B5044614B10120274908702648F2
:100EF000007868B32021234800F0FFFC58B14FF47C
:100F000000411F4800F0F9FC28B101211C4800F005
:100F1000F4FC01281CD10A2000F0BDF900201A4978
:100F200008702021174800F0E8FC08B9012010BD26
:100F30004FF40041124800F0E0FC08B90220F6E747
:100F400001210F4800F0D9FC012815D10320EEE75C
:100F500020210C4800F0D1FC01280DD1C103084824
:100F600000F0CBFC012807D10121054800F0C5FCA9
:100F700010B90120044908700020D8E700023000B1
:100F80000008014000100140700000207FB50546B8
:100F90000C460121084600F0E6FEADF80850ADF819
:100FA00004400020ADF80A00ADF8060001A94FF09A
:100FB000804001F007FA01221146900701F079FD07
:100FC0001C208DF8000000208DF8010002208DF813
:100FD000020001208DF80300684600F032FB012179
:100FE000880701F04BFD7FBD7FB505460C4601210A
:100FF000022000F0B8FEADF80850ADF80440002023
:10100000ADF80A00ADF8060001A9764801F0DAF95A
:1010100001221146734801F04CFD1D208DF800009F
:1010200000208DF8010003208DF8020001208DF8CA
:101030000300684600F005FB01216A4801F01EFD2F
:101040006948002101807FBD7FB505460C4601211E
:10105000202000F088FEADF80450ADF800400020DC
:10106000ADF80600ADF802006946604801F0AAF943
:10107000012211465D4801F01CFD01215B4801F091
:10108000FDFC37208DF80C0005208DF80D000020A8
:101090008DF80E0001208DF80F0003A800F0D1FAA2
:1010A0007FBD30B589B005460C460121042000F013
:1010B0005AFE0121082000F049FEC020ADF82000B2
:1010C00018208DF8230003208DF8220008A9484835
:1010D00000F080FBADF81850ADF814400020ADF8DA
:1010E0001A00ADF8160005A9424801F06BF970200E
:1010F000ADF804000120ADF806000220ADF80C00A8
:1011000001A93C4801F09BF901A93A4801F0D9F93D
:101110000821384801F0E2FD0821364801F0E7FDDA
:101120000121344801F0AAFC09B030BD10B50121FD
:10113000880701F06CFF18B10121880701F078FFE2
:1011400010BD10B50121274801F061FF88B10024CE
:1011500009E02548005D20B12348005D401E22497A
:101160000855601CC4B2022CF3DB01211D4801F0BC
:101170005FFF10BD08B501211C4801F048FF80B396
:101180001D48008840F400401B4908801B48006847
:10119000F8B10846008800F40040D0B100236A4648
:1011A00017491648006804F037FA002012490880F1
:1011B000C821134807F00FFA0098012809D10098B8
:1011C00038B14FF080500F490860BFF34F8FBFF325
:1011D0006F8F0121054801F02BFF0021034801F02A
:1011E0004DFC08BD000400407400002000140040C5
:1011F000000C014000080040860000201400002080
:10120000EC01002004ED00E010B5042000F063FACA
:10121000364800683649B0FBF1F03649087033486B
:1012200000683349B0FBF1F44FF47A704443012075
:10123000314908804FF0E020006940F002004FF093
:10124000E021086108464461006940F0010008613E
:1012500010BD70B5034600224FF0E0267569254E9B
:10126000367803FB06F44FF0E026B16910E04FF04A
:10127000E026B06988420BD0884202D20E1A32446E
:1012800002E02E1A0E4432440146A24200D300E08E
:10129000EDE700BF70BD70B5044603F08EFA01287B
:1012A00010D015480088844206D313480088B4FB48
:1012B000F0F5284602F024FD0F480088B4FBF0F159
:1012C00000FB11444FF47A7104FB01F0FFF7C1FFFA
:1012D00070BD30B50446002504E04FF47A70FFF786
:1012E000B8FF6D1CA542F8D330BD00005C000020A3
:1012F00040420F007C0000207E000020014600BF1D
:10130000704700BFB74A128802F04002002AF9D0A5
:10131000C2B2B44B1B1D1A80704710B586B004468C
:10132000012144F2040000F011FD4FF40070ADF80B
:10133000140003208DF8160018208DF8170005A959
:10134000A94800F047FA4FF48060ADF8140004207B
:101350008DF8170005A9A44800F03CFA25208DF867
:10136000000005208DF8010000208DF8020001200A
:101370008DF80300684600F064F901940020ADF890
:101380000800ADF80A00ADF80C00ADF810000C2014
:10139000ADF80E0001A9934800F07FFD012240F254
:1013A0002551904800F011FE01218E4800F001FE09
:1013B00006B010BD10B540F225518A4800F0EAFE93
:1013C00010B3884800F066FEC4B28848008800F474
:1013D0000040C8B98548008800F4804060B10A2CFC
:1013E00003D000208149088020E08048008840F434
:1013F00000407E49088019E00D2C06D17B4800880A
:1014000040F480407949088010E078480088C0F3B3
:101410000D0077490C5475480088401C73490880BA
:1014200008460088C72801DD0020088010BD10B5DF
:1014300086B004460121092000F088FC01218804BF
:1014400000F091FC6B4800F0E5FC4FF48060ADF8D3
:10145000100003208DF8120018208DF8130004A945
:10146000654800F0B7F94FF40060ADF810000420B3
:101470008DF8130004A9604800F0ACF90094002036
:10148000ADF80400ADF80600ADF80800ADF80C00AA
:101490000C20ADF80A006946564800F0FEFC2720F3
:1014A0008DF8140006208DF8150000208DF8160028
:1014B00001208DF8170005A800F0C3F8012240F2C2
:1014C00025514C4800F081FD01214A4800F071FD92
:1014D00041F61F4140F2E730FFF7B6FD00204749D3
:1014E00008800021464801F0C9FA06B010BD0FB4CB
:1014F00038B505A800904348009A049907F046FCC7
:10150000002000903F4807F08DF885B200240DE0E0
:1015100000BF4021374800F027FE0028F9D03948A5
:10152000015D344800F0B2FD601C84B2AC42EFDBD8
:1015300038BC5DF814FB38B540F225512D4800F059
:1015400029FE20B340F225512A4800F04DFE2948DB
:1015500000F0A0FDC4B22948008800F40040B0B9F2
:1015600026480088C82813DA0021254801F01AFD12
:101570002248008818B90121214801F07FFA1F484C
:1015800001880088401C1D4A10801F48445405E013
:101590001A48008840F40040184908801B48006839
:1015A000F8B11648008800F40040D0B100236A4624
:1015B00015491648006804F02FF800200F490880EC
:1015C000C821114807F007F80098012809D10098B0
:1015D00038B14FF080500E490860BFF34F8FBFF312
:1015E0006F8F38BD003801400008014084000020A2
:1015F0002401002000480040000C0140860000202B
:1016000000140040B4020020EC010020140000206F
:1016100004ED00E00648804706480047FEE7FEE785
:10162000FEE7FEE7FEE7FEE7FEE7FEE7FEE7FEE792
:101630003F0D00083101000831490143314A116072
:10164000704770B5002100230F22C47804B32D4CDD
:10165000246804F4E064C4F5E064210AC1F10403E1
:10166000CA40447804FA03F1847814402143090104
:10167000254C0678A155047804F01F050124AC40E0
:1016800005786D11AD0005F1E025C5F8004109E0D0
:10169000047804F01F050124AC401C4D0678761137
:1016A00045F8264070BD1A4A0A400243154B1B1FDD
:1016B0001A60704739B1134A121D12680243114B68
:1016C0001B1D1A6006E00F4A121D126882430D4B63
:1016D0001B1D1A607047042808D14FF0E0210969EA
:1016E00041F004014FF0E022116107E04FF0E021EA
:1016F000096921F004014FF0E022116170470000F8
:101700000000FA050CED00E000E400E080E100E0FC
:1017100080FFFF1F10B50446CC48844208D1012148
:10172000042000F02DFB0021042000F029FB46E0FE
:10173000C748844208D10121082000F021FB002184
:10174000082000F01DFB3AE0C248844208D1012184
:10175000102000F015FB0021102000F011FB2EE0FE
:10176000BD48844208D10121202000F009FB00215E
:10177000202000F005FB22E0B848844208D1012176
:10178000402000F0FDFA0021402000F0F9FA16E0B8
:10179000B348844208D10121802000F0F1FA0021F1
:1017A000802000F0EDFA0AE0AE48844207D1012122
:1017B000801500F0E5FA0021A01500F0E1FA10BD57
:1017C00010B50121084600F0DBFA0021012000F0ED
:1017D000D7FA10BD2DE9F041024600250026002071
:1017E00000230024002791F803C00CF00F0591F8A6
:1017F00003C00CF0100CBCF1000F03D091F802C034
:101800004CEA050591F800C0BCF1000F31D0146816
:1018100000202BE04FF0010C0CFA00F3B1F800C0EF
:101820000CEA03069E4220D183004FF00F0C0CFA05
:1018300003F7BC4305FA03FC4CEA040491F803C027
:10184000BCF1280F06D14FF0010C0CFA00FCC2F8D5
:1018500014C00AE091F803C0BCF1480F05D14FF065
:10186000010C0CFA00FCC2F810C0401C0828D1D3AF
:101870001460B1F800C0BCF1FF0F34DD54680020E3
:101880002EE000F1080C4FF0010808FA0CF3B1F853
:1018900000C00CEA03069E4221D183004FF00F0CDA
:1018A0000CFA03F7BC4305FA03FC4CEA040491F874
:1018B00003C0BCF1280F05D100F1080C08FA0CF8A0
:1018C000C2F8148091F803C0BCF1480F07D100F1B1
:1018D000080C4FF0010808FA0CF8C2F81080401C00
:1018E0000828CED35460BDE8F0814FF6FF71018027
:1018F000022181700421C170704702460020936864
:101900000B400BB1012000E00020704701468868C1
:1019100080B2704702460020D3680B400BB1012013
:1019200000E0002070470146C86880B2704701613E
:101930007047416170470AB1016100E04161704741
:10194000C16070474FF480320A43826181618261D5
:1019500082698269704702460020434B18684FF63F
:101960008073184040EA021008433F4B18607047EC
:101970003E49C8617047F0B50A46002300240021A3
:10198000002500F00046B6F1004F02D1364EF16955
:1019900001E0354E7168C0F3034583B200F4401690
:1019A000B6F5401F08D121F070612F4E766826F001
:1019B00070662D4F7E6012E000F48016B6F5801F31
:1019C00006D1032606FA05F4A14341F0706106E052
:1019D000460D360103FA06F6B14341F0706122B1BB
:1019E000460D360103FA06F6314300F00046B6F123
:1019F000004F02D11C4EF16101E01B4E7160F0BD41
:101A000030B500228B071C0F0F2303FA04F2164B8C
:101A100008338C1053F824309343134C08348D1042
:101A200044F8253023468C1053F824308C07240FBB
:101A300000FA04F423430C4C08348D1044F825308C
:101A400030BD0A49DC3108607047000000080140E1
:101A5000000C01400010014000140140001801403A
:101A6000001C014000200140000001400000204215
:101A7000DF48006840F00100DD4908600846406822
:101A8000DC490840DA49486008460068DA490840FD
:101A9000D74908600846006820F48020086008469E
:101AA000406820F4FE0048604FF41F0088607047D3
:101AB000CF49096821F48031CD4A11601146096887
:101AC00021F480211160B0F5803F03D0B0F5802F64
:101AD0000ED106E0C649096841F48031C44A11605C
:101AE00007E0C349096841F4A021C14A116000E040
:101AF00000BF00BF704710B5014600220023002040
:101B00004A11012A02D1BA4C236806E0022A02D106
:101B1000B74C236A01E0B64C636A01F01F0201244E
:101B200094401C400CB1012000E0002010BD38B5ED
:101B3000002000900024002500BF3120FFF7DBFFCC
:101B400005460098401C00900098B0F5A06F01D0A9
:101B5000002DF2D03120FFF7CEFF08B1012400E0C4
:101B60000024204638BD01460020A14A106820F01C
:101B7000F80040EAC10010607047A0490860704753
:101B8000024600209A4B586820F47C1042EA010378
:101B90001843974B5860704798490866704701464C
:101BA0000020934A506820F00300084350607047BB
:101BB0008F48406800F00C007047014600208C4AB6
:101BC000506820F0F0000843506070470146002044
:101BD000874A506820F4E06008435060704701462F
:101BE0000020834A506820F4605040EAC1005060F1
:101BF000704729B17E4A527A02437D4B5A7204E003
:101C00007B4A527A82437A4B5A7270477B49D83169
:101C10000860704701460020754A506820F4404033
:101C20000843506070470021714A20321170704A99
:101C300082F82010012802D004280AD104E00121F2
:101C40006B4A2032117005E00521694A203211707B
:101C500000E000BF00BF70476949086070476449F1
:101C6000096A0143624A1162704765494439086054
:101C7000704730B500210022002400235C4D6D68C0
:101C800005F00C0121B1042905D0082923D105E074
:101C90005C4D056022E05B4D05601FE0544D6D68B2
:101CA00005F47012524D6D6805F48034022505EB81
:101CB00092421CB9544D554305600BE04C4D6D6884
:101CC00005F400351DB1504D5543056002E04D4D02
:101CD0005543056002E04B4D056000BF00BF444D19
:101CE0006D6805F0F0010909484D6B5C0568DD4041
:101CF00045603F4D6D6805F4E061090A434D6B5C3A
:101D00004568DD4085603A4D6D6805F46051C90A4B
:101D10003E4D6B5C4568DD40C560354D6D6805F432
:101D20004041890B3A4D6B5CC568B5FBF3F5056125
:101D300030BD29B12E4A526902432D4B5A6104E04D
:101D40002B4A526982432A4B5A61704729B1284A6B
:101D500092690243264B9A6104E0254A92698243C4
:101D6000234B9A61704729B1214AD2690243204B23
:101D7000DA6104E01E4AD26982431D4BDA61704782
:101D800029B11B4AD2680243194BDA6004E0184AB1
:101D9000D2688243164BDA60704729B1144A12693F
:101DA0000243134B1A6104E0114A12698243104B3B
:101DB0001A61704712494039086070470F49C8647A
:101DC00070470B49C87170470948406A40F08070FD
:101DD00007494862704701460020054A92680A4058
:101DE0000AB1012000E00020704701498872704765
:101DF000001002400000FFF8FFFFF6FE0000424224
:101E00008004424200127A0000093D008800002050
:101E10009800002010B50446FB48844209D10121F6
:101E20008803FFF7ADFF00214FF48040FFF7A8FFC4
:101E300032E0F648844209D101214804FFF7ADFFA2
:101E400000214FF40030FFF7A8FF25E0F04884425E
:101E500009D101218804FFF7A0FF00214FF4802061
:101E6000FFF79BFF18E0EB48844209D10121C80429
:101E7000FFF793FF00214FF40020FFF78EFF0BE0E8
:101E8000E548844208D101210805FFF786FF0021BB
:101E90004FF48010FFF781FF10BD2DE9F04786B0A9
:101EA00005460E460024A24600BFA1460027B08981
:101EB00000B100BF2F462C8A4CF6FF700440F0881A
:101EC00004432C82AC894EF6F3100440B08831896B
:101ED0000843718908430443AC81AC8A4FF6FF4044
:101EE0000440B0890443AC8201A8FFF7C2FEC64893
:101EF000874202D1DDF810A001E0DDF80CA0A8892E
:101F000000F4004040B10AEBCA0000EB0A1031684F
:101F10004900B0FBF1F807E00AEBCA0000EB0A1039
:101F200031688900B0FBF1F86420B8FBF0F00401DF
:101F30002009642101FB1089A88900F4004040B108
:101F4000322000EBC900B0FBF1F000F007000443C1
:101F500008E0322000EB09106421B0FBF1F000F042
:101F60000F0004432C8106B0BDE8F0874FF41651F2
:101F7000016000218180C18001810C21418100210B
:101F80008181704710B502460020108A4FF2FF038E
:101F900018400B884C8823438C882343CC882343E8
:101FA0001843108210BD0021018041808180C180D2
:101FB000704721B1828942F40052828104E0828913
:101FC0004DF6FF731A4082817047F0B50346002436
:101FD00000260025002040F66A17B94200D100BF54
:101FE0001846C1F3421401F01F06012707FA06F54F
:101FF000012C01D10C3004E0022C01D1103000E0A2
:1020000014301AB107682F43076002E00768AF4336
:102010000760F0BD1AB1838A0B43838202E0838A92
:102020008B4383827047028A4FF6F0731A40028214
:10203000028A0A430282704782894FF2FF731A4074
:10204000828182890A438281704721B1828942F06C
:102050000202828104E082894FF6FD731A40828178
:102060007047028A4FF6DF731A400282028A0A43DF
:102070000282704721B1028A42F48042028204E067
:10208000028A4BF6FF731A4002827047C1F30802BE
:102090008280704701468888C0F3080070478189B4
:1020A00041F0010181817047028BD2B20283028B21
:1020B00042EA012202837047028B02F47F420283CC
:1020C000028B0A430283704721B1828A42F02002C8
:1020D000828204E0828A4FF6DF731A408282704760
:1020E00021B1828A42F01002828204E0828A4FF695
:1020F000EF731A408282704721B1828A42F008024F
:10210000828204E0828A4FF6F7731A408282704717
:1021100021B1828942F40042828103E08289C2F3C4
:102120000E028281704721B1828A42F4006282826B
:1021300004E0828A4FF2FF731A4082827047828ADB
:102140004FF6FB731A408282828A0A43828270476A
:1021500021B1828A42F00202828204E0828A4FF632
:10216000FD731A408282704702460020B1F5007F5D
:1021700000D100BF13880B400BB1012000E000200C
:10218000704701F40072B2F5007F00D100BFCA436E
:102190000280704770B5024600240023002500200D
:1021A00040F66A16B14200D100BFC1F3421501F0FA
:1021B0001F03012606FA03F3012D02D1968933404D
:1021C00006E0022D02D1168A334001E0968A3340A0
:1021D0000C12012606FA04F41688344013B10CB12F
:1021E000012000E0002070BD10B50022002340F661
:1021F0006A14A14200D100BF0A1201249440A3B284
:10220000DC43048010BD0000003801400044004061
:1022100000480040004C00400050004010B504460B
:10222000FE48844208D10121C014FFF7A9FD002116
:10223000E014FFF7A5FDC4E0B4F1804F08D10121FF
:102240000846FFF7AAFD00210120FFF7A6FDB8E030
:10225000F348844208D101210220FFF79EFD0021AE
:102260000220FFF79AFDACE0EE48844208D101213C
:102270000420FFF792FD00210420FFF78EFDA0E06F
:10228000E948844208D101210820FFF786FD00219A
:102290000820FFF782FD94E0E448844208D1012140
:1022A0001020FFF77AFD00211020FFF776FD88E06F
:1022B000DF48844208D101212020FFF76EFD002174
:1022C0002020FFF76AFD7CE0DA48844208D1012132
:1022D0004014FFF755FD00216014FFF751FD70E039
:1022E000D548844209D10121C804FFF749FD0021E6
:1022F0004FF40020FFF744FD63E0D048844209D149
:1023000001210805FFF73CFD00214FF48010FFF785
:1023100037FD56E0CA48844209D101214805FFF73C
:102320002FFD00214FF40010FFF72AFD49E0C548BA
:10233000844208D101214020FFF72FFD00214020D9
:10234000FFF72BFD3DE0C048844208D101218020E9
:10235000FFF723FD00218020FFF71FFD31E0BB4880
:10236000844208D101218015FFF717FD0021A01537
:10237000FFF713FD25E0B648844209D10121080486
:10238000FFF7FEFC00214FF48030FFF7F9FC18E066
:10239000B048844209D101214804FFF7F1FC002133
:1023A0004FF40030FFF7ECFC0BE0AB48844208D15F
:1023B00001218804FFF7E4FC00214FF48020FFF79F
:1023C000DFFC10BD00220288944B98420ED0994B3E
:1023D00098420BD0B0F1804F08D0914B984205D075
:1023E000904B984202D0904B984204D14FF68F7395
:1023F0001A404B881A438D4B984207D08C4B984219
:1024000004D04FF6FF431A40CB881A4302808B88D2
:1024100083850B880385814B98420BD0854B98426E
:1024200008D08B4B984205D08A4B984202D08A4BF9
:10243000984201D10B7A038601238382704770B5DD
:10244000002400220023058C4FF6FE7635400584DB
:10245000028C8388048B4FF68F752C40B51E2C4060
:102460000D882C43751E2A400D892A434D882A4326
:102470006A4DA8420BD06F4DA84208D0744DA842B7
:1024800005D0744DA84202D0734DA84213D14FF627
:10249000F7752A404D892A434FF6FB752A408D88EF
:1024A0002A434FF6FF652B404FF6FF552B408D8991
:1024B0002B43CD892B4383800483CD88858602847A
:1024C00070BD70B5002400220023058C4FF6EF7616
:1024D00035400584028C8388048B48F6FF752C40B8
:1024E0004FF6FF452C400D884FF6FF7606EA05258E
:1024F0002C434FF6DF752A400D8906EA05152A435D
:102500004D8806EA05152A43444DA84202D0494D9C
:10251000A8421DD14FF67F752A404D894FF6FF76B0
:1025200006EA05152A434FF6BF752A408D8806EA4C
:1025300005152A434FF6FF352B404FF2FF752B4010
:102540008D8906EA85052B43CD8906EA85052B434F
:1025500083800483CD880587028470BD70B5002414
:1025600000220023058C4FF6FF6635400584028C5F
:102570008388848B4FF68F752C404FF6FC752C406A
:102580000D882C434FF6FF552A400D894FF6FF76F4
:1025900006EA05252A434D8806EA05252A431F4DEC
:1025A000A84202D0234DA8421DD14FF2FF752A4008
:1025B0004D894FF6FF7606EA05252A434FF6FF358B
:1025C0002A408D8806EA05252A434EF6FF752B40E2
:1025D0004DF6FF752B408D8906EA05152B43CD89F5
:1025E00006EA05152B4383808483CD888587028482
:1025F00070BD70B5002200230024058C4EF6FF76D6
:1026000035400584038C8488828B48F6FF752A4008
:102610004FF6FF452A400D8820E00000002C0140C5
:102620000004004000080040000C00400010004082
:102630000014004000340140004C014000500140B3
:102640000054014000180040001C004000200040E1
:102650000040014000440140004801404FF6FF7631
:1026600006EA05252A434DF6FF752B400D8906EA3B
:1026700005352B434D8806EA05352B43FA4DA84214
:1026800002D0FA4DA84208D14BF6FF752C408D8937
:102690004FF6FF7606EA85152C4384808283CD8829
:1026A000A0F84050038470BD828B4FF2FF331A4074
:1026B0008283828B4FF6FF7303EA01231A438283DE
:1026C0007047F0B50C461546002200210026078C05
:1026D0004EF6FF7C07EA0C070784828B018C4FF6CD
:1026E000FF7707EA043640F6FF473A404FF6FF7798
:1026F00007EA05273A434FF6FF7707EA03373A43DD
:10270000D94FB8420ED0D94FB8420BD0B0F1804F5C
:1027100008D0D74FB84205D0D64FB84202D0D64FD6
:10272000B84206D14DF6FF77394046F48057394319
:1027300005E047F6FF57394044F480573943828318
:102740000184F0BD828B4FF6F3731A408283828B33
:102750000A4382837047F0B50C46154600220021DB
:102760000026078C4FF6FF6C07EA0C070784828B64
:10277000018C4FF6FF7707EA04264FF60C773A40B4
:102780004FF6FF7707EA03172F433A43B64FB84295
:102790000ED0B64FB8420BD0B0F1804F08D0B44F36
:1027A000B84205D0B34FB84202D0B34FB84206D1B9
:1027B0004FF6FF57394046F48077394305E04FF232
:1027C000FF57394044F48077394382830184F0BD58
:1027D000028B4FF2FF331A400283028B4FF6FF73D6
:1027E00003EA01231A4302837047F0B50C461546ED
:1027F000002200210026078C4FF6EF7C07EA0C0729
:102800000784028B018C4FF6FF7707EA041640F627
:10281000FF473A404FF6FF7707EA03373A434FF650
:10282000FF7707EA05273A438F4FB8420ED08F4F04
:10283000B8420BD0B0F1804F08D08D4FB84205D0D0
:102840008C4FB84202D08C4FB84206D14FF6DF779A
:10285000394046F01007394305E04FF65F773940BD
:1028600044F01007394302830184F0BD028B4FF618
:10287000F3731A400283028B0A4302837047F0B558
:102880000C46154600220021068C4FF6FE773E408E
:102890000684028B018C4FF60C7632407E1C06EAD1
:1028A00003162E433243704EB0420ED06F4EB042EC
:1028B0000BD0B0F1804F08D06D4EB04205D06D4EB8
:1028C000B04202D06C4EB04206D14FF6FD76314098
:1028D00044F00106314305E04FF6F576314044F00F
:1028E0000106314302830184F0BD70B505460C46F4
:1028F0005D4885420ED05D4885420BD0B5F1804FD2
:1029000008D05B48854205D05A48854202D05A48D3
:10291000854200D100E000BF208850B92389A288F9
:1029200061882846FFF7ABFFE1882846FFF79EFF46
:1029300025E0208804280AD12389A28861882846B6
:10294000FFF753FFE1882846FFF742FF17E0208892
:1029500008280AD12389A28861882846FFF7FBFE50
:10296000E1882846FFF7EEFE09E02389A288618806
:102970002846FFF7A6FEE1882846FFF795FE70BDC2
:102980002DE9F04105460C4600260127608808B96C
:10299000022600E00026A088012801D1022700E0DD
:1029A00001272088A0B92389A28861882846FFF7DB
:1029B00066FFE1882846FFF759FF23893A463146EA
:1029C0002846FFF712FFE1882846FFF701FF13E0D2
:1029D0002389A28861882846FFF707FFE1882846F7
:1029E000FFF7F6FE23893A4631462846FFF747FFB0
:1029F000E1882846FFF73AFFBDE8F0810A884B8856
:102A00001A438B881A43CB881A430B891A434B8984
:102A10001A438B891A43A0F8442070474FF6FF7180
:102A2000818000210180C1804180017270470021B6
:102A3000018041808180C180018141818181C1818A
:102A40007047002101804180012181800021C180E7
:102A5000018170470021018041808180C180018116
:102A60004181818170470000002C01400034014009
:102A70000004004000080040000C004021B1028822
:102A800042F00102028004E002884FF6FE731A4011
:102A90000280704731B1B0F8442042F40042A0F8FF
:102AA000442005E0B0F84420C2F30E02A0F8442010
:102AB00070471AB183890B43838102E083898B437A
:102AC000838170478182704741EA0203A0F8483051
:102AD00070471AB183890B43838102E083898B435A
:102AE0008381704701894FF6F87211400181704768
:102AF0000A46002101894FF68F7319401143018165
:102B0000704730B504460D4629462046FFF7F0FFD2
:102B1000208940F00700208130BD2DE9F0410446B6
:102B20000D4616461F46602D06D13B460122314612
:102B30002046FFF75AFE05E03B460122314620467B
:102B4000FFF79DFE29462046FFF7D2FF208940F07F
:102B500007002081BDE8F08130B50C4600210189D5
:102B6000C9B24FF6FF7505EA0325154325432943EE
:102B7000018130BD2DE9F04105460E4617469846C5
:102B8000002443463A4631462846FFF7E5FF2C89A4
:102B90004FF6F870044044F007044FF68F7004407D
:102BA00044F070042C81BDE8F081F0B504460D4678
:102BB00016461F463B46324629462046FFF7CCFFC5
:102BC000208940F480402081F0BD018582827047D9
:102BD0000A46002101884FF68F7319401143018086
:102BE0007047F0B50C4615461E4600210022002312
:102BF0000189028B038C4FF6F877394021434FF659
:102C0000FC473A4040F201173A434FF6DD773B402C
:102C10004FF6FF7707EA06172F433B4301810283F4
:102C20000384F0BD0A460021018B4FF68F731940D3
:102C30001143018370470A460021018B48F6FF7358
:102C400019404FF6FF7303EA0223194301837047CB
:102C50000A460021818B4FF68F73194011438183FF
:102C600070470A460021818B48F6FF7319404FF6E2
:102C7000FF7303EA022319438183704721B102885D
:102C800042F08002028004E002884FF67F731A400F
:102C90000280704721B1828842F00402828004E001
:102CA00082884FF6FB731A408280704721B1828878
:102CB00042F00802828004E082884FF6F7731A40DF
:102CC0008280704721B1828842F00102828004E054
:102CD00082884FF6FE731A40828070470A460021B0
:102CE000018B4FF6F77319401143018370470A4671
:102CF0000021018B4FF2FF7319404FF6FF7303EA77
:102D000002231943018370470A460021818B4FF645
:102D1000F77319401143818370470A460021818B64
:102D20004FF2FF7319404FF6FF7303EA0223194372
:102D3000818370470A460021018B4FF6FB731940CF
:102D40001143018370470A460021018B4FF6FF3380
:102D500019404FF6FF7303EA0223194301837047BA
:102D60000A460021818B4FF6FB7319401143818382
:102D700070470A460021818B4FF6FF3319404FF60A
:102D8000FF7303EA02231943818370470A46002137
:102D9000018B4FF67F7319401143018370470A4638
:102DA0000021018BC1F30E014FF6FF7303EA0223EA
:102DB0001943018370470A460021818B4FF67F73C8
:102DC00019401143818370470A460021818BC1F36A
:102DD0000E014FF6FF7303EA022319438183704704
:102DE0000A460021018C4FF6FD73194011430184FE
:102DF00070470A460021018C4FF6F77319401143C2
:102E0000018470470A460021018C4FF6DF73194098
:102E10004FF6FF7303EA02131943018470470A4611
:102E20000021018C4FF67F7319404FF6FF7303EAC0
:102E300002131943018470470A460021018C4FF6A2
:102E4000FF5319404FF6FF7303EA0223194301842D
:102E500070470A460021018C4FF2FF7319404FF66C
:102E6000FF7303EA02231943018470470A460021D5
:102E7000018C4DF6FF7319404FF6FF7303EA0233DE
:102E800019430184704730B5002301248C40A3B25C
:102E9000048C9C430484048C02FA01F5ADB22C43EB
:102EA000048430BD30B5002304248C40A3B2048CCC
:102EB0009C430484048C02FA01F5ADB22C430484D3
:102EC00030BD70B503460020002418461830012597
:102ED0008D40ACB21D8CA5431D8409B1082909D1D0
:102EE00000EB6100056825F0700505600568154375
:102EF00005600EE00D1FC5F34E052844056825F456
:102F0000E045056005684FF6FF7606EA0226354380
:102F1000056070BD21B1028842F00202028004E027
:102F200002884FF6FD731A400280704721B1028873
:102F300042F00402028004E002884FF6FB731A405C
:102F40000280704721B1828842F08002828004E0D2
:102F500082884FF67F731A408280704702884FF64E
:102F6000F7731A40028002880A4302807047828801
:102F70004FF68F731A40828082880A43828070479E
:102F800002894FF6F8731A40028102890A430281CE
:102F9000704702894FF67F731A40028102890A4303
:102FA00002817047818470478185704781867047B0
:102FB0000187704781877047A0F8401070470288EA
:102FC0004FF6FF431A40028002880A43028070478E
:102FD0000146888E70470146088F70470146888FEA
:102FE00070470146B1F8400070470146888C704731
:102FF0000146088D704702460020138A0B400BB132
:10300000012000E000207047CA430282704730B5BB
:103010000246002000230024158A05EA0103958951
:1030200005EA010413B10CB1012000E0002030BD1D
:10303000CA430282704700002DE9F04104460D4664
:1030400016461F464FF0000865602461B5420CD853
:10305000F01BA169884202D34FF0010811E0211D45
:10306000F748006802F0BAFD0BE0BE4204D2BD4250
:1030700002D34FF0010804E0211DF248006802F07D
:10308000ADFD4046BDE8F0812DE9FF4704460D4601
:1030900016461F46DDF830804FF000092CB94FF47A
:1030A000D372E9A1EEA005F04DFEF148006810B31F
:1030B000009501960294062D15DA01F07EFB022898
:1030C00008D1002342466946E948006802F03AF810
:1030D000814610E000231A466946E548006802F080
:1030E00031F8814607E000233A466946E048006827
:1030F00002F092FA8146484604B0BDE8F0872DE917
:10310000F8432DE0CF480068C0680568CD480068E6
:10311000C068C468201D02F07BFD2046616A8847B4
:10312000E06901281CD1A0694619AE4207D9666042
:103130002461211DC348006802F050FD10E000200A
:1031400003462A46014600902046FFF79DFF0746AA
:103150002FB940F29232BCA1C1A005F0F3FD00BF2F
:10316000B8480068006808B9012000E00020002885
:10317000C8D0B448D0F80080B1480068B1490860B0
:10318000AF48C0F80080BDE8F88370B5044601F090
:10319000AAF80546B7480068854204D2FFF7AFFF9A
:1031A0000120206001E000202060B2480560284630
:1031B00070BDF0B587B070E0039800280CDA04AE5B
:1031C0002EB940F2E722A0A1A5A005F0BBFDD6E9EB
:1031D0000020B168904700BF039800285DDB059C84
:1031E000606908B9012000E0002010B9201D02F03C
:1031F0000FFD02A8FFF7C9FF054603980A284AD227
:10320000DFE800F00905072C2E4506082D2F00BF2A
:1032100000BF00BF00BF0498A269811803462A4678
:103220002046FFF709FFC0B12046616A8847E06980
:10323000012812D1002000900498A16942180023AF
:1032400019462046FFF720FF07462FB940F22132EA
:103250007DA183A005F076FD00BF1DE000BF1BE04F
:1032600000BF0498A061A06908B1012000E000201F
:1032700028B94FF44E7274A179A005F063FDA069DE
:1032800041192B462A462046FFF7D6FE04E0204689
:1032900002F0E0FF00E000BF00BF00231A4603A9D0
:1032A0007348006802F094F8002885D107B0F0BD9B
:1032B000F8B505460F4663480068C068C468201D1D
:1032C00002F0A6FCE069012818D1A06941192B463B
:1032D0003A462046FFF7B0FE80B1002003462A465A
:1032E000014600902046FFF7CFFE06462EB94FF468
:1032F000027255A15AA005F025FD00BF2046616A63
:103300008847F8BDF8B505460C4600F098FC6846BD
:10331000FFF73BFF0646009820BB44B9B54206D8EC
:1033200000F0E2FB31462846FFF7C2FF1CE03CB14B
:1033300043480068006808B9012000E00020044606
:10334000A91B22464A48006802F0B7FB00F0CCFBFC
:1033500050B94FF0805048490860BFF34F8FBFF31A
:103360006F8F01E000F0C0FBF8BD0146354A1268DE
:1033700012680AB9012200E000220A600A6822B934
:10338000304A1268D268106800E00020704708B523
:1033900000BF6846FFF7E9FF044620460099FFF7A3
:1033A000B1FFFFF706FFF4E710B503F04AF8304825
:1033B0000068D0B9314802F0F5FB314802F0F2FB69
:1033C0002E48204908602E481D490860002210211F
:1033D000052001F0BCFD264908600846006820B1C0
:1033E00028A12348006802F042FB03F04DF810BD0D
:1033F0001CB50024FFF7D8FF1D48006858B12348CA
:103400001F2100234FF48272CDE9001020A1224831
:1034100000F0F8F904462CB940F233120AA110A0CA
:1034200005F090FC20461CBD2DE9F04706460D46F0
:1034300017469846DDE908940DB101202FE02DE0F4
:10344000A00000209C0000202E2E5C467265655274
:10345000544F535C74696D6572732E6300000000F5
:103460004572726F723A25732C25640D0A000000B4
:10347000A4000020AC00002004ED00E07C0300204C
:1034800090030020546D725100000000A80000203D
:10349000546D7220537663008F330008002038B9D2
:1034A0004FF4C672AFF26001AFF24C0005F04AFC77
:1034B0005CB1FFF779FF2660A561E761C4F8208061
:1034C000C4F82490201D02F07AFBBDE8F0872DE9B6
:1034D000FC4705460E4617469846DDF828902C20F6
:1034E00002F035FE04463CB143463A463146284692
:1034F000CDE90094FFF798FF2046BDE8FC8710B5A2
:103500005B48006808B1012000E0002038B94FF4A2
:10351000E872AFF2CC01AFF2B80005F013FC5448EA
:10352000006810BD70B5044625463CB940F2D9127A
:10353000AFF2EC01AFF2D80005F004FCA86970BD51
:1035400070B5044625463CB940F2E312AFF20811CB
:10355000AFF2F40005F0F6FB6E68304670BD70B552
:10356000044625463CB940F2ED12AFF22411AFF209
:10357000101005F0E7FB286870BD70B504462646BC
:103580003CB940F2DA32AFF24011AFF22C1005F044
:10359000D9FB02F056FF706908B9012000E0002055
:1035A00080F0010502F070FF284670BD70B504463A
:1035B00026463CB940F2EF32AFF27411AFF2601020
:1035C00005F0C0FB02F03DFF356A02F05DFF2846C2
:1035D00070BD70B504460D4626463CB940F2FF3238
:1035E000AFF29C11AFF2881005F0ACFB02F029FF9E
:1035F000356202F049FF70BD2DE9FF4104460D46DA
:1036000016461F466FF00100009001940295039644
:1036100000233A4669461748006801F0FDFF8046DE
:10362000404604B0BDE8F0812DE9FF4104460D4657
:1036300016461F460F48006838B940F22B42AFF2D9
:10364000F811AFF2E41005F07DFB4FF0FF30009071
:1036500001940295039600233A466946054800689E
:1036600001F070FD8046404604B0BDE8F0810000E6
:10367000A8000020A400002010B5002407E004EBFF
:103680008401FB4A02EB810002F08CFA641C202CBE
:10369000F5D3F84802F086FAF74802F083FAF748C3
:1036A00002F080FAF64802F07DFAF64802F07AFA63
:1036B000F048F5490860F048F449086010BD10B5BD
:1036C000044602F0BEFEF2480068401CF049086063
:1036D000F048006840B9EF480460084600680128D7
:1036E0000DD1FFF7C9FF0AE0EB48006838B9E94897
:1036F0000068C06AE16A884201D8E6480460E74889
:103700000068401CE549086008460068606494F859
:103710002C1001208840E24909680843E04908600C
:10372000E16A01EB8101D24A02EB8100211D02F026
:1037300049FA02F0A9FED848006868B1D548006887
:10374000C06AE16A884207D24FF08050D5490860CC
:10375000BFF34F8FBFF36F8F10BD2DE9F05F82462F
:103760000F4690469B460A9E0C9C4FEA8801A52274
:10377000206B04F029FFA8F10100216B01EB800907
:1037800029F0070909F0070008B9012000E000202E
:1037900028B940F22B32C4A1C8A005F0D3FA002505
:1037A00007E0795D04F134004155785D00B902E02D
:1037B0006D1C102DF5D300BF002143200155202E94
:1037C00000D31F26E662E66400202065201D02F07B
:1037D000F6F904F1180002F0F2F92461C6F12000B4
:1037E000A06164620020606584F858005A46514622
:1037F000484602F0B3FD20600B9808B10B980460B6
:10380000BDE8F09F2DE9FF4F85B0804689461746F9
:10381000DDE912ABB80002F09AFC064656B15C2016
:1038200002F095FC04460CB1266304E0304602F039
:1038300011FD00E000247CB10020CDE900ABCDE912
:1038400002403A4649464046089BFFF786FF20461D
:10385000FFF735FF012501E04FF0FF35284609B09D
:10386000BDE8F08F88490968096809B9012100E0BD
:10387000002121B14FF0FF31944A116006E08249E6
:103880000968C968C868914A41681160704710B5F5
:103890000446206B02F0DEFC204602F0DBFC10BD8B
:1038A00070B5054602F0CDFD15B97A48006800E014
:1038B00028460446201D02F0ABF978B9E06A00EB17
:1038C00080006B4951F8200040B994F82C10012079
:1038D000884073490968814371480160A06A18B142
:1038E00004F1180002F094F96C480068401C6B4920
:1038F000086068480068844209D1211D604802F0D0
:1039000061F973480068401C7149086009E060482B
:103910000068401E5E4908602046FFF7B8FFFFF7C9
:10392000A1FF02F0B1FD5C480068C0B159480068D1
:10393000844214D16748006808B9012000E00020E3
:1039400028B940F2654258A15CA005F0FBF94FF0A0
:10395000805054490860BFF34F8FBFF36F8F70BD25
:103960002DE9F0414FF000085A480068002872D154
:1039700059480068451C58480560EDB94248006840
:10398000006808B9012000E0002028B940F6D912EB
:1039900045A14AA005F0D6F93B4807683B480068B6
:1039A00039490860394807604C480068401C4B4959
:1039B0000860FFF757FF00BF4448006885423CD3CA
:1039C00000BF31480068006808B9012000E000200D
:1039D00020B14FF0FF303D4908602DE02A480068D3
:1039E000C068C4686668B54202D23848066023E001
:1039F000201D02F00DF9A06A18B104F1180002F0C0
:103A000007F994F82C1001208840254909680843DB
:103A100023490860E16A01EB8101154A02EB81004C
:103A2000211D02F0CFF81B49E06A0968C96A884283
:103A3000C7D34FF00108C4E700BF16480068C06A4A
:103A400000EB80000A4951F82000012801D94FF00D
:103A5000010805E0FFE722480068401C2049086093
:103A60002048006808B14FF001084046BDE8F081E9
:103A7000A403002024060020380600204C06002065
:103A80006006002074060020B4000020B80000206A
:103A9000C0000020B0000020CC000020DC0000208E
:103AA000C800002004ED00E02E2E5C4672656552D1
:103AB000544F535C7461736B732E63004572726F65
:103AC000723A25732C25640D0A000000E0000020E6
:103AD000BC000020E8000020C4000020D800002026
:103AE000D0000020D400002070B500240026FE483D
:103AF000006838B94FF4FD62AFF25401AFF24400F0
:103B000005F020F902F09DFCF7480068401EF649D8
:103B100008600846006800284FD1F4480068002873
:103B20004BD024E0F248C068C46804F1180002F0E9
:103B30006FF8201D02F06CF894F82C1001208840DA
:103B4000EC4909680843EB490860E16A01EB81012F
:103B5000E94A02EB8100211D02F034F8E749E06AEE
:103B60000968C96A884202D30120E5490860E04833
:103B7000006808B9012000E000200028D2D00CB174
:103B8000FFF770FEDF48056865B100BFFFF7E8FE8C
:103B900010B10120DA4908606D1E002DF6D1002019
:103BA000D8490860D648006838B101263007D649A0
:103BB0000860BFF34F8FBFF36F8F02F065FC304694
:103BC00070BD2DE9F04105460E46D0480768CB4848
:103BD0000068001D02F01CF850B9C848006890F851
:103BE0002C1001208840C34909688143C148016005
:103BF000681C38B936B1C1480168091DC44801F0D4
:103C0000E1FF1AE07C19BD4800684460BC4207D25D
:103C1000BA480168091DBF48006801F0DFFF0CE0E9
:103C2000B6480168091DBC48006801F0D7FFBB48D1
:103C30000068844201D2B9480460BDE8F081AA4816
:103C40000068401CA849086070472DE9F047044609
:103C50000F464FF000093CB940F27942AFF2B8117B
:103C6000AFF2A81005F06EF80FB1012000E00020BF
:103C700038B940F27A42AFF2D011AFF2C01005F07D
:103C800061F89948006808B9012000E0002038B9BF
:103C900040F27B42AFF2F011AFF2E01005F052F8C3
:103CA000FFF7CDFF994806682068C5192068B04223
:103CB00007D92068A8420BD9B54209D94FF00109AC
:103CC00006E02068A84201D8B54201D94FF00109A9
:103CD0002560B9F1000F03D0A81B0021FFF771FF89
:103CE000FFF702FF8046B8F1000F07D14FF0805078
:103CF00085490860BFF34F8FBFF36F8FBDE8F08732
:103D000070B504460025BCB17748006808B90120A9
:103D100000E0002038B940F2CF42AFF27421AFF298
:103D2000642005F00FF8FFF78AFF00212046FFF717
:103D300048FFFFF7D9FE05463DB94FF08050724964
:103D40000860BFF34F8FBFF36F8F70BD2DE9F04157
:103D500007463E463EB940F2FB42AFF2B421AFF215
:103D6000A42004F0EFFF65480068864201D10024DA
:103D70001EE002F066FB756902F086FB664800688B
:103D8000854203D063480068854201D102240FE0D8
:103D90005F48854205D1B06A08B9032408E00224CF
:103DA00006E05F48854200D00DB9042400E00124FC
:103DB0002046BDE8F08170B5044602F042FB14B91C
:103DC0004E48006800E020460646F56A02F05CFBBB
:103DD000284670BD2DE9F041054602F085FB00BF85
:103DE0005021EFF3118081F31188BFF34F8FBFF3A0
:103DF0006F8F00BF044615B94048006800E02846B0
:103E00000746FE6A00BF84F3118800BF3046BDE854
:103E1000F0812DE9F04780460D464FF00009202D36
:103E200001D2012000E0002038B94FF4B062AFF2B7
:103E30008831AFF2783004F085FF202D00D31F25A4
:103E400002F0FFFAB8F1000F02D12C48006800E040
:103E500040460446E66CAE4277D0B5420BD92748BF
:103E6000006884420DD025480068C06AA84208D87E
:103E70004FF0010905E021480068844201D14FF06C
:103E80000109E76AE16AE06C884200D1E562E56415
:103E9000A06900F0004010B9C5F12000A06107EB57
:103EA0008701154A02EB81016069884201D1012036
:103EB00000E00020B0B3201D01F0AAFE30B90120BF
:103EC000B8400C49096881430A48016094F82C10F5
:103ED0000120884007490968084306490860E16AEB
:103EE00001EB8101044A1FE0E8000020C00000202F
:103EF0004C060020C8000020A4030020B0000020D1
:103F0000D4000020D000002004ED00E0C400002018
:103F100074060020B8000020B4000020E00000205B
:103F20006006002005E010E002EB8100211D01F099
:103F300049FEB9F1000F07D04FF08050FB490860EF
:103F4000BFF34F8FBFF36F8F00BF02F09DFABDE844
:103F5000F08710B5F648006818B10120F5490860EF
:103F60002FE00020F3490860F3480068B0FA80F0C1
:103F7000C0F11F0404EB8400F04951F8200008B19F
:103F8000012000E0002038B940F6F622AFF2E84107
:103F9000AFF2D84004F0D6FE04EB8401E74A02EB0E
:103FA000810041684968416000F1080142688A4225
:103FB00002D14168496841604168C968E04A1160BE
:103FC00000BF10BD70B5054602F03BFA15B9DC48DC
:103FD000006800E028460446201D01F019FE78B96B
:103FE000E06A00EB8000D54951F8200040B994F810
:103FF0002C1001208840D04909688143CE480160D7
:10400000A06A18B104F1180001F002FE211DCD488C
:1040100001F0D8FD02F038FACB48006828B102F070
:1040200010FAFFF71FFC02F02FFAC548006884421F
:1040300026D1C5480068B8B1BD48006808B901205C
:1040400000E0002038B940F25762AFF2A451AFF25D
:10405000945004F077FE4FF08050B4490860BFF3ED
:104060004F8FBFF36F8F0BE0B6480068B749096800
:10407000884203D10020B249086001E0FFF769FFE0
:1040800070BD70B5054600262C463DB940F28162F0
:10409000AFF2EC51AFF2DC5004F054FEA949606974
:1040A000884201D1012000E0002070B1A849A06A37
:1040B000884201D1012000E0002030B9A06A08B98F
:1040C000012000E0002000B10126304670BD70B52F
:1040D00005462C463DB940F2AB62AFF23461AFF217
:1040E000246004F02FFE74B39548006884422AD0FF
:1040F00002F0A7F92046FFF7C4FF10B3201D01F01E
:1041000087FD94F82C10012088408B4909680843EA
:1041100089490860E16A01EB8101884A02EB81006C
:10412000211D01F04FFD8649E06A0968C96A88428D
:1041300007D34FF080507D490860BFF34F8FBFF326
:104140006F8F02F0A1F970BD2DE9F04106460027FE
:1041500034463EB940F2E262AFF2B461AFF2A4601D
:1041600004F0F0FD02F0C0F900BF5021EFF3118020
:1041700081F31188BFF34F8FBFF36F8F00BF0546E8
:104180002046FFF77EFF20B369480068E0B96C491C
:10419000E06A0968C96A884200D30127201D01F03E
:1041A00037FD94F82C1001208840634909680843C2
:1041B00061490860E16A01EB8101604A02EB81001C
:1041C000211D01F0FFFC04E004F11801604801F03A
:1041D000F9FC00BF85F3118800BF3846BDE8F081C7
:1041E00070B523E0FFF72BFD5A48006808B901209D
:1041F00000E000200546FFF777FCBDB902F021F989
:104200005448C068C468201D01F002FD4F48006892
:10421000401E4E49086050480068401E4E490860E4
:1042200002F032F92046FFF732FB00BF4A4800682F
:104230000028D7D170BD00BFFFF7D2FF3F4800680C
:104240000128F9D94FF0805038490860BFF34F8FEB
:10425000BFF36F8FF0E71CB5404800210B46822268
:10426000CDE900103EA14048FFF7CCFA0446012CEE
:1042700002D1FFF7BDF80446012C15D100BF502034
:1042800080F31188BFF34F8FBFF36F8F00BF4FF0E4
:10429000FF303649086001202B490860002034496E
:1042A000086002F077F80DE0601C08B1012000E022
:1042B000002038B940F28472AFF61401AFF6040062
:1042C00004F040FD1CBD10B500BF502080F31188E4
:1042D000BFF34F8FBFF36F8F00BF00201A490860F4
:1042E00002F09EF810BD22490868704770B502F0D0
:1042F000FBF800251E480468204670BD134800687E
:10430000704770B5044614B90D48006800E02046B7
:1043100005463DB940F68C02AFF67401AFF6640075
:1043200004F010FD05F1340070BD000004ED00E064
:10433000E8000020D4000020C8000020A4030020D2
:10434000B000002074060020CC000020C000002037
:104350004C06002060060020BC000020E400002085
:1043600049444C450000000037420008E0000020AE
:10437000C40000200246002101E0521C491C1078B4
:10438000A528FAD0890888B270472DE9F041074680
:104390000C4690461E4617B9F748006800E03846BC
:1043A0000546256005F134006060E86A2061286BED
:1043B000E061686CA060207B032807D1FFF73FFC19
:1043C000A86A08B102202073FFF78EFBE86C6061D9
:1043D0000020A061052E01D0267303E03846FFF7C8
:1043E000B5FC2073B8F1000F04D0286BFFF7C2FFB3
:1043F000208401E000202084BDE8F0812DE9F04711
:1044000007460C4690460026206848B3204641687F
:104410004968416000F1080142688A4202D141685E
:10442000496841604168D1F80C9000BF204641685E
:104430004968416000F1080142688A4202D141683E
:10444000496841604168CD6806EBC60007EB800112
:10445000434601222846FFF798FF761C4D45E5D1DB
:104460003046BDE8F0872DE9F041054688461646FE
:1044700000242027FFF7E3FBC0480068804539D3BC
:1044800000BF7F1E07EB8702BD4B03EB820104EBED
:10449000C40205EB82000122FFF7B0FF0444002FA5
:1044A000EFD104EBC40105EB81000222B549096894
:1044B000FFF7A4FF044404EBC40105EB81000222D2
:1044C000B1490968FFF79AFF044404EBC40105EB06
:1044D00081000422AD49FFF791FF044404EBC401BD
:1044E00005EB81000322AA49FFF788FF04440EB1BF
:1044F00000203060FFF7F8FA2046BDE8F08170B583
:1045000004460D463CB940F60632AFF66421AFF6DC
:10451000542004F017FC984801681831204601F037
:104520005DFB01212846FFF74CFB70BD70B50446CA
:104530000D4616463CB940F61732AFF69421AFF659
:10454000842004F0FFFB9348006808B1012000E0DC
:10455000002038B940F61B32AFF6B421AFF6A420E4
:1045600004F0F0FB45F00040834909688861824807
:1045700001681831204601F025FB01213046FFF784
:1045800020FB70BD70B505460E4614463DB940F699
:104590003132AFF6EC21AFF6DC2004F0D3FB7648E5
:1045A00001681831284601F00DFB0CB14FF0FF36C1
:1045B00021463046FFF705FB70BD70B50646F06832
:1045C000C4683CB940F66132AFF62431AFF614301E
:1045D00004F0B8FB04F1180001F01AFB6D48006804
:1045E000A8B9201D01F014FB94F82C10012088407C
:1045F00069490968084368490860E16A01EB81017B
:104600005F4A02EB8100211D01F0DCFA04E004F1B5
:104610001801624801F0D6FA5749E06A0968C96A88
:10462000884204D9012501205D49086000E0002589
:10463000284670BD2DE9F04105460F4655480068F3
:1046400008B1012000E0002038B940F69932AFF6F9
:10465000A831AFF6983004F075FB47F000402860B1
:10466000EC683CB940F6A132AFF6C431AFF6B430D5
:1046700004F068FB284601F0CBFA201D01F0C8FACF
:1046800094F82C10012088404349096808434249A6
:104690000860E16A01EB8101394A02EB8100211DCA
:1046A00001F090FA3449E06A0968C96A884204D97D
:1046B000012601203A49086000E000263046BDE8A6
:1046C000F08110B504463CB940F6C132AFF628413E
:1046D000AFF6184004F036FB3248006820603248DC
:1046E0000068606010BD2DE9F04104460D463CB9FC
:1046F00040F6CB32AFF65041AFF6404004F022FB1B
:104700003DB940F6CC32AFF66041AFF6504004F010
:1047100019FB01F096FE244807682868401C08B978
:10472000002619E01F4920680968884204D06068A3
:10473000B84201D801260FE06068381A296888421B
:1047400009D228686168791A401A28602046FFF764
:10475000B8FF002600E0012601F096FE3046BDE8D5
:10476000F08101200E4908607047014611B10A46E8
:10477000906C00E000207047B0000020C0000020D6
:10478000A4030020B4000020B80000206006002030
:1047900074060020E8000020C80000204C0600201D
:1047A000D4000020D8000020C400002008B1024638
:1047B00091647047FB4908687047FB49096809B96B
:1047C000012005E0F949096809B9022000E000204C
:1047D000704770B505462C46002D4BD0F149E06A74
:1047E0000968C96A884245D2A06900F0004028B92A
:1047F000EC480068C06AC0F12000A061E16A01EBEA
:104800008101EB4A02EB81016069884201D10120FC
:1048100000E0002050B3201D01F0FAF978B9E06AF9
:1048200000EB8000E24951F8200040B994F82C10C8
:1048300001208840DF4909688143DE480160D9488A
:104840000068C06AE06294F82C1001208840D949C1
:1048500009680843D7490860E16A01EB8101D44A3D
:1048600002EB8100211D01F0ADF903E0CD480068A5
:10487000C06AE06270BD70B505462C460026002D6A
:104880004FD0C8480068844201D1012000E00020D8
:1048900038B940F6C762AFF6F051AFF6E05004F019
:1048A00051FA206D38B940F6C962AFF60461AFF62F
:1048B000F45004F047FA206D401E2065E16CE06A78
:1048C00088422ED0206D60BB201D01F0A1F978B97F
:1048D000E06A00EB8000B64951F8200040B994F836
:1048E0002C1001208840B34909688143B148016018
:1048F000E06CE062E06AC0F12000A06194F82C1046
:1049000001208840AB4909680843AA490860E16A68
:1049100001EB8101A64A02EB8100211D01F052F951
:104920000126304670BD70B505460E463146284614
:1049300003F07FFE284603F075FE044602E02020C7
:104940002855641C0F2CFAD300202855281970BD57
:104950007FB5054600202870974800680390964967
:10496000096801EBC101880001F0F1FB0446002C4D
:1049700053D0002220460399FFF775FD03900020D5
:10498000029043E0029800EBC00004EB8000007B43
:10499000012806D0022806D0032806D0042808D112
:1049A00005E0522607E0422605E0532603E04426B0
:1049B00001E0002600BF00BF029800EBC00004EB3E
:1049C000800041682846FFF7AEFF0546029800EBDD
:1049D000C00004EB80008068029901EBC10104EB88
:1049E0008101098CCDE90010029800EBC00004EBB6
:1049F0008000324671A10369284604F0B3F92846C5
:104A000003F010FE05440298401C0290DDE902010B
:104A10008842B7D3204601F01DFC7FBD614909687B
:104A2000886960490968C96AC1F120015D4A126854
:104A3000916170475B48006830B15A49096801F1DB
:104A40005000096D491C016056480068704770B5F8
:104A500006460D4601F0F5FC52480068406D88B9E5
:104A600001205049096881F858005DB101212846AC
:104A7000FFF7A7F84FF0805054490860BFF34F8FFD
:104A8000BFF36F8F01F000FD01F0DBFC45480068CB
:104A9000446D4CB126B1002042490968486503E0E5
:104AA000601E40490968486500203E49096881F850
:104AB000580001F0E9FC204670BD2DE9F0410746A1
:104AC000884614461D4601F0BCFC3648006890F844
:104AD0005800022818D03349096801F15400496D83
:104AE000B943016001202F49096881F858005DB180
:104AF00001212846FFF765F84FF0805033490860E0
:104B0000BFF34F8FBFF36F8F01F0BEFC01F099FC34
:104B10001CB124480068406D20602248006890F86D
:104B20005800012801D1002608E01E49096801F15A
:104B30005400496D21EA080101600126002019494D
:104B4000096881F8580001F09FFC3046BDE8F0810B
:104B50002DE9F04706460D46174698464FF0010AE4
:104B600036B941F2FD021A4901F1140004F0EAF8E5
:104B7000344601F066FCB8F1000F02D0606DC8F851
:104B8000000094F85890022084F85800052F30D285
:104B9000DFE807F02E0320242600606D28436065BF
:104BA00027E00000B0000020CC000020E80000203A
:104BB000A4030020C8000020C000002009256309CC
:104BC00025750925750925750D0A000004ED00E01D
:104BD000A83A0008606D401C60650AE0656508E061
:104BE000B9F1020F01D0656501E04FF0000A00E065
:104BF00000BF00BFB9F1010F2FD1201D01F008F84F
:104C000094F82C10012088409B49096808439A4970
:104C10000860E16A01EB8101984A02EB8100211DE5
:104C200000F0D0FFA06A08B9012000E0002030B9F0
:104C300041F23512924901F1140004F083F89149D0
:104C4000E06A0968C96A884207D94FF080508E49E6
:104C50000860BFF34F8FBFF36F8F01F015FC504614
:104C6000BDE8F0872DE9F84F07460E469046994675
:104C7000DDF828B00120009037B941F26812804970
:104C800001F1140004F05EF801F02EFC3C4600BF78
:104C90005021EFF3118081F31188BFF34F8FBFF3E1
:104CA0006F8F00BF0546B9F1000F02D0606DC9F8E3
:104CB000000094F858A0022084F85800B8F1050FBD
:104CC00017D2DFE808F01503070B0D00606D3043C5
:104CD00060650EE0606D401C60650AE0666508E096
:104CE000BAF1020F01D0666501E00020009000E0FB
:104CF00000BF00BFBAF1010F3AD1A06A08B9012084
:104D000000E0002030B941F2AF125D4901F114001A
:104D100004F018F85D480068A8B9201D00F078FF7D
:104D200094F82C10012088405349096808435249DF
:104D30000860E16A01EB8101504A02EB8100211D0C
:104D400000F040FF04E004F11801514800F03AFF80
:104D50004C49E06A0968C96A884209D9BBF1000F69
:104D600003D00120CBF8000002E00120494908608F
:104D700000BF85F3118800BF0098BDE8F88F2DE9CA
:104D8000F04105460F4635B941F2E3123C4901F1C5
:104D9000140003F0D7FF01F0A7FB2C4600BF502101
:104DA000EFF3118081F31188BFF34F8FBFF36F8F43
:104DB00000BF064694F85880022084F85800606DC1
:104DC000401C6065B8F1010F37D1A06A08B9012015
:104DD00000E0002030B941F20922294901F1140014
:104DE00003F0B0FF29480068A8B9201D00F010FFAB
:104DF00094F82C10012088401F49096808431E4977
:104E00000860E16A01EB81011C4A02EB8100211D6F
:104E100000F0D8FE04E004F118011D4800F0D2FEB5
:104E20001849E06A0968C96A884206D917B10120A1
:104E3000386002E001201749086000BF86F311883E
:104E400000BFBDE8F08170B5054615B90D48006892
:104E500000E02846064601F0F4FA96F858000228C9
:104E600004D1002086F85800012400E0002401F05D
:104E70000BFB204670BD0000C8000020A4030020EA
:104E8000A83A0008B000002004ED00E0E80000208F
:104E90004C060020D400002070B505460E462C4676
:104EA0002CB940F21B12FAA1FEA003F04BFF01F057
:104EB000C8FAD4E90F12206801FB020060600020EC
:104EC000A0632068A060E06B401E226C216800FB9C
:104ED0000210E060FF2084F8440084F845009EB989
:104EE000206908B9012000E00020A8B904F11000F1
:104EF000FFF763FB80B14FF08050EE490860BFF3CD
:104F00004F8FBFF36F8F07E004F1100000F04AFEEF
:104F100004F1240000F046FE01F0B6FA012070BD55
:104F20002DE9F04106460D4617469846069C0DB9F8
:104F3000246000E02760E663256401212046FFF736
:104F4000ABFF84F850800020A064BDE8F0812DE91B
:104F5000F84305460E4690460DB1012000E00020C2
:104F600028B94FF4C472CAA1CEA003F0EBFE0EB96B
:104F7000002701E005FB06F707F1540001F0E7F810
:104F8000044644B104F1540943464A463146284692
:104F90000094FFF7C5FF2046BDE8F8832DE9F041F6
:104FA00004460F4615464FF00008A66B206C40B92A
:104FB000206860BB6068FFF75EFC80460020606090
:104FC00025E07DB93946226CA06803F0EBFA216C2C
:104FD000A0680844A060D4E90110884217D3206873
:104FE000A06014E03946226CE06803F0DBFA216C23
:104FF000E068401AE0602168E068884203D2216CD2
:105000006068401AE060022D01D106B1761E701C66
:10501000A0634046BDE8F0812DE9F3410D460098BC
:10502000846C00272CB940F6CE1299A19DA003F004
:1050300089FEA06BE16B884201D2012000E00020D4
:1050400028B940F6CF1292A196A003F07BFEA06B88
:10505000E16B88421BD294F945602A466946204696
:10506000FFF79CFF0746701C60B9606A08B9012011
:1050700000E0002050B904F12400FFF79EFA28B1A7
:10508000012703E0701C40B284F8450000BF384699
:10509000BDE8FC8170B5044601F0D3F994F94550A0
:1050A0001AE0A06C38B100212046FFF7B5FF88B1A7
:1050B000FFF757FB0EE0606A08B9012000E000200E
:1050C00038B904F12400FFF778FA18B1FFF749FB6B
:1050D00000E003E0681E45B2002DE2DC00BFFF20C7
:1050E00084F8450001F0D0F901F0ABF994F944508F
:1050F00010E0206908B9012000E0002048B904F15F
:105100001000FFF75AFA08B1FFF72BFB681E45B2F3
:1051100000E001E0002DECDC00BFFF2084F844003B
:1051200001F0B2F970BD70B5054601F08AF9A86BBF
:10513000E96B884201D1012400E0002401F0A4F9C8
:10514000204670BD2DE9FF4383B0064688461D46C4
:105150004FF0000934462CB940F2D9224CA151A09D
:1051600003F0F0FDB8F1000F01D1206C08B9012067
:1051700000E0002028B940F2DA2245A149A003F05E
:10518000E1FD022D02D1E06B012801D1012000E0F8
:10519000002028B940F2DB223DA142A003F0D2FD5D
:1051A000FFF70BFB08B9059808B9012000E00020C3
:1051B00028B940F2DE2236A13AA003F0C3FD00BFB9
:1051C00001F03FF9A06BE16B884201D3022D38D189
:1051D0002A4641462046FFF7E1FE0746A06C68B12B
:1051E00029462046FFF718FF28B34FF08050314979
:1051F0000860BFF34F8FBFF36F8F1CE0606A08B980
:10520000012000E0002068B904F12400FFF7D5F97F
:1052100088B14FF0805027490860BFF34F8FBFF32C
:105220006F8F08E03FB14FF0805022490860BFF314
:105230004F8FBFF36F8F01F027F9012007B0BDE852
:10524000F083059818B901F01FF90020F6E7B9F1CD
:10525000000F04D101A8FFF734FA4FF0010901F063
:1052600013F9FEF7ECFC01F0ECF894F94400401C53
:1052700010B9002084F8440094F94500401C10B98E
:10528000002084F8450001F0FFF805A901A813E00B
:105290002E2E5C4672656552544F535C7175657570
:1052A000652E63004572726F723A25732C25640D6A
:1052B0000A00000004ED00E0FFF715FAF8B92046F7
:1052C000FFF731FFA8B104F110000599FFF717F9B6
:1052D0002046FFF7DFFEFEF707FC00287FF470AFE3
:1052E0004FF08050FA490860BFF34F8FBFF36F8FC4
:1052F00066E72046FFF7CEFEFEF7F6FB60E72046A6
:10530000FFF7C8FEFEF7F0FB002097E710B5044654
:105310004CB1002060602060E06000231A4619460E
:105320002046FFF70FFF10BD2DE9F041044601268E
:105330000027224600210120FFF709FE05462846E6
:10534000FFF7E4FF2846BDE8F08170B50646344615
:105350003CB940F24122AFF2C801AFF2B80003F00D
:10536000F1FCFFF727FA616888420CD1E068401E23
:10537000E060E06828B900231A4619462046FFF786
:10538000E1FE012500E00025284670BD70B5054608
:1053900001F057F8A86B08B9012400E0002401F0DF
:1053A00073F8204670BD70B504460D46206C70B190
:1053B000216CE0680844E0606168E068884201D3DD
:1053C0002068E0602846226CE16803F0EBF870BDCD
:1053D0002DE9FF4782B005460E461F464FF0000AF2
:1053E0002C463CB940F2DC42AFF25C11AFF24C10FB
:1053F00003F0A8FC0EB9206C08B9012000E00020E1
:1054000038B940F2DD42AFF27811AFF2681003F024
:1054100099FCFFF7D2F908B9049808B9012000E017
:10542000002038B94FF49C62AFF29C11AFF28C109F
:1054300003F088FC00BF01F004F8D4F83890B9F10B
:10544000000F3DD0D4F80C8031462046FFF7ABFF6B
:10545000DFB9A9F10100A063206810B9FFF7EAFAEB
:105460006060206908B9012000E0002010BB04F151
:105470001000FFF7A2F8E8B14FF08050944908609F
:10548000BFF34F8FBFF36F8F14E0C4F80C80606AD6
:1054900008B9012000E0002060B904F12400FFF702
:1054A0008CF838B14FF0805089490860BFF34F8FB6
:1054B000BFF36F8F00F0E8FF012006B0BDE8F08772
:1054C000049818B900F0E0FF0020F6E7BAF1000FE9
:1054D00004D16846FFF7F5F84FF0010A00F0D4FF59
:1054E000FEF7ADFB00F0ADFF94F94400401C10B98D
:1054F000002084F8440094F94500401C10B90020B5
:1055000084F8450000F0C0FF04A96846FFF7EBF8F7
:1055100040BB2046FFF73AFFF0B1206830B900F0F9
:1055200090FF6068FFF755F900F0AEFF04F124002A
:105530000499FEF7E4FF2046FFF7ACFDFEF7D4FA2E
:1055400000287FF478AF4FF0805061490860BFF3C6
:105550004F8FBFF36F8F6EE72046FFF79BFDFEF77F
:10556000C3FA68E72046FFF795FDFEF7BDFA20462F
:10557000FFF70CFF0028EED000209EE72DE9F04158
:1055800006460F4634463CB94FF41E72AFF2003166
:10559000AFF2F02003F0D6FBFFF70CF96168884208
:1055A00004D1E068401CE06001250AE000233A468F
:1055B00019462046FFF70CFF054615B1E068401C70
:1055C000E0602846BDE8F08170B505460E460DB195
:1055D000012000E0002038B940F2BD22AFF2503186
:1055E000AFF2403003F0AEFBAE4201D8012000E044
:1055F000002038B940F2BE22AFF26C31AFF25C301D
:1056000003F0A0FB022200212846FFF7A0FC04467D
:1056100004B1A663204670BD2DE9F05F80468A463E
:1056200015461E4644463CB940F29F32AFF2A031C7
:10563000AFF2903003F086FBBAF1000F01D1206C7D
:1056400008B9012000E0002038B94FF46872AFF2C9
:10565000C031AFF2B03003F075FB022E02D1E06B27
:10566000012801D1012000E0002038B940F2A13228
:10567000AFF2E431AFF2D43003F064FB00F034FF5A
:1056800000BF5021EFF3118081F31188BFF34F8FDA
:10569000BFF36F8F00BF0746A06BE16B884201D359
:1056A000022E2ED194F945B0324651462046FFF7DE
:1056B00075FC0BF10100E0B9A06C58B131462046F1
:1056C000FFF7AAFCD0B1CDB10120286016E00000A0
:1056D00004ED00E0606A08B9012000E0002068B92C
:1056E00004F12400FEF769FF40B13DB101202860BC
:1056F00004E00BF1010040B284F845004FF00109CD
:1057000001E04FF0000900BF87F3118800BF484651
:10571000BDE8F09F2DE9F04707460D463C463CB9F1
:1057200040F23C42AFF29841AFF2884003F00AFBEE
:10573000206C08B9012000E0002038B94FF48862DD
:10574000AFF2B441AFF2A44003F0FCFA206808B90C
:10575000606808B9012000E0002038B940F24542F5
:10576000AFF2D441AFF2C44003F0ECFA00F0BCFE5B
:1057700000BF5021EFF3118081F31188BFF34F8FE9
:10578000BFF36F8F00BF0646D4F83890E06B4845F2
:1057900029D994F945A009F10100A0630AF101009B
:1057A000C8B9A06C40B100212046FFF735FCB8B164
:1057B000B5B10120286013E0606A08B9012000E05B
:1057C000002068B904F12400FEF7F7FE40B13DB1B6
:1057D0000120286004E00AF1010040B284F845008D
:1057E0004FF0010801E04FF0000800BF86F3118878
:1057F00000BF4046BDE8F0872DE9F05F06468946C8
:10580000174634463CB94FF4B462AFF27C51AFF264
:105810006C5003F097FAB9F1000F01D1206C08B970
:10582000012000E0002038B940F2A152AFF2A051AF
:10583000AFF2905003F086FA00F056FE00BF502100
:10584000EFF3118081F31188BFF34F8FBFF36F8F98
:1058500000BF0546D4F838A0BAF1000F22D094F961
:1058600044B049462046FFF79EFDAAF10100A0631F
:105870000BF1010070B9206908B9012000E0002097
:1058800068B904F11000FEF798FE40B13FB1012065
:10589000386004E00BF1010040B284F844004FF09E
:1058A000010801E04FF0000800BF85F3118800BF38
:1058B0004046BDE8F09F2DE9F0470646884634464D
:1058C0003CB940F2FC52AFF23861AFF2286003F00D
:1058D00039FAB8F1000F01D1206C08B9012000E0BD
:1058E000002038B940F2FD52AFF25C61AFF24C607B
:1058F00003F028FA206C08B1012000E0002038B93C
:1059000040F2FE52AFF27861AFF2686003F01AFA2B
:1059100000F0EAFD00BF5021EFF3118081F3118800
:10592000BFF34F8FBFF36F8F00BF0546A06B48B129
:10593000D4F80C9041462046FFF735FDC4F80C9092
:10594000012700E0002700BF85F3118800BF38461B
:10595000BDE8F08770B504463CB940F22F62AFF263
:10596000D061AFF2C06003F0EDF900F06AFDA56B05
:1059700000F08AFD284670BD70B5044625463DB945
:1059800040F24162AFF2F861AFF2E86003F0DAF999
:1059900000F057FDD5E90E10461A00F075FD3046AF
:1059A00070BD70B504463CB940F25162AFF220714F
:1059B000AFF2107003F0C6F9A56B284670BD014622
:1059C00000200EE0764A02EBC00252688A4207D1FC
:1059D0000022734B43F8302003EBC0035A6002E00F
:1059E000401C0828EED300BF704770B5044625461A
:1059F0003DB940F25D62AFF26871AFF2587003F0EA
:105A0000A1F92846FFF7DBFF284600F023FC70BD14
:105A10000146C86C7047C1647047014691F8500058
:105A2000704770B505463DB940F29372AFF2A07170
:105A3000AFF2907003F086F9A86B08B9012400E07A
:105A40000024204670BD70B504463CB940F2BA72DD
:105A5000AFF2C471AFF2B47003F074F9A06BE16BF4
:105A6000884201D1012500E00025284670BD02468C
:105A700000200BE04A4B53F8303033B9484B43F821
:105A8000301003EBC0035A6002E0401C0828F1D339
:105A900000BF70470246002000210AE0404B03EBA4
:105AA000C1035B68934203D13D4B53F8310002E0E0
:105AB000491C0829F2D300BF70472DE9F041054683
:105AC0000E4617462C4600F0BCFC94F94400401CDE
:105AD00010B9002084F8440094F94500401C10B926
